:100000007AC7000094C7000092C7000090C70000A4
:100010008EC700008CC700008AC7000088C7000098
:1000200086C7000084C7000082C7000080C70000A8
:100030007EC700007CC700000C942B1B78C7000013
:1000400076C7000074C7000072C7000070C70000C8
:100050006EC700006CC700006AC7000068C70000D8
:1000600066C7000064C700006E616E00696E6600BE
:1000700000407A10F35A00A0724E18090010A5D45F
:10008000E80000E87648170000E40B54020000CABC
:100090009A3B000000E1F505000080969800000002
:1000A00040420F000000A086010000001027000061
:1000B0000000E803000000006400000000000A00E7
:1000C000000000000100000000002C76D888DC67EA
:1000D0004F0823DFC1DFAE59E1B1B796E5E3E45342
:1000E000C63AE651997696E8E6C28426EB898C9B5F
:1000F00062ED407C6FFCEFBC9C9F40F2BAA56FA5FF
:10010000F490055A2AF75C936B6CF9676DC11BFC80
:10011000E0E40D47FEF520E6B500D0ED902E03009B
:10012000943577050080841E080000204E0A0000E8
:1001300000C80C333333330F986E12831141EF8DA7
:100140002114893BE65516CFFEE6DB18D1844B38E7
:100150001BF77C1D901DA4BBE424203284725E2218
:100160008100C9F124ECA1E53D274E414E494E499D
:100170005459494E46CDCCCC3D0AD7233C17B7D174
:100180003877CC2B329595E6241FB14F0A0000201A
:10019000410000C84200401C4620BCBE4CCA1B0E99
:1001A0005AAEC59D740D0A436F6E74656E742D54FE
:1001B0007970653A206170706C69636174696F6E03
:1001C0002F782D7777772D666F726D2D75726C6530
:1001D0006E636F6465640D0A0D0A00436F6E74658B
:1001E0006E742D4C656E6774683A20000D0A557365
:1001F00065722D4167656E743A20626F782F312EDB
:10020000310D0A4163636570743A202A2F2A0D0A62
:10021000000D0A0020485454502F312E310D0A4849
:100220006F73743A2000504F535420000D0A5573D9
:1002300065722D4167656E743A20626F782F312E9A
:10024000310D0A4163636570743A20746578742FC8
:1002500068746D6C0D0A0D0A0020485454502F31FB
:100260002E310D0A486F73743A2000474554200020
:100270000001080006040001450000820000400063
:1002800020223B3C2F5343524950543E003C4845AA
:1002900041443E3C534352495054206C616E677553
:1002A0006167653D224A61766153637269707422A9
:1002B0003E746F702E6C6F636174696F6E3D22685F
:1002C0007474703A2F2F0069700053617665007066
:1002D00069006970006F6E0054657374006C6F671D
:1002E00031006C6F6732006C6F6731005361766567
:1002F000004F6666004F6E0072656C0070610053BF
:100300006176650073656E003C48544D4C3E3C4838
:100310004541443E3C534352495054206C616E6702
:10032000756167653D224A617661536372697074D5
:10033000223E746F702E6C6F636174696F6E3D2224
:100340002F223B3C2F5343524950543E00657800C6
:100350003C48544D4C3E3C484541443E3C5343523E
:10036000495054206C616E67756167653D224A6132
:100370007661536372697074223E746F702E6C6F75
:10038000636174696F6E3D222F223B3C2F534352B1
:100390004950543E0072656200696E666F00646584
:1003A00076006D656E750066617669636F6E2E69A5
:1003B000636F006C6700474554202F00522A2A546F
:1003C00000534554520053455451004D494E490085
:1003D00053524348003D25730026253032582530BE
:1003E0003258253032582530325825303258253091
:1003F00032582530325825303258002530325825B1
:100400003032582530325825303258253032582570
:100410003032580049443D003C2F626F64793E3CC5
:100420002F68746D6C3E003A003A00206461797365
:100430002000557074696D653A20003C703E003AAA
:10044000003A00206461797320003C703E4C617377
:10045000742072656C6179206F6E3A20003C2F68C1
:10046000323E3C2F7072653E3C2F74643E3C2F74CC
:10047000723E3C2F7461626C653E3C62723E3C622F
:10048000723E3C6120687265663D2F6C673E4C6F22
:1004900067696E3C2F613E3C62723E000D0A003C73
:1004A0002F733E0020003C733E003C7469746C6501
:1004B0003E5765624D6574656F426F782D6D696E4C
:1004C000693C2F7469746C653E3C63656E7465723B
:1004D0003E3C68323E3C753E5765624D6574656FC3
:1004E000426F782D6D696E693C2F753E2026233949
:1004F0003733303B3C2F68323E3C7461626C652080
:10050000626F726465723D303E3C74723E3C74644E
:100510002076616C69676E3D746F703E3C707265E9
:100520003E3C68323E003C2F613E3C62723E002001
:100530007461726765743D72663E00267369643D3E
:10054000003C6120687265663D2F73656E3F6E7575
:100550006D3D003C68746D6C3E3C626F64793E3C5E
:1005600063656E7465723E53656E736F72733C2F74
:1005700063656E7465723E3C62723E0065783F0052
:1005800045786974007265623F005265626F6F74EE
:100590000072656C3F6E756D3D30260052656C6172
:1005A00079006C6F67323F004C6F6767657220326D
:1005B000006C6F67313F004C6F67676572203100D8
:1005C00070613F0050617373776F72640069703FB0
:1005D000005443502F4950003C2F613E3C62723E14
:1005E00000207461726765743D72663E00736964D1
:1005F0003D003C6120687265663D2F003E3C6272A2
:100600003E3C62723E3C696E707574207479706510
:100610003D7375626D69742076616C75653D5361DB
:100620007665206E616D653D73613E003E3C696E8E
:1006300070757420747970653D68696464656E20B6
:100640006E616D653D7369642076616C75653D0012
:100650003C696E70757420747970653D6869646476
:10066000656E206E616D653D6E756D2076616C7591
:10067000653D003C62723E43616C63756C617465FC
:10068000643C62723E003C62723E4F666673657403
:100690003C62723E006F66003C62723E437572724D
:1006A000656E742076616C75653C62723E00253221
:1006B0002E3266003E456E61626C652F446973613F
:1006C00062653C62723E53656E736F72206E616D3F
:1006D000653A3C62723E006E610020286D617820B0
:1006E0006C656E203134290020636865636B656436
:1006F000003C2F623E3C62723E3C696E7075742015
:10070000747970653D636865636B626F78206E61B4
:100710006D653D656E0025303258253032582530E4
:10072000325825303258253032582530325825304D
:100730003258253032580049443A203C623E003C51
:10074000666F726D206D6574686F643D6765743E99
:10075000003C534352495054206C616E6775616789
:10076000653D224A617661536372697074223E70FE
:100770006172656E742E6672616D65735B276C665F
:10078000275D2E6C6F636174696F6E2E72656C6F7E
:10079000616428293B3C2F5343524950543E003C4E
:1007A000626F64793E003E5265626F6F743C2F61E8
:1007B0003E003C63656E7465723E3C62723E3C6214
:1007C000723E3C6120687265663D2F7265623F79BA
:1007D0006573267369643D004368616E67656421D3
:1007E00000223E3C2F666F726D3E006E6577207072
:1007F000617373776F72643A3C666F726D3E3C69E9
:100800006E70757420747970653D74657874206EAF
:10081000616D653D6E6577206D61786C656E67749E
:10082000683D31343E3C62723E3C696E70757420A6
:10083000747970653D7375626D69742076616C754D
:10084000653D4368616E6765206E616D653D6368F7
:10085000613E3C696E70757420747970653D68699D
:100860006464656E206E616D653D736964207661B8
:100870006C75653D22003C63656E7465723E3C623A
:10088000723E50617373776F72643C666F726D3E37
:100890003C696E70757420747970653D7061737316
:1008A000776F7264206E616D653D70613E3C62726F
:1008B0003E3C696E70757420747970653D73756225
:1008C0006D69742076616C75653D4C6F67696E204B
:1008D0006E616D653D696E3E3C2F666F726D3E3C8C
:1008E0002F68746D6C3E003E3C2F666F726D3E3C0F
:1008F0002F68746D6C3E00222076616C75653D2218
:10090000536176652654657374223E3C696E70753A
:100910007420747970653D68696464656E206E61E9
:100920006D653D7369642076616C75653D003C2F93
:1009300053454C4543543E3C62723E3C62723E3CE1
:10094000696E70757420747970653D7375626D6938
:1009500074206E616D653D226C73003C2F6F707466
:10096000696F6E3E003E002073656C65637465645C
:10097000003C6F7074696F6E2076616C75653D0028
:100980003C62723E506174683C62723E00706174F9
:1009900068003C62723E696E74657276616C3C629E
:1009A000723E3C53454C454354206E616D653D732A
:1009B000703E003C62723E506F72743C62723E0048
:1009C000706F7274000000686F73740020286D618E
:1009D00078206C656E20323529003E456E61626C70
:1009E000652F44697361626C653C62723E486F7347
:1009F00074206E616D653C62723E002063686563C1
:100A00006B6564003C696E70757420747970653D27
:100A1000636865636B626F78206E616D653D656EBE
:100A2000003C666F726D206D6574686F643D67652C
:100A3000743E003C703E3C696E7075742074797031
:100A4000653D7375626D6974206E616D653D736E91
:100A5000642076616C75653D536176653E3C2F661A
:100A60006F726D3E003C703E4C6173742072656C19
:100A70006179206F6E207365633A20002564003C25
:100A8000703E7365636F6E64732070617373656429
:100A90003A20003E0D4175746F206F6666207365C5
:100AA000636F6E643A006D61780000252E30660039
:100AB0003E3C696E70757420747970653D68696438
:100AC00064656E206E616D653D7369642076616C4E
:100AD00075653D003C703E3C696E7075742074799C
:100AE00070653D68696464656E206E616D653D6E1C
:100AF000756D2076616C75653D004F4646004F4E22
:100B0000002020203C696E70757420747970653DFA
:100B10007375626D6974206E616D653D736E6420DE
:100B200076616C75653D4F6666207374796C653DC2
:100B30002277696474683A363570783B686569670E
:100B400068743A363570783B223E20003C696E70FE
:100B5000757420747970653D7375626D6974206E6B
:100B6000616D653D736E642076616C75653D4F6E99
:100B7000207374796C653D2277696474683A363500
:100B800070783B6865696768743A363570783B22DF
:100B90003E003C7072653E3C666F726D206D657400
:100BA000686F643D6765743E00223E3C696E7075F7
:100BB0007420747970653D7375626D6974206E611F
:100BC0006D653D6163742076616C75653D2253618E
:100BD00076652026205265626F6F74223E3C2F6638
:100BE0006F726D3E3C2F68746D6C3E003E4448430E
:100BF000503C62723E3C696E707574207479706509
:100C00003D68696464656E206E616D653D736964FD
:100C10002076616C75653D220020636865636B65B5
:100C200064003C62723E3C696E7075742074797029
:100C3000653D636865636B626F78206E616D653DCD
:100C4000646800006400000067003C62723E444E2D
:100C5000532020000073003C62723E475720202042
:100C600000006D003C62723E4D41534B2000253028
:100C700032783A253032783A253032783A25303297
:100C8000783A253032783A253032780049502020A1
:100C9000200069003C62723E4D41432020003C70C0
:100CA00072653E3C666F726D206D6574686F643D61
:100CB0006765743E0025642E25642E25642E256408
:100CC000003C2F6672616D657365743E3C2F6874DD
:100CD0006D6C3E00206E616D653D72663E003C2F7E
:100CE0006672616D657365743E3C6672616D652008
:100CF0007372633D2F72656C3F6E756D3D30267368
:100D000069643D00206E616D653D6C663E003C6629
:100D100072616D65207372633D2F6465763F736900
:100D2000643D00206E616D653D6D663E003C6672FF
:100D3000616D65207372633D2F6D656E753F7369DC
:100D4000643D003C68746D6C3E3C6672616D657319
:100D5000657420636F6C733D223137302C2A223E3C
:100D60003C6672616D6573657420726F77733D22A6
:100D70003236302C202A22207363726F6C6C696EBD
:100D8000673D226E6F223E002566006D6D002533A3
:100D90002E316600250025322E31660026646567F7
:100DA0003B430025322E326600223E002076616CE5
:100DB00075653D22003C696E7075742074797065AC
:100DC0003D74657874206E616D653D003C68746D9E
:100DD0006C3E3C686561643E3C6D6574612063688F
:100DE00061727365743D2277696E646F77732D311C
:100DF000323531222F3E3C2F686561643E3C626F84
:100E000064793E00485454502F312E302034303411
:100E1000204E6F7420466F756E640D0A436F6E74BA
:100E2000656E742D547970653A20746578742F68F6
:100E3000746D6C0D0A0D0A45727200485454502F9F
:100E4000312E3020323030204F4B0D0A436F6E74FC
:100E5000656E742D547970653A20746578742F68C6
:100E6000746D6C0D0A507261676D613A206E6F2D62
:100E700063616368650D0A0D0A003030004E6F2013
:100E80006E616D6500828282820000004F586D02A3
:100E900005C0A801DEFFFFFF00C0A80101C0A80136
:100EA000010000828282820000004F586D0205C05E
:100EB000A801DEFFFFFF00C0A80101C0A8010100DA
:100EC000002F7363726970742F6164642E70687090
:100ED000007765626D6574656F626F782E7275005C
:100EE0002F706F73742E706870006E61726F646D16
:100EF0006F6E2E72750011241FBECFEFD8E0DEBFDB
:100F0000CDBF11E0A0E0B1E0E4E2FBE702C0059054
:100F10000D92A43DB107D9F728E0A4EDB1E001C0DE
:100F20001D92A736B207E1F786D50C94903D68C8AC
:100F30008091E8018F5F8093E8010895DF92EF923E
:100F4000FF920F931F93CF93DF9300D000D000D078
:100F5000CDB7DEB77C01D62E86E0EAE1F1E0DE0116
:100F6000119601900D928A95E1F78E010F5F1F4F48
:100F700023E430E0A80164E470E0C7010E94CB13D1
:100F8000F701128E138E148E158E81E082A783A72F
:100F900096E094A715A686A7D7A6D0AAD1AAF296BE
:100FA000D701AA5BBF4F1192EA17FB07E1F7970140
:100FB000245B3F4FCD0180549109FC0180818D93CA
:100FC000A217B307B9F7C7018A5E9E4FF9011192C4
:100FD0009F01E817F907D1F783E68083F701E95EFF
:100FE000FE4F92E89083319693E59083319680830B
:100FF00026960FB6F894DEBF0FBECDBFDF91CF911E
:101000001F910F91FF90EF90DF900895CF93DF93A2
:10101000EC0194DFFE01E65EFE4F85E380833196AE
:1010200081E0808331968083319697E39083319677
:1010300092E0908331968083319683E0808331966D
:101040008FEF80833196108268EF70E0CE010E94AE
:10105000371480E0DF91CF9108956D3121E0720760
:1010600000F12AE131E0A9014E5F5F4F46175707B3
:10107000C0F4FC01E20FF31FA181AA2391F02A0F13
:10108000311DD90111966A177B0758F0E081E533CD
:1010900029F4FC01E40FF51F808108952E5F3F4F76
:1010A000E2CF80E00895FC016F3F710591F088F078
:1010B00082AD882379F082AD93ADA4ADB5AD8093B8
:1010C000E4019093E501A093E601B093E70181E08C
:1010D000089580E00895FC016F3F710569F060F0AC
:1010E00083A1833449F482A5823031F497A5941307
:1010F00003C081E020A9291380E00895FC016F3F1F
:10110000710529F020F081E096A5923009F080E089
:1011100008954F925F927F928F929F92AF92BF926B
:10112000CF92DF92EF92FF920F931F93CF93DF93B3
:101130008B016D31714008F4C8C0E091D401F09189
:10114000D5017090D70140E050E0BA01AAE14A2EE3
:101150005524539420EE31E0B4E0AB2EA20E28EDDE
:1011600031E0C4E0BC2EB20E2CED31E0D4E08D2E87
:10117000820E92012E5F3F4F2017310750F462011B
:10118000AFEFCA1ADA0AEC01CC0DDD1DD881D111FE
:1011900008C0F093D501E093D4017092D70181E0AB
:1011A00095C0ED2EF12CCE0CDF1C0C151D0588F31F
:1011B0006C01C40CD51CD601CC91C33019F128F4B4
:1011C000CC2369F0C13069F07AC0C53309F45AC044
:1011D000C63309F45CC0C33309F071C024C02801D0
:1011E0006EC0D43009F06BC06C01C20ED31E2CED62
:1011F00031E0D6019D906D01D9019D929D018A1229
:10120000F8CF5DC0D43009F05AC06C01C20ED31EB5
:1012100020EE31E0D6019D906D01D9019D929D0196
:10122000AA12F8CF4CC0D43009F041C020E030E021
:10123000762F652F542F4427F601E20FF31FE2812A
:101240004E2B2F5F3F4F2430310591F74F3FBFEFBB
:101250005B076B077B0771F126E0769567955795DD
:1012600047952A95D1F74E3FCFEF5C076105710591
:1012700020F5FA01453051056105710500F5E5E0FD
:10128000F0E01DC0EC01C20FD31F788018C0D4302D
:10129000B1F46C01C20ED31E28ED31E0D6019D9051
:1012A0006D01D9019D929D01BA12F8CF08C0E0EA04
:1012B000F5E005C0EFEFFFEF02C0EDEFFFEFB2E0AA
:1012C000EB0EF11C4E0C5F1C54CF80E0DF91CF91F0
:1012D0001F910F91FF90EF90DF90CF90BF90AF9054
:1012E0009F908F907F905F904F900895CF93DF9362
:1012F000EC0124DEFE01E65EFE4F85E3808331963D
:1013000081E08083319683E080838091D8018823B7
:10131000A9F086E33196808384E0319680838091C2
:10132000D8019091D901A091DA01B091DB013196F9
:1013300080839183A283B38369E001C063E08091DD
:10134000E4018823C9F0CE01860F911DFC01E65E01
:10135000FE4F22E32083319624E020833196809152
:10136000E4019091E501A091E601B091E70180834D
:101370009183A283B3836A5F70E0CE01860F971FCB
:10138000FC01E65EFE4F27E32083319622E02083B6
:10139000319621E02083319623E0208331962FEF90
:1013A0002083319610826B507F4FCE010E943714FC
:1013B00080E0DF91CF9108950F931F93CF93DF9338
:1013C000EC018A01BBDD82E08EA7F801808191816A
:1013D000A281B3818A8F9B8FAC8FBD8F80819181D9
:1013E000A281B3818EAB9FABA8AFB9AFFE01E65E21
:1013F000FE4F85E38083319681E08083319683E0E0
:10140000808363EF70E0CE010E94371480E0DF91AB
:10141000CF911F910F910895CF92DF92EF92FF929B
:101420000F931F93CF93DF931F92CDB7DEB78C013D
:101430007B01498308D5D82E4981882309F468C0E7
:10144000E114F104A9F5809100019091010182302D
:10145000910581F481E090E0909301018093000177
:101460001092E8014093D601E2D46091D601C80100
:10147000CDDD4DC0D090E401D11011C02091E80124
:10148000263068F08091D6018F5F8093D60110924C
:10149000E801CDD46091D601C801B8DD39C08330F0
:1014A0009105A8F1019790930101809300012FC04D
:1014B000C090D6014C2DB701C8010DDED82E88236F
:1014C00039F1B701C8011ADE813009F1B701C8014D
:1014D000C4DD823081F481E090E09093010180933B
:1014E0000001B701C801DFDDB701C80112DE6C2DB4
:1014F000C801FCDE0CC0853051F481E090E090938F
:1015000001018093000199D4DD24D39401C0D12C32
:101510008D2D0F90DF91CF911F910F91FF90EF9044
:10152000DF90CF9008950F931F93009769F000917B
:10153000E4011091E5012091E6013091E701FC0101
:1015400000831183228333836115710569F08091D3
:10155000DC019091DD01A091DE01B091DF01FB0182
:1015600080839183A283B3834115510569F08091F3
:10157000E0019091E101A091E201B091E301FA0153
:1015800080839183A283B3831F910F9108950F935A
:101590001F93CF93DF938C01EB018091E801893099
:1015A00088F01092E8018091D4019091D5019C01BE
:1015B000225031092D3F3F4F28F401979093D501D8
:1015C0008093D4012097C9F48091D4019091D501E2
:1015D000039738F538D4882321F16091D6016F5FE5
:1015E0006093D60144EE51E0C801E6DE85E090E06C
:1015F0009093D5018093D40114C04091D601BE01CF
:10160000C80169DD882381F0BE01C80126DD85306F
:1016100041F4BE01C80172DD882319F0BE01C80182
:1016200078DD80E090E001C0CE01DF91CF911F9185
:101630000F91089599B121E030E002C0220F331FCD
:101640008A95E2F7892F90E02823392381E012164A
:1016500013060CF080E008950F931F93CF93DF9350
:10166000182F0FB7F8949AB1C1E0D0E001C0CC0FA9
:101670008A95EAF79C2B9AB92BB1DC2FD0952D23B4
:101680002BB981E090E00E94DB318BB1C82BCBB944
:101690008AE68A95F1F700C09AB19D239AB98AE645
:1016A0008A95F1F700C0812FC5DF0FBFDF91CF9181
:1016B0001F910F910895AF92BF92DF92EF92FF9228
:1016C0000F931F93CF93DF93082FDFB6F894C7E0F3
:1016D000D0E010E0AA24A394B12C92E1E92E97E285
:1016E000F92E802FA7DF811106C0A89521E0E21A0C
:1016F000F108B9F71EC080E58A95F1F7802F9ADFCF
:10170000813039F4C5010C2E01C0880F0A94EAF724
:10171000182B82E1E82E87E2F82E802F8BDF8130B4
:1017200031F4A89581E0E81AF108B9F702C02197D1
:10173000A0F6DFBE812FDF91CF911F910F91FF9017
:10174000EF90DF90BF90AF900895EF92FF920F93CC
:101750001F93CF93DF9300D000D01F92CDB7DEB799
:10176000F82E10920201F89477DF80930201813005
:1017700009F451C085E88A95F1F7000008E410E00B
:101780008F2D58DF811108C00150110929F0E2E0C6
:10179000EA95F1F700C0F4CF8F2D4CDF811102C024
:1017A00082E01DC0F5EDFA95F1F700008E010F5FA4
:1017B0001F4F75E0E72EE00E8F2D7DDFF80181933E
:1017C0008F01EE12F9CF89814A812B813C81942FC0
:1017D000980F920F930F5D81591721F087E3809343
:1017E000020119C090E0982F8827840F911D9093D3
:1017F000EA018093E901822F8F7790E0982F882764
:10180000830F911D27FF03C09195819591099093B6
:10181000EC018093EB0178940F900F900F900F9054
:101820000F90DF91CF911F910F91FF90EF9008954E
:101830008091F2010895EEEEF1E024E02E0F319157
:10184000DC013D93CD012E13FACF0895EF92FF9264
:101850000F931F93CF93DF93EC01F62EE72E8A01AF
:101860001092F201F0D2811105C084E08093ED0165
:1018700081E067C01092ED018091F3018F5F80934A
:10188000F30190E0BC01706E25E330E040E658E0E3
:10189000CE0181D78091F3018BA781E08CA7FE0157
:1018A000BD96CE01C6961192E817F907E1F781E0DF
:1018B0008FA7EF2DFE2D9CE04DE04F19642F6E0F8A
:1018C0005081262F30E0552391F05E3241F4DE0145
:1018D000A90FB11D81509A968C93962F80E051915B
:1018E000DE01A20FB31F9A965C938F5FE7CFFE01D4
:1018F000E90FF11D815082A7FE01E20FF31F12A62E
:1019000081E0860FFE01E80FF11D12A682E0860F2E
:10191000FE01E80FF11D81E082A793E0960FFE0122
:10192000E90FF11D12A694E0960FFE01E90FF11DDB
:1019300082A789EF860F8AA76B5F70E0CE0197D7E9
:1019400080E0DF91CF911F910F91FF90EF9008956C
:10195000CF93DF93FC016634710508F468C083A15E
:10196000853309F064C084A1803E09F060C085A180
:101970009091F30189135BC093A5981358C085A576
:101980008F78803811F081E038C022A5245F615340
:101990007109DF01A20FB11D9A968C91807C11F024
:1019A0002E5F0EC0822F90E08617970748F42F5FB6
:1019B000DF01A20FB11D9A968C918111F3CF2F5F99
:1019C000DF01A20FB11D9B968C919B97813081F016
:1019D00088E0820FDF01A80FB11D9B968C91265FD6
:1019E000280F822F90E08617970798F283E005C0B2
:1019F000D3969C91943021F082E08093ED0117C042
:101A0000265FCEEED1E040E050E030E0DA01A20FF8
:101A1000B31FAE0FBF1F9A969C9199934F5F5F4F74
:101A20004430510599F791E09093F20101C080E0B4
:101A3000DF91CF9108951092400210923F02F894E6
:101A40009FE088E10FB6F894A895809360000FBEE0
:101A5000909360000E94A830189903C080E00E9413
:101A6000CA308AEF90E00E94DB31A8950E94B23123
:101A7000109298031092C6031092F403109222045D
:101A8000109250044FE050E060E570E086EF94E083
:101A90000E94403D2091530430915404A4E6B0E0EC
:101AA0000E94CD386093110170931201809313014D
:101AB000909314012091A0043091A1040E94CD388C
:101AC00060930D0170930E0180930F0190931001AC
:101AD00080E40E94051980E80E94051943E555E05D
:101AE00066E080E40E94841A43E555E067E080E800
:101AF0000E94841A8FEE92E00E94DB310E948F30A8
:101B00007894809164088F3F91F58EE498E01DD31E
:101B100063E575E08EEE92E0D8D1109241084091D5
:101B20005308BC0183E595E077DCC82F81E00E9473
:101B30006D1ACC2369F34CE558E068E578E084E55C
:101B400098E0F1DC80915C0890915D08A0915E08BE
:101B5000B0915F088093600890936108A093620839
:101B6000B093630868E578E084E598E0F9D264E52D
:101B700078E08EE498E0A3D580E590E0B1D563D11C
:101B8000811102C00E948F30A8950E9499270E945F
:101B9000821DF5CF2A98962F9F71892B8EBD0DB48B
:101BA00007FEFDCF1EBC0DB407FEFDCF67FD03C0D1
:101BB0002A9A8EB508951EBC0DB407FEFDCFF8CF4E
:101BC0002A986F71862B8EBD0DB407FEFDCF4EBDDA
:101BD0000DB407FEFDCF2A9A0895FB012A982AE347
:101BE0002EBD0DB407FEFDCF8E0F9F1FE817F9071E
:101BF00039F01EBC0DB407FEFDCF2EB52193F6CFF4
:101C000010822A9A08952A982AE72EBD0DB407FE5D
:101C1000FDCF860F971F6817790741F0FB012191CF
:101C2000BF012EBD0DB407FEFDCFF5CF2A9A089552
:101C30001F93CF93DF93182F1076C12FD0E0209100
:101C4000F60130E0C217D30779F043E06FE180EA94
:101C5000B7DFAE0185E0559547958A95E1F76FE1CD
:101C600080E8AEDF1093F601DF91CF911F910895C8
:101C7000CF93DF931F92CDB7DEB7682F6983D8DF8C
:101C8000698180E00F90DF91CF9184CF1F93CF9334
:101C9000DF931F92CDB7DEB7182F6983C9DF498163
:101CA000612F80E40F90DF91CF911F9189CFCF9367
:101CB000682F84EDEBDF61E082EDE8DF8AEED8DFAC
:101CC00080FDFCCF60E082EDE1DF89EDD1DFC82F40
:101CD00088EDCEDF2C2F30E0322F2227A901482BB0
:101CE000CA01CF9108951F93CF93DF931F92CDB771
:101CF000DEB7162F682F84ED7983C8DF612F86ED5C
:101D0000C5DF7981672F87EDC1DF18E28AEEB0DF8A
:101D100080FF04C0812F8A95F1F7F8CF0F90DF91F3
:101D2000CF911F910895CF93DF93EC01229A2A9AC5
:101D300084B1886284B924982B982D9880E58CBD55
:101D40008DB581608DBD4FEF60E08FEF39DF80E0B2
:101D500090E00197F1F71092F5011092F40160E024
:101D600088E094DF60E089E091DF60E08CE08EDF66
:101D700060E08DE08BDF6FEF8AE088DF69E18BE068
:101D800085DF60E084E082DF6AE185E07FDF6FEF7E
:101D900086E07CDF6FE187E079DF60EB88E376DF68
:101DA0006FE388E273DF60E389E270DF69EF80E36D
:101DB0006DDF67EF81E36ADF6DE080EC67DF60E095
:101DC00081EC64DF42E362EC80E8FADE62E186ECFB
:101DD0005DDF6CE087EC5ADF62E184EC57DF6CED8D
:101DE0008AEC54DF65E08BEC51DF688184EE4EDFD6
:101DF000698185EE4BDF6A8182EE48DF6B8183EE7D
:101E000045DF6C8180EE42DF6D8181EE3FDF60E077
:101E100071E080E168DF8FE10BDF40EC6BE180E88F
:101E2000CFDE44E06FE180E8DF91CF91C9CE88E357
:101E30001FDF682F616088E329CF88E319DF682FEF
:101E40006E7F88E323CF81E132DF92FB882780F920
:101E500008950F931F93CF93DF93EC018B016FE1F4
:101E600080E098DE83FDFBCF8CE102DF81FF10C0B4
:101E700040E86FE180E8A4DE40E86FE180EAA0DEA0
:101E800042E06CE180EA9CDE80E395E70197F1F7A0
:101E900060E082E0FBDE6AE183E0F8DE6C2F86E042
:101EA000F5DECE01965E692F87E0F0DE40E060E06F
:101EB0008AE786DEB801CE01A6DE48E06FE180E861
:101EC000DF91CF911F910F917BCE9F92AF92BF92E6
:101ED000CF92DF92EF92FF920F931F93CF93DF93F6
:101EE0006C017B0189E3C4DE882309F44EC0609154
:101EF000F401C091F50180E0C9DE6C2F81E0C6DEFF
:101F000060E08AE347DE082F60E08AE343DE10E00A
:101F1000182B1093F5010093F40160E08AE33ADE98
:101F2000C82F60E08AE336DE982E60E08AE332DE76
:101F3000A82E60E08AE32EDEA7FE0EC09601215097
:101F40003109D0E0D92924972C173D0708F4E9017D
:101F5000B701CE0142DE02C0C0E0D0E06FEF013039
:101F60008AE1180724F08CE091DE69E106C0600F79
:101F70008CE08CDE01501109612F8DE087DE40E49A
:101F80006EE180E81DDECE0102C080E090E0DF91CE
:101F9000CF911F910F91FF90EF90DF90CF90BF9066
:101FA000AF909F900895CF92DF92EF92FF920F93A0
:101FB0001F93CF93DF937A01690190910F028917E4
:101FC00059F0E0910C02F0910D0240E050E060E029
:101FD00070E084EF91E03EC061113DC02D303105CD
:101FE000D0F100910C0210910D020115110599F12B
:101FF000C0910002D0910102C40FD51F888590E0E6
:102000000E94153A892B09F1A985B0E0D097AA3032
:10201000B105D8F48B8590E0C0978A309105A8F47B
:102020006AE06A9FA0016B9F500D11243A85232F0F
:1020300030E020533109240F351F629FA001639FB8
:10204000500D1124840F951F02C080E090E0A6017E
:10205000B701F801099580E0DF91CF911F910F91B1
:10206000FF90EF90DF90CF900895CF92DF92EF92A4
:10207000FF920F931F93CF93DF937C01FB014130BD
:1020800051F4AB014850510960E070E04F5E5F4F82
:102090006F4F7F4F0FC0423051F4AB014850510990
:1020A00060E070E04A5F5F4F6F4F7F4F03C040E0DA
:1020B00050E0BA01D70111966F0182E0C816D10431
:1020C000B0F0CD010197EC01088110E020E030E094
:1020D000322F212F102F00278C91082B400F511FDA
:1020E000621F731FD2E0CD1AD1081296E6CFCF013E
:1020F0008E7FD701A80FB91FE0FF0CC08C9190E034
:10210000A0E0B0E0BA2FA92F982F8827480F591FB9
:102110006A1F7B1F8B01222733270115110521051B
:10212000310539F066277727400F511F621F731F53
:10213000F1CFCA0180959095DF91CF911F910F91BA
:10214000FF90EF90DF90CF900895FC01892B39F03C
:1021500096E0A8E2B2E001900D929A95E1F7089519
:10216000009721F46115710559F40895FC01A4E26A
:10217000B2E084E08A0F91919D938A13FCCFF2CF55
:10218000FB01A4E0B1E084E08A0F91919D938A1352
:10219000FCCF0895DC015A96FB014E963D912191AA
:1021A000321305C0A817B907C9F781E0089580E088
:1021B000089569327105A0F0FC012485283081F46E
:1021C0002585263069F4B696A4E2B2E084E08A0F51
:1021D00021919D91291304C08A13FACF81E00895BB
:1021E00080E00895FC016A327105B0F08485883082
:1021F00099F48585811110C09685953471F47E9689
:10220000A4E2B2E094E09A0F31912D91321305C00F
:102210009A13FACF81E0089580E00895CF93DF9379
:10222000A8E2B2E09C012A5F3F4FF9014081EC0136
:102230004993CE014D914193C217D307B9F7DF916E
:10224000CF910895CF93DF93EC01188E198E80E41F
:102250008C8B1D8A8E8B40E064E170E0CE010E967F
:1022600004DF988F898FDF91CF910895CF93DF930B
:10227000EC016E96DC015A96E4E2F2E024E02E0FC7
:102280003C91399331913D932E13FACFDF91CF9149
:10229000D9CF9C01265D3F4FFC01BE96D9018E919E
:1022A000680F711D82916083442311F08C9301C0EB
:1022B0001C92672F7727E217F30789F70895CF93CA
:1022C000DF93EC018CA19AA19CA38AA38DA19BA171
:1022D0009DA38BA3CE01DDDF1AAA1BAA80E58EA7E2
:1022E000DF91CF910895CF93DF93EC0197DF1C8AA4
:1022F00082E08D8BCE018096DE01569648E252E058
:1023000026E0240F3C91FC013193CF01FA01319179
:10231000AF013D932E13F6CFCE018696DE015C967B
:1023200044E252E024E0240F3C91FC013193CF01C0
:10233000FA013191AF013D932E13F6CFBE018AE22F
:1023400090E0DF91CF9185CD0F931F93CF93DF93D3
:10235000EC018B0163DFCE0189DF1AA29CA1983FBB
:1023600018F02DA12F5F2DA3985F9CA3BE01C8017B
:10237000DF91CF911F910F916CCDFC01208930E04E
:10238000322F22278189282B2451310986A5829555
:102390008F70A90164E0869F401951091124CA0178
:1023A00057FF02C080E090E008959C01CB01FC0142
:1023B000E61BF70BE40FF51FE491EE2339F0D9018A
:1023C000A80FB91FD696EC930196F1CF0895DB01C3
:1023D000D696A80FB91FFA01420F4E1719F0819136
:1023E0008D93FBCFCB01820F911D0895FA010190CF
:1023F0000020E9F731979F01241B350BE8CFEF92BE
:10240000FF920F931F93CF93DF9300D000D01F92C2
:10241000CDB7DEB790910F02891392C080910E0262
:102420000091000210910102811126C04BE652E09A
:1024300060E070E0C801B9DF4091060250910702E8
:10244000BC01C801B2DF4091040250910502BC01F9
:10245000C801CCDF49E552E0BC01C801A6DF4091CC
:10246000020250910302BC01C8019FDF4CE252E01E
:10247000BC01C8019ADF66C046E252E060E070E04D
:10248000C80193DF4091060250910702BC01C801C8
:10249000ADDF4091040250910502BC01C801A6DFE6
:1024A00044E152E0BC01C80180DF4091020250913A
:1024B0000302BC01C8019ADFE0900A02F0900B020F
:1024C000E114F10449F041E152E0BC01C8016DDFC3
:1024D000A701BC01C80169DF4CEE51E0BC01C80195
:1024E00064DF4BED51E0BC01C8015FDF7C01A091CE
:1024F0000802B0910902FD0101900020E9F731972F
:102500004AE0BE016F5F7F4FCF018A1B9B0B0E9489
:10251000973A0091000210910102AE014F5F5F4FA8
:10252000B701C80163DF45EA51E0BC01C8013DDFE6
:102530004091080250910902BC01C80157DF02C056
:1025400080E090E00F900F900F900F900F90DF9130
:10255000CF911F910F91FF90EF9008950F931F93CC
:10256000CF93DF9300D01F92CDB7DEB78C014B83A2
:1025700069837A8353DE4B81842F8061F80187A7BA
:1025800069817A81443029F06115710511F461E0A7
:1025900070E041E0C80193DEF801108A88E2818B87
:1025A000C80164DE84E0F80180AB11AA42E06CE16E
:1025B00070E0C8014A9659DDF80192AB83ABB801CF
:1025C00086E390E00F900F900F90DF91CF911F91D5
:1025D0000F913FCC0F931F93CF93DF93EC018B01AF
:1025E000CB018896988B898BCE012CDE1AAA1BAA68
:1025F000B801645E7F4F42E0CE014A9636DD9AAB69
:102600008BABBE01C801C696DF91CF911F910F9190
:1026100020CCCF92DF92EF92FF920F931F93CF9334
:10262000DF9300D0CDB7DEB76C01F42EE52E6983C1
:102630007A83F4DD6981062F7A81172F0D3D11050C
:1026400010F00CED10E0F601108AC8014C96818B59
:10265000C6010CDEF60182A184A383A185A3E2A2B8
:10266000F3A216A2C801089687A310A611A6B80166
:10267000605F7F4F41E0C6014A96F7DCF60190A704
:1026800081A7B601C8018A960F900F90DF91CF9174
:102690001F910F91FF90EF90DF90CF90DACBFB016D
:1026A000BC01665D7F4FDB015A2F561B541718F48F
:1026B00051915D93F9CF642F70E0A901AACF611504
:1026C000710519F4009759F40895FB01A4E2B2E0F2
:1026D00024E02A0F31913D932A13FCCFF3CF35CD5F
:1026E0009093F901809308010895CF93DF93EC0153
:1026F00095DD188A8CE2898BCE01B8DD82E18FA747
:1027000040E061E070E0CE01DADD1EA21FA2809100
:102710000C0188A719A68D5F80930C0182E08EAB17
:1027200084E08FAB85E088AF19AE80E68EA78AE0A3
:1027300088AB19AA42E060E270E0CE014A9695DCCF
:102740009AAB8BABBE018AE390E0DF91CF9181CB56
:102750000F931F93CF93DF93EC018B016091F701EF
:102760007091F80140E0FADE89E18FA7B801CE014F
:10277000DF91CF911F910F912DCF640F751F4617D9
:10278000570741F0FA012491FC012193CF014F5FDB
:102790005F4FF5CF0895AF92BF92CF92DF92EF9245
:1027A000FF920F931F93CF93DF9300D0CDB7DEB787
:1027B0005C01F62EE72E6A01B5016A5F7F4FE8E201
:1027C000F2E046E04E0FD8015D918D01DC015D9392
:1027D000CD015191DB015D93BD014E13F4CF88E033
:1027E000F5018487158648E752E069E070E0C5018D
:1027F0000E9629833A83C1DF80910301D501539658
:102800008C9353978F5F8093030150961C9250973F
:1028100081E157968C938601C5014E96E4E2F2E081
:1028200044E04E0F3A812981D8015D918D01DC0190
:102830005D93CD015191BD0165507109DB015C9340
:102840004E13F2CFF50134A325A3E2A2F3A216A200
:1028500010A611A60F900F90DF91CF911F910F91AD
:10286000FF90EF90DF90CF90BF90AF9008950F93BF
:102870001F93CF93DF93EC018B01CB014C96898B97
:10288000988BCE01DFDCC80108968FA39EA3B80108
:10289000605F7F4F41E0CE014A96E7DB89A798A7AA
:1028A000BE01C8018A96DF91CF911F910F91D1CAC5
:1028B000EF92FF920F931F93CF93DF932091240207
:1028C000222309F44CC0EC0128E2E22E22E0F22E91
:1028D000DC011696F7014FEF26E02E0D499331915A
:1028E0003D932E13FBCF8B01EC0188E08C8786E0B3
:1028F0008D8740E752E068E070E0CE010E963DDF44
:10290000AE01405E5F4FDE019696F70121917F0197
:10291000CA010A97FC012083FA011192AF01EA175C
:10292000FB0799F7C80164E272E024E0260FFC017E
:102930003191CF013D93FB013191BF01AD014B506E
:102940005109FA0130832613F2CFBE018AE290E0EA
:10295000DF91CF911F910F91FF90EF907ACADF9195
:10296000CF911F910F91FF90EF90089581E090918A
:10297000FB01923009F480E008955093ED044093F8
:10298000EC0421E02093FB016093FA01ECEFF1E00D
:1029900024E02E0FDC013D91CD0131932E13FACFAF
:1029A0000895FF920F931F93CF93DF93EC01162F9F
:1029B000042FF52E9C0188E292E0BE016A5F7F4FF2
:1029C000E7E1F2E046E04E0F5191D9015D939D01A0
:1029D000DC015D91CD01DB015D93BD014E13F4CFB0
:1029E00088E08C871D8648E752E069E070E0CE0100
:1029F0000E96C3DE8CE2898B809103018B8B8F5FF7
:102A00008093030186E08F8BDE015E9684E292E084
:102A10006DE172E024E0260FFB013191BF013D938F
:102A2000FC013191CF01AD0145505109FA013083CC
:102A30002613F2CFCE0106DCFCA20DA38BE08AA305
:102A40001BA3FE01B696CE018E961192E817F907E8
:102A5000E1F780910C0188A78D5F80930C0180E6DF
:102A60008EA782E08FA793E098AB19AA1AAA1BAA97
:102A70001CAA1DAA8EAB94E09FAB88AF8EEE89AFE7
:102A800042E060E270E0CE014A96EFDA9AAB8BAB9F
:102A9000BE018AE390E0DF91CF911F910F91FF90EB
:102AA000D8C90F931F9390931302809312027093CF
:102AB000110260931002D901EDE1F2E084E08E0F83
:102AC0009D9191938E13FCCFD801E7E1F2E086E06F
:102AD0008E0F9D9191938E13FCCF509315024093CE
:102AE000140281E080931602809121028F5F88306A
:102AF00018F48093210202C01092210280912102D9
:102B00001F910F9108952F923F924F925F926F9273
:102B10007F928F929F92AF92BF92CF92DF92EF926D
:102B2000FF920F931F93CF93DF9300D0CDB7DEB703
:102B30003C011B012A0129833A8385D929813A81E5
:102B4000882329F1709207026092060250920302D4
:102B500040920202309205022092040230930B024E
:102B600020930A02109309020093080281E08093E7
:102B70000E02F0920D02E0920C0285019601A40172
:102B80006FEF71E183ED9FE08CDF80930F020F9078
:102B90000F90DF91CF911F910F91FF90EF90DF90F9
:102BA000CF90BF90AF909F908F907F906F905F90ED
:102BB0004F903F902F900895AF92BF92DF92EF9287
:102BC000FF920F931F93CF93DF931F92CDB7DEB782
:102BD0005C017B016115710509F04EC08091FB011C
:102BE000893069F48091090190910A01892B39F4A7
:102BF0002AD9882321F06CEF71E0C50159DE80915C
:102C0000FB01813081F41FD9882369F06CEF71E0FA
:102C1000C5014EDE8091FB0188608093FB0110921C
:102C20000A01109209018091090190910A0101960F
:102C300090930A018093090180911602813009F076
:102C400066C101D9882309F462C182E0809316022B
:102C500060910B016F5F60930B01409114025091E2
:102C600015026F718091210220E2829FC001112420
:102C7000682BC50196DE4BC19CDA882351F1D50142
:102C800055968C91813011F4C5012DDB8091FB01AB
:102C900083FF3DC1F5011589123009F038C144E0C8
:102CA00050E06CEF71E0C5014C960E94453A892BCB
:102CB00009F02DC1A5014A5E5F4FE091EC04F0914F
:102CC000ED046091FA018CEF91E009951093FB01FE
:102CD0001EC1B701C50186DA882309F418C1D501E0
:102CE00057968C915797813091F492968C918830B9
:102CF00009F00DC1E0912202F0912302309719F002
:102D0000C5014A960995B701C5011EDB00C1B6E3AE
:102D1000EB16F10408F4FBC0863009F0F8C0F501A9
:102D200084A18B3009F0C1C0B0920102A0920002D0
:102D30006DE172E0C5012EDA882309F4E8C0D501FF
:102D40009F962C919F9722FF13C0E0911202F09161
:102D50001302309759F095968C9120E030E040E0D6
:102D600050E063E0829586958770099586E092C071
:102D7000C501298302DB8C018091160229818230F2
:102D800089F5822F807122712231F9F440E060E0F0
:102D900070E0C501E3DB88E1F50187A7E09110024F
:102DA000F0911102309741F0D50193968C91829564
:102DB00086958770099502C080E090E023E020931B
:102DC0001602BC01C50106DCA2C091E09093160278
:102DD000811104C0B8016F5F7F4F02C060E070E0F6
:102DE00044E060C08330A9F50115110591F184E03C
:102DF00080931602E0911202F0911302309749F18C
:102E0000D5019E964C9142954F70B4E04B9FA00126
:102E10001124C70108974E5D5F4F8417950708F48A
:102E2000AC01C801840F951FE816F90620F497013C
:102E3000241B350B01C09801D50195968C9160E05B
:102E40008295869587700995882319F049E0B80125
:102E50001EC090911602F50187A5953019F484FDE6
:102E600085CF55C0963069F484FD04C0B8016F5F0A
:102E70007F4F02C060E070E044E0C5016FDB87E097
:102E800009C080FF0AC0B8016F5F7F4F41E0C501F4
:102E900065DB85E0809316023AC001151105B9F192
:102EA00040E0B801C5015ADB32C09091F9018913A5
:102EB0002EC095A180910801981329C0D7A4D1FEF6
:102EC00003C0C50112DC23C0D4FE21C0C50155DA00
:102ED0008C019093F8018093F701892B41F4D0FE87
:102EE00016C040E060E070E0C50138DB12C0F501BB
:102EF00006A502950F70F4E00F9F800111240E5D6E
:102F00001F4F28E0E21AF108E016F10610F400E085
:102F100010E0C8010F90DF91CF911F910F91FF90AA
:102F2000EF90DF90BF90AF90089598E028E1362FA2
:102F3000382730FD02C0669503C062276695606839
:102F400086959150A1F7862F0895EF92FF920F93E7
:102F50001F93CF93DF93EC017C0187E0E80EF11C17
:102F60008E0160E0F80181918F01DFDF682F0E157F
:102F70001F05C1F781E09F81691301C080E0DF91E7
:102F8000CF911F910F91FF90EF900895EF92FF92D4
:102F90000F931F93CF93DF93EC017C0188E0E80E41
:102FA000F11C8E0160E0F80181918F01BEDF682F76
:102FB0000E151F05C1F781E09885691301C080E0F7
:102FC000DF91CF911F910F91FF90EF9008951F9384
:102FD000CF93DF93D82F162FC8E0812FD0FF02C0E8
:102FE00022D101C039D1D695C150B9F7DF91CF9127
:102FF0001F9108951F93CF93DF93182FD8E0C0E05F
:10300000C695812F42D18111C068D150C9F78C2F4C
:10301000DF91CF911F910895682F8CECD8CFCF927C
:10302000DF92EF92FF921F93CF93DF931F92CDB762
:10303000DEB7F82E162F85E59983C9DFCF2C99814D
:10304000D92E760188E0E80EF11C612FF6018191FE
:103050006F01BDDF81E090E00E94DB31CE14DF0420
:10306000A1F70F90DF91CF911F91FF90EF90DF902C
:10307000CF900895CF92DF92EF92FF920F931F931C
:10308000CF93DF938C01D62EE42E642F80EF9FDF49
:10309000C1E0F12CD1E08E2DF8D0C82E8E2DF5D0C8
:1030A000CC2039F0811131C0F80180818C2B8083D4
:1030B00019C0F8019081882321F08C2F80959823E6
:1030C00003C0DD1104C09C2BF80190830BC0DD16FA
:1030D00030F48C2F80959823F801908302C09C23B4
:1030E00009F4FD2EF80180818C2319F08E2D9BD0E0
:1030F00002C08E2DB1D0DF5FCC0F19F40F5F1F4FD0
:10310000C1E0D13441F68F2D01C08FEFDF91CF9117
:103110001F910F91FF90EF90DF90CF9008956F92E5
:103120007F928F929F92AF92BF92CF92DF92EF9257
:10313000FF920F931F93CF93DF931F92CDB7DEB70C
:103140005C01062F942E69013C0184E0680E711C1D
:10315000930180E0801761F0A901485F5F4FF9019A
:103160001192E417F507E1F78F5F225D3F4FF2CF31
:103170007301F30110E060E088E0882E1017F9F089
:10318000A895D701882D01900D928A95E1F7892D98
:1031900069839BD06981882329F1492DC7016ADFA2
:1031A000682F1F5FD5019EE2199FA00DB11D11244C
:1031B0001496F701882311F07D01E0CF012F10E074
:1031C000101771F0A895C301C0DEEEE26E0E711CFF
:1031D00081110AC0F60180818F5F80831F5FF0CF6D
:1031E00080E003C08FEF01C081E00F90DF91CF91AD
:1031F0001F910F91FF90EF90DF90CF90BF90AF9015
:103200009F908F907F906F9008959AB180959823AA
:103210009AB99BB189238BB98BEB93E00197F1F7B6
:1032200000C0000008952FB7F8949AB1982B9AB96E
:103230009BB1809598239BB99AE09A95F1F700C0CD
:103240009AB198239AB99BB189238BB985EA8A955B
:10325000F1F700002FBF08952FB7F8949AB1982B7B
:103260009AB99BB1809598239BB99AE99A95F1F701
:1032700000C09AB198239AB99BB189238BB985E193
:103280008A95F1F700002FBF08953FB7F8949AB1DF
:10329000982B9AB99BB1282F209592239BB99AE03D
:1032A0009A95F1F700C09AB192239AB99BB19223F3
:1032B0009BB922E12A95F1F700C099B12DE82A9532
:1032C000F1F700003FBF892308953FB7F8949AB102
:1032D000982B9AB99BB1282F209592239BB9EBEBA1
:1032E000F3E03197F1F700C000009AB192239AB948
:1032F0009BB192239BB9F5EBFA95F1F7000099B1D8
:10330000EFE2F3E03197F1F700C000003FBF909586
:1033100089230895883C910529F4809131028F5FBB
:103320008093310280913E02823019F483E08093D1
:103330003E020895613049F4DA01E8E3F2E086E004
:103340008E0F9D9191938E13FCCF0895CF92DF92B3
:10335000EF92FF920F931F93CF93DF9300D000D093
:103360001F92CDB7DEB78C01FC0110821182128250
:1033700013827B0120E090E0F70181917F01882397
:1033800061F12430D8F5933090F4482F50E0405349
:1033900051094A30510548F4E1E0F0E0EC0FFD1F1F
:1033A000E90FF11D80839F5F02C0992329F38E32BC
:1033B00019F7E1E0F0E0EC0FFD1FE90FF11D1082BD
:1033C0006801C20ED11CCE0101962D830E942039C6
:1033D000F60180832D812F5FCECF233079F4E1E099
:1033E000F0E0EC0FFD1FE90FF11D1082CE010196F8
:1033F0000E942039F801838380E001C081E00F90B2
:103400000F900F900F900F90DF91CF911F910F9120
:10341000FF90EF90DF90CF90089581E04D9B80E08A
:103420000895813011F45D9A08955D98089596B1DC
:1034300021E030E002C0220F331F8A95E2F7892F86
:1034400090E02823392381E0121613060CF080E067
:10345000089593B121E030E002C0220F331F8A9516
:10346000E2F7892F90E02823392381E01216130612
:103470000CF080E0089545B121E030E0613049F47E
:10348000B90102C0660F771F8A95E2F7CB01842B42
:1034900009C0B90102C0660F771F8A95E2F7CB0118
:1034A0008095842385B9089548B121E030E06130EA
:1034B00049F4B90102C0660F771F8A95E2F7CB0184
:1034C000842B09C0B90102C0660F771F8A95E2F705
:1034D000CB018095842388B90895CF93DF93D82FAB
:1034E000C0E0CD1771F05D9A82E390E00E94DB317D
:1034F00080E097DF82E390E00E94DB31A895CF5F08
:10350000F0CFDF91CF9108959F92AF92BF92CF926B
:10351000DF92EF92FF920F931F93CF93DF931F924F
:10352000CDB7DEB7F82EE62E8A01DA018C9165E080
:10353000681BBEE28B9FC00111249E012F5F3F4F8D
:103540004F2D84599C4FEBDDF801D0808EE2C82EC0
:1035500090E1992EAD2CB12C8981D8012C9130E0CD
:10356000280F311DA216B306ECF46D2D8F2D0E948D
:103570006732CA9CF001CB9CF00D1124E459FC4F3A
:1035800086A18F3721F06D2D8F2D0E94AC32CA9C01
:10359000F001CB9CF00D1124E459FC4FF3A694A646
:1035A000D394D8CF811140C08E2D0E94A50B8AEFF5
:1035B00090E00E94DB31A8958AEF90E00E94DB3119
:1035C000A8958E2D0E94A50B80910201811135C016
:1035D000D801EC914EE24E9FF0011124E459FC4FCA
:1035E000E3A62C9130E02F5F3F4F429FF001439FB5
:1035F000F00D1124E459FC4FE3A6EC914E9FF0012D
:103600001124E459FC4F21E124A78C9190E001960C
:10361000489FF001499FF00D1124E459FC4F24A765
:103620008C918E5F8C9309C08F2D0E94E631898129
:10363000F8019081980F908301C080E00F90DF9196
:10364000CF911F910F91FF90EF90DF90CF90BF909F
:10365000AF909F9008951F920F920FB60F92112472
:10366000CF92DF92EF92FF922F933F934F935F930E
:103670006F937F938F939F93AF93BF93CF93DF937A
:10368000EF93FF938091540390915503A0915603BB
:10369000B09157030196A11DB11D809354039093DF
:1036A0005503A0935603B09357038091280590913A
:1036B0002905A0912A05B0912B05AC01BD014F5FF2
:1036C0005F4F6F4F7F4F40932805509329056093BC
:1036D0002A0570932B0520912E022F5F243618F4B3
:1036E00020932E024EC010922E02209130022F5FA6
:1036F000209330020296A11DB11D8093280590935E
:103700002905A0932A05B0932B0580916A038FDECB
:10371000882351F1C0906603D0906703E09068035E
:10372000F090690320E030E0A901C701B6010E94D2
:1037300035381816CCF4C0913605D0913705C7013D
:10374000B6010E940437C617D70728F060E08091C1
:103750006A03AADE09C0809136059091370501966B
:10376000909337058093360580912F028F5F809369
:103770002F0280912F02863020F010922F020E949B
:10378000980780914603813011F580914C03909108
:103790004D03A0914E03B0914F03892B8A2B8B2BA5
:1037A000A1F080914C0390914D03A0914E03B091F4
:1037B0004F030197A109B10980934C0390934D03E6
:1037C000A0934E03B0934F0302C010924603809122
:1037D0004503813011F58091480390914903A091F0
:1037E0004A03B0914B03892B8A2B8B2BA1F080913C
:1037F000480390914903A0914A03B0914B0301976C
:10380000A109B1098093480390934903A0934A0307
:10381000B0934B0302C0109245038091470381305F
:1038200011F58091500390915103A0915203B091F2
:103830005303892B8A2B8B2BA1F0809150039091FD
:103840005103A0915203B09153030197A109B1090B
:103850008093500390935103A0935203B09353036A
:1038600002C010924703FF91EF91DF91CF91BF917A
:10387000AF919F918F917F916F915F914F913F9108
:103880002F91FF90EF90DF90CF900F900FBE0F9091
:103890001F90189590ED980F9A3070F09FE9980F4F
:1038A000963010F499EA05C09FEB980F963018F403
:1038B00099EC980F01C0982F892F089590ED980FDB
:1038C0009A3060F09FE9980F963010F4875508956C
:1038D0009FEB980F963020F487530895892F089511
:1038E00080E00895CF93DF93EA012AE00E94A93A8D
:1038F000CE01DF91CF910895EF92FF920F931F9326
:10390000CF93DF938B01EC0120E030E08991882395
:1039100061F0209F7001219FF00C309FF00C11246A
:10392000B9DF9701280F311DF1CFC901DF91CF9188
:103930001F910F91FF90EF9008955F926F927F9289
:103940008F929F92AF92BF92CF92DF92EF92FF92AF
:103950000F931F93CF93DF93CDB7DEB72B970FB69F
:10396000F894DEBF0FBECDBF6C01562EFC01019056
:103970000020E9F731977F01E81AF90A5C0120E09D
:1039800030E000E010E0842E912CC5018C199D09D7
:103990008E159F0514F5F50181915F01E1E0F0E0DE
:1039A000EC0FFD1FE20FF31F851113C010823801C9
:1039B000FFEF6F1A7F0AB401CE0101964B879CDF9F
:1039C000F801EF5BFD4F8083830120E030E04B8501
:1039D000DCCF80832F5F3F4FD8CFE1E0F0E0EC0FEA
:1039E000FD1FE20FF31F1082642F70E0CE010196DD
:1039F00083DFF801EF5BFD4F80832B960FB6F894C1
:103A0000DEBF0FBECDBFDF91CF911F910F91FF9011
:103A1000EF90DF90CF90BF90AF909F908F907F906E
:103A20006F905F9008950F931F93CF93DF938A0158
:103A3000FB0101900020E9F73197EF01C61BD70B7E
:103A40000E947D3A009719F41092410223C0BC01F4
:103A50006C0F7D1F81E492E00E945D3AE1E4F2E0A8
:103A600001900020E9F73197EF01C154D240B8012D
:103A700081E492E00E947D3AFC0101900020E9F788
:103A80003197E81BF90BCE018E1B9F0BFC01EF5BFE
:103A9000FD4F108281E492E0DF91CF911F910F9151
:103AA0000895CF92DF92FF920F931F93CF93DF93EE
:103AB0008C01EC01F80180818823D9F08B32A1F0D0
:103AC000853299F4680182E0C80ED11CF801818129
:103AD000F5DEF82EF8018281F1DEF0E1FF9E900123
:103AE0001124822B860101C080E289930F5F1F4F52
:103AF000E1CF1882DF91CF911F910F91FF90DF905E
:103B0000CF9008956F927F929F92AF92BF92CF9283
:103B1000DF92EF92FF920F931F93CF93DF938091E9
:103B200047038111D8C079DC91E0811190E0892FA1
:103B300078DC809119018F5F80931901809158037F
:103B40008823E9F00E948F301092580348EE53E02A
:103B500060E070E040934C0350934D0360934E033C
:103B600070934F0381E08093460340934803509342
:103B7000490360934A0370934B038093450384EF9A
:103B800091E0A0E0B0E08093150190931601A0931E
:103B90001701B09318018093500390935103A093A1
:103BA0005203B093530310E08EE2D82E01E092E06E
:103BB000992E2AEAB22E36E0A32E612E712CD69CC5
:103BC0007001D79CF00C1124E701C459DC4F8CA57F
:103BD000803119F08131C9F077C0B70160597C4F4D
:103BE000AE018BA50E94F231811103C00B8F1DA67F
:103BF00001C00DA7D69CF001D79CF00D1124E4590B
:103C0000FC4F83A50E94E6315FC08BA50E94A50BE7
:103C100080910201CC24C394C10E81114DC01DA618
:103C20009B8E6091E9017091EA0180E090E00E9432
:103C3000303720E030E040E251E40E949C36688357
:103C400079838A839B83BC828AE1810F8D83D7012C
:103C5000AE58BC4FEEE4F8E08A2D01900D928A95A3
:103C6000E1F7DC9C70011124E701C459DC4F1DA66B
:103C70000B8F6091EB017091EC01072E000C880B0B
:103C8000990B0E94323720E030E040E251E40E947C
:103C90009C36688379838A839B83BC82155D1D83F0
:103CA000D701AE58BC4FEEE4F8E08A2D01900D929A
:103CB0008A95E1F71C2D08C00DA71C2DDC9CF00196
:103CC0001124E459FC4F05A71F5F153008F475CF88
:103CD00081E080934703DF91CF911F910F91FF9077
:103CE000EF90DF90CF90BF90AF909F907F906F90BC
:103CF00008954BE35EE060E070E083E595E00C94AE
:103D0000D51144E05EE060E070E083E595E00C945E
:103D1000D5114CEC5DE00C94D511CF92DF92EF926F
:103D2000FF920F931F93CF93DF93EC0169010E94E1
:103D3000D51145EB5DE0BC01CE010E94D511A60175
:103D4000BC01CE010E94D5114CEA5DE0BC01CE0160
:103D50000E94D511A801BC01CE010E94F61149EACA
:103D60005DE0BC01CE010E94D511A701BC01CE01CE
:103D7000DF91CF911F910F91FF90EF90DF90CF9047
:103D80000C94D5114F925F926F927F928F929F9277
:103D9000AF92BF92CF92DF92EF92FF920F931F9359
:103DA000CF93DF9300D000D000D0CDB7DEB72A018B
:103DB0003B01922E832E58012EE2829FC0011124D6
:103DC000FC01E459FC4F838D9E012F5F3F4F690139
:103DD000823021F1B8F4813009F04BC0208131816B
:103DE00042815381C301B2010E943436162FF72E4F
:103DF000E82E092F63EA7DE0C6010E94253A6CE9AE
:103E00007DE033C08330F1F08A3099F51081F18084
:103E1000E280038168E87DE0C90128C0208131810A
:103E200042815381C301B2010E943436162FF72E0E
:103E3000E82E092F66E97DE0C6010E94253A64E973
:103E40007DE013C02081318142815381C301B201E1
:103E50000E943436162FF72EE82E092F6EE87DE0EB
:103E6000C6010E94253A6BE87DE0C5010E94253A13
:103E700004C010E0F12CE12C00E00F93EF92FF92D0
:103E80001F93DF92CF928F929F920E941B3B0FB69F
:103E9000F894DEBF0FBECDBF80E090E026960FB64F
:103EA000F894DEBF0FBECDBFDF91CF911F910F9170
:103EB000FF90EF90DF90CF90BF90AF909F908F904A
:103EC0007F906F905F904F9008950F931F93CF93C3
:103ED000DF93EC010EDF8C016091EE047091EF0432
:103EE0008091F0049091F10447E055E0FBDC43E45D
:103EF0005DE0B801CE010E94D5114DE25DE0BC014C
:103F0000CE010E94D51147E055E0BC01CE010E94D0
:103F1000F61143E25DE0BC01CE010E94D5114EE0F6
:103F20005DE0BC01CE010E94D51147E055E0BC0127
:103F3000CE010E94F61144E05DE0BC01CE010E947A
:103F4000D5114EED5CE0BC01CE010E94D51147E0D9
:103F500055E0BC01CE010E94F61144ED5CE0BC01CD
:103F6000CE010E94D51141EC5CE0BC01CE01DF9195
:103F7000CF911F910F910C94D5118F929F92AF9278
:103F8000BF92CF92DF92EF92FF920F931F93CF9346
:103F9000DF93EC01AEDEBC01CE01BBDE6C0165EB54
:103FA0007CE088E395E00E94253A4EE95CE0B601AA
:103FB000CE010E94D5114C01809157081F928F931A
:103FC000809156081F928F93809155081F928F936E
:103FD000809154081F928F9388E3A82E85E0B82E15
:103FE000BF92AF9297E0C92E95E0D92EDF92CF9283
:103FF0000E941B3B24E9E22E2CE0F22E860122E9EE
:104000003CE04CE85CE0B401CE0187DE4C018091DD
:1040100053081F928F93809152081F928F93809123
:1040200051081F928F93809150081F928F93809117
:104030004F081F928F9380914E081F928F932EE608
:104040003CE03F932F93DF92CF920E943C3B34E6BB
:10405000E32E3CE0F32E22E63CE041E65CE0B401D6
:10406000CE015BDE4C0180915B081F928F938091A3
:104070005A081F928F93809159081F928F938091B5
:1040800058081F928F93BF92AF92DF92CF920E94F7
:104090001B3B2DB73EB7285D3F4F0FB6F8943EBF90
:1040A0000FBE2DBF47E5E42E4CE0F42E25E53CE0A5
:1040B00044E55CE0B401CE0130DE4C0180915F0844
:1040C0001F928F9380915E081F928F9380915D085D
:1040D0001F928F9380915C081F928F93BF92AF9233
:1040E000DF92CF920E941B3B5AE4E52E5CE0F52E56
:1040F00028E43CE047E45CE0B401CE010EDE4C0174
:10410000809163081F928F93809162081F928F9312
:10411000809161081F928F93809160081F928F9306
:10412000BF92AF92DF92CF920E941B3B66E4E62ED5
:104130006CE0F62E24E43CE043E45CE0B401CE0104
:10414000ECDD42E25CE0BC01CE010E94D5112DB74E
:104150003EB7285E3F4F0FB6F8943EBF0FBE2DBF4F
:10416000209164082F3F31F449E15CE0BC01CE01AD
:104170000E94D5114CEE5BE0BC01CE010E94D5112E
:104180006C016091EE047091EF048091F0049091C5
:10419000F10447E055E0A6DB47E055E0B601CE016B
:1041A0000E94F61149EA5BE0BC01CE01DF91CF919C
:1041B0001F910F91FF90EF90DF90CF90BF90AF9045
:1041C0009F908F900C94D511AF92BF92CF92DF92B7
:1041D000EF92FF920F931F93CF93DF93EC01F62E94
:1041E00088DD42E95BE0BC01CE010E94D5114CE4C0
:1041F0005BE0BC01CE010E94D51141E05BE0BC0157
:10420000CE010E94D5116C010F2D10E023E082E158
:10421000809FF001819FF00D1124E75AFC4F8189A6
:104220002F1510F004D901C014D9282F30E0213007
:10423000310519F46EEF7AE002C06AEF7AE087E0A8
:1042400095E00E94253A47E055E0B601CE010E9474
:10425000F61144ED5AE0BC01CE010E94D5116C016B
:104260006F2D70E080E090E047E055E03BDB47E0F9
:1042700055E0B601CE010E94F61140EB5AE0BC01B8
:10428000CE010E94D5116C016091EE047091EF0493
:104290008091F0049091F10447E055E023DB47E082
:1042A00055E0B601CE010E94F6115C0182E1809FCB
:1042B000F001819FF00D1124E75AFC4FDF011D969C
:1042C00013968C9113978F9312968C9112978F93CC
:1042D00011968C918F9385858F938BEA9AE09F93AB
:1042E0008F9387E0C82E85E0D82EDF92CF920E9470
:1042F0003C3B9AEAE92E9AE0F92E860126EA3AE05A
:1043000043E95AE0B501CE0108DD4FE75AE0BC01B0
:10431000CE010E94D5118C012091360530913705D0
:104320003F932F932CE73AE03F932F93DF92CF9266
:104330000E943C3BA601B801CE010E94F61145E661
:104340005AE0BC01CE010E94D5118C016091280574
:104350007091290580912A0590912B0524E630E083
:1043600040E050E00E94AB38CA01B901A601BADAB8
:10437000A601B801CE010E94F6112DB73EB7225F0B
:104380003F4F0FB6F8943EBF0FBE2DBF43E35AE038
:10439000BC01CE01DF91CF911F910F91FF90EF9063
:1043A000DF90CF90BF90AF900C94D5116F927F9219
:1043B0008F929F92AF92BF92CF92DF92EF92FF9235
:1043C0000F931F93CF93DF93EC01162F92DC41E202
:1043D0005AE0BC01CE010E94D51144E05AE0BC0174
:1043E000CE010E94D511C12ED12C2DE4129FF001D7
:1043F0001124EE5AFB4F20812F3F31F44BEF59E04F
:10440000BC01CE010E94D5114AED59E0BC01CE019C
:104410000E94D5112DE42C9D50012D9DB00C11242E
:1044200085010B5A1B4F2CECE22E29E0F22E27ECD3
:1044300039E046EC59E0BC01CE016FDC4C01C5010E
:104440008E5A9B4F3C01FC01E55BFF4F60817181FF
:1044500080E090E047E055E045DA35ECE32E39E0C6
:10446000F32E07E015E020EC39E043EB59E0B4010E
:10447000CE0153DC850101591B4F42E9E42E49E08E
:10448000F42E2DE839E040E859E0BC01CE0145DCCE
:1044900050ECA52E51E0B52E00E010E0EFEF6E1AC3
:1044A0007E0A41E759E0BC01CE010E94D5114C01C2
:1044B0004AE067E075E0C8010E94973A47E055E09E
:1044C000B401CE010E94F611F30140815181F50142
:1044D000228133814217530731F447E659E0BC018A
:1044E000CE010E94D51145E659E0BC01CE010E94E3
:1044F000D511F50140815181BC01CE010E94F61118
:104500004BE559E0BC01CE010E94D5110F5F1F4F52
:10451000F4E0AF0EB11C0530110519F64EE259E07A
:10452000BC01CE010E94D5118C014AE067E075E024
:10453000C6010E94973A47E055E0B801CE010E94BB
:10454000F61147EF58E0BC01CE010E94D5118C0155
:104550006091EE047091EF048091F0049091F10469
:1045600047E055E0BFD947E055E0B801CE010E94D1
:10457000F61147EE58E0BC01CE01DF91CF911F91BB
:104580000F91FF90EF90DF90CF90BF90AF909F90F2
:104590008F907F906F900C94D511CF93DF93EC01A7
:1045A000A8DBBC01CE01B5DB46E758E0BC01CE017B
:1045B000DF91CF910C94D5110F931F93CF93DF937D
:1045C000EC01162F96DBBC01CE01A3DBBC0111115F
:1045D0001BC04BEE57E0CE010E94D5118C016091BB
:1045E000EE047091EF048091F0049091F10447E0A3
:1045F00055E078D947E055E0B801CE010E94F611A8
:1046000041EE57E0BC0102C048ED57E0CE01DF911A
:10461000CF911F910F910C94D5110F931F93CF93AE
:10462000DF93EC0166DB42EB57E0BC01CE010E9458
:10463000D5118C016091EE047091EF048091F0042B
:104640009091F10447E055E04DD947E055E0B801BD
:10465000CE010E94F61146EA57E0BC01CE01DF917F
:10466000CF911F910F910C94D5116F927F928F92E1
:104670009F92BF92CF92DF92EF92FF920F931F9380
:10468000CF93DF93EC01B62E142F33DBBC01CE01A8
:1046900040DB4FE957E0BC01CE010E94D51111303B
:1046A00031F441E557E0BC01CE010E94D5114FE342
:1046B00057E0BC01CE010E94D51147E357E0BC0191
:1046C000CE010E94D5116C018B2C912C2EE2B29E52
:1046D0008001112404591C4FF80183851F928F9388
:1046E00082851F928F9381851F928F9380851F9261
:1046F0008F9387811F928F9386811F928F938581DD
:104700001F928F9384811F928F9326E137E03F930E
:104710002F9327E035E03F932F930E943C3B47E0E7
:1047200055E0B601CE010E94F61141EF56E0BC0102
:10473000CE010E94D5112DB73EB72C5E3F4F0FB66C
:10474000F8943EBF0FBE2DBFF80121A12F3F31F4D9
:1047500048EE56E0BC01CE010E94D5112EE2289D04
:104760006001299DD00C1124860108581C4F2AEDA8
:10477000E22E26E0F22E27ED36E044EB56E0BC01B7
:10478000CE01CBDA3C01960124593C4F6901F90175
:104790007D9683818F9382818F9381818F93F9019D
:1047A000858D8F938EEA96E09F938F9387E095E0B7
:1047B0009F938F930E943C3B38E9E32E36E0F32E23
:1047C00007E015E025E936E046E856E0B301CE0102
:1047D000A4DA3C0108E315E027E035E040E050E0D2
:1047E000BA018B2DCFDA47E055E0B301CE010E942C
:1047F000F611A801BC01CE010E94F61143E756E074
:10480000BC01CE010E94D5113C01F601458D568DAB
:10481000678D70A127E035E08B2DB4DA47E055E0D5
:10482000B301CE010E94F611A801BC01CE010E9485
:10483000F61140E556E0BC01CE010E94D5118C0175
:104840004AE067E075E0C4010E94973A47E055E00E
:10485000B801CE010E94F6114CE256E0BC01CE0137
:104860000E94D5118C016091EE047091EF0480914B
:10487000F0049091F10447E055E034D847E055E06A
:10488000B801CE010E94F6112DB73EB7285F3F4F09
:104890000FB6F8943EBF0FBE2DBF4CEF55E0BC01E4
:1048A000CE01DF91CF911F910F91FF90EF90DF909C
:1048B000CF90BF909F908F907F906F900C94D51168
:1048C000CF92DF92EF92FF920F931F93CF93DF93DC
:1048D000EC016B017A0189016091EE047091EF04A3
:1048E0008091F0049091F10447E055E00E94721C21
:1048F00042EF55E0B601CE010E94D511A701BC01DF
:10490000CE010E94D5114DEE55E0BC01CE010E94B2
:10491000D51147E055E0BC01CE010E94F61141EEF1
:1049200055E0BC01CE010E94D511A801BC01CE0109
:104930000E94D51148ED55E0BC01CE01DF91CF9129
:104940001F910F91FF90EF90DF90CF900C94D511B5
:104950000F931F93CF93DF93EC01CBD9BC01CE0112
:10496000D8D98C016091EE047091EF048091F0042D
:104970009091F10447E055E00E94721C21ED35E072
:104980004DEC55E0B801CE019BDF24EC35E040EC66
:1049900055E0BC01CE0194DF27EB35E041EB55E05B
:1049A000BC01CE018DDF28EA35E042EA55E0BC01CA
:1049B000CE0186DF2CE935E041E955E0BC01CE01AE
:1049C0007FDF2AE835E045E855E0BC01CE0178DF1D
:1049D00020E835E04CE755E0BC01CE01DF91CF91F6
:1049E0001F910F916DCFCF92DF92EF92FF920F93B5
:1049F0001F93CF93DF93EC017CD9BC01CE0189D901
:104A000043E555E0BC01CE010E94D51100E010E065
:104A1000E12CF12CF801E459FC4F24A5222309F4E0
:104A20003FC041E455E0BC01CE010E94D5116C01AC
:104A30004AE067E075E0C7010E94973A47E055E019
:104A4000B601CE010E94F6114BE355E0BC01CE0148
:104A50000E94D5116C016091EE047091EF04809179
:104A6000F0049091F10447E055E00E94721C47E089
:104A700055E0B601CE010E94F6114FE255E0BC01AF
:104A8000CE010E94D511A80148585C4FBC01CE014F
:104A90000E94F61146E255E0BC01CE010E94D511FC
:104AA0002FEFE21AF20A025D1F4F063E110509F0D0
:104AB000B1CFDF91CF911F910F91FF90EF90DF90D9
:104AC000CF9008952F923F924F925F926F927F9274
:104AD0008F929F92AF92BF92CF92DF92EF92FF920E
:104AE0000F931F93CF93DF9300D000D0CDB7DEB7E5
:104AF0001C01FFD8BC01C1010CD94AEA54E0BC0139
:104B0000C1010E94D511BC0189E9882E83E0982E4D
:104B1000D12CF4013C9780818F3F09F058C03B961F
:104B20008081882309F453C0F4018081882331F007
:104B300046EA54E0C1010E94D511BC017401F1E2C2
:104B4000EF1AF108A701C1010E94F6115C01F701FB
:104B500001900020E9F731979F012E193F09790153
:104B60004FE0E416F10458F444EA54E0B501C10101
:104B70000E94D5115C013FEFE31AF30AF1CFF40173
:104B80007097408151816281738108E315E027E0CD
:104B900035E08D2DF7D847E055E0B501C1010E9401
:104BA000F611A801BC01C1010E94F611F401208197
:104BB000222331F04FE954E0BC01C1010E94D5111C
:104BC0004CE954E0BC01C1010E94D511BC01D39451
:104BD000FEE28F0E911C25E0D2129BCF4DE554E0F2
:104BE000C1010E94D5114AE454E0BC01C1010E94F8
:104BF000D5118C01609128057091290580912A05B5
:104C000090912B0524E630E040E050E00E94AB3864
:104C1000CA01B9010E9430370E946D370E940437E3
:104C20006B017C0120E831E541E050E00E94AB38A7
:104C3000CA01B9010E9430370E946D370E940437C3
:104C40002B013C019B01AC0160E871E581E090E043
:104C50000E949C38C61AD70AE80AF90AC701B601A9
:104C600020E13EE040E050E00E94AB38CA01B901CB
:104C70000E9430370E946D370E94043769837A831F
:104C80008B839C83A0E1BEE09B01AC010E94DC38D9
:104C9000C61AD70AE80AF90AC701B6012CE330E0C0
:104CA00040E050E00E94AB38CA01B9010E943037A1
:104CB0000E946D370E9404374B015C01ACE3B0E009
:104CC0009B01AC010E94DC38C61AD70AE80AF90A2F
:104CD00047E055E0C301B2010E94721C47E055E075
:104CE000B801C1010E94F61143E454E0BC01C101C6
:104CF0000E94D5118C0147E055E069817A818B8152
:104D00009C810E94721C47E055E0B801C1010E94DD
:104D1000F61141E454E0BC01C1010E94D5118C019F
:104D200047E055E0C501B4010E94721C47E055E020
:104D3000B801C1010E94F6114FE354E0BC01C1016A
:104D40000E94D5118C0147E055E0C701B6010E94D1
:104D5000721C47E055E0B801C1010E94F6114BE317
:104D600054E0BC01C1010E94D51142E354E0BC01F2
:104D7000C1010E94D5118C016091540370915503BB
:104D8000809156039091570324E630E040E050E0D4
:104D90000E94AB38CA01B9010E9430370E946D37BA
:104DA0000E9404376B017C0120E831E541E050E0CE
:104DB0000E94AB38CA01B9010E9430370E946D379A
:104DC0000E9404372B013C019B01AC0160E871E5B6
:104DD00081E090E00E949C38C61AD70AE80AF90AD6
:104DE000C701B60120E13EE040E050E00E94AB3850
:104DF000CA01B9010E9430370E946D370E94043702
:104E00004B015C01A0E1BEE09B01AC010E94DC38DB
:104E1000A7019601261B370B480B590B29833A83B0
:104E20004B835C83CA01B9012CE330E040E050E0E1
:104E30000E94AB38CA01B9010E9430370E946D3719
:104E40000E9404376B017C01ACE3B0E09B01AC0134
:104E50000E94DC3829813A814B815C81261B370B0B
:104E6000480B590B29833A834B835C8347E055E019
:104E7000C301B2010E94721C47E055E0B801C101B4
:104E80000E94F6114BE254E0BC01C1010E94D51111
:104E90003C0147E055E0C501B4010E94721C47E0A7
:104EA00055E0B301C1010E94F61149E254E0BC0192
:104EB000C1010E94D5115C0147E055E0C701B60170
:104EC0000E94721C47E055E0B501C1010E94F61135
:104ED00047E254E0BC01C1010E94D5118C0147E0BA
:104EE00055E069817A818B819C810E94721C47E028
:104EF00055E0B801C1010E94F61148E154E0BC013F
:104F0000C1010F900F900F900F90DF91CF911F91E3
:104F10000F91FF90EF90DF90CF90BF90AF909F9058
:104F20008F907F906F905F904F903F902F900C9458
:104F3000D5114F925F926F927F928F929F92AF9214
:104F4000BF92CF92DF92EF92FF920F931F93CF9376
:104F5000DF9363E575E080E091E00E94650F7C01DE
:104F600010924108809164088F3F31F4B70183E5C6
:104F700095E00E94C70A7C010E94170FB70183E5E4
:104F800095E00E94DC159093400280933F02892BAC
:104F9000C9F48091320281110AC04AE959E161E005
:104FA0008CE598E00E94BD1481E0809332020E945B
:104FB000B614811107C080913202813019F482E069
:104FC0008093320280914603882321F0809145032B
:104FD0008111D3C180914603811117C08091520481
:104FE0008F3FA9F08091110190911201A0911301BE
:104FF000B091140180934C0390934D03A0934E0302
:10500000B0934F0381E08093460380E001C081E0CC
:105010009091450391111AC090919F049F3FD9F040
:1050200040910D0150910E0160910F01709110019E
:10503000409348035093490360934A0370934B0392
:1050400091E0909345037724739401C0712C8130D3
:1050500009F093C102C077247394E114F10409F0BC
:105060008CC1C72CD12C2DE42C9DC0012D9D900D01
:105070001124EC01CB5ADB4FFE0101900020E9F72F
:105080003197EC1BFD0B40E050E09C012E5A3B4F4A
:10509000852F90E08E179F0750F4D901A80FB91FF4
:1050A00013968C918E3209F44F5F5F5FF1CF4330DE
:1050B00008F043C080913302811126C080913202F2
:1050C000823079F50E94230F882311F40C947830F4
:1050D0001092300281E08093330248E352E0BE0137
:1050E00083E595E0DF91CF911F910F91FF90EF90B5
:1050F000DF90CF90BF90AF909F908F907F906F90F8
:105100005F904F900C94260C813059F40E94180C3B
:10511000882339F082E08093330284E392E00E9496
:105120001B0C80913302823069F0809130028D3304
:1051300008F4DEC7109233021AC1BE0184E392E084
:105140000E94A61980913E02813009F0FFC082E0E2
:1051500080933E0264E174E081E492E00E94253A8B
:10516000809153081F928F93809152081F928F93C2
:10517000809151081F928F93809150081F928F93B6
:1051800080914F081F928F9380914E081F928F93AA
:105190008BEF93E09F938F9387E095E09F938F939E
:1051A0000E943C3B67E075E081E492E00E94523A45
:1051B00069E9862E63E0962E8DB79EB740960FB6AE
:1051C000F8949EBF0FBE8DBF612C79ED472E73E022
:1051D000572EE7E0EE2EE5E0FE2EF5EDAF2EF3E0E4
:1051E000BF2EF4013C9780818F3F09F059C03B9658
:1051F0008081882309F454C0F4018081813009F44E
:105200004FC0B29780811F928F93319780811F92F8
:105210008F93319780811F928F93319780811F9256
:105220008F93319780811F928F93319780811F9246
:105230008F93319780811F928F93319780811F9236
:105240008F935F924F92FF92EF920E943C3B67E0F8
:1052500075E081E492E00E94523AF4017097408137
:1052600051816281738108E315E027E035E0862DE6
:105270000E94C21EFF92EF92BF92AF92C8019F930D
:105280000F930E943C3BB80181E492E00E94523AA5
:105290008DB79EB74A960FB6F8949EBF0FBE8DBFCE
:1052A00063949EE2890E911CE5E06E129ACF2DE484
:1052B0002C9DC0012D9D900D1124FC01E356FB4F48
:1052C0008080918038E3A32E32E0B32E44E3C42ED5
:1052D00042E0D42E5AE8E52E59E1F52E01E412E021
:1052E00020E030E0AE016DE371E081599B4F0E94F8
:1052F000831510923002711014C0809111019091A9
:105300001201A0911301B091140180934C0390936A
:105310004D03A0934E03B0934F0381E08093460367
:1053200013C080910D0190910E01A0910F01B091D9
:1053300010018093480390934903A0934A03B093CC
:105340004B0381E0809345031092330280913E022B
:10535000833029F080913002883008F4C9C681E09A
:1053600080933E0280913002883008F4C1C680915B
:1053700058038F5F80935803BBC6C0913F02D09102
:105380004002209709F029C1B70183E595E00E940A
:10539000A80C80916A05813109F0AAC68091770531
:1053A000853009F0A5C680917805843A09F0A0C639
:1053B00044E050E060ED73E08DE795E00E942C3A08
:1053C00044E050E0892B09F068C06BEC73E081E4A5
:1053D00092E00E941C3A80915C0890915D08A09137
:1053E0005E08B0915F088093450290934602A093B7
:1053F0004702B09348028091580890915908A091B3
:105400005A08B0915B088093490290934A02A09396
:105410004B02B0934C028091540890915508A09192
:105420005608B091570880934D0290934E02A09376
:105430004F02B093500286E0EEE4F8E0A1E5B2E05E
:1054400001900D928A95E1F7809160089091610832
:10545000A0916208B091630880935702909358021C
:10546000A0935902B0935A022CEF30E24AE161E472
:1054700072E083E595E0DF91CF911F910F91FF904E
:10548000EF90DF90CF90BF90AF909F908F907F90E4
:105490006F905F904F900C944F1366EC73E08DE724
:1054A00095E00E942C3A892B09F066C046E050E056
:1054B0006EE478E08DE895E00E94453AEC01892B96
:1054C00009F016C644E050E061EC73E081E492E03C
:1054D0000E941C3A2CEF30E244E061E472E083E584
:1054E00095E00E944F138091810590918205A091D3
:1054F0008305B091840580935C0890935D08A09328
:105500005E08B0935F088091850590918605A09113
:105510008705B09188058093580890935908A09307
:105520005A08B0935B088091890590918A05A091F3
:105530008B05B0918C058093540890935508A093E7
:105540005608B09357088091930590919405A091C7
:105550009505B09196058093600890936108A0939B
:105560006208B09363084DE150E060E070E088E4C9
:1055700098E00E94793D19C044E050E06CEB73E084
:105580008DE795E00E942C3A892B09F0B1C546E0E1
:1055900050E06EE478E08DE895E00E94453AEC0139
:1055A000892B09F0A5C581E0F5D595B7916095BF28
:1055B00095B79D7F95BFFE01DF91CF911F910F9110
:1055C000FF90EF90DF90CF90BF90AF909F908F9023
:1055D0007F906F905F904F900994CD5ADA4F45E0DD
:1055E00050E066EB73E0CE010E942C3A892B09F063
:1055F0007FC5D0935205C093510540E351E066E367
:1056000071E0CE010E94131DBC0180915105909163
:1056100052050E945D3AC0915105D0915205888192
:10562000811104C083E595E04DDA54C542E050E0B5
:1056300063EB73E0CE010E942C3A892BF1F54CE329
:1056400051E06EE371E0CE010E94131DBC0181E4C4
:1056500092E00E945D3AE1E4F2E001900020E9F777
:105660003197E154F240349718F166EF74E081E429
:1056700092E00E947D3A892BD9F020915403309119
:10568000550340915603509157036DE67DED81E03F
:1056900090E00E949C386093EE047093EF04809336
:1056A000F0049093F10483E595E00E94651F12C514
:1056B00083E595E00E94CD220DC54BE050E067EAFE
:1056C00073E0CE010E942C3A892B09F401C54CE30A
:1056D00051E062E471E0CE010E94131DBC0187E03D
:1056E00095E00E945D3A6091EE047091EF04809124
:1056F000F0049091F10448E355E00E94721C68E3C5
:1057000075E087E095E00E947D3A892B09F4E0C4BA
:105710008091EE049091EF04A091F004B091F10417
:10572000892B8A2B8B2B09F4D3C4C0915105D091BE
:10573000520544E050E062EA73E0CE010E942C3A48
:10574000892B21F483E595E003D9C4C443E050E0FC
:105750006EE973E0CE010E942C3A892B21F483E597
:1057600095E041D9B7C444E050E069E973E0CE0167
:105770000E942C3A892B09F4B1C443E050E065E95A
:1057800073E0CE010E942C3A892BD1F54CE351E015
:1057900067E471E0CE010E94131DBC0187E095E033
:1057A0000E945D3A43E050E067E075E08CE491E0F0
:1057B0000E94643AEC01892BF1F40E94791E9093C7
:1057C000400280933F0240E553E0BC0183E595E051
:1057D0000E94D5119093400280933F02BC0183E563
:1057E00095E00E94A81395B7916095BF95B79D7FEE
:1057F00095BFFE01099583E595E00E940D236AC4DB
:1058000042E050E06DE473E0CE010E942C3A892B17
:10581000D1F40E94791E9093400280933F0248E0A9
:1058200053E0BC0183E595E00E94D51190934002BE
:1058300080933F021092EE041092EF041092F00455
:105840001092F1044BC443E050E064E073E0CE01F9
:105850000E942C3A892B09F0A7C04CE351E060E587
:1058600071E0CE010E94131DBC0187E095E00E940B
:105870005D3A6AE070E087E095E00E947C1C6C0174
:105880004CE351E065E571E080915105909152053E
:105890000E94131DBC0187E095E00E945D3A44E040
:1058A00050E06FEF72E087E095E00E942C3A892B80
:1058B00009F073C04CE351E069E771E08091510554
:1058C000909152050E94131DBC0187E095E00E9453
:1058D0005D3A42E050E067E075E089E591E00E94C2
:1058E000643A7601FF24892B59F48EE28E9DF001F3
:1058F0008F9DF00D1124E459FC4F8FEF81A309C057
:105900008EE28E9DF0018F9DF00D1124E459FC4F25
:1059100011A24CE351E06CE571E08091510590914A
:1059200052050E94131DBC0181E492E00E945D3A81
:1059300081E492E00E94511D8EE28E9DE0018F9DD8
:10594000D00D112461E472E0CE0188589C4F0E9472
:105950005D3A4CE351E060E671E080915105909131
:1059600052050E94131DBC0187E095E00E945D3A3C
:1059700087E095E00E941D39FE01E459FC4F658FD8
:10598000768F878F90A3BE0160567E4F4EE250E027
:10599000CF010E94793D41E001C040E06C2D83E5DC
:1059A00095E00E94352396C342E050E06CEF72E030
:1059B000CE010E942C3A892B61F54CE351E064E65C
:1059C00071E0CE010E94131DBC0187E095E00E94AA
:1059D0005D3AE7E0F5E001900020E9F73197E75004
:1059E000F540349780F04FE050E060E570E087E0EC
:1059F00095E00E94793D67E075E086EF94E00E94B3
:105A00005D3A61E001C060E083E595E00E94DC2240
:105A100061C343E050E068EF72E0CE010E942C3A8F
:105A2000892B09F004C14CE351E060E571E0CE013F
:105A30000E94131DBC0187E095E00E945D3A6AE078
:105A400070E087E095E00E947C1C7C01C82F84E612
:105A5000809319014CE351E069E671E080915105B2
:105A6000909152050E94131DBC0187E095E00E94B1
:105A70005D3A42E050E065EF72E087E095E00E9419
:105A80002C3A892BB9F510923705109236051092F1
:105A900028051092290510922A0510922B059701CE
:105AA0003327C430A0F448B182E1829FF001839F84
:105AB000F00D1124E75AFC4F81E090E0018802C00C
:105AC000880F991F0A94E2F7842B88B913C045B157
:105AD00082E1829FF001839FF00D1124E75AFC4F71
