:100000000C9411080C942D080C942D080C942D08B8
:100010000C942D080C942D080C942D080C942D088C
:100020000C942D080C942D080C942D080C942D087C
:100030000C942D080C942D080C94BD1B0C942D08C9
:100040000C942D080C942D080C942D080C942D085C
:100050000C942D080C942D080C942D08FEC700005C
:10006000FCC70000FAC700000D0A436F6E74656E8E
:10007000742D547970653A206170706C6963617495
:10008000696F6E2F782D7777772D666F726D2D756E
:10009000726C656E636F6465640D0A0D0A00436FD0
:1000A0006E74656E742D4C656E6774683A20000D31
:1000B0000A557365722D4167656E743A20626F78D8
:1000C0002F312E310D0A4163636570743A202A2F57
:1000D0002A0D0A000D0A0020485454502F312E31A9
:1000E0000D0A486F73743A2000504F535420000D8E
:1000F0000A557365722D4167656E743A20626F7898
:100100002F312E310D0A4163636570743A20746596
:1001100078742F68746D6C0D0A0D0A0020485454D1
:10012000502F312E310D0A486F73743A2000474525
:100130005420000001080006040001450000820070
:1001400000400020223B3C2F5343524950543E0074
:100150003C484541443E3C534352495054206C6115
:100160006E67756167653D224A61766153637269A6
:100170007074223E746F702E6C6F636174696F6E61
:100180003D22687474703A2F2F00697000536176B5
:1001900065007069006970006F6E005465737400CB
:1001A0006C6F6731006C6F6732006C6F67310053A2
:1001B000617665004F6666004F6E0072656C007078
:1001C0006100536176650073656E003C48544D4C88
:1001D0003E3C484541443E3C534352495054206CB8
:1001E000616E67756167653D224A6176615363722E
:1001F000697074223E746F702E6C6F636174696FE6
:100200006E3D222F223B3C2F5343524950543E0017
:100210006578003C48544D4C3E3C484541443E3C8A
:10022000534352495054206C616E67756167653D58
:10023000224A617661536372697074223E746F70F2
:100240002E6C6F636174696F6E3D222F223B3C2FD1
:100250005343524950543E0072656200696E666FA6
:1002600000646576006D656E750066617669636F22
:100270006E2E69636F005D7D002C005D2C2252653F
:100280006C617973223A5B002C0D0A00220D0A7D05
:1002900000222C0D0A2245223A2200222C0D0A228D
:1002A00056223A2200222C0D0A224E223A22002205
:1002B0002C0D0A2254223A220022253032582530B1
:1002C00032582530325825303258253032582530B2
:1002D00032582530325825303258007B0D0A2249D9
:1002E000223A20007B2253656E736F7273223A5B51
:1002F0000D0A00485454502F312E30203230302017
:100300004F4B0D0A436F6E74656E742D7479706572
:100310003A206170706C69636174696F6E2F6A73E3
:100320006F6E0D0A0D0A0078736F6E0078736F6E32
:10033000006A736F6E006C6700474554202F0052AF
:100340002A2A5400534554520053455451004D49F4
:100350004E490053524348003D2573002625303254
:100360005825303258253032582530325825303211
:100370005825303258253032582530325800253033
:1003800032582530325825303258253032582530F1
:100390003258253032580049443D003C2F626F648A
:1003A000793E3C2F68746D6C3E003A003A00206440
:1003B0006179732000557074696D653A20003C2F97
:1003C00068323E3C2F7072653E3C2F74643E3C2F79
:1003D00074723E3C2F7461626C653E3C62723E3CBE
:1003E00062723E3C6120687265663D2F6C673E4CD0
:1003F0006F67696E3C2F613E3C62723E000D0A00E1
:100400003C2F733E0020003C733E003C7469746CCA
:10041000653E5765624D6574656F426F782D526514
:100420006C61793C2F7469746C653E3C63656E74D5
:1004300065723E3C68323E3C753E5765624D657460
:10044000656F426F782D52656C61793C2F753E2047
:100450002623393733303B3C2F68323E3C7461628F
:100460006C6520626F726465723D303E3C74723E12
:100470003C74642076616C69676E3D746F703E3CBD
:100480007072653E3C68323E003C2F613E3C6272B9
:100490003E00207461726765743D72663E0026738B
:1004A00069643D003C6120687265663D2F73656E2E
:1004B0003F6E756D3D003C68746D6C3E3C626F64D0
:1004C000793E3C63656E7465723E53656E736F7200
:1004D000733C2F63656E7465723E3C62723E0065CC
:1004E000783F0045786974007265623F005265622A
:1004F0006F6F740072656C3F6E756D3D34260052EF
:10050000656C617920340072656C3F6E756D3D33AA
:10051000260052656C617920330072656C3F6E7500
:100520006D3D32260052656C617920320072656C37
:100530003F6E756D3D31260052656C61792031004A
:1005400072656C3F6E756D3D30260052656C617949
:100550002030006C6F67313F004C6F676765722019
:10056000310070613F0050617373776F726400698E
:10057000703F005443502F4950003C2F613E3C6275
:10058000723E00207461726765743D72663E00734E
:1005900069643D003C6120687265663D2F003E3C09
:1005A00062723E3C62723E3C696E70757420747972
:1005B00070653D7375626D69742076616C75653D1B
:1005C00053617665206E616D653D73613E003E3C12
:1005D000696E70757420747970653D6869646465CE
:1005E0006E206E616D653D7369642076616C756522
:1005F0003D003C696E70757420747970653D686962
:100600006464656E206E616D653D6E756D2076610A
:100610006C75653D003C62723E43616C63756C6154
:100620007465643C62723E003C62723E4F66667363
:1006300065743C62723E006F66003C62723E4375B8
:100640007272656E742076616C75653C62723E00F4
:1006500025322E3266003E456E61626C652F44691C
:10066000736162653C62723E53656E736F72206E99
:10067000616D653A3C62723E006E610020286D61DA
:1006800078206C656E203134290020636865636BC7
:100690006564003C2F623E3C62723E3C696E707540
:1006A0007420747970653D636865636B626F782050
:1006B0006E616D653D656E002530325825303258CB
:1006C00025303258253032582530325825303258AE
:1006D00025303258253032580049443A203C623E99
:1006E000003C666F726D206D6574686F643D676570
:1006F000743E003C534352495054206C616E677500
:100700006167653D224A6176615363726970742244
:100710003E706172656E742E6672616D65735B27E3
:100720006C66275D2E6C6F636174696F6E2E7265E7
:100730006C6F616428293B3C2F5343524950543E0F
:10074000003C626F64793E003E5265626F6F743C9C
:100750002F613E003C63656E7465723E3C62723E82
:100760003C62723E3C6120687265663D2F72656234
:100770003F796573267369643D0046573A20312EF0
:10078000312E35205745422052454C4159204D4984
:100790004E492033302E30362E323031363C2F68E1
:1007A000746D6C3E004368616E6765642100223E93
:1007B0003C2F666F726D3E006E65772070617373BB
:1007C000776F72643A3C666F726D3E3C696E70750D
:1007D0007420747970653D74657874206E616D6500
:1007E0003D6E6577206D61786C656E6774683D312C
:1007F000343E3C62723E3C696E7075742074797050
:10080000653D7375626D69742076616C75653D43F5
:1008100068616E6765206E616D653D6368613E3C31
:10082000696E70757420747970653D68696464657B
:100830006E206E616D653D7369642076616C7565CF
:100840003D22003C63656E7465723E3C62723E50B0
:10085000617373776F72643C666F726D3E3C696E54
:1008600070757420747970653D70617373776F7201
:1008700064206E616D653D70613E3C62723E3C6914
:100880006E70757420747970653D7375626D6974EE
:100890002076616C75653D4C6F67696E206E616D89
:1008A000653D696E3E3C2F666F726D3E3C2F6874ED
:1008B0006D6C3E003E3C2F666F726D3E3C2F68743F
:1008C0006D6C3E00222076616C75653D2253617629
:1008D000652654657374223E3C696E70757420748D
:1008E0007970653D68696464656E206E616D653D13
:1008F0007369642076616C75653D003C2F53454CEF
:100900004543543E3C62723E3C62723E3C696E70AE
:10091000757420747970653D7375626D6974206EAD
:10092000616D653D226C73003C2F6F7074696F6E52
:100930003E003E002073656C6563746564003C6F27
:100940007074696F6E2076616C75653D003C6272F3
:100950003E506174683C62723E0070617468003C95
:1009600062723E696E74657276616C3C62723E3C86
:1009700053454C454354206E616D653D73703E0098
:100980003C62723E506F72743C62723E00706F72D5
:1009900074000000686F73740020286D6178206C0B
:1009A000656E20323529003E456E61626C652F44CC
:1009B000697361626C653C62723E486F7374206E4D
:1009C000616D653C62723E0020636865636B6564BF
:1009D000003C696E70757420747970653D6368655C
:1009E000636B626F78206E616D653D656E003C667D
:1009F0006F726D206D6574686F643D6765743E004D
:100A00003C2F73656C6563743E3C703E3C696E7050
:100A1000757420747970653D7375626D6974206EAC
:100A2000616D653D736E642076616C75653D5361E3
:100A300076653E3C2F666F726D3E003C2F6F707482
:100A4000696F6E3E003E002073656C65637465647B
:100A5000003C6F7074696F6E2076616C75653D0047
:100A60003C703E3C73656C656374206E616D653DE2
:100A700073656E3E3C6F7074696F6E2076616C7545
:100A8000653D3130303E4E6F7420757365643C2F88
:100A90006F7074696F6E3E000D4D41583A006D6184
:100AA00078000025322E3266003E0D4D494E3A0048
:100AB0006D696E000025322E3266003E3C696E7014
:100AC000757420747970653D68696464656E206E24
:100AD000616D653D7369642076616C75653D003CB0
:100AE000703E3C696E70757420747970653D6869FC
:100AF0006464656E206E616D653D6E756D20766116
:100B00006C75653D004F4646004F4E002020203C4E
:100B1000696E70757420747970653D7375626D6966
:100B200074206E616D653D736E642076616C7565D1
:100B30003D4F6666207374796C653D2277696474F5
:100B4000683A343570783B6865696768743A34355B
:100B500070783B223E20003C696E70757420747979
:100B600070653D7375626D6974206E616D653D736E
:100B70006E642076616C75653D4F6E207374796C80
:100B8000653D2277696474683A343570783B6865EE
:100B9000696768743A343570783B223E003C707265
:100BA000653E3C666F726D206D6574686F643D676D
:100BB00065743E0052656C61792000223E3C696E8E
:100BC00070757420747970653D7375626D697420F9
:100BD0006E616D653D6163742076616C75653D2263
:100BE000536176652026205265626F6F74223E3C09
:100BF0002F666F726D3E3C2F68746D6C3E003E44F4
:100C00004843503C62723E3C696E70757420747942
:100C100070653D68696464656E206E616D653D73E5
:100C200069642076616C75653D22002063686563A8
:100C30006B6564003C62723E3C696E707574207432
:100C40007970653D636865636B626F78206E616D76
:100C5000653D646800006400000067003C62723E0D
:100C6000444E532020000073003C62723E475720E0
:100C7000202000006D003C62723E4D41534B20002D
:100C8000253032783A253032783A253032783A2594
:100C90003032783A253032783A253032780049506F
:100CA0002020200069003C62723E4D41432020001C
:100CB0003C7072653E3C666F726D206D6574686F46
:100CC000643D6765743E0025642E25642E25642EE0
:100CD0002564003C2F6672616D657365743E3C2F20
:100CE00068746D6C3E00206E616D653D72663E00FD
:100CF0003C2F6672616D657365743E3C6672616D12
:100D000065207372633D2F696E666F3F7369643D42
:100D100000206E616D653D6C663E003C6672616DE3
:100D200065207372633D2F6465763F7369643D008F
:100D3000206E616D653D6D663E003C6672616D655D
:100D4000207372633D2F6D656E753F7369643D005E
:100D50003C68746D6C3E3C6672616D6573657420B1
:100D6000636F6C733D223137302C2A223E3C667211
:100D7000616D6573657420726F77733D2232363012
:100D80002C202A22207363726F6C6C696E673D227F
:100D90006E6F223E002566006D6D0025332E316694
:100DA00000250025322E316600266465673B43002E
:100DB00025322E326600223E002076616C75653D3C
:100DC00022003C696E70757420747970653D74659D
:100DD0007874206E616D653D003C68746D6C3E3CBE
:100DE000686561643E3C6D6574612063686172731F
:100DF00065743D2277696E646F77732D31323531BA
:100E0000222F3E3C2F686561643E3C626F64793EF0
:100E100000485454502F312E3020343034204E6F3F
:100E20007420466F756E640D0A436F6E74656E7440
:100E30002D547970653A20746578742F68746D6CE0
:100E40000D0A0D0A45727200485454502F312E304D
:100E500020323030204F4B0D0A436F6E74656E7434
:100E60002D547970653A20746578742F68746D6CB0
:100E70000D0A507261676D613A206E6F2D63616378
:100E800068650D0A0D0A003030004E6F206E616DEE
:100E90006500828282820000004F586D0205C0A862
:100EA00001DEFFFFFF00C0A80101C0A80101000092
:100EB000828282820000004F586D0205C0A801DEC8
:100EC000FFFFFF00C0A80101C0A8010100002F70B2
:100ED0006F73742E706870006E61726F646D6F6EE8
:100EE0002E7275006E616E00696E660000407A10A9
:100EF000F35A00A0724E18090010A5D4E80000E8CB
:100F00007648170000E40B54020000CA9A3B000028
:100F100000E1F505000080969800000040420F00B7
:100F20000000A08601000000102700000000E80378
:100F3000000000006400000000000A000000000043
:100F40000100000000002C76D888DC674F0823DF02
:100F5000C1DFAE59E1B1B796E5E3E453C63AE651D5
:100F6000997696E8E6C28426EB898C9B62ED407CFC
:100F70006FFCEFBC9C9F40F2BAA56FA5F490055A98
:100F80002AF75C936B6CF9676DC11BFCE0E40D47BD
:100F9000FEF520E6B500D0ED902E030094357705E0
:100FA0000080841E080000204E0A000000C80C3398
:100FB0003333330F986E12831141EF8D2114893B27
:100FC000E65516CFFEE6DB18D1844B381BF77C1DA7
:100FD000901DA4BBE424203284725E228100C9F1FA
:100FE00024ECA1E53D274E414E494E495459494E06
:100FF00046CDCCCC3D0AD7233C17B7D13877CC2B84
:10100000329595E6241FB14F0A000020410000C828
:101010004200401C4620BCBE4CCA1B0E5AAEC59DA9
:10102000740011241FBECFEFD8E0DEBFCDBF11E0AA
:10103000A0E0B1E0E8E5FEE702C005900D92A23D18
:10104000B107D9F728E0A2EDB1E001C01D92AA35A1
:10105000B207E1F787D50C942A3F0C9400008091E9
:10106000E6018F5F8093E6010895DF92EF92FF9291
:101070000F931F93CF93DF9300D000D000D0CDB754
:10108000DEB77C01D62E86E0E5E1F1E0DE011196C7
:1010900001900D928A95E1F78E010F5F1F4F23E4B7
:1010A00030E0A80164E470E0C7010E945414F70125
:1010B000128E138E148E158E81E082A783A796E080
:1010C00094A715A686A7D7A6D0AAD1AAF296D7012B
:1010D000AA5BBF4F1192EA17FB07E1F79701245B68
:1010E0003F4FCD0180549109FC0180818D93A2175F
:1010F000B307B9F7C7018A5E9E4FF90111929F01AC
:10110000E817F907D1F783E68083F701E95EFE4F20
:1011100092E89083319693E590833196808326966A
:101120000FB6F894DEBF0FBECDBFDF91CF911F91F8
:101130000F91FF90EF90DF900895CF93DF93EC0134
:1011400094DFFE01E65EFE4F85E38083319681E009
:10115000808331968083319697E39083319692E035
:10116000908331968083319683E0808331968FEF30
:1011700080833196108268EF70E0CE010E94C01427
:1011800080E0DF91CF9108956D3121E0720700F189
:101190002AE131E0A9014E5F5F4F46175707C0F4BF
:1011A000FC01E20FF31FA181AA2391F02A0F311D48
:1011B000D90111966A177B0758F0E081E53329F4CD
:1011C000FC01E40FF51F808108952E5F3F4FE2CFB1
:1011D00080E00895FC016F3F710591F088F082ADC9
:1011E000882379F082AD93ADA4ADB5AD8093E201D3
:1011F0009093E301A093E401B093E50181E00895A9
:1012000080E00895FC016F3F710569F060F083A1F3
:10121000833449F482A5823031F497A5941303C036
:1012200081E020A9291380E00895FC016F3F71053A
:1012300029F020F081E096A5923009F080E0089531
:101240004F925F927F928F929F92AF92BF92CF9276
:10125000DF92EF92FF920F931F93CF93DF938B0157
:101260006D31714008F4C8C0E091D201F091D30112
:101270007090D50140E050E0BA01AAE14A2E552411
:1012800053942EED31E0B4E0AB2EA20E26ED31E00A
:10129000C4E0BC2EB20E2AED31E0D4E08D2E820ED9
:1012A00092012E5F3F4F2017310750F46201AFEFDC
:1012B000CA1ADA0AEC01CC0DDD1DD881D11108C0A3
:1012C000F093D301E093D2017092D50181E095C0F3
:1012D000ED2EF12CCE0CDF1C0C151D0588F36C01D6
:1012E000C40CD51CD601CC91C33019F128F4CC2301
:1012F00069F0C13069F07AC0C53309F45AC0C63309
:1013000009F45CC0C33309F071C024C028016EC069
:10131000D43009F06BC06C01C20ED31E2AED31E04F
:10132000D6019D906D01D9019D929D018A12F8CF41
:101330005DC0D43009F05AC06C01C20ED31E2EED30
:1013400031E0D6019D906D01D9019D929D01AA12B7
:10135000F8CF4CC0D43009F041C020E030E0762F07
:10136000652F542F4427F601E20FF31FE2814E2B25
:101370002F5F3F4F2430310591F74F3FBFEF5B07A1
:101380006B077B0771F126E0769567955795479532
:101390002A95D1F74E3FCFEF5C076105710520F527
:1013A000FA01453051056105710500F5E5E0F0E011
:1013B0001DC0EC01C20FD31F788018C0D430B1F427
:1013C0006C01C20ED31E26ED31E0D6019D906D0159
:1013D000D9019D929D01BA12F8CF08C0E0EAF5E06C
:1013E00005C0EFEFFFEF02C0EDEFFFEFB2E0EB0E55
:1013F000F11C4E0C5F1C54CF80E0DF91CF911F9108
:101400000F91FF90EF90DF90CF90BF90AF909F90A3
:101410008F907F905F904F900895CF93DF93EC0172
:1014200024DEFE01E65EFE4F85E38083319681E097
:101430008083319683E080838091D6018823A9F050
:1014400086E33196808384E0319680838091D60153
:101450009091D701A091D801B091D90131968083A4
:101460009183A283B38369E001C063E08091E201CC
:101470008823C9F0CE01860F911DFC01E65EFE4F68
:1014800022E32083319624E0208331968091E2018B
:101490009091E301A091E401B091E50180839183F3
:1014A000A283B3836A5F70E0CE01860F971FFC01B1
:1014B000E65EFE4F27E32083319622E020833196BB
:1014C00021E02083319623E0208331962FEF208383
:1014D000319610826B507F4FCE010E94C01480E085
:1014E000DF91CF9108950F931F93CF93DF93EC017A
:1014F0008A01BBDD82E08EA7F80180819181A28103
:10150000B3818A8F9B8FAC8FBD8F80819181A281A7
:10151000B3818EAB9FABA8AFB9AFFE01E65EFE4FC5
:1015200085E38083319681E08083319683E08083F8
:1015300063EF70E0CE010E94C01480E0DF91CF9194
:101540001F910F910895CF92DF92EF92FF920F9328
:101550001F93CF93DF931F92CDB7DEB78C017B0132
:101560004983FAD4D82E4981882309F468C0E1144C
:10157000F104A9F58091000190910101823091055B
:1015800081F481E090E0909301018093000110923A
:10159000E6014093D401D4D46091D401C801CDDDDB
:1015A0004DC0D090E201D11011C02091E60126304B
:1015B00068F08091D4018F5F8093D4011092E6018E
:1015C000BFD46091D401C801B8DD39C08330910522
:1015D000A8F1019790930101809300012FC0C09062
:1015E000D4014C2DB701C8010DDED82E882339F166
:1015F000B701C8011ADE813009F1B701C801C4DDA5
:10160000823081F481E090E09093010180930001A9
:10161000B701C801DFDDB701C80112DE6C2DC801BA
:10162000FCDE0CC0853051F481E090E09093010124
:10163000809300018BD4DD24D39401C0D12C8D2D57
:101640000F90DF91CF911F910F91FF90EF90DF905E
:10165000CF9008950F931F93009769F00091E201D6
:101660001091E3012091E4013091E501FC01008338
:101670001183228333836115710569F08091DA014A
:101680009091DB01A091DC01B091DD01FB01808331
:101690009183A283B3834115510569F08091DE01E6
:1016A0009091DF01A091E001B091E101FA01808306
:1016B0009183A283B3831F910F9108950F931F937A
:1016C000CF93DF938C01EB018091E601893088F0A4
:1016D0001092E6018091D2019091D3019C01225099
:1016E00031092D3F3F4F28F401979093D301809308
:1016F000D2012097C9F48091D2019091D301039730
:1017000038F52AD4882321F16091D4016F5F60936A
:10171000D40142EE51E0C801E6DE85E090E090930E
:10172000D3018093D20114C04091D401BE01C801FD
:1017300069DD882381F0BE01C80126DD853041F4D2
:10174000BE01C80172DD882319F0BE01C80178DD31
:1017500080E090E001C0CE01DF91CF911F910F9109
:10176000089599B121E030E002C0220F331F8A951D
:10177000E2F7892F90E02823392381E0121613061F
:101780000CF080E008950F931F93CF93DF93182FF1
:101790000FB7F8949AB1C1E0D0E001C0CC0F8A95A0
:1017A000EAF79C2B9AB92BB1DC2FD0952D232BB9BE
:1017B00081E090E00E9475338BB1C82BCBB98AE6EB
:1017C0008A95F1F700C09AB19D239AB98AE68A9565
:1017D000F1F700C0812FC5DF0FBFDF91CF911F91BF
:1017E0000F910895AF92BF92DF92EF92FF920F9305
:1017F0001F93CF93DF93082FDFB6F894C7E0D0E0B4
:1018000010E0AA24A394B12C92E1E92E97E2F92EDC
:10181000802FA7DF811106C0A89521E0E21AF10808
:10182000B9F71EC080E58A95F1F7802F9ADF8130E5
:1018300039F4C5010C2E01C0880F0A94EAF7182B61
:1018400082E1E82E87E2F82E802F8BDF813031F4A1
:10185000A89581E0E81AF108B9F702C02197A0F62F
:10186000DFBE812FDF91CF911F910F91FF90EF90FD
:10187000DF90BF90AF900895EF92FF920F931F9368
:10188000CF93DF9300D000D01F92CDB7DEB7F82EF4
:1018900010920201F89477DF80930201813009F4FD
:1018A00051C085E88A95F1F7000008E410E08F2D1B
:1018B00058DF811108C00150110929F0E2E0EA95D2
:1018C000F1F700C0F4CF8F2D4CDF811102C082E010
:1018D0001DC0F5EDFA95F1F700008E010F5F1F4F67
:1018E00075E0E72EE00E8F2D7DDFF80181938F01EB
:1018F000EE12F9CF89814A812B813C81942F980F78
:10190000920F930F5D81591721F087E380930201B5
:1019100019C090E0982F8827840F911D9093E801BB
:101920008093E701822F8F7790E0982F8827830F8D
:10193000911D27FF03C09195819591099093EA012C
:101940008093E90178940F900F900F900F900F9073
:10195000DF91CF911F910F91FF90EF9008958091AB
:10196000F0010895ECEEF1E024E02E0F3191DC015E
:101970003D93CD012E13FACF0895EF92FF920F936E
:101980001F93CF93DF93EC01F62EE72E8A0110927E
:10199000F001E2D2811105C084E08093EB0181E087
:1019A00067C01092EB018091F1018F5F8093F1018C
:1019B00090E0BC01706E25E330E043E558E0CE01D5
:1019C00073D78091F1018BA781E08CA7FE01BD96B2
:1019D000CE01C6961192E817F907E1F781E08FA7CB
:1019E000EF2DFE2D9CE04DE04F19642F6E0F5081BE
:1019F000262F30E0552391F05E3241F4DE01A90F2D
:101A0000B11D81509A968C93962F80E05191DE0102
:101A1000A20FB31F9A965C938F5FE7CFFE01E90F89
:101A2000F11D815082A7FE01E20FF31F12A681E093
:101A3000860FFE01E80FF11D12A682E0860FFE015F
:101A4000E80FF11D81E082A793E0960FFE01E90FF8
:101A5000F11D12A694E0960FFE01E90FF11D82A779
:101A600089EF860F8AA76B5F70E0CE0189D780E08F
:101A7000DF91CF911F910F91FF90EF900895CF9339
:101A8000DF93FC016634710508F468C083A18533D7
:101A900009F064C084A1803E09F060C085A19091E6
:101AA000F10189135BC093A5981358C085A58F7861
:101AB000803811F081E038C022A5245F615371099C
:101AC000DF01A20FB11D9A968C91807C11F02E5FE0
:101AD0000EC0822F90E08617970748F42F5FDF0132
:101AE000A20FB11D9A968C918111F3CF2F5FDF0168
:101AF000A20FB11D9B968C919B97813081F088E05D
:101B0000820FDF01A80FB11D9B968C91265F280FD5
:101B1000822F90E08617970798F283E005C0D3964E
:101B20009C91943021F082E08093EB0117C0265FF6
:101B3000CCEED1E040E050E030E0DA01A20FB31F7C
:101B4000AE0FBF1F9A969C9199934F5F5F4F4430A1
:101B5000510599F791E09093F00101C080E0DF9189
:101B6000CF91089510923E0210923D02F8949FE0AA
:101B700088E10FB6F894A895809360000FBE90930B
:101B800060000E945132189903C080E00E947332B5
:101B90008AEF90E00E947533A8950E944C33109212
:101BA000DE0310920C0410923A0410926804109212
:101BB00096044FE050E060E570E08FEE94E00E9404
:101BC000DA3E2091990430919A04A4E6B0E00E9494
:101BD000673A60930D0170930E0180930F0190930B
:101BE000100180E40E948E1980E80E948E1946E45C
:101BF00055E066E080E40E94161B46E455E067E08D
:101C000080E80E94161B8FEE92E00E9475330E94BE
:101C100038327894809157088F3F91F581E498E0AD
:101C20001DD366E475E08EEE92E0D8D110923408B0
:101C300040914608BC0186E495E085DCC82F81E030
:101C40000E94FC1ACC2369F34FE458E06BE478E07F
:101C500087E498E0FFDC80914F0890915008A091B4
:101C60005108B09152088093530890935408A09360
:101C70005508B09356086BE478E087E498E0F9D211
:101C800067E478E081E498E0A3D580E590E0B1D501
:101C900063D1811102C00E943832A8950E94202889
:101CA0000E94551EF5CF2A98962F9F71892B8EBDC5
:101CB0000DB407FEFDCF1EBC0DB407FEFDCF67FDC2
:101CC00003C02A9A8EB508951EBC0DB407FEFDCF41
:101CD000F8CF2A986F71862B8EBD0DB407FEFDCF0D
:101CE0004EBD0DB407FEFDCF2A9A0895FB012A9838
:101CF0002AE32EBD0DB407FEFDCF8E0F9F1FE81700
:101D0000F90739F01EBC0DB407FEFDCF2EB52193A7
:101D1000F6CF10822A9A08952A982AE72EBD0DB48C
:101D200007FEFDCF860F971F6817790741F0FB016B
:101D30002191BF012EBD0DB407FEFDCFF5CF2A9A2C
:101D400008951F93CF93DF93182F1076C12FD0E003
:101D50002091F40130E0C217D30779F043E06FE13E
:101D600080EAB7DFAE0185E0559547958A95E1F7A2
:101D70006FE180E8AEDF1093F401DF91CF911F9106
:101D80000895CF93DF931F92CDB7DEB7682F698395
:101D9000D8DF698180E00F90DF91CF9184CF1F93CE
:101DA000CF93DF931F92CDB7DEB7182F6983C9DFBA
:101DB0004981612F80E40F90DF91CF911F9189CFEE
:101DC000CF93682F84EDEBDF61E082EDE8DF8AEEF0
:101DD000D8DF80FDFCCF60E082EDE1DF89EDD1DF6F
:101DE000C82F88EDCEDF2C2F30E0322F2227A9011B
:101DF000482BCA01CF9108951F93CF93DF931F9271
:101E0000CDB7DEB7162F682F84ED7983C8DF612F39
:101E100086EDC5DF7981672F87EDC1DF18E28AEE95
:101E2000B0DF80FF04C0812F8A95F1F7F8CF0F90C3
:101E3000DF91CF911F910895CF93DF93EC01229A08
:101E40002A9A84B1886284B924982B982D9880E5C9
:101E50008CBD8DB581608DBD4FEF60E08FEF39DFB8
:101E600080E090E00197F1F71092F3011092F201F7
:101E700060E088E094DF60E089E091DF60E08CE082
:101E80008EDF60E08DE08BDF6FEF8AE088DF69E155
:101E90008BE085DF60E084E082DF6AE185E07FDF60
:101EA0006FEF86E07CDF6FE187E079DF60EB88E34E
:101EB00076DF6FE388E273DF60E389E270DF69EF6A
:101EC00080E36DDF67EF81E36ADF6DE080EC67DF61
:101ED00060E081EC64DF42E362EC80E8FADE62E11C
:101EE00086EC5DDF6CE087EC5ADF62E184EC57DF63
:101EF0006CED8AEC54DF65E08BEC51DF688184EE99
:101F00004EDF698185EE4BDF6A8182EE48DF6B81AF
:101F100083EE45DF6C8180EE42DF6D8181EE3FDF35
:101F200060E071E080E168DF8FE10BDF40EC6BE1A6
:101F300080E8CFDE44E06FE180E8DF91CF91C9CE49
:101F400088E31FDF682F616088E329CF88E319DF0A
:101F5000682F6E7F88E323CF81E132DF92FB8827F1
:101F600080F908950F931F93CF93DF93EC018B01BA
:101F70006FE180E098DE83FDFBCF8CE102DF81FF23
:101F800010C040E86FE180E8A4DE40E86FE180EA3D
:101F9000A0DE42E06CE180EA9CDE80E395E70197F9
:101FA000F1F760E082E0FBDE6AE183E0F8DE6C2FAF
:101FB00086E0F5DECE01965E692F87E0F0DE40E038
:101FC00060E08AE786DEB801CE01A6DE48E06FE178
:101FD00080E8DF91CF911F910F917BCE9F92AF92BE
:101FE000BF92CF92DF92EF92FF920F931F93CF9306
:101FF000DF936C017B0189E3C4DE882309F44EC0C2
:102000006091F201C091F30180E0C9DE6C2F81E0A4
:10201000C6DE60E08AE347DE082F60E08AE343DE45
:1020200010E0182B1093F3010093F20160E08AE3B3
:102030003ADEC82F60E08AE336DE982E60E08AE35D
:1020400032DEA82E60E08AE32EDEA7FE0EC09601E7
:1020500021503109D0E0D92924972C173D0708F4E5
:10206000E901B701CE0142DE02C0C0E0D0E06FEF6F
:1020700001308AE1180724F08CE091DE69E106C0A6
:10208000600F8CE08CDE01501109612F8DE087DE3E
:1020900040E46EE180E81DDECE0102C080E090E009
:1020A000DF91CF911F910F91FF90EF90DF90CF9034
:1020B000BF90AF909F900895CF92DF92EF92FF92E2
:1020C0000F931F93CF93DF937A01690190910D02D3
:1020D000891759F0E0910A02F0910B0240E050E0BC
:1020E00060E070E084EF91E03EC061113DC02D30B2
:1020F0003105D0F100910A0210910B020115110572
:1021000099F1C091FE01D091FF01C40FD51F8885C0
:1021100090E00E94AF3B892B09F1A985B0E0D097F0
:10212000AA30B105D8F48B8590E0C0978A3091052C
:10213000A8F46AE06A9FA0016B9F500D11243A85B4
:10214000232F30E020533109240F351F629FA00157
:10215000639F500D1124840F951F02C080E090E012
:10216000A601B701F801099580E0DF91CF911F9199
:102170000F91FF90EF90DF90CF900895CF92DF9274
:10218000EF92FF920F931F93CF93DF937C01FB019C
:10219000413051F4AB014850510960E070E04F5EAE
:1021A0005F4F6F4F7F4F0FC0423051F4AB0148502B
:1021B000510960E070E04A5F5F4F6F4F7F4F03C08F
:1021C00040E050E0BA01D70111966F0182E0C816D5
:1021D000D104B0F0CD010197EC01088110E020E0BE
:1021E00030E0322F212F102F00278C91082B400F29
:1021F000511F621F731FD2E0CD1AD1081296E6CF8D
:10220000CF018E7FD701A80FB91FE0FF0CC08C91C2
:1022100090E0A0E0B0E0BA2FA92F982F8827480FB0
:10222000591F6A1F7B1F8B012227332701151105B8
:102230002105310539F066277727400F511F621FAE
:10224000731FF1CFCA0180959095DF91CF911F91B7
:102250000F91FF90EF90DF90CF900895FC01892BB4
:1022600039F096E0A6E2B2E001900D929A95E1F77E
:102270000895009721F46115710559F40895FC0142
:10228000A2E2B2E084E08A0F91919D938A13FCCF81
:10229000F2CFFB01A4E0B1E084E08A0F91919D931D
:1022A0008A13FCCF0895DC015A96FB014E963D91AE
:1022B0002191321305C0A817B907C9F781E0089525
:1022C00080E0089569327105A0F0FC012485283072
:1022D00081F42585263069F4B696A2E2B2E084E066
:1022E0008A0F21919D91291304C08A13FACF81E0AE
:1022F000089580E00895FC016A327105B0F084858C
:10230000883099F48585811110C09685953471F4D3
:102310007E96A2E2B2E094E09A0F31912D913213B1
:1023200005C09A13FACF81E0089580E00895CF9315
:10233000DF93A6E2B2E09C012A5F3F4FF9014081A2
:10234000EC014993CE014D914193C217D307B9F7E0
:10235000DF91CF910895CF93DF93EC01188E198E02
:1023600080E48C8B1D8A8E8B40E064E170E0CE01AE
:102370000E9604DF988F898FDF91CF910895CF93C8
:10238000DF93EC016E96DC015A96E2E2F2E024E083
:102390002E0F3C91399331913D932E13FACFDF915B
:1023A000CF91D9CF9C01265D3F4FFC01BE96D9014C
:1023B0008E91680F711D82916083442311F08C937C
:1023C00001C01C92672F7727E217F30789F708955A
:1023D000CF93DF93EC018CA19AA19CA38AA38DA13A
:1023E0009BA19DA38BA3CE01DDDF1AAA1BAA80E5CA
:1023F0008EA7DF91CF910895CF93DF93EC0197DF04
:102400001C8A82E08D8BCE018096DE01569646E2D4
:1024100052E026E0240F3C91FC013193CF01FA01F8
:102420003191AF013D932E13F6CFCE018696DE019A
:102430005C9642E252E024E0240F3C91FC0131938F
:10244000CF01FA013191AF013D932E13F6CFBE01BA
:102450008AE290E0DF91CF9185CD0F931F93CF93C8
:10246000DF93EC018B0163DFCE0189DF1AA29CA10F
:10247000983F18F02DA12F5F2DA3985F9CA3BE015C
:10248000C801DF91CF911F910F916CCDFC01208984
:1024900030E0322F22278189282B2451310986A54B
:1024A00082958F70A90164E0869F4019510911241B
:1024B000CA0157FF02C080E090E008959C01CB0163
:1024C000FC01E61BF70BE40FF51FE491EE2339F056
:1024D000D901A80FB91FD696EC930196F1CF0895B4
:1024E000DB01D696A80FB91FFA01420F4E1719F05B
:1024F00081918D93FBCFCB01820F911D0895FA013D
:1025000001900020E9F731979F01241B350BE8CF9C
:10251000EF92FF920F931F93CF93DF9300D000D0E1
:102520001F92CDB7DEB790910D02891392C08091B2
:102530000C020091FE011091FF01811126C04EE2B4
:1025400051E060E070E0C801B9DF409104025091B1
:102550000502BC01C801B2DF4091020250910302A2
:10256000BC01C801CCDF4CE151E0BC01C801A6DFD1
:102570004091000250910102BC01C8019FDF4FEE63
:1025800050E0BC01C8019ADF66C049EE50E060E04F
:1025900070E0C80193DF4091040250910502BC0134
:1025A000C801ADDF4091020250910302BC01C80195
:1025B000A6DF47ED50E0BC01C80180DF409100027A
:1025C00050910102BC01C8019ADFE0900802F0902E
:1025D0000902E114F10449F044ED50E0BC01C801E6
:1025E0006DDFA701BC01C80169DF4FEA50E0BC0103
:1025F000C80164DF4EE950E0BC01C8015FDF7C0127
:10260000A0910602B0910702FD0101900020E9F7B8
:1026100031974AE0BE016F5F7F4FCF018A1B9B0B52
:102620000E94313C0091FE011091FF01AE014F5F0D
:102630005F4FB701C80163DF48E650E0BC01C80145
:102640003DDF4091060250910702BC01C80157DFEF
:1026500002C080E090E00F900F900F900F900F90CD
:10266000DF91CF911F910F91FF90EF9008950F93FD
:102670001F93CF93DF9300D01F92CDB7DEB78C01AD
:102680004B8369837A8353DE4B81842F8061F80109
:1026900087A769817A81443029F06115710511F4A9
:1026A00061E070E041E0C80193DEF801108A88E241
:1026B000818BC80164DE84E0F80180AB11AA42E09E
:1026C0006CE170E0C8014A9659DDF80192AB83AB2A
:1026D000B80186E390E00F900F900F90DF91CF91BB
:1026E0001F910F913FCC0F931F93CF93DF93EC017A
:1026F0008B01CB018896988B898BCE012CDE1AAA90
:102700001BAAB801645E7F4F42E0CE014A9636DDD7
:102710009AAB8BABBE01C801C696DF91CF911F91DA
:102720000F9120CCCF92DF92EF92FF920F931F93E5
:10273000CF93DF9300D0CDB7DEB76C01F42EE52E3A
:1027400069837A83F4DD6981062F7A81172F0D3D25
:10275000110510F00CED10E0F601108AC8014C963E
:10276000818BC6010CDEF60182A184A383A185A31F
:10277000E2A2F3A216A2C801089687A310A611A68A
:10278000B801605F7F4F41E0C6014A96F7DCF60171
:1027900090A781A7B601C8018A960F900F90DF918C
:1027A000CF911F910F91FF90EF90DF90CF90DACBF8
:1027B000FB01BC01665D7F4FDB015A2F561B54178E
:1027C00018F451915D93F9CF642F70E0A901AACF5D
:1027D0006115710519F4009759F40895FB01A2E2FF
:1027E000B2E024E02A0F31913D932A13FCCFF3CFBE
:1027F00035CD9093F701809308010895CF93DF932F
:10280000EC0195DD188A8CE2898BCE01B8DD82E17E
:102810008FA740E061E070E0CE01DADD1EA21FA2CA
:1028200080910C0188A719A68D5F80930C0182E02E
:102830008EAB84E08FAB85E088AF19AE80E68EA7C3
:102840008AE088AB19AA42E060E270E0CE014A96C5
:1028500095DC9AAB8BABBE018AE390E0DF91CF9120
:1028600081CB0F931F93CF93DF93EC018B0160918A
:10287000F5017091F60140E0FADE89E18FA7B80119
:10288000CE01DF91CF911F910F912DCF640F751F56
:102890004617570741F0FA012491FC012193CF011B
:1028A0004F5F5F4FF5CF0895AF92BF92CF92DF9207
:1028B000EF92FF920F931F93CF93DF9300D0CDB78A
:1028C000DEB75C01F62EE72E6A01B5016A5F7F4F25
:1028D000E6E2F2E046E04E0FD8015D918D01DC01A9
:1028E0005D93CD015191DB015D93BD014E13F4CF9A
:1028F00088E0F501848715864BE351E069E070E0DC
:10290000C5010E9629833A83C1DF80910301D50169
:1029100053968C9353978F5F8093030150961C922C
:10292000509781E157968C938601C5014E96E2E25D
:10293000F2E044E04E0F3A812981D8015D918D018A
:10294000DC015D93CD015191BD0165507109DB0141
:102950005C934E13F2CFF50134A325A3E2A2F3A2B8
:1029600016A210A611A60F900F90DF91CF911F9184
:102970000F91FF90EF90DF90CF90BF90AF900895B0
:102980000F931F93CF93DF93EC018B01CB014C96F8
:10299000898B988BCE01DFDCC80108968FA39EA39C
:1029A000B801605F7F4F41E0CE014A96E7DB89A71F
:1029B00098A7BE01C8018A96DF91CF911F910F9110
:1029C000D1CAEF92FF920F931F93CF93DF93209181
:1029D0002202222309F44CC0EC0126E2E22E22E07E
:1029E000F22EDC011696F7014FEF26E02E0D4993EB
:1029F00031913D932E13FBCF8B01EC0188E08C8746
:102A000086E08D8743E351E068E070E0CE010E96EA
:102A10003DDFAE01405E5F4FDE019696F7012191EA
:102A20007F01CA010A97FC012083FA011192AF01CC
:102A3000EA17FB0799F7C80162E272E024E0260F6B
:102A4000FC013191CF013D93FB013191BF01AD01FB
:102A50004B505109FA0130832613F2CFBE018AE2AE
:102A600090E0DF91CF911F910F91FF90EF907ACA84
:102A7000DF91CF911F910F91FF90EF90089581E02A
:102A80009091F901923009F480E008955093E604A2
:102A90004093E50421E02093F9016093F801EAEF07
:102AA000F1E024E02E0FDC013D91CD0131932E1396
:102AB000FACF0895FF920F931F93CF93DF93EC010A
:102AC000162F042FF52E9C0186E292E0BE016A5F6C
:102AD0007F4FE5E1F2E046E04E0F5191D9015D9361
:102AE0009D01DC015D91CD01DB015D93BD014E13C4
:102AF000F4CF88E08C871D864BE351E069E070E0FD
:102B0000CE010E96C3DE8CE2898B809103018B8B04
:102B10008F5F8093030186E08F8BDE015E9682E2F9
:102B200092E06BE172E024E0260FFB013191BF01DE
:102B30003D93FC013191CF01AD0145505109FA019E
:102B400030832613F2CFCE0106DCFCA20DA38BE06E
:102B50008AA31BA3FE01B696CE018E961192E817AA
:102B6000F907E1F780910C0188A78D5F80930C0134
:102B700080E68EA782E08FA793E098AB19AA1AAAE5
:102B80001BAA1CAA1DAA8EAB94E09FAB88AF8EEE49
:102B900089AF42E060E270E0CE014A96EFDA9AAB8C
:102BA0008BABBE018AE390E0DF91CF911F910F9133
:102BB000FF90D8C90F931F93909311028093100236
:102BC00070930F0260930E02D901EBE1F2E084E012
:102BD0008E0F9D9191938E13FCCFD801E5E1F2E029
:102BE00086E08E0F9D9191938E13FCCF509313022C
:102BF0004093120281E08093140280911F028F5F44
:102C0000883018F480931F0202C010921F02809136
:102C10001F021F910F9108952F923F924F925F9242
:102C20006F927F928F929F92AF92BF92CF92DF92DC
:102C3000EF92FF920F931F93CF93DF9300D0CDB706
:102C4000DEB73C011B012A0129833A8385D92981FA
:102C50003A81882329F17092050260920402509211
:102C6000010240920002309203022092020230934D
:102C7000090220930802109307020093060281E0E4
:102C800080930C02F0920B02E0920A0285019601F9
:102C9000A40168E872E18CE590E18CDF80930D027D
:102CA0000F900F90DF91CF911F910F91FF90EF90B8
:102CB000DF90CF90BF90AF909F908F907F906F905C
:102CC0005F904F903F902F900895AF92BF92DF9208
:102CD000EF92FF920F931F93CF93DF931F92CDB785
:102CE000DEB75C017B016115710509F04EC0809172
:102CF000F901893069F48091090190910A01892BC9
:102D000039F42AD9882321F06AEF71E0C50159DE30
:102D10008091F901813081F41FD9882369F06AEF2D
:102D200071E0C5014EDE8091F90188608093F90160
:102D300010920A01109209018091090190910A01F3
:102D4000019690930A0180930901809114028130C9
:102D500009F066C101D9882309F462C182E0809339
:102D6000140260910B016F5F60930B01409112029E
:102D7000509113026F7180911F0220E2829FC00167
:102D80001124682BC50196DE4BC19CDA882351F1D2
:102D9000D50155968C91813011F4C5012DDB8091C0
:102DA000F90183FF3DC1F5011589123009F038C1E1
:102DB00044E050E06AEF71E0C5014C960E94DF3BB1
:102DC000892B09F02DC1A5014A5E5F4FE091E50412
:102DD000F091E6046091F8018AEF91E00995109373
:102DE000F9011EC1B701C50186DA882309F418C1AB
:102DF000D50157968C915797813091F492968C918A
:102E0000883009F00DC1E0912002F0912102309745
:102E100019F0C5014A960995B701C5011EDB00C12D
:102E2000B6E3EB16F10408F4FBC0863009F0F8C0F5
:102E3000F50184A18B3009F0C1C0B092FF01A092CE
:102E4000FE016BE172E0C5012EDA882309F4E8C0C7
:102E5000D5019F962C919F9722FF13C0E0911002FD
:102E6000F0911102309759F095968C9120E030E066
:102E700040E050E063E0829586958770099586E092
:102E800092C0C501298302DB8C0180911402298143
:102E9000823089F5822F807122712231F9F440E06D
:102EA00060E070E0C501E3DB88E1F50187A7E09110
:102EB0000E02F0910F02309741F0D50193968C915C
:102EC000829586958770099502C080E090E023E0A6
:102ED00020931402BC01C50106DCA2C091E09093CE
:102EE0001402811104C0B8016F5F7F4F02C060E01F
:102EF00070E044E060C08330A9F50115110591F13F
:102F000084E080931402E0911002F0911102309756
:102F100049F1D5019E964C9142954F70B4E04B9F7C
:102F2000A0011124C70108974E5D5F4F84179507D4
:102F300008F4AC01C801840F951FE816F90620F4C7
:102F40009701241B350B01C09801D50195968C91F2
:102F500060E08295869587700995882319F049E08D
:102F6000B8011EC090911402F50187A5953019F49F
:102F700084FD85CF55C0963069F484FD04C0B80146
:102F80006F5F7F4F02C060E070E044E0C5016FDB1F
:102F900087E009C080FF0AC0B8016F5F7F4F41E042
:102FA000C50165DB85E0809314023AC00115110567
:102FB000B9F140E0B801C5015ADB32C09091F70188
:102FC00089132EC095A180910801981329C0D7A418
:102FD000D1FE03C0C50112DC23C0D4FE21C0C5014F
:102FE00055DA8C019093F6018093F501892B41F419
:102FF000D0FE16C040E060E070E0C50138DB12C0D2
:10300000F50106A502950F70F4E00F9F80011124D1
:103010000E5D1F4F28E0E21AF108E016F10610F4E9
:1030200000E010E0C8010F90DF91CF911F910F9148
:10303000FF90EF90DF90BF90AF90089598E028E167
:10304000362F382730FD02C0669503C0622766958B
:10305000606886959150A1F7862F0895EF92FF92B0
:103060000F931F93CF93DF93EC017C0187E0E80E71
:10307000F11C8E0160E0F80181918F01DFDF682F84
:103080000E151F05C1F781E09F81691301C080E023
:10309000DF91CF911F910F91FF90EF900895EF92E4
:1030A000FF920F931F93CF93DF93EC017C0188E095
:1030B000E80EF11C8E0160E0F80181918F01BEDF06
:1030C000682F0E151F05C1F781E09885691301C0AF
:1030D00080E0DF91CF911F910F91FF90EF900895C5
:1030E0001F93CF93DF93D82F162FC8E0812FD0FFE7
:1030F00002C022D101C039D1D695C150B9F7DF91B4
:10310000CF911F9108951F93CF93DF93182FD8E08D
:10311000C0E0C695812F42D18111C068D150C9F756
:103120008C2FDF91CF911F910895682F8CECD8CF11
:10313000CF92DF92EF92FF921F93CF93DF931F9274
:10314000CDB7DEB7F82E162F85E59983C9DFCF2CD2
:103150009981D92E760188E0E80EF11C612FF601E5
:1031600081916F01BDDF81E090E00E947533CE1444
:10317000DF04A1F70F90DF91CF911F91FF90EF90A7
:10318000DF90CF900895CF92DF92EF92FF920F934E
:103190001F93CF93DF938C01D62EE42E642F80EF04
:1031A0009FDFC1E0F12CD1E08E2DF8D0C82E8E2DFE
:1031B000F5D0CC2039F0811131C0F80180818C2B01
:1031C000808319C0F8019081882321F08C2F80958D
:1031D000982303C0DD1104C09C2BF80190830BC021
:1031E000DD1630F48C2F80959823F801908302C06F
:1031F0009C2309F4FD2EF80180818C2319F08E2D7B
:103200009BD002C08E2DB1D0DF5FCC0F19F40F5FC1
:103210001F4FC1E0D13441F68F2D01C08FEFDF91F8
:10322000CF911F910F91FF90EF90DF90CF90089575
:103230006F927F928F929F92AF92BF92CF92DF92C6
:10324000EF92FF920F931F93CF93DF931F92CDB70F
:10325000DEB75C01062F942E69013C0184E0680E04
:10326000711C930180E0801761F0A901485F5F4FF6
:10327000F9011192E417F507E1F78F5F225D3F4FE7
:10328000F2CF7301F30110E060E088E0882E1017A0
:10329000F9F0A895D701882D01900D928A95E1F754
:1032A000892D69839BD06981882329F1492DC70124
:1032B0006ADF682F1F5FD5019EE2199FA00DB11D27
:1032C00011241496F701882311F07D01E0CF012F1E
:1032D00010E0101771F0A895C301C0DEEEE26E0E8B
:1032E000711C81110AC0F60180818F5F80831F5F8E
:1032F000F0CF80E003C08FEF01C081E00F90DF913D
:10330000CF911F910F91FF90EF90DF90CF90BF90E2
:10331000AF909F908F907F906F9008959AB1809515
:1033200098239AB99BB189238BB98BEB93E00197D2
:10333000F1F700C0000008952FB7F8949AB1982BC8
:103340009AB99BB1809598239BB99AE09A95F1F729
:1033500000C09AB198239AB99BB189238BB985EAA9
:103360008A95F1F700002FBF08952FB7F8949AB10E
:10337000982B9AB99BB1809598239BB99AE99A9515
:10338000F1F700C09AB198239AB99BB189238BB900
:1033900085E18A95F1F700002FBF08953FB7F894B3
:1033A0009AB1982B9AB99BB1282F209592239BB95B
:1033B0009AE09A95F1F700C09AB192239AB99BB11D
:1033C00092239BB922E12A95F1F700C099B12DE82B
:1033D0002A95F1F700003FBF892308953FB7F8947D
:1033E0009AB1982B9AB99BB1282F209592239BB91B
:1033F000EBEBF3E03197F1F700C000009AB19223B4
:103400009AB99BB192239BB9F5EBFA95F1F70000BD
:1034100099B1EFE2F3E03197F1F700C000003FBF50
:10342000909589230895883C910529F480912F0275
:103430008F5F80932F0280913C02823019F483E0E9
:1034400080933C020895613049F4DA01E6E3F2E04A
:1034500086E08E0F9D9191938E13FCCF0895CF92AD
:10346000DF92EF92FF920F931F93CF93DF9300D0E1
:1034700000D01F92CDB7DEB78C01FC011082118203
:10348000128213827B0120E090E0F70181917F019D
:10349000882361F12430D8F5933090F4482F50E020
:1034A000405351094A30510548F4E1E0F0E0EC0F97
:1034B000FD1FE90FF11D80839F5F02C0992329F34F
:1034C0008E3219F7E1E0F0E0EC0FFD1FE90FF11D7E
:1034D00010826801C20ED11CCE0101962D830E947C
:1034E000BA3AF60180832D812F5FCECF233079F455
:1034F000E1E0F0E0EC0FFD1FE90FF11D1082CE01BD
:1035000001960E94BA3AF801838380E001C081E00D
:103510000F900F900F900F900F90DF91CF911F9110
:103520000F91FF90EF90DF90CF90089581E04D9B39
:1035300080E00895813011F45D9A08955D980895B2
:1035400096B121E030E002C0220F331F8A95E2F7E6
:10355000892F90E02823392381E0121613060CF0FE
:1035600080E0089593B121E030E002C0220F331FC4
:103570008A95E2F7892F90E02823392381E01216FB
:1035800013060CF080E0089545B121E030E0613091
:1035900049F4B90102C0660F771F8A95E2F7CB01A3
:1035A000842B09C0B90102C0660F771F8A95E2F724
:1035B000CB018095842385B90895813011F42F9A29
:1035C00008952F98089548B121E030E0613049F422
:1035D000B90102C0660F771F8A95E2F7CB01842BF1
:1035E00009C0B90102C0660F771F8A95E2F7CB01C7
:1035F0008095842388B90895CF93DF93D82FC0E0B6
:10360000CD1789F05D9A2F9A82E390E00E9475337E
:1036100080E090DF80E0D1DF82E390E00E947533AC
:10362000A895CF5FEDCFDF91CF9108959F92AF9294
:10363000BF92CF92DF92EF92FF920F931F93CF939F
:10364000DF931F92CDB7DEB7F82EE62E8A01DA019E
:103650008C9165E0681BBEE28B9FC00111249E0126
:103660002F5F3F4F4F2D8E549C4FE2DDF801D080ED
:103670008EE2C82E90E1992EAD2CB12C8981D80113
:103680002C9130E0280F311DA216B306ECF46D2DFD
:103690008F2D0E940134CA9CF001CB9CF00D1124A7
:1036A000EE54FC4F86A18F3721F06D2D8F2D0E9497
:1036B0004634CA9CF001CB9CF00D1124EE54FC4F13
:1036C000F3A694A6D394D8CF811140C08E2D0E942A
:1036D0003C0C8AEF90E00E947533A8958AEF90E049
:1036E0000E947533A8958E2D0E943C0C809102019A
:1036F000811135C0D801EC914EE24E9FF0011124AA
:10370000EE54FC4FE3A62C9130E02F5F3F4F429FD9
:10371000F001439FF00D1124EE54FC4FE3A6EC9111
:103720004E9FF0011124EE54FC4F21E124A78C910F
:1037300090E00196489FF001499FF00D1124EE544E
:10374000FC4F24A78C918E5F8C9309C08F2D0E9413
:1037500080338981F8019081980F908301C080E0C7
:103760000F90DF91CF911F910F91FF90EF90DF901D
:10377000CF90BF90AF909F9008951F920F920FB679
:103780000F9211242F933F934F935F936F937F93E7
:103790008F939F93AF93BF93EF93FF9380915203C7
:1037A00090915303A0915403B09155030196A11D2C
:1037B000B11D8093520390935303A0935403B0938D
:1037C000550380912C028F5F843618F480932C026D
:1037D00014C010922C0280912E028F5F80932E02D3
:1037E00080912D028F5F80932D0280912D02863073
:1037F00020F010922D020E942F0880914403813006
:1038000011F580914A0390914B03A0914C03B09124
:103810004D03892B8A2B8B2BA1F080914A03909129
:103820004B03A0914C03B0914D030197A109B1093D
:1038300080934A0390934B03A0934C03B0934D03A2
:1038400002C01092440380914303813011F58091AE
:10385000460390914703A0914803B0914903892BF7
:103860008A2B8B2BA1F08091460390914703A09166
:103870004803B09149030197A109B1098093460318
:1038800090934703A0934803B093490302C010925A
:10389000430380914503813011F580914E0390914F
:1038A0004F03A0915003B0915103892B8A2B8B2B8E
:1038B000A1F080914E0390914F03A0915003B091DD
:1038C00051030197A109B10980934E0390934F03CF
:1038D000A0935003B093510302C010924503FF918F
:1038E000EF91BF91AF919F918F917F916F915F9178
:1038F0004F913F912F910F900FBE0F901F901895F1
:1039000090ED980F9A3070F09FE9980F963010F470
:1039100099EA05C09FEB980F963018F499EC980F30
:1039200001C0982F892F089590ED980F9A3060F07C
:103930009FE9980F963010F4875508959FEB980FE4
:10394000963020F487530895892F089580E00895D4
:10395000CF93DF93EA012AE00E94433CCE01DF913E
:10396000CF910895EF92FF920F931F93CF93DF9320
:103970008B01EC0120E030E08991882361F0209FE9
:103980007001219FF00C309FF00C1124B9DF9701DA
:10399000280F311DF1CFC901DF91CF911F910F91F8
:1039A000FF90EF9008955F926F927F928F929F9217
:1039B000AF92BF92CF92DF92EF92FF920F931F933D
:1039C000CF93DF93CDB7DEB72B970FB6F894DEBF5A
:1039D0000FBECDBF6C01562EFC0101900020E9F70F
:1039E00031977F01E81AF90A5C0120E030E000E03D
:1039F00010E0842E912CC5018C199D098E159F0510
:103A000014F5F50181915F01E1E0F0E0EC0FFD1F9D
:103A1000E20FF31F851113C010823801FFEF6F1AF8
:103A20007F0AB401CE0101964B879CDFF801E15C6F
:103A3000FD4F8083830120E030E04B85DCCF808325
:103A40002F5F3F4FD8CFE1E0F0E0EC0FFD1FE20F1A
:103A5000F31F1082642F70E0CE01019683DFF8011E
:103A6000E15CFD4F80832B960FB6F894DEBF0FBE4E
:103A7000CDBFDF91CF911F910F91FF90EF90DF901D
:103A8000CF90BF90AF909F908F907F906F905F90FE
:103A900008950F931F93CF93DF938A01FB01019049
:103AA0000020E9F73197EF01C61BD70B0E94173CA6
:103AB000009719F410923F0223C0BC016C0F7D1FC8
:103AC0008FE392E00E94F73BEFE3F2E001900020E9
:103AD000E9F73197EF01CF53D240B8018FE392E07D
:103AE0000E94173CFC0101900020E9F73197E81B88
:103AF000F90BCE018E1B9F0BFC01E15CFD4F108288
:103B00008FE392E0DF91CF911F910F910895CF92B3
:103B1000DF92FF920F931F93CF93DF938C01EC0101
:103B2000F80180818823D9F08B32A1F0853299F495
:103B3000680182E0C80ED11CF8018181F5DEF82E03
:103B4000F8018281F1DEF0E1FF9E90011124822BC9
:103B5000860101C080E289930F5F1F4FE1CF188279
:103B6000DF91CF911F910F91FF90DF90CF9008953B
:103B70008F929F92AF92BF92CF92DF92FF920F935C
:103B80001F93CF93DF9387E5C82E83E0D82E08E6F6
:103B900013E0F12C88248394912CF80139978081CB
:103BA000811115C0F39442E1C40ED11C0E5E1F4F6B
:103BB00055E0F512F2CFDF91CF911F910F91FF9059
:103BC000DF90CF90BF90AF909F908F900895C2EB01
:103BD000D3E0A12CB12CF501EE54FC4F81A18F3F15
:103BE00009F059C084A5882309F455C048E050E085
:103BF000B601CE0104960E94DF3B892B09F04BC031
:103C00002D8D3E8D4F8D58A1688179818A819B8150
:103C10000E94CE37F60121853285438554850E9466
:103C2000323887FF1AC0F8019081F4E0FF1659F08E
:103C300028B1A40102C0440F551F9A95E2F7CA01AA
:103C4000822B88B90AC025B1F40102C0EE0FFF1F14
:103C50009A95E2F7CF01822B85B92D8D3E8D4F8D40
:103C600058A1688179818A819B810E94CE37F601B3
:103C700025853685478550890E94CF3918165CF412
:103C8000F4E060E0FF1621F0F80180819CDC03C0C5
:103C9000F801808179DCFEE2AF0EB11CAE9646EEF3
:103CA000A416B10409F097CF7DCF6F927F929F92B7
:103CB000AF92BF92CF92DF92EF92FF920F931F933A
:103CC000CF93DF93809145038111CEC02FDC91E02B
:103CD000811190E0892F2EDC81E01F9980E06DDC5E
:103CE00080915603882399F00E943832109256032F
:103CF00088EE93E0A0E0B0E080934A0390934B03FA
:103D0000A0934C03B0934D0381E08093440384EF70
:103D100091E0A0E0B0E08093110190931201A09394
:103D20001301B093140180934E0390934F03A0931B
:103D30005003B09351031CDF10E08EE2D82E01E057
:103D400092E0992E2AEAB22E36E0A32E612E712C33
:103D5000D69C7001D79CF00C1124E701CE54DC4FA7
:103D60008CA5803119F08131C9F077C0B7016A5450
:103D70007C4FAE018BA50E948C33811103C00B8F49
:103D80001DA601C00DA7D69CF001D79CF00D1124F3
:103D9000EE54FC4F83A50E9480335FC08BA50E9428
:103DA0003C0C80910201CC24C394C10E81114DC002
:103DB0001DA69B8E6091E7017091E80180E090E084
:103DC0000E94CA3820E030E040E251E40E943638D8
:103DD000688379838A839B83BC828AE1810F8D8388
:103DE000D701A854BC4FE1E4F8E08A2D01900D9270
:103DF0008A95E1F7DC9C70011124E701CE54DC4F79
:103E00001DA60B8F6091E9017091EA01072E000C4D
:103E1000880B990B0E94CC3820E030E040E251E45E
:103E20000E943638688379838A839B83BC82155DC0
:103E30001D83D701A854BC4FE1E4F8E08A2D01901E
:103E40000D928A95E1F71C2D08C00DA71C2DDC9C56
:103E5000F0011124EE54FC4F05A71F5F153008F444
:103E600075CF81E080934503DF91CF911F910F9132
:103E7000FF90EF90DF90CF90BF90AF909F907F909A
:103E80006F90089548E45EE060E070E086E495E0BD
:103E90000C945E1241E15EE060E070E086E495E043
:103EA0000C945E1249ED5DE00C945E12CF92DF92AD
:103EB000EF92FF920F931F93CF93DF93EC01690171
:103EC0000E945E1242EC5DE0BC01CE010E945E12D7
:103ED000A601BC01CE010E945E1249EB5DE0BC016F
:103EE000CE010E945E12A801BC01CE010E947F1289
:103EF00046EB5DE0BC01CE010E945E12A701BC0151
:103F0000CE01DF91CF911F910F91FF90EF90DF9045
:103F1000CF900C945E124F925F926F927F928F922D
:103F20009F92AF92BF92CF92DF92EF92FF920F9348
:103F30001F93CF93DF9300D000D000D0CDB7DEB772
:103F40002A013B01922E832E58012EE2829FC0014E
:103F50001124FC01EE54FC4F838D9E012F5F3F4FD7
:103F60006901823021F1B8F4813009F04BC0208121
:103F7000318142815381C301B2010E94CE37162F95
:103F8000F72EE82E092F60EB7DE0C6010E94BF3BB3
:103F900069EA7DE033C08330F1F08A3099F5108111
:103FA000F180E280038165E97DE0C90128C02081BC
:103FB000318142815381C301B2010E94CE37162F55
:103FC000F72EE82E092F63EA7DE0C6010E94BF3B71
:103FD00061EA7DE013C02081318142815381C301B8
:103FE000B2010E94CE37162FF72EE82E092F6BE96B
:103FF0007DE0C6010E94BF3B68E97DE0C5010E94EB
:10400000BF3B04C010E0F12CE12C00E00F93EF92D5
:10401000FF921F93DF92CF928F929F920E94B53CA6
:104020000FB6F894DEBF0FBECDBF80E090E02696BD
:104030000FB6F894DEBF0FBECDBFDF91CF911F91B9
:104040000F91FF90EF90DF90CF90BF90AF909F9037
:104050008F907F906F905F904F9008950F931F9374
:10406000CF93DF93EC010EDF8C016091E704709138
:10407000E8048091E9049091EA0440E055E068DCAE
:1040800040E55DE0B801CE010E945E124AE35DE0CA
:10409000BC01CE010E945E1240E055E0BC01CE01A1
:1040A0000E947F1240E35DE0BC01CE010E945E12DF
:1040B0004BE15DE0BC01CE010E945E1240E055E0A4
:1040C000BC01CE010E947F1241E15DE0BC01CE0146
:1040D0000E945E1240EF5CE0BC01CE010E945E12C5
:1040E00040E055E0BC01CE010E947F1246EE5CE04C
:1040F000BC01CE010E945E1243ED5CE0BC01CE012A
:10410000DF91CF911F910F910C945E128F929F922D
:10411000AF92BF92CF92DF92EF92FF920F931F93D5
:10412000CF93DF93EC01AEDEBC01CE01BBDE6C01B0
:1041300067EC7CE08BE295E00E94BF3B40EB5CE0EB
:10414000B601CE010E945E124C0180914A081F9276
:104150008F93809149081F928F93809148081F92F6
:104160008F93809147081F928F938BE2A82E85E052
:10417000B82EBF92AF9290E0C92E95E0D92EDF9273
:10418000CF920E94B53C26EAE22E2CE0F22E860168
:1041900024EA3CE04EE95CE0B401CE0187DE4C014C
:1041A000809146081F928F93809145081F928F93AC
:1041B000809144081F928F93809143081F928F93A0
:1041C000809142081F928F93809141081F928F9394
:1041D00020E83CE03F932F93DF92CF920E94D63CA1
:1041E00036E7E32E3CE0F32E24E73CE043E75CE0D7
:1041F000B401CE015BDE4C0180914E081F928F937B
:1042000080914D081F928F9380914C081F928F933D
:1042100080914B081F928F93BF92AF92DF92CF9203
:104220000E94B53C2DB73EB7285D3F4F0FB6F894BE
:104230003EBF0FBE2DBF49E6E42E4CE0F42E27E62C
:104240003CE046E65CE0B401CE0130DE4C018091FA
:1042500052081F928F93809151081F928F938091E3
:1042600050081F928F9380914F081F928F93BF9297
:10427000AF92DF92CF920E94B53C5CE5E52E5CE008
:10428000F52E2AE53CE049E55CE0B401CE010EDE06
:104290004C01809156081F928F93809155081F9270
:1042A0008F93809154081F928F93809153081F928F
:1042B0008F93BF92AF92DF92CF920E94B53C68E598
:1042C000E62E6CE0F62E26E53CE045E55CE0B40128
:1042D000CE01ECDD44E35CE0BC01CE010E945E1245
:1042E0002DB73EB7285E3F4F0FB6F8943EBF0FBEC6
:1042F0002DBF209157082F3F31F44BE25CE0BC0109
:10430000CE010E945E124EEF5BE0BC01CE010E9426
:104310005E126C016091E7047091E8048091E904F9
:104320009091EA0440E055E013DB40E055E0B6012F
:10433000CE010E947F124BEB5BE0BC01CE01DF910E
:10434000CF911F910F91FF90EF90DF90CF90BF9092
:10435000AF909F908F900C945E128F929F92AF922D
:10436000BF92CF92DF92EF92FF920F931F93CF9362
:10437000DF93EC01162F86DD44EB5BE0BC01CE0140
:104380000E945E126C01E12EF12C1F921F932BE212
:1043900031E03F932F9320E035E03F932F930E942D
:1043A000B53C40E055E0B601CE010E947F124DE9D8
:1043B0005BE0BC01CE010E945E1247E55BE0BC0100
:1043C000CE010E945E124CE05BE0BC01CE010E9477
:1043D0005E126C010F900F900F900F900F900F9046
:1043E00082E18E9DF0018F9DF00D1124E95AFC4F62
:1043F0008189143010F4A4D801C0B4D8282F30E03B
:104400002130310519F469E07BE002C065E07BE012
:1044100080E095E00E94BF3B40E055E0B601CE0150
:104420000E947F124FED5AE0BC01CE010E945E1245
:104430006C01612F70E080E090E040E055E088DAA8
:1044400040E055E0B601CE010E947F124BEB5AE0EE
:10445000BC01CE010E945E128C016091E704709154
:10446000E8048091E9049091EA0440E055E070DAB4
:1044700040E055E0B801CE010E947F124C0122E1DC
:104480002E9DC0012F9D900D11249C01295A3C4F57
:104490006901F901399683818F9382818F9381819C
:1044A0008F93F90181858F9385EB9AE09F938F938A
:1044B00080E0A82E85E0B82EBF92AF920E94D63C35
:1044C00094EBE92E9AE0F92E850120EB3AE049EAD7
:1044D0005AE0B401CE01EADC4C01F6013D9683813D
:1044E0008F9382818F9381818F93F60185858F933E
:1044F00083EA9AE09F938F93BF92AF920E94D63C3B
:1045000022EAE22E2AE0F22E2EE93AE048E95AE0C9
:10451000B401CE01CBDC40E65AE0BC01CE010E94E2
:104520005E122DB73EB7205F3F4F0FB6F8943EBFE7
:104530000FBE2DBF00E010E0E12CF12CBC2CAD2C07
:10454000F801EE54FC4F21A12F3FE1F524A52223D1
:10455000C9F141E55AE0BC01CE010E945E126C0136
:104560004AE060E075E0C7010E94313C40E055E060
:10457000B601CE010E947F126C0148E050E06B2D25
:104580007A2DC8018A549C4F0E94DF3B892B39F455
:1045900047E45AE0B601CE010E945E126C0145E488
:1045A0005AE0B601CE010E945E12A80142545C4F4F
:1045B000BC01CE010E947F124BE35AE0BC01CE0148
:1045C0000E945E123FEFE31AF30A025D1F4F063EA0
:1045D000110509F0B5CF40E05AE0BC01CE01DF91F2
:1045E000CF911F910F91FF90EF90DF90CF90BF90F0
:1045F000AF909F908F900C945E126F927F928F92EB
:104600009F92AF92BF92CF92DF92EF92FF920F9361
:104610001F93CF93DF93EC01162F34DC4EEE59E05D
:10462000BC01CE010E945E1241ED59E0BC01CE01F9
:104630000E945E12C12ED12C2DE4129FF001112494
:10464000E856FB4F20812F3F31F448EC59E0BC0184
:10465000CE010E945E1247EA59E0BC01CE010E94E1
:104660005E122DE42C9D50012D9DB00C112485016E
:1046700005561B4F29E9E22E29E0F22E24E939E004
:1046800043E959E0BC01CE0111DC4C01C50188565B
:104690009B4F3C01FC01E55BFF4F6081718180E035
:1046A00090E040E055E054D932E9E32E39E0F32EB2
:1046B00000E015E02DE839E040E859E0B401CE0112
:1046C000F5DB85010B541B4F4FE5E42E49E0F42E3A
:1046D0002AE539E04DE459E0BC01CE01E7DB5EEBB1
:1046E000A52E51E0B52E00E010E0EFEF6E1A7E0A25
:1046F0004EE359E0BC01CE010E945E124C014AE03B
:1047000060E075E0C8010E94313C40E055E0B40132
:10471000CE010E947F12F30140815181F501228177
:1047200033814217530731F444E359E0BC01CE0111
:104730000E945E1242E359E0BC01CE010E945E126B
:10474000F50140815181BC01CE010E947F1248E2F7
:1047500059E0BC01CE010E945E120F5F1F4FF4E0D2
:10476000AF0EB11C0530110519F64BEF58E0BC0136
:10477000CE010E945E128C014AE060E075E0C60145
:104780000E94313C40E055E0B801CE010E947F120A
:1047900044EC58E0BC01CE010E945E128C01609195
:1047A000E7047091E8048091E9049091EA0440E004
:1047B00055E0CED840E055E0B801CE010E947F120E
:1047C00044EB58E0BC01CE01DF91CF911F910F91D6
:1047D000FF90EF90DF90CF90BF90AF909F908F9021
:1047E0007F906F900C945E12CF93DF93EC014ADBC5
:1047F000BC01CE0157DB43E458E0BC01CE01DF91A0
:10480000CF910C945E120F931F93CF93DF93EC0123
:10481000162F38DBBC01CE0145DBBC0111111BC0DA
:1048200048EB57E0CE010E945E128C016091E704D4
:104830007091E8048091E9049091EA0440E055E029
:1048400087D840E055E0B801CE010E947F124EEAC1
:1048500057E0BC0102C045EA57E0CE01DF91CF919D
:104860001F910F910C945E12CF93DF93EC010ADB42
:10487000BC01CE0117DB4AE757E0BC01CE01DF9156
:10488000CF910C945E120F931F93CF93DF93EC01A3
:10489000F9DA44E557E0BC01CE010E945E128C01BA
:1048A0006091E7047091E8048091E9049091EA0432
:1048B00040E055E04DD840E055E0B801CE010E94FF
:1048C0007F1248E457E0BC01CE01DF91CF911F91E8
:1048D0000F910C945E126F927F928F929F92BF9273
:1048E000CF92DF92EF92FF920F931F93CF93DF93BC
:1048F000EC01B62E142FC6DABC01CE01D3DA41E4A6
:1049000057E0BC01CE010E945E12113031F443EF3A
:1049100056E0BC01CE010E945E1241EE56E0BC01A1
:10492000CE010E945E1249ED56E0BC01CE010E940C
:104930005E126C018B2C912C2EE2B29E8001112410
:104940000E541C4FF80183851F928F9382851F920E
:104950008F9381851F928F9380851F928F9387817C
:104960001F928F9386811F928F9385811F928F93C1
:1049700084811F928F9328EB36E03F932F9320E0A2
:1049800035E03F932F930E94D63C40E055E0B601BE
:10499000CE010E947F1243E956E0BC01CE010E9485
:1049A0005E122DB73EB72C5E3F4F0FB6F8943EBF58
:1049B0000FBE2DBFF80121A12F3F31F44AE856E088
:1049C000BC01CE010E945E122EE2289D6001299D4D
:1049D000D00C1124860102541C4F2CE7E22E26E055
:1049E000F22E29E736E046E556E0BC01CE015EDA5C
:1049F0003C0196012E543C4F6901F9017D9683815B
:104A00008F9382818F9381818F93F901858D8F930D
:104A100080E596E09F938F9380E095E09F938F933E
:104A20000E94D63C3AE3E32E36E0F32E00E015E098
:104A300027E336E048E256E0B301CE0137DA3C0125
:104A40000BE215E020E035E040E050E0BA018B2DAC
:104A500062DA40E055E0B301CE010E947F12A80166
:104A6000BC01CE010E947F1245E156E0BC01CE019F
:104A70000E945E123C01F601458D568D678D70A136
:104A800020E035E08B2D47DA40E055E0B301CE0160
:104A90000E947F12A801BC01CE010E947F1242EF4A
:104AA00055E0BC01CE010E945E128C014AE060E03C
:104AB00075E0C4010E94313C40E055E0B801CE01F0
:104AC0000E947F124EEC55E0BC01CE010E945E12A6
:104AD0008C016091E7047091E8048091E904909161
:104AE000EA0440E055E00E94A81C40E055E0B8010F
:104AF000CE010E947F122DB73EB7285F3F4F0FB601
:104B0000F8943EBF0FBE2DBF4EE955E0BC01CE016B
:104B1000DF91CF911F910F91FF90EF90DF90CF9099
:104B2000BF909F908F907F906F900C945E12CF9269
:104B3000DF92EF92FF920F931F93CF93DF93EC01DD
:104B40006B017A0189016091E7047091E80480911A
:104B5000E9049091EA0440E055E00E94A81C44E971
:104B600055E0B601CE010E945E12A701BC01CE0144
:104B70000E945E124FE855E0BC01CE010E945E1219
:104B800040E055E0BC01CE010E947F1243E855E0B1
:104B9000BC01CE010E945E12A801BC01CE010E94A0
:104BA0005E124AE755E0BC01CE01DF91CF911F9123
:104BB0000F91FF90EF90DF90CF900C945E120F93C7
:104BC0001F93CF93DF93EC015DD9BC01CE016AD96D
:104BD0008C016091E7047091E8048091E904909160
:104BE000EA0440E055E00E94A81C23E735E04FE6C8
:104BF00055E0B801CE019BDF26E635E042E655E000
:104C0000BC01CE0194DF29E535E043E555E0BC0168
:104C1000CE018DDF2BE435E040E455E0BC01CE0150
:104C200086DF28E335E04DE255E0BC01CE017FDFB1
:104C300025E235E04AE155E0BC01CE0178DF22E112
:104C400035E047E055E0BC01CE0171DF2FEF34E0E5
:104C500044EF54E0BC01CE016ADF2DEE34E048EEB3
:104C600054E0BC01CE0163DF23EE34E04FED54E0AD
:104C7000BC01CE01DF91CF911F910F9158CFCF9200
:104C8000DF92EF92FF920F931F93CF93DF93EC018C
:104C9000F9D8BC01CE0106D946EB54E0BC01CE01E7
:104CA0000E945E1200E010E0E12CF12CF801EE54BD
:104CB000FC4F24A5222309F43FC044EA54E0BC0180
:104CC000CE010E945E126C014AE060E075E0C7010F
:104CD0000E94313C40E055E0B601CE010E947F12B7
:104CE0004EE954E0BC01CE010E945E126C0160915D
:104CF000E7047091E8048091E9049091EA0440E0AF
:104D000055E00E94A81C40E055E0B601CE010E948B
:104D10007F1242E954E0BC01CE010E945E12A8015C
:104D200042545C4FBC01CE010E947F1249E854E01E
:104D3000BC01CE010E945E122FEFE21AF20A025D60
:104D40001F4F063E110509F0B1CFDF91CF911F91A2
:104D50000F91FF90EF90DF90CF9008952F923F92A8
:104D60004F925F926F927F928F929F92AF92BF927B
:104D7000CF92DF92EF92FF920F931F93CF93DF9327
:104D800000D000D0CDB7DEB71C017CD8BC01C1017A
:104D900089D84BE054E0BC01C1010E945E12BC0105
:104DA0008FEDE82E83E0F82ED12CF7013C9780811F
:104DB0008F3F09F055C03B968081882309F450C08D
:104DC000F7018081882331F047E054E0C1010E945F
:104DD0005E12BC01870101521109A801C1010E94A4
:104DE0007F125C01F80101900020E9F731979F01E3
:104DF000201B310B89010F30110550F445E054E0C0
:104E0000B501C1010E945E125C010F5F1F4FF3CF1D
:104E1000F701709740815181628173810BE215E047
:104E200020E035E08D2D77D840E055E0B501C10197
:104E30000E947F12A801BC01C1010E947F12F701EC
:104E40002081222331F040E054E0BC01C1010E94E6
:104E50005E124DEF53E0BC01C1010E945E12BC0125
:104E6000D394FEE2EF0EF11C25E0D2129ECF4EEB62
:104E700053E0C1010E945E1245EB53E0BC01C10149
:104E80000E945E128C0160915203709153038091D5
:104E900054039091550324E630E040E050E00E9436
:104EA000453ACA01B9010E94CA380E9407390E94D6
:104EB0009E386B017C0120E831E541E050E00E9422
:104EC000453ACA01B9010E94CA380E9407390E94B6
:104ED0009E382B013C019B01AC0160E871E581E04B
:104EE00090E00E94363AC61AD70AE80AF90AC701C2
:104EF000B60120E13EE040E050E00E94453ACA01A0
:104F0000B9010E94CA380E9407390E949E384B019D
:104F10005C01A0E1BEE09B01AC010E94763AA701D2
:104F20009601261B370B480B590B29833A834B8379
:104F30005C83CA01B9012CE330E040E050E00E94FC
:104F4000453ACA01B9010E94CA380E9407390E9435
:104F50009E386B017C01ACE3B0E09B01AC010E9488
:104F6000763A29813A814B815C81261B370B480BAD
:104F7000590B29833A834B835C8340E055E0C3019E
:104F8000B2010E94A81C40E055E0B801C1010E9496
:104F90007F124EEA53E0BC01C1010E945E128C01F7
:104FA00040E055E0C501B4010E94A81C40E055E076
:104FB000B801C1010E947F124CEA53E0BC01C1015B
:104FC0000E945E128C0140E055E0C701B6010E94CC
:104FD000A81C40E055E0B801C1010E947F124AEAD6
:104FE00053E0BC01C1010E945E128C0140E055E01B
:104FF00069817A818B819C810E94A81C40E055E0E8
:10500000B801C1010E947F124BE953E0BC01C1010C
:105010000F900F900F900F90DF91CF911F910F91F4
:10502000FF90EF90DF90CF90BF90AF909F908F90C8
:105030007F906F905F904F903F902F900C945E12F6
:105040007F928F929F92AF92BF92CF92DF92EF9218
:10505000FF920F931F93CF93DF9366E475E080E098
:1050600091E00E94EE0F8C01109234088091570855
:105070008F3F31F4B80186E495E00E945E0B8C010D
:105080000E94A00FB80186E495E00E9465169093F7
:105090003E0280933D02892BC9F480913002811138
:1050A0000AC043E25AE161E08FE498E00E944615AD
:1050B00081E0809330020E943F15811107C08091EA
:1050C0003002813019F482E08093300280914403F1
:1050D000882321F08091430381111DC080914403F6
:1050E000811119C0809198048F3F11F40C94BB304A
:1050F00080910D0190910E01A0910F01B0911001CE
:1051000080934A0390934B03A0934C03B0934D03B9
:1051100081E080934403C0913D02D0913E022097EC
:1051200009F02AC1B80186E495E00E943F0D809104
:105130005D05813111F00C94243280916A0585302F
:1051400011F00C94243280916B05843A11F00C9488
:10515000243244E050E063E573E080E795E00E948C
:10516000C63B44E050E0892B09F065C06EE473E073
:105170008FE392E00E94B63B80914F0890915008D7
:10518000A0915108B0915208809343029093440239
:10519000A0934502B093460280914B0890914C0831
:1051A000A0914D08B0914E08809347029093480219
:1051B000A0934902B0934A02809147089091480811
:1051C000A0914908B0914A0880934B0290934C02F9
:1051D000A0934D02B0934E0286E0E1E4F8E0AFE424
:1051E000B2E001900D928A95E1F780915308909179
:1051F0005408A0915508B091560880935502909399
:105200005602A0935702B09358022CEF30E24AE1C5
:105210006FE372E086E495E0DF91CF911F910F91EB
:10522000FF90EF90DF90CF90BF90AF909F908F90C6
:105230007F900C94D81369E473E080E795E00E94B6
:10524000C63B892B09F067C046E050E061E478E096
:1052500080E895E00E94DF3BEC01892B11F00C9473
:10526000243244E050E064E473E08FE392E00E9473
:10527000B63B2CEF30E244E06FE372E086E495E069
:105280000E94D8138091740590917505A0917605C0
:10529000B091770580934F0890935008A0935108E0
:1052A000B09352088091780590917905A0917A0584
:1052B000B0917B0580934B0890934C08A0934D08C8
:1052C000B0934E0880917C0590917D05A0917E055C
:1052D000B0917F058093470890934808A0934908B0
:1052E000B0934A088091860590918705A091880522
:1052F000B09189058093530890935408A093550862
:10530000B09356084DE150E060E070E08BE398E028
:105310000E94133F1CC044E050E06FE373E080E75D
:1053200095E00E94C63B892B11F00C94243246E094
:1053300050E061E478E080E895E00E94DF3BEC011A
:10534000892B11F00C94243281E00E94733295B7BE
:10535000916095BF95B79D7F95BFFE01DF91CF917D
:105360001F910F91FF90EF90DF90CF90BF90AF9083
:105370009F908F907F900994CA5BDA4F45E050E090
:1053800069E373E0CE010E94C63B892B11F00C94B7
:105390002432D0934505C09344054EE251E064E3C6
:1053A00071E0CE010E94491DBC018091440590919D
:1053B00045050E94F73BC0914405D0914505888181
:1053C000811104C086E495E0C9DCD0C642E050E01B
:1053D00066E373E0CE010E94C63B892BE9F54AE300
:1053E00051E06CE371E0CE010E94491DBC018FE3E6
:1053F00092E00E94F73BEFE3F2E001900020E9F732
:105400003197EF53F240349718F16FEE74E08FE369
:1054100092E00E94173C892BD9F0209152033091E1
:10542000530340915403509155036DE67DED81E0A7
:1054300090E00E94363A6093E7047093E80480930A
:10544000E9049093EA0486E495E00E942E208EC63B
:1054500086E495E0C9D98AC644E050E061E373E090
:10546000CE010E94C63B892B51F044E050E06CE233
:1054700073E0CE010E94C63B892B09F088C144E04D
:1054800050E067E273E0CE010E94C63B892B11F425
:105490001092450343EF52E060E070E086E495E04F
:1054A0000E945E1290933E0280933D0244EE52E0D1
:1054B000BC0186E495E00E945E1290933E028093C8
:1054C0003D0280E090E0C12CFC01EE54FC4F21A194
:1054D0002F3F19F424A52111C3948E96863E910581
:1054E00099F7CFEDD3E0EE24E394F12C49EBA42E11
:1054F00042E0B42E50E0852E55E0952ED12C772435
:105500007A947E0CFE013C9780818F3F09F0E9C0C0
:105510003B968081882309F4E4C060913D0270913C
:105520003E024BED52E086E495E00E945E129093BD
:105530003E0280933D02FE01B29780811F928F93BD
:10554000319780811F928F93319780811F928F9323
:10555000319780811F928F93319780811F928F9313
:10556000319780811F928F93319780811F928F9303
:10557000319780811F928F93BF92AF929F928F92AB
:105580000E94D63C60913D0270913E0240E055E0A1
:1055900086E495E00E947F1290933E0280933D0244
:1055A0004FEA52E0BC0186E495E00E945E129093BF
:1055B0003E0280933D02FE01729780814AE060E0E6
:1055C00075E090E00E94313C60913D0270913E0296
:1055D00040E055E086E495E00E947F1290933E0201
:1055E00080933D0245EA52E0BC0186E495E00E94CA
:1055F0005E12BC0190933E0280933D02AE01415287
:10560000510986E495E00E947F12BC0190933E020E
:1056100080933D024BE952E086E495E00E945E12E1
:1056200090933E0280933D02FE017097408151812C
:10563000628173810BE215E020E035E0872D0E9446
:105640008B1F60913D0270913E0240E055E086E480
:1056500095E00E947F1290933E0280933D0241E9C3
:1056600052E0BC0186E495E00E945E1290933E02F7
:1056700080933D0288814AE060E075E090E00E94FE
:10568000313C60913D0270913E0240E055E086E47D
:1056900095E00E947F1290933E0280933D024CE879
:1056A00052E0BC0186E495E00E945E1290933E02B7
:1056B00080933D022DB73EB72C5E3F4F0FB6F89456
:1056C0003EBF0FBE2DBFEC14FD045CF448E852E071
:1056D000BC0186E495E00E945E1290933E028093A6
:1056E0003D02AE963FEFE31AF30A86E0E816F104B6
:1056F00009F005CF60913D0270913E024BE752E008
:1057000086E495E00E945E1290933E0280933D02F3
:1057100008E613E0C0E0C43029F0F80180810E945F
:10572000A01A04C08091B0030E94B21A4AE060E05F
:1057300075E090E00E94313C60913D0270913E0224
:1057400040E055E086E495E00E947F1290933E028F
:1057500080933D02C43059F049E752E0BC0186E431
:1057600095E00E945E1290933E0280933D02CF5FCF
:105770000E5E1F4FC53079F660913D0270913E027A
:1057800046E752E086E495E00E945E12EFC44BE0EB
:1057900050E06AE672E0CE010E94C63B892B09F414
:1057A000E3C44AE351E060E471E0CE010E94491D88
:1057B000BC0180E095E00E94F73B6091E7047091A6
:1057C000E8048091E9049091EA044BE255E00E94DC
:1057D000A81C6BE275E080E095E00E94173C892BE5
:1057E00009F4C2C48091E7049091E804A091E9040F
:1057F000B091EA04892B8A2B8B2B09F4B5C4C09194
:105800004405D091450544E050E065E672E0CE01E4
:105810000E94C63B892B21F486E495E0D0D9A6C42A
:1058200043E050E061E672E0CE010E94C63B892B66
:1058300021F486E495E023DA99C444E050E06CE575
:1058400072E0CE010E94C63B892B21F486E495E0EC
:105850000BD88CC443E050E068E572E0CE010E94B2
:10586000C63B892BD1F54AE351E065E471E0CE01F6
:105870000E94491DBC0180E095E00E94F73B43E097
:1058800050E060E075E08AE491E00E94FE3BEC01AC
:10589000892BF1F40E94421F90933E0280933D02B7
:1058A00043E152E0BC0186E495E00E945E129093D1
:1058B0003E0280933D02BC0186E495E00E943114D3
:1058C00095B7916095BF95B79D7F95BFFE010995EE
:1058D00086E495E00E94432449C442E050E060E140
:1058E00072E0CE010E94C63B892BD1F40E94421F78
:1058F00090933E0280933D024BEC51E0BC0186E464
:1059000095E00E945E1290933E0280933D021092B9
:10591000E7041092E8041092E9041092EA048AC5A0
:1059200043E050E067EC71E0CE010E94C63B892B5A
:1059300009F0A7C04AE351E06EE471E0CE010E9495
:10594000491DBC0180E095E00E94F73B6AE070E0F1
:1059500080E095E00E94B21C7C014AE351E063E5DF
:1059600071E080914405909145050E94491DBC015C
:1059700080E095E00E94F73B44E050E062EC71E08B
:1059800080E095E00E94C63B892B09F073C04AE392
:1059900051E067E771E080914405909145050E94D0
:1059A000491DBC0180E095E00E94F73B42E050E0D9
:1059B00060E075E087E591E00E94FE3B87011127DA
:1059C000892B59F48EE2809FF001819FF00D112404
:1059D000EE54FC4F8FEF81A309C08EE2809FF0014F
:1059E000819FF00D1124EE54FC4F11A24AE351E0C7
:1059F0006AE571E080914405909145050E94491D3A
:105A0000BC018FE392E00E94F73B8FE392E00E949B
:105A1000871D8EE2809FE001819FD00D11246FE3EE
:105A200072E0CE0182549C4F0E94F73B4AE351E062
:105A30006EE571E080914405909145050E94491DF5
:105A4000BC0180E095E00E94F73B80E095E00E9479
:105A5000B73AFE01EE54FC4F658F768F878F90A387
:105A6000BE0160567E4F4EE250E0CF010E94133FD0
:105A700041E001C040E06E2D86E495E00E946B2479
:105A800075C342E050E06FEB71E0CE010E94C63B6F
:105A9000892B61F54AE351E062E671E0CE010E9494
:105AA000491DBC0180E095E00E94F73BE0E0F5E095
:105AB00001900020E9F73197E050F540349780F0ED
:105AC0004FE050E060E570E080E095E00E94133F19
:105AD00060E075E08FEE94E00E94F73B61E001C06A
