:100000001CC7000036C7000034C7000032C700001C
:1000100030C700002EC700002CC700002AC7000010
:1000200028C7000026C7000024C7000022C7000020
:1000300020C700001EC700000C94A21B1AC70000B6
:1000400018C7000016C7000014C7000012C7000040
:1000500010C700000EC700000CC700000AC7000050
:1000600008C7000006C70000881FA41FC01FDC1FB0
:10007000502050205020152029203E206E616E0017
:10008000696E660000407A10F35A00A0724E18099B
:100090000010A5D4E80000E87648170000E40B54EF
:1000A000020000CA9A3B000000E1F50500008096BE
:1000B0009800000040420F000000A08601000000F0
:1000C000102700000000E8030000000064000000AA
:1000D00000000A00000000000100000000002C7673
:1000E000D888DC674F0823DFC1DFAE59E1B1B7968E
:1000F000E5E3E453C63AE651997696E8E6C28426EB
:10010000EB898C9B62ED407C6FFCEFBC9C9F40F2C6
:10011000BAA56FA5F490055A2AF75C936B6CF96742
:100120006DC11BFCE0E40D47FEF520E6B500D0ED07
:10013000902E0300943577050080841E080000206F
:100140004E0A000000C80C333333330F986E12830D
:100150001141EF8D2114893BE65516CFFEE6DB18E1
:10016000D1844B381BF77C1D901DA4BBE4242032A6
:1001700084725E228100C9F124ECA1E53D274E4145
:100180004E494E495459494E46CDCCCC3D0AD72311
:100190003C17B7D13877CC2B329595E6241FB14F59
:1001A0000A000020410000C84200401C4620BCBE9E
:1001B0004CCA1B0E5AAEC59D740D0A436F6E746512
:1001C0006E742D547970653A206170706C6963614A
:1001D00074696F6E2F782D7777772D666F726D2D1E
:1001E00075726C656E636F6465640D0A0D0A004379
:1001F0006F6E74656E742D4C656E6774683A20007E
:100200000D0A557365722D4167656E743A20626FF1
:10021000782F312E310D0A4163636570743A202ABC
:100220002F2A0D0A000D0A0020485454502F312E59
:10023000310D0A486F73743A2000504F5354200018
:100240000D0A557365722D4167656E743A20626FB1
:10025000782F312E310D0A4163636570743A207432
:100260006578742F68746D6C0D0A0D0A002048546F
:1002700054502F312E310D0A486F73743A200047C5
:1002800045542000000108000604000145000082DA
:100290000000400020223B3C2F5343524950543E23
:1002A000003C484541443E3C534352495054206C25
:1002B000616E67756167653D224A6176615363725D
:1002C000697074223E746F702E6C6F636174696F15
:1002D0006E3D22687474703A2F2F0069700053616C
:1002E0007665007069006970006F6E005465737404
:1002F000006C6F6731006C6F6732006C6F673100A4
:10030000706100536176650073656E003C48544D22
:100310004C3E3C484541443E3C5343524950542096
:100320006C616E67756167653D224A6176615363F2
:1003300072697074223E746F702E6C6F63617469A1
:100340006F6E3D222F223B3C2F5343524950543E67
:10035000006578003C48544D4C3E3C484541443E85
:100360003C534352495054206C616E677561676518
:100370003D224A617661536372697074223E746FE4
:10038000702E6C6F636174696F6E3D222F223B3C4F
:100390002F5343524950543E0072656200696E66A5
:1003A0006F00646576006D656E75006661766963E1
:1003B0006F6E2E69636F005D7D002C0D0A00220DAB
:1003C0000A7D00222C0D0A2245223A2200222C0D01
:1003D0000A2256223A2200222C0D0A224E223A22CA
:1003E00000222C0D0A2254223A22002225303258B3
:1003F0002530325825303258253032582530325881
:10040000253032582530325825303258007B0D0ABD
:100410002249223A20007B2253656E736F72732249
:100420003A5B0D0A00485454502F312E30203230A0
:1004300030204F4B0D0A436F6E74656E742D7479C6
:1004400070653A206170706C69636174696F6E2FBA
:100450006A736F6E0D0A0D0A0078736F6E00787301
:100460006F6E006A736F6E006C6700474554202FF3
:1004700000522A2A54005345545200534554510007
:100480004D494E490053524348003D2573002625EF
:1004900030325825303258253032582530325825E0
:1004A00030325825303258253032582530325800F5
:1004B00025303258253032582530325825303258C0
:1004C00025303258253032580049443D003C2F62D7
:1004D0006F64793E3C2F68746D6C3E003A003A00C0
:1004E00020646179732000557074696D653A20004D
:1004F0003C2F68323E3C2F7072653E3C2F74643E48
:100500003C2F74723E3C2F7461626C653E3C62729B
:100510003E3C62723E3C6120687265663D2F6C67AE
:100520003E4C6F67696E3C2F613E3C62723E000D2F
:100530000A003C2F733E0020003C733E003C74696F
:10054000746C653E5765624D6574656F426F782DBA
:100550006D696E693C2F7469746C653E3C63656EB1
:100560007465723E3C68323E3C753E5765624D652F
:1005700074656F426F782D6D696E693C2F753E20F2
:100580002623393733303B3C2F68323E3C7461625E
:100590006C6520626F726465723D303E3C74723EE1
:1005A0003C74642076616C69676E3D746F703E3C8C
:1005B0007072653E3C68323E003C2F613E3C627288
:1005C0003E00207461726765743D72663E0026735A
:1005D00069643D003C6120687265663D2F73656EFD
:1005E0003F6E756D3D003C68746D6C3E3C626F649F
:1005F000793E3C63656E7465723E53656E736F72CF
:10060000733C2F63656E7465723E3C62723E00659A
:10061000783F0045786974007265623F00526562F8
:100620006F6F74006C6F67323F004C6F6767657265
:100630002032006C6F67313F004C6F676765722036
:10064000310070613F0050617373776F72640069AD
:10065000703F005443502F4950003C2F613E3C6294
:10066000723E00207461726765743D72663E00736D
:1006700069643D003C6120687265663D2F003E3C28
:1006800062723E3C62723E3C696E70757420747991
:1006900070653D7375626D69742076616C75653D3A
:1006A00053617665206E616D653D73613E003E3C31
:1006B000696E70757420747970653D6869646465ED
:1006C0006E206E616D653D7369642076616C756541
:1006D0003D003C696E70757420747970653D686981
:1006E0006464656E206E616D653D6E756D2076612A
:1006F0006C75653D003C62723E43616C63756C6174
:100700007465643C62723E003C62723E4F66667382
:1007100065743C62723E006F66003C62723E4375D7
:100720007272656E742076616C75653C62723E0013
:1007300025322E3266003E456E61626C652F44693B
:10074000736162653C62723E53656E736F72206EB8
:10075000616D653A3C62723E006E610020286D61F9
:1007600078206C656E203134290020636865636BE6
:100770006564003C2F623E3C62723E3C696E70755F
:100780007420747970653D636865636B626F78206F
:100790006E616D653D656E002530325825303258EA
:1007A00025303258253032582530325825303258CD
:1007B00025303258253032580049443A203C623EB8
:1007C000003C666F726D206D6574686F643D67658F
:1007D000743E003C534352495054206C616E67751F
:1007E0006167653D224A6176615363726970742264
:1007F0003E706172656E742E6672616D65735B2703
:100800006C66275D2E6C6F636174696F6E2E726506
:100810006C6F616428293B3C2F5343524950543E2E
:10082000003C626F64793E003E5265626F6F743CBB
:100830002F613E003C63656E7465723E3C62723EA1
:100840003C62723E3C6120687265663D2F72656253
:100850003F796573267369643D0046573A20312E0F
:10086000312E392E32202830352E31302E32303193
:1008700036293C2F68746D6C3E004368616E676575
:10088000642100223E3C2F666F726D3E006E6577DC
:100890002070617373776F72643A3C666F726D3E5D
:1008A0003C696E70757420747970653D74657874F8
:1008B000206E616D653D6E6577206D61786C656E4B
:1008C0006774683D31343E3C62723E3C696E7075BF
:1008D0007420747970653D7375626D6974207661FA
:1008E0006C75653D4368616E6765206E616D653D41
:1008F0006368613E3C696E70757420747970653D03
:1009000068696464656E206E616D653D736964201D
:1009100076616C75653D22003C63656E7465723E60
:100920003C62723E50617373776F72643C666F72A3
:100930006D3E3C696E70757420747970653D7061B0
:100940007373776F7264206E616D653D70613E3CBC
:1009500062723E3C696E70757420747970653D7387
:1009600075626D69742076616C75653D4C6F676961
:100970006E206E616D653D696E3E3C2F666F726DD7
:100980003E003E3C2F666F726D3E00222076616C09
:1009900075653D22536176652654657374223E3C2D
:1009A000696E70757420747970653D6869646465FA
:1009B0006E206E616D653D7369642076616C75654E
:1009C0003D003C2F53454C4543543E3C62723E3CF7
:1009D00062723E3C696E70757420747970653D7307
:1009E00075626D6974206E616D653D226C73003CAB
:1009F0002F6F7074696F6E3E003E002073656C65EA
:100A000063746564003C6F7074696F6E2076616C0E
:100A100075653D003C62723E506174683C62723E96
:100A20000070617468003C62723E696E7465727633
:100A3000616C3C62723E3C53454C454354206E61B0
:100A40006D653D73703E003C62723E506F72743C47
:100A500062723E00706F7274000000686F73740001
:100A600020286D6178206C656E20323529003E4566
:100A70006E61626C652F44697361626C653C627281
:100A80003E486F7374206E616D653C62723E00205B
:100A9000636865636B6564003C696E70757420748F
:100AA0007970653D636865636B626F78206E616D18
:100AB000653D656E003C666F726D206D6574686F94
:100AC000643D6765743E00223E3C696E707574201B
:100AD000747970653D7375626D6974206E616D65C2
:100AE0003D6163742076616C75653D225361766566
:100AF0002026205265626F6F74223E3C2F666F7213
:100B00006D3E003E444843503C62723E3C696E700C
:100B1000757420747970653D68696464656E206ED3
:100B2000616D653D7369642076616C75653D220079
:100B300020636865636B6564003C62723E3C696E6D
:100B400070757420747970653D636865636B626F5E
:100B500078206E616D653D64680000640000006788
:100B6000003C62723E444E532020000073003C6201
:100B7000723E475720202000006D003C62723E4DBF
:100B800041534B2000253032783A253032783A25CF
:100B90003032783A253032783A253032783A25307A
:100BA00032780049502020200069003C62723E4D9E
:100BB00041432020003C7072653E3C666F726D20A0
:100BC0006D6574686F643D6765743E0025642E250D
:100BD000642E25642E2564003C2F6672616D65735A
:100BE00065743E3C2F68746D6C3E00206E616D65CF
:100BF0003D72663E003C2F6672616D657365743EA2
:100C00003C6672616D65207372633D2F696E666F1D
:100C10003F7369643D00206E616D653D6C663E000A
:100C20003C6672616D65207372633D2F6465763F2B
:100C30007369643D00206E616D653D6D663E003CEC
:100C40006672616D65207372633D2F6D656E753FD1
:100C50007369643D003C68746D6C3E3C6672616D06
:100C60006573657420636F6C733D223137302C2AB5
:100C7000223E3C6672616D6573657420726F777396
:100C80003D223236302C202A22207363726F6C6C26
:100C9000696E673D226E6F223E00256600D0F3E14B
:100CA0002FECE8ED0025312E3366006B572F6800DE
:100CB00025332E326600570025332E316600410061
:100CC00025332E3166006D6D0025332E31660025EB
:100CD0000025322E316600266465673B43002532CD
:100CE0002E326600223E002076616C75653D220042
:100CF0003C696E70757420747970653D74657874A4
:100D0000206E616D653D003C68746D6C3E3C6865AD
:100D100061643E3C6D6574612063686172736574E3
:100D20003D2277696E646F77732D31323531222F12
:100D30003E3C2F686561643E3C626F64793E0048CA
:100D40005454502F312E3020343034204E6F7420C4
:100D5000466F756E640D0A436F6E74656E742D5424
:100D60007970653A20746578742F68746D6C0D0A1B
:100D70000D0A45727200485454502F312E302032E3
:100D80003030204F4B0D0A436F6E74656E742D54D6
:100D90007970653A20746578742F68746D6C0D0AEB
:100DA000507261676D613A206E6F2D636163686593
:100DB0000D0A0D0A005061796D656E7400303000C7
:100DC0004E6F206E616D6500828282820000004F4E
:100DD000586D0205C0A801DEFFFFFF00C0A8010199
:100DE000C0A801010000828282820000004F586D7D
:100DF0000205C0A801DEFFFFFF00C0A80101C0A8D6
:100E0000010100002F7363726970742F6164642E96
:100E1000706870007765626D6574656F626F782EBB
:100E20007275002F706F73742E706870006E61722F
:100E30006F646D6F6E2E7275000011241FBECFEFB0
:100E4000D8E0DEBFCDBF11E0A0E0B1E0EEE7FBE708
:100E500002C005900D92A43CB107D9F728E0A4EC9C
:100E6000B1E001C01D92A934B207E1F788D50C9416
:100E7000BD3DC6C88091D8018F5F8093D801089589
:100E8000DF92EF92FF920F931F93CF93DF9300D0E7
:100E900000D000D0CDB7DEB77C01D62E86E0E9E1E8
:100EA000F1E0DE01119601900D928A95E1F78E0135
:100EB0000F5F1F4F23E430E0A80164E470E0C70136
:100EC0000E940F14F701128E138E148E158E81E07E
:100ED00082A783A796E094A715A686A7D7A6D0AA2F
:100EE000D1AAF296D701AA5BBF4F1192EA17FB076E
:100EF000E1F79701245B3F4FCD0180549109FC013C
:100F000080818D93A217B307B9F7C7018A5E9E4F00
:100F1000F90111929F01E817F907D1F783E6808361
:100F2000F701E95EFE4F92E89083319693E5908356
:100F30003196808326960FB6F894DEBF0FBECDBFE4
:100F4000DF91CF911F910F91FF90EF90DF90089567
:100F5000CF93DF93EC0194DFFE01E65EFE4F85E365
:100F60008083319681E0808331968083319697E348
:100F70009083319692E0908331968083319683E01E
:100F8000808331968FEF80833196108268EF70E016
:100F9000CE010E947B1480E0DF91CF9108956D31E6
:100FA00021E0720700F12AE131E0A9014E5F5F4FB5
:100FB00046175707C0F4FC01E20FF31FA181AA23D3
:100FC00091F02A0F311DD90111966A177B0758F04D
:100FD000E081E53329F4FC01E40FF51F80810895D9
:100FE0002E5F3F4FE2CF80E00895FC016F3F710517
:100FF00091F088F082AD882379F082AD93ADA4ADF5
:10100000B5AD8093D4019093D501A093D601B09350
:10101000D70181E0089580E00895FC016F3F7105DC
:1010200069F060F083A1833449F482A5823031F401
:1010300097A5941303C081E020A9291380E00895A7
:10104000FC016F3F710529F020F081E096A59230F8
:1010500009F080E008954F925F927F928F929F9265
:10106000AF92BF92CF92DF92EF92FF920F931F93B6
:10107000CF93DF938B016D31714008F4C8C0E091CC
:10108000C401F091C5017090C70140E050E0BA0181
:10109000AAE14A2E5524539420ED31E0B4E0AB2E62
:1010A000A20E28EC31E0C4E0BC2EB20E2CEC31E0F4
:1010B000D4E08D2E820E92012E5F3F4F2017310714
:1010C00050F46201AFEFCA1ADA0AEC01CC0DDD1D53
:1010D000D881D11108C0F093C501E093C40170928A
:1010E000C70181E095C0ED2EF12CCE0CDF1C0C1554
:1010F0001D0588F36C01C40CD51CD601CC91C330FE
:1011000019F128F4CC2369F0C13069F07AC0C533F5
:1011100009F45AC0C63309F45CC0C33309F071C086
:1011200024C028016EC0D43009F06BC06C01C20E1F
:10113000D31E2CEC31E0D6019D906D01D9019D921A
:101140009D018A12F8CF5DC0D43009F05AC06C01FD
:10115000C20ED31E20ED31E0D6019D906D01D90164
:101160009D929D01AA12F8CF4CC0D43009F041C025
:1011700020E030E0762F652F542F4427F601E20F50
:10118000F31FE2814E2B2F5F3F4F2430310591F743
:101190004F3FBFEF5B076B077B0771F126E076954A
:1011A0006795579547952A95D1F74E3FCFEF5C0746
:1011B0006105710520F5FA0145305105610571059C
:1011C00000F5E5E0F0E01DC0EC01C20FD31F788010
:1011D00018C0D430B1F46C01C20ED31E28EC31E03B
:1011E000D6019D906D01D9019D929D01BA12F8CF53
:1011F00008C0E0EAF5E005C0EFEFFFEF02C0EDEF59
:10120000FFEFB2E0EB0EF11C4E0C5F1C54CF80E000
:10121000DF91CF911F910F91FF90EF90DF90CF90D2
:10122000BF90AF909F908F907F905F904F90089568
:10123000CF93DF93EC0124DEFE01E65EFE4F85E3F3
:101240008083319681E08083319683E08083809132
:10125000C8018823A9F086E33196808384E0319623
:1012600080838091C8019091C901A091CA01B09179
:10127000CB01319680839183A283B38369E001C05F
:1012800063E08091D4018823C9F0CE01860F911DBF
:10129000FC01E65EFE4F22E32083319624E02083AA
:1012A00031968091D4019091D501A091D601B09151
:1012B000D70180839183A283B3836A5F70E0CE01FC
:1012C000860F971FFC01E65EFE4F27E320833196D1
:1012D00022E02083319621E02083319623E0208391
:1012E00031962FEF2083319610826B507F4FCE01C5
:1012F0000E947B1480E0DF91CF9108950F931F939C
:10130000CF93DF93EC018A01BBDD82E08EA7F80169
:1013100080819181A281B3818A8F9B8FAC8FBD8F99
:1013200080819181A281B3818EAB9FABA8AFB9AF11
:10133000FE01E65EFE4F85E38083319681E0808387
:10134000319683E0808363EF70E0CE010E947B14CE
:1013500080E0DF91CF911F910F910895CF92DF929E
:10136000EF92FF920F931F93CF93DF931F92CDB70E
:10137000DEB78C017B014983AAD5D82E4981882309
:1013800009F468C0E114F104A9F58091000190917D
:1013900001018230910581F481E090E09093010198
:1013A000809300011092D8014093C60184D56091CA
:1013B000C601C801CDDD4DC0D090D401D11011C0FF
:1013C0002091D801263068F08091C6018F5F80930C
:1013D000C6011092D8016FD56091C601C801B8DD71
:1013E00039C083309105A8F1019790930101809352
:1013F00000012FC0C090C6014C2DB701C8010DDE01
:10140000D82E882339F1B701C8011ADE813009F1DD
:10141000B701C801C4DD823081F481E090E090938F
:10142000010180930001B701C801DFDDB701C801E8
:1014300012DE6C2DC801FCDE0CC0853051F481E059
:1014400090E090930101809300013BD5DD24D3947B
:1014500001C0D12C8D2D0F90DF91CF911F910F9155
:10146000FF90EF90DF90CF9008950F931F93009718
:1014700069F00091D4011091D5012091D6013091ED
:10148000D701FC0100831183228333836115710529
:1014900069F08091CC019091CD01A091CE01B091E5
:1014A000CF01FB0180839183A283B3834115510552
:1014B00069F08091D0019091D101A091D201B091B9
:1014C000D301FA0180839183A283B3831F910F918B
:1014D00008950F931F93CF93DF938C01EB018091BD
:1014E000D801893088F01092D8018091C401909180
:1014F000C5019C01225031092D3F3F4F28F401972F
:101500009093C5018093C4012097C9F48091C401D0
:101510009091C501039738F5DAD4882321F16091C1
:10152000C6016F5F6093C60144ED51E0C801E6DE7D
:1015300085E090E09093C5018093C40114C0409170
:10154000C601BE01C80169DD882381F0BE01C80162
:1015500026DD853041F4BE01C80172DD882319F013
:10156000BE01C80178DD80E090E001C0CE01DF91CE
:10157000CF911F910F91089599B121E030E002C001
:10158000220F331F8A95E2F7892F90E02823392311
:1015900081E0121613060CF080E008950F931F935C
:1015A000CF93DF93182F0FB7F8949AB1C1E0D0E032
:1015B00001C0CC0F8A95EAF79C2B9AB92BB1DC2F8E
:1015C000D0952D232BB981E090E00E94BC318BB1E6
:1015D000C82BCBB98AE68A95F1F700C09AB19D2352
:1015E0009AB98AE68A95F1F700C0812FC5DF0FBF4F
:1015F000DF91CF911F910F910895AF92BF92DF922B
:10160000EF92FF920F931F93CF93DF93082FDFB6D4
:10161000F894C7E0D0E010E0AA24A394B12C92E1A2
:10162000E92E97E2F92E802FA7DF811106C0A89539
:1016300021E0E21AF108B9F71EC080E58A95F1F7BA
:10164000802F9ADF813039F4C5010C2E01C0880F3C
:101650000A94EAF7182B82E1E82E87E2F82E802F11
:101660008BDF813031F4A89581E0E81AF108B9F7F1
:1016700002C02197A0F6DFBE812FDF91CF911F918D
:101680000F91FF90EF90DF90BF90AF900895EF9291
:10169000FF920F931F93CF93DF9300D000D01F9240
:1016A000CDB7DEB7F82E10920201F89477DF809361
:1016B0000201813009F451C085E88A95F1F70000F4
:1016C00008E410E08F2D58DF811108C00150110986
:1016D00029F0E2E0EA95F1F700C0F4CF8F2D4CDF5E
:1016E000811102C082E01DC0F5EDFA95F1F700000E
:1016F0008E010F5F1F4F75E0E72EE00E8F2D7DDF0F
:10170000F80181938F01EE12F9CF89814A812B81F3
:101710003C81942F980F920F930F5D81591721F000
:1017200087E38093020119C090E0982F8827840FE7
:10173000911D9093DA018093D901822F8F7790E0E9
:10174000982F8827830F911D27FF03C091958195BE
:1017500091099093DC018093DB0178940F900F90B6
:101760000F900F900F90DF91CF911F910F91FF90ED
:10177000EF9008958091E2010895EEEDF1E024E00C
:101780002E0F3191DC013D93CD012E13FACF089538
:10179000EF92FF920F931F93CF93DF93EC01F62EFE
:1017A000E72E8A011092E20192D3811105C084E0F4
:1017B0008093DD0181E069C01092DD018091E30139
:1017C0008F5F8093E30190E0BC01706E25E330E011
:1017D00042E458E0CE010E940F148091E3018BA7F0
:1017E00081E08CA7FE01BD96CE01C6961192E81746
:1017F000F907E1F781E08FA7EF2DFE2D9CE04DE08A
:101800004F19642F6E0F5081262F30E0552391F031
:101810005E3241F4DE01A90FB11D81509A968C937E
:10182000962F80E05191DE01A20FB31F9A965C9330
:101830008F5FE7CFFE01E90FF11D815082A7FE0106
:10184000E20FF31F12A681E0860FFE01E80FF11DE3
:1018500012A682E0860FFE01E80FF11D81E082A74B
:1018600093E0960FFE01E90FF11D12A694E0960F8A
:10187000FE01E90FF11D82A789EF860F8AA76B5F32
:1018800070E0CE010E947B1480E0DF91CF911F9128
:101890000F91FF90EF900895CF93DF93FC01663492
:1018A000710508F468C083A1853309F064C084A180
:1018B000803E09F060C085A19091E30189135BC06F
:1018C00093A5981358C085A58F78803811F081E0D2
:1018D00038C022A5245F61537109DF01A20FB11D39
:1018E0009A968C91807C11F02E5F0EC0822F90E032
:1018F0008617970748F42F5FDF01A20FB11D9A9654
:101900008C918111F3CF2F5FDF01A20FB11D9B9648
:101910008C919B97813081F088E0820FDF01A80FC6
:10192000B11D9B968C91265F280F822F90E0861721
:10193000970798F283E005C0D3969C91943021F0EC
:1019400082E08093DD0117C0265FCEEDD1E040E05C
:1019500050E030E0DA01A20FB31FAE0FBF1F9A961E
:101960009C9199934F5F5F4F4430510599F791E0F7
:101970009093E20101C080E0DF91CF910895109231
:10198000320210923102F8949FE088E10FB6F89489
:10199000A895809360000FBE909360000E94623013
:1019A000189903C080E00E9484308AEF90E00E9482
:1019B000BC31A8950E949B31109278031092A60327
:1019C0001092D40310920204109230044FE050E0C1
:1019D00060E570E087ED94E00E946D3D2091330456
:1019E00030913404A4E6B0E00E94FA38609311010B
:1019F000709312018093130190931401209180043D
:101A0000309181040E94FA3860930D0170930E01A9
:101A100080930F0190931001909163058EE2899F4E
:101A2000F0011124E45BFC4F23E124A7E1E0E90F7E
:101A30008E9FF0011124E45BFC4F24E124A7E2E037
:101A4000E90F8E9FF0011124E45BFC4F85E184A730
:101A50009D5F9093630580E40E94491980E80E948D
:101A6000491943E655E066E080E40E94721A8FEE61
:101A700092E00E94BC310E944930789480914608DF
:101A80008F3F91F580E398E0A4D363E675E08CEB9B
:101A900092E05FD210921F0840913508BC0183E6A6
:101AA00095E05CDCC82F81E00E945B1ACC2369F3CF
:101AB0004EE358E06AE378E086E398E0D6DC809174
:101AC0003E0890913F08A0914008B0914108809352
:101AD000420890934308A0934408B09345086AE3F2
:101AE00078E086E398E080D366E378E080E398E0EE
:101AF0002AD680E590E038D6EAD1811102C00E9452
:101B00004930A8950E9402270E94A41D8091470594
:101B10008130C9F561E070E086E00E942F1B609380
:101B200003057093040580930505909306052091A5
:101B30009703309198034091990350919A030E9422
:101B4000173820E030E041E655E40E947E3620E080
:101B500030E04AE754E40E947E369B01AC0160917C
:101B600020087091210880912208909123080E94FA
:101B70001636609320087093210880932208909372
:101B800023081092470580911E0290911F02892B15
:101B900009F0B2CFC091D40484E0C89F8001112421
:101BA0000B5E1A4F2091970330919803409199034F
:101BB00050919A0360910305709104058091050589
:101BC000909106050E94173820E030E040E752E48B
:101BD0000E947E3620E030E04AE754E40E947E36E0
:101BE0002091C5033091C6034091C7035091C803AB
:101BF0000E941738F8016083718382839383CF5FDB
:101C0000CD3018F4C093D40402C01092D40481E003
:101C100090E090931F0280931E026ECF2A98962F19
:101C20009F71892B8EBD0DB407FEFDCF1EBC0DB478
:101C300007FEFDCF67FD03C02A9A8EB508951EBC2E
:101C40000DB407FEFDCFF8CF2A986F71862B8EBD9D
:101C50000DB407FEFDCF4EBD0DB407FEFDCF2A9A91
:101C60000895FB012A982AE32EBD0DB407FEFDCF8F
:101C70008E0F9F1FE817F90739F01EBC0DB407FE41
:101C8000FDCF2EB52193F6CF10822A9A08952A9877
:101C90002AE72EBD0DB407FEFDCF860F971F6817EC
:101CA000790741F0FB012191BF012EBD0DB407FE64
:101CB000FDCFF5CF2A9A08951F93CF93DF93182F66
:101CC0001076C12FD0E02091E60130E0C217D30793
:101CD00079F043E06FE180EAB7DFAE0185E055952A
:101CE00047958A95E1F76FE180E8AEDF1093E60152
:101CF000DF91CF911F910895CF93DF931F92CDB7BE
:101D0000DEB7682F6983D8DF698180E00F90DF91AB
:101D1000CF9184CF1F93CF93DF931F92CDB7DEB7C0
:101D2000182F6983C9DF4981612F80E40F90DF910B
:101D3000CF911F9189CFCF93682F84EDEBDF61E0C6
:101D400082EDE8DF8AEED8DF80FDFCCF60E082ED37
:101D5000E1DF89EDD1DFC82F88EDCEDF2C2F30E019
:101D6000322F2227A901482BCA01CF9108951F9332
:101D7000CF93DF931F92CDB7DEB7162F682F84ED78
:101D80007983C8DF612F86EDC5DF7981672F87ED05
:101D9000C1DF18E28AEEB0DF80FF04C0812F8A9590
:101DA000F1F7F8CF0F90DF91CF911F910895CF9366
:101DB000DF93EC01229A2A9A84B1886284B924982C
:101DC0002B982D9880E58CBD8DB581608DBD4FEF32
:101DD00060E08FEF39DF80E090E00197F1F710923B
:101DE000E5011092E40160E088E094DF60E089E0C2
:101DF00091DF60E08CE08EDF60E08DE08BDF6FEFE5
:101E00008AE088DF69E18BE085DF60E084E082DFE3
:101E10006AE185E07FDF6FEF86E07CDF6FE187E0DE
:101E200079DF60EB88E376DF6FE388E273DF60E3FE
:101E300089E270DF69EF80E36DDF67EF81E36ADFDE
:101E40006DE080EC67DF60E081EC64DF42E362EC30
:101E500080E8FADE62E186EC5DDF6CE087EC5ADF59
:101E600062E184EC57DF6CED8AEC54DF65E08BECCB
:101E700051DF688184EE4EDF698185EE4BDF6A8138
:101E800082EE48DF6B8183EE45DF6C8180EE42DFBE
:101E90006D8181EE3FDF60E071E080E168DF8FE11E
:101EA0000BDF40EC6BE180E8CFDE44E06FE180E8DF
:101EB000DF91CF91C9CE88E31FDF682F616088E38F
:101EC00029CF88E319DF682F6E7F88E323CF81E174
:101ED00032DF92FB882780F908950F931F93CF93E9
:101EE000DF93EC018B016FE180E098DE83FDFBCF97
:101EF0008CE102DF81FF10C040E86FE180E8A4DEE2
:101F000040E86FE180EAA0DE42E06CE180EA9CDE1E
:101F100080E395E70197F1F760E082E0FBDE6AE19C
:101F200083E0F8DE6C2F86E0F5DECE01965E692F49
:101F300087E0F0DE40E060E08AE786DEB801CE01AF
:101F4000A6DE48E06FE180E8DF91CF911F910F910D
:101F50007BCE9F92AF92BF92CF92DF92EF92FF9291
:101F60000F931F93CF93DF936C017B0189E3C4DE52
:101F7000882309F44EC06091E401C091E50180E03E
:101F8000C9DE6C2F81E0C6DE60E08AE347DE082F01
:101F900060E08AE343DE10E0182B1093E501009324
:101FA000E40160E08AE33ADEC82F60E08AE336DECF
:101FB000982E60E08AE332DEA82E60E08AE32EDE0F
:101FC000A7FE0EC0960121503109D0E0D9292497EF
:101FD0002C173D0708F4E901B701CE0142DE02C02B
:101FE000C0E0D0E06FEF01308AE1180724F08CE008
:101FF00091DE69E106C0600F8CE08CDE01501109B2
:10200000612F8DE087DE40E46EE180E81DDECE01C9
:1020100002C080E090E0DF91CF911F910F91FF907F
:10202000EF90DF90CF90BF90AF909F900895CF92A8
:10203000DF92EF92FF920F931F93CF93DF937A017A
:1020400069019091FF01891759F0E091FC01F0912D
:10205000FD0140E050E060E070E084EF91E03EC0C0
:1020600061113DC02D303105D0F10091FC0110917E
:10207000FD010115110599F1C091F001D091F10117
:10208000C40FD51F888590E00E94423A892B09F140
:10209000A985B0E0D097AA30B105D8F48B8590E03F
:1020A000C0978A309105A8F46AE06A9FA0016B9FEF
:1020B000500D11243A85232F30E020533109240F8D
:1020C000351F629FA001639F500D1124840F951F3F
:1020D00002C080E090E0A601B701F801099580E018
:1020E000DF91CF911F910F91FF90EF90DF90CF90F4
:1020F0000895CF92DF92EF92FF920F931F93CF93A9
:10210000DF937C01FB01413051F4AB014850510990
:1021100060E070E04F5E5F4F6F4F7F4F0FC0423007
:1021200051F4AB014850510960E070E04A5F5F4FE5
:102130006F4F7F4F03C040E050E0BA01D7011196C6
:102140006F0182E0C816D104B0F0CD010197EC0117
:10215000088110E020E030E0322F212F102F0027DF
:102160008C91082B400F511F621F731FD2E0CD1AB4
:10217000D1081296E6CFCF018E7FD701A80FB91FE5
:10218000E0FF0CC08C9190E0A0E0B0E0BA2FA92F46
:10219000982F8827480F591F6A1F7B1F8B01222702
:1021A0003327011511052105310539F066277727F9
:1021B000400F511F621F731FF1CFCA018095909588
:1021C000DF91CF911F910F91FF90EF90DF90CF9013
:1021D0000895FC01892B39F096E0A8E1B2E0019066
:1021E0000D929A95E1F70895009721F46115710514
:1021F00059F40895FC01A4E1B2E084E08A0F9191C2
:102200009D938A13FCCFF2CFFB01A4E0B1E084E000
:102210008A0F91919D938A13FCCF0895DC015A9601
:10222000FB014E963D912191321305C0A817B907C5
:10223000C9F781E0089580E0089569327105A0F042
:10224000FC012485283081F42585263069F4B69672
:10225000A4E1B2E084E08A0F21919D91291304C08A
:102260008A13FACF81E0089580E00895FC016A3274
:102270007105B0F08485883099F48585811110C08E
:102280009685953471F47E96A4E1B2E094E09A0FBD
:1022900031912D91321305C09A13FACF81E0089540
:1022A00080E00895CF93DF93A8E1B2E09C012A5F1C
:1022B0003F4FF9014081EC014993CE014D9141938B
:1022C000C217D307B9F7DF91CF910895CF93DF936A
:1022D000EC01188E198E80E48C8B1D8A8E8B40E069
:1022E00064E170E0CE010E9604DF988F898FDF9154
:1022F000CF910895CF93DF93EC016E96DC015A964F
:10230000E4E1F2E024E02E0F3C91399331913D93CA
:102310002E13FACFDF91CF91D9CF9C01265D3F4F8D
:10232000FC01BE96D9018E91680F711D8291608368
:10233000442311F08C9301C01C92672F7727E2177A
:10234000F30789F70895CF93DF93EC018CA19AA14D
:102350009CA38AA38DA19BA19DA38BA3CE01DDDFAE
:102360001AAA1BAA80E58EA7DF91CF910895CF937B
:10237000DF93EC0197DF1C8A82E08D8BCE01809683
:10238000DE01569648E152E026E0240F3C91FC0124
:102390003193CF01FA013191AF013D932E13F6CF66
:1023A000CE018696DE015C9644E152E024E0240FE3
:1023B0003C91FC013193CF01FA013191AF013D9382
:1023C0002E13F6CFBE018AE290E0DF91CF9185CD4A
:1023D0000F931F93CF93DF93EC018B0163DFCE014B
:1023E00089DF1AA29CA1983F18F02DA12F5F2DA381
:1023F000985F9CA3BE01C801DF91CF911F910F91FF
:102400006CCDFC01208930E0322F22278189282BD6
:102410002451310986A582958F70A90164E0869FB9
:10242000401951091124CA0157FF02C080E090E011
:1024300008959C01CB01FC01E61BF70BE40FF51F8F
:10244000E491EE2339F0D901A80FB91FD696EC9389
:102450000196F1CF0895DB01D696A80FB91FFA01B6
:10246000420F4E1719F081918D93FBCFCB01820F54
:10247000911D0895FA0101900020E9F731979F011D
:10248000241B350BE8CFEF92FF920F931F93CF934E
:10249000DF9300D000D01F92CDB7DEB79091FF013F
:1024A000891392C08091FE010091F0011091F10119
:1024B000811126C04FE752E060E070E0C801B9DF4B
:1024C0004091F6015091F701BC01C801B2DF409183
:1024D000F4015091F501BC01C801CCDF4DE652E09A
:1024E000BC01C801A6DF4091F2015091F301BC018B
:1024F000C8019FDF40E452E0BC01C8019ADF66C01A
:102500004AE352E060E070E0C80193DF4091F601D9
:102510005091F701BC01C801ADDF4091F401509129
:10252000F501BC01C801A6DF48E252E0BC01C801C8
:1025300080DF4091F2015091F301BC01C8019ADFA4
:10254000E090FA01F090FB01E114F10449F045E25A
:1025500052E0BC01C8016DDFA701BC01C80169DF01
:1025600040E052E0BC01C80164DF4FEE51E0BC0125
:10257000C8015FDF7C01A091F801B091F901FD0174
:1025800001900020E9F731974AE0BE016F5F7F4F6D
:10259000CF018A1B9B0B0E94C43A0091F00110915D
:1025A000F101AE014F5F5F4FB701C80163DF49EB37
:1025B00051E0BC01C8013DDF4091F8015091F901A3
:1025C000BC01C80157DF02C080E090E00F900F907F
:1025D0000F900F900F90DF91CF911F910F91FF906F
:1025E000EF9008950F931F93CF93DF9300D01F9226
:1025F000CDB7DEB78C014B8369837A8353DE4B8181
:10260000842F8061F80187A769817A81443029F09D
:102610006115710511F461E070E041E0C80193DEDD
:10262000F801108A88E2818BC80164DE84E0F80139
:1026300080AB11AA42E06CE170E0C8014A9659DD16
:10264000F80192AB83ABB80186E390E00F900F9056
:102650000F90DF91CF911F910F913FCC0F931F935C
:10266000CF93DF93EC018B01CB018896988B898BFC
:10267000CE012CDE1AAA1BAAB801645E7F4F42E08D
:10268000CE014A9636DD9AAB8BABBE01C801C69629
:10269000DF91CF911F910F9120CCCF92DF92EF92DB
:1026A000FF920F931F93CF93DF9300D0CDB7DEB788
:1026B0006C01F42EE52E69837A83F4DD6981062F9F
:1026C0007A81172F0D3D110510F00CED10E0F60189
:1026D000108AC8014C96818BC6010CDEF60182A1DE
:1026E00084A383A185A3E2A2F3A216A2C80108963F
:1026F00087A310A611A6B801605F7F4F41E0C60115
:102700004A96F7DCF60190A781A7B601C8018A9620
:102710000F900F90DF91CF911F910F91FF90EF904D
:10272000DF90CF90DACBFB01BC01665D7F4FDB0110
:102730005A2F561B541718F451915D93F9CF642FFB
:1027400070E0A901AACF6115710519F4009759F439
:102750000895FB01A4E1B2E024E02A0F31913D93FA
:102760002A13FCCFF3CF35CD9093E9018093080174
:102770000895CF93DF93EC0195DD188A8CE2898B65
:10278000CE01B8DD82E18FA740E061E070E0CE01CC
:10279000DADD1EA21FA280910C0188A719A68D5F09
:1027A00080930C0182E08EAB84E08FAB85E088AF34
:1027B00019AE80E68EA78AE088AB19AA42E060E2F3
:1027C00070E0CE014A9695DC9AAB8BABBE018AE3F2
:1027D00090E0DF91CF9181CB0F931F93CF93DF9345
:1027E000EC018B016091E7017091E80140E0FADEB5
:1027F00089E18FA7B801CE01DF91CF911F910F9191
:102800002DCF640F751F4617570741F0FA01249129
:10281000FC012193CF014F5F5F4FF5CF0895AF9239
:10282000BF92CF92DF92EF92FF920F931F93CF93BD
:10283000DF9300D0CDB7DEB75C01F62EE72E6A013C
:10284000B5016A5F7F4FE8E1F2E046E04E0FD80144
:102850005D918D01DC015D93CD015191DB015D93B3
:10286000BD014E13F4CF88E0F501848715864CE84E
:1028700052E069E070E0C5010E9629833A83C1DF1A
:1028800080910301D50153968C9353978F5F80936A
:10289000030150961C92509781E157968C938601C4
:1028A000C5014E96E4E1F2E044E04E0F3A81298101
:1028B000D8015D918D01DC015D93CD015191BD0188
:1028C00065507109DB015C934E13F2CFF50134A31F
:1028D00025A3E2A2F3A216A210A611A60F900F90B4
:1028E000DF91CF911F910F91FF90EF90DF90CF90EC
:1028F000BF90AF9008950F931F93CF93DF93EC0198
:102900008B01CB014C96898B988BCE01DFDCC80103
:1029100008968FA39EA3B801605F7F4F41E0CE0170
:102920004A96E7DB89A798A7BE01C8018A96DF917E
:10293000CF911F910F91D1CAEF92FF920F931F93E6
:10294000CF93DF9320911402222309F44CC0EC01B1
:1029500028E1E22E22E0F22EDC011696F7014FEF7D
:1029600026E02E0D499331913D932E13FBCF8B0121
:10297000EC0188E08C8786E08D8744E852E068E0CF
:1029800070E0CE010E963DDFAE01405E5F4FDE018E
:102990009696F70121917F01CA010A97FC012083D5
:1029A000FA011192AF01EA17FB0799F7C80164E138
:1029B00072E024E0260FFC013191CF013D93FB0131
:1029C0003191BF01AD014B505109FA0130832613FB
:1029D000F2CFBE018AE290E0DF91CF911F910F917B
:1029E000FF90EF907ACADF91CF911F910F91FF90E6
:1029F000EF90089581E09091EB01923009F480E02E
:102A000008955093CD044093CC0421E02093EB0132
:102A10006093EA01ECEEF1E024E02E0FDC013D9141
:102A2000CD0131932E13FACF0895FF920F931F9388
:102A3000CF93DF93EC01162F042FF52E9C0188E134
:102A400092E0BE016A5F7F4FE7E0F2E046E04E0FA2
:102A50005191D9015D939D01DC015D91CD01DB01B7
:102A60005D93BD014E13F4CF88E08C871D864CE842
:102A700052E069E070E0CE010E96C3DE8CE2898BF5
:102A8000809103018B8B8F5F8093030186E08F8B96
:102A9000DE015E9684E192E06DE072E024E0260FB4
:102AA000FB013191BF013D93FC013191CF01AD019B
:102AB00045505109FA0130832613F2CFCE0106DCCE
:102AC000FCA20DA38BE08AA31BA3FE01B696CE0148
:102AD0008E961192E817F907E1F780910C0188A70B
:102AE0008D5F80930C0180E68EA782E08FA793E034
:102AF00098AB19AA1AAA1BAA1CAA1DAA8EAB94E00D
:102B00009FAB88AF8EEE89AF42E060E270E0CE010D
:102B10004A96EFDA9AAB8BABBE018AE390E0DF9185
:102B2000CF911F910F91FF90D8C90F931F9390934E
:102B30000302809302027093010260930002D901A4
:102B4000EDE0F2E084E08E0F9D9191938E13FCCF27
:102B5000D801E7E0F2E086E08E0F9D9191938E130D
:102B6000FCCF509305024093040281E0809306025B
:102B7000809111028F5F883018F48093110202C097
:102B800010921102809111021F910F9108952F92BE
:102B90003F924F925F926F927F928F929F92AF92ED
:102BA000BF92CF92DF92EF92FF920F931F93CF933A
:102BB000DF9300D0CDB7DEB73C011B012A0129838A
:102BC0003A8385D929813A81882329F17092F701C6
:102BD0006092F6015092F3014092F2013092F501B9
:102BE0002092F4013093FB012093FA011093F90134
:102BF0000093F80181E08093FE01F092FD01E092E4
:102C0000FC0185019601A40163E472E187E190E192
:102C10008CDF8093FF010F900F90DF91CF911F9178
:102C20000F91FF90EF90DF90CF90BF90AF909F906B
:102C30008F907F906F905F904F903F902F9008956E
:102C4000AF92BF92DF92EF92FF920F931F93CF93B9
:102C5000DF931F92CDB7DEB75C017B016115710573
:102C600009F04EC08091EB01893069F4809109012F
:102C700090910A01892B39F42AD9882321F06CEE2E
:102C800071E0C50159DE8091EB01813081F41FD9DB
:102C9000882369F06CEE71E0C5014EDE8091EB0196
:102CA00088608093EB0110920A01109209018091D3
:102CB000090190910A01019690930A0180930901FC
:102CC00080910602813009F066C101D9882309F498
:102CD00062C182E08093060260910B016F5F609396
:102CE0000B0140910402509105026F718091110215
:102CF00020E2829FC0011124682BC50196DE4BC1E2
:102D00009CDA882351F1D50155968C91813011F4CC
:102D1000C5012DDB8091EB0183FF3DC1F5011589D4
:102D2000123009F038C144E050E06CEE71E0C501AA
:102D30004C960E94723A892B09F02DC1A5014A5E7A
:102D40005F4FE091CC04F091CD046091EA018CEEEC
:102D500091E009951093EB011EC1B701C50186DA18
:102D6000882309F418C1D50157968C915797813063
:102D700091F492968C91883009F00DC1E091120285
:102D8000F0911302309719F0C5014A960995B701E1
:102D9000C5011EDB00C1B6E3EB16F10408F4FBC06D
:102DA000863009F0F8C0F50184A18B3009F0C1C06C
:102DB000B092F101A092F0016DE072E0C5012EDA4F
:102DC000882309F4E8C0D5019F962C919F9722FF94
:102DD00013C0E0910202F0910302309759F09596EA
:102DE0008C9120E030E040E050E063E082958695F1
:102DF0008770099586E092C0C501298302DB8C01AA
:102E0000809106022981823089F5822F807122719A
:102E10002231F9F440E060E070E0C501E3DB88E1D5
:102E2000F50187A7E0910002F0910102309741F08F
:102E3000D50193968C91829586958770099502C0ED
:102E400080E090E023E020930602BC01C50106DC8F
:102E5000A2C091E090930602811104C0B8016F5F97
:102E60007F4F02C060E070E044E060C08330A9F5AD
:102E70000115110591F184E080930602E0910202B0
:102E8000F0910302309749F1D5019E964C914295FD
:102E90004F70B4E04B9FA0011124C70108974E5D0D
:102EA0005F4F8417950708F4AC01C801840F951F84
:102EB000E816F90620F49701241B350B01C0980190
:102EC000D50195968C9160E08295869587700995DD
:102ED000882319F049E0B8011EC090910602F5015F
:102EE00087A5953019F484FD85CF55C0963069F4D7
:102EF00084FD04C0B8016F5F7F4F02C060E070E0E6
:102F000044E0C5016FDB87E009C080FF0AC0B8015B
:102F10006F5F7F4F41E0C50165DB85E0809306026E
:102F20003AC001151105B9F140E0B801C5015ADBFD
:102F300032C09091E90189132EC095A180910801BA
:102F4000981329C0D7A4D1FE03C0C50112DC23C049
:102F5000D4FE21C0C50155DA8C019093E80180931D
:102F6000E701892B41F4D0FE16C040E060E070E03C
:102F7000C50138DB12C0F50106A502950F70F4E01B
:102F80000F9F800111240E5D1F4F28E0E21AF10807
:102F9000E016F10610F400E010E0C8010F90DF9198
:102FA000CF911F910F91FF90EF90DF90BF90AF9066
:102FB000089598E028E1362F382730FD02C0669545
:102FC00003C062276695606886959150A1F7862FA9
:102FD0000895EF92FF920F931F93CF93DF93EC012D
:102FE0007C0187E0E80EF11C8E0160E0F801819120
:102FF0008F01DFDF682F0E151F05C1F781E09F816C
:10300000691301C080E0DF91CF911F910F91FF9074
:10301000EF900895EF92FF920F931F93CF93DF935A
:10302000EC017C0188E0E80EF11C8E0160E0F80103
:1030300081918F01BEDF682F0E151F05C1F781E05A
:103040009885691301C080E0DF91CF911F910F91A6
:10305000FF90EF9008951F93CF93DF93D82F162FF3
:10306000C8E0812FD0FF02C022D101C039D1D6954E
:10307000C150B9F7DF91CF911F9108951F93CF935E
:10308000DF93182FD8E0C0E0C695812F42D181117F
:10309000C068D150C9F78C2FDF91CF911F9108954F
:1030A000682F8CECD8CFCF92DF92EF92FF921F93D4
:1030B000CF93DF931F92CDB7DEB7F82E162F85E59D
:1030C0009983C9DFCF2C9981D92E760188E0E80E4B
:1030D000F11C612FF60181916F01BDDF81E090E06D
:1030E0000E94BC31CE14DF04A1F70F90DF91CF9185
:1030F0001F91FF90EF90DF90CF900895CF92DF92D5
:10310000EF92FF920F931F93CF93DF938C01D62EF4
:10311000E42E642F80EF9FDFC1E0F12CD1E08E2DF3
:10312000F8D0C82E8E2DF5D0CC2039F0811131C0C9
:10313000F80180818C2B808319C0F801908188234D
:1031400021F08C2F8095982303C0DD1104C09C2BA7
:10315000F80190830BC0DD1630F48C2F80959823F6
:10316000F801908302C09C2309F4FD2EF8018081B0
:103170008C2319F08E2D9BD002C08E2DB1D0DF5F35
:10318000CC0F19F40F5F1F4FC1E0D13441F68F2DE2
:1031900001C08FEFDF91CF911F910F91FF90EF90C2
:1031A000DF90CF9008956F927F928F929F92AF920F
:1031B000BF92CF92DF92EF92FF920F931F93CF9324
:1031C000DF931F92CDB7DEB75C01062F942E690105
:1031D0003C0184E0680E711C930180E0801761F06F
:1031E000A901485F5F4FF9011192E417F507E1F774
:1031F0008F5F225D3F4FF2CF7301F30110E060E07B
:1032000088E0882E1017F9F0A895D701882D019035
:103210000D928A95E1F7892D69839BD06981882376
:1032200029F1492DC7016ADF682F1F5FD5019EE292
:10323000199FA00DB11D11241496F701882311F0D8
:103240007D01E0CF012F10E0101771F0A895C301A8
:10325000C0DEEEE26E0E711C81110AC0F6018081A3
:103260008F5F80831F5FF0CF80E003C08FEF01C0CE
:1032700081E00F90DF91CF911F910F91FF90EF9020
:10328000DF90CF90BF90AF909F908F907F906F9086
:1032900008959AB1809598239AB99BB189238BB9E7
:1032A0008BEB93E00197F1F700C0000008952FB772
:1032B000F8949AB1982B9AB99BB1809598239BB9B1
:1032C0009AE09A95F1F700C09AB198239AB99BB108
:1032D00089238BB985EA8A95F1F700002FBF0895FD
:1032E0002FB7F8949AB1982B9AB99BB180959823EF
:1032F0009BB99AE99A95F1F700C09AB198239AB9C7
:103300009BB189238BB985E18A95F1F700002FBF26
:1033100008953FB7F8949AB1982B9AB99BB1282F8A
:10332000209592239BB99AE09A95F1F700C09AB143
:1033300092239AB99BB192239BB922E12A95F1F786
:1033400000C099B12DE82A95F1F700003FBF89230D
:1033500008953FB7F8949AB1982B9AB99BB1282F4A
:10336000209592239BB9EBEBF3E03197F1F700C086
:1033700000009AB192239AB99BB192239BB9F5EBC5
:10338000FA95F1F7000099B1EFE2F3E03197F1F728
:1033900000C000003FBF909589230895883C9105A7
:1033A00029F4809123028F5F809323028091300261
:1033B000823019F483E0809330020895613049F43B
:1033C000DA01EAE2F2E086E08E0F9D9191938E138E
:1033D000FCCF0895CF92DF92EF92FF920F931F934D
:1033E000CF93DF9300D000D01F92CDB7DEB78C0112
:1033F000FC0110821182128213827B0120E090E096
:10340000F70181917F01882361F12430D8F5933051
:1034100090F4482F50E0405351094A30510548F488
:10342000E1E0F0E0EC0FFD1FE90FF11D80839F5FED
:1034300002C0992329F38E3219F7E1E0F0E0EC0F96
:10344000FD1FE90FF11D10826801C20ED11CCE01D3
:1034500001962D830E944D39F60180832D812F5FC7
:10346000CECF233079F4E1E0F0E0EC0FFD1FE90F5F
:10347000F11D1082CE0101960E944D39F80183831F
:1034800080E001C081E00F900F900F900F900F909F
:10349000DF91CF911F910F91FF90EF90DF90CF9030
:1034A000089581E04D9B80E00895813011F45D9A8C
:1034B00008955D980895CF93DF93D82FC0E0CD177E
:1034C00071F05D9A82E390E00E94BC3180E0EDDF14
:1034D00082E390E00E94BC31A895CF5FF0CFDF91EE
:1034E000CF9108959F92AF92BF92CF92DF92EF92C9
:1034F000FF920F931F93CF93DF931F92CDB7DEB749
:10350000F82EE62E8A01DA018C9165E0681BBEE296
:103510008B9FC00111249E012F5F3F4F4F2D845B75
:103520009C4F41DEF801D0808EE2C82E90E1992EAA
:10353000AD2CB12C8981D8012C9130E0280F311DA0
:10354000A216B306ECF46D2D8F2D0E944832CA9C52
:10355000F001CB9CF00D1124E45BFC4F86A18F376A
:1035600021F06D2D8F2D0E948D32CA9CF001CB9CD5
:10357000F00D1124E45BFC4FF3A694A6D394D8CFAE
:10358000811140C08E2D0E94470B8AEF90E00E946F
:10359000BC31A8958AEF90E00E94BC31A8958E2D91
:1035A0000E94470B80910201811135C0D801EC9136
:1035B0004EE24E9FF0011124E45BFC4FE3A62C91F8
:1035C00030E02F5F3F4F429FF001439FF00D1124E9
:1035D000E45BFC4FE3A6EC914E9FF0011124E45B09
:1035E000FC4F21E124A78C9190E00196489FF001C7
:1035F000499FF00D1124E45BFC4F24A78C918E5F52
:103600008C9309C08F2D0E94C7318981F801908168
:10361000980F908301C080E00F90DF91CF911F91B0
:103620000F91FF90EF90DF90CF90BF90AF909F9061
:103630000895806480937C0080917A0080648093F8
:103640007A0080917A0084FFFCCF80917A008061BB
:1036500080937A00809178009091790008958F92FC
:103660009F92AF92BF92CF92DF92EF92FF920F9311
:103670001F93CF93DF93D82EEB0187E0DADF7C0135
:1036800000E911E0812C912C54018D2DD2DF8E198F
:103690009F0997FF03C0919581959109BC01990FEE
:1036A000880B990B0E9414379B01AC010E941738BC
:1036B0009B01AC01C501B4010E9416364B015C01AF
:1036C00082E48A95F1F700C001501109F1F620E07B
:1036D00030E048EC53E4C501B4010E947E360E94FC
:1036E0007E386B017C01BE01DD0F880B990B0E94B7
:1036F00014374B015C0120E030EC4FE754E4C70184
:10370000B6010E947E3623E333E343E550E40E9492
:10371000173820E030E040EF51E40E9417389B0159
:10372000AC01C501B4010E941738DF91CF911F9100
:103730000F91FF90EF90DF90CF90BF90AF909F9050
:103740008F9008951F920F920FB60F9211242F930E
:103750003F934F935F936F937F938F939F93AF9319
:10376000BF93EF93FF938091460390914703A091FD
:103770004803B09149030196A11DB11D80934603F2
:1037800090934703A0934803B0934903809120028C
:103790008F5F843618F48093200217C010922002A5
:1037A000809122028F5F8093220281E080934705FF
:1037B000809121028F5F80932102809121028630C7
:1037C00020F0109221020E943A0780913803813044
:1037D00011F580913E0390913F03A0914003B09179
:1037E0004103892B8A2B8B2BA1F080913E03909172
:1037F0003F03A0914003B09141030197A109B10992
:1038000080933E0390933F03A0934003B093410302
:1038100002C01092380380913703813011F58091F6
:103820003A0390913B03A0913C03B0913D03892B57
:103830008A2B8B2BA1F080913A0390913B03A091AE
:103840003C03B0913D030197A109B10980933A036C
:1038500090933B03A0933C03B0933D0302C01092AE
:10386000370380913903813031F580914203909183
:103870004303A0914403B0914503892B8A2B8B2BE2
:10388000A1F08091420390914303A0914403B09131
:1038900045030197A109B109809342039093430323
:1038A000A0934403B093450306C0109239031092CD
:1038B0001F0210921E02FF91EF91BF91AF919F9155
:1038C0008F917F916F915F914F913F912F910F90C9
:1038D0000FBE0F901F90189590ED980F9A3070F0D2
:1038E0009FE9980F963010F499EA05C09FEB980F66
:1038F000963018F499EC980F01C0982F892F0895ED
:1039000090ED980F9A3060F09FE9980F963010F480
:10391000875508959FEB980F963020F487530895AC
:10392000892F089580E00895CF93DF93EA012AE07C
:103930000E94D63ACE01DF91CF910895EF92FF9287
:103940000F931F93CF93DF938B01EC0120E030E0C6
:103950008991882361F0209F7001219FF00C309F96
:10396000F00C1124B9DF9701280F311DF1CFC901E7
:10397000DF91CF911F910F91FF90EF9008955F928B
:103980006F927F928F929F92AF92BF92CF92DF926F
:10399000EF92FF920F931F93CF93DF93CDB7DEB7D4
:1039A0002B970FB6F894DEBF0FBECDBF6C01562E1D
:1039B000FC0101900020E9F731977F01E81AF90A2C
:1039C0005C0120E030E000E010E0842E912CC50185
:1039D0008C199D098E159F0514F5F50181915F01E4
:1039E000E1E0F0E0EC0FFD1FE20FF31F851113C0C3
:1039F00010823801FFEF6F1A7F0AB401CE010196E1
:103A00004B879CDFF801ED5CFD4F8083830120E054
:103A100030E04B85DCCF80832F5F3F4FD8CFE1E094
:103A2000F0E0EC0FFD1FE20FF31F1082642F70E037
:103A3000CE01019683DFF801ED5CFD4F80832B966C
:103A40000FB6F894DEBF0FBECDBFDF91CF911F91AF
:103A50000F91FF90EF90DF90CF90BF90AF909F902D
:103A60008F907F906F905F9008950F931F93CF93E7
:103A7000DF938A01FB0101900020E9F73197EF0104
:103A8000C61BD70B0E94AA3A009719F41092330272
:103A900023C0BC016C0F7D1F83E392E00E948A3A31
:103AA000E3E3F2E001900020E9F73197EF01C3531F
:103AB000D240B80183E392E00E94AA3AFC0101904F
:103AC0000020E9F73197E81BF90BCE018E1B9F0B05
:103AD000FC01ED5CFD4F108283E392E0DF91CF911A
:103AE0001F910F910895CF92DF92FF920F931F9332
:103AF000CF93DF938C01EC01F80180818823D9F00A
:103B00008B32A1F0853299F4680182E0C80ED11C95
:103B1000F8018181F5DEF82EF8018281F1DEF0E115
:103B2000FF9E90011124822B860101C080E28993BF
:103B30000F5F1F4FE1CF1882DF91CF911F910F913F
:103B4000FF90DF90CF9008952F923F924F925F9217
:103B50006F927F928F929F92AF92BF92CF92DF929D
:103B6000EF92FF920F931F93CF93DF9380913903CE
:103B700081113FC196DC91E0811190E0892F95DCA5
:103B800080914A038823E9F00E94493010924A0349
:103B900048EE53E060E070E040933E0350933F03F3
:103BA000609340037093410381E080933803409316
:103BB0003A0350933B0360933C0370933D0380931F
:103BC000370384EF91E0A0E0B0E08093150190937B
:103BD0001601A0931701B0931801809342039093AC
:103BE0004303A0934403B0934503F12C8EE2E82EE7
:103BF00094E0292E2CEA922E3EE0332E46E0D42E7D
:103C000058E0452E6EE1562E79E0672ECC24C39401
:103C1000E2E07E2EFAEA8F2EAF2CB12CEA9C8001D6
:103C2000EB9C100D1124E801C45BDC4F8CA58331A3
:103C300099F038F4803109F45CC0813109F471C025
:103C4000D0C08431C9F0853109F0CBC0C5E1D5E0E1
:103C500060E070E0CB012AC02B8E8091030590912B
:103C60000405A0910505B091060588839983AA8370
:103C7000BB839C823D820FC04B8E80912008909127
:103C80002108A0912208B091230888839983AA83F0
:103C9000BB839C825D82D801AE5ABC4FE0E3F8E062
:103CA0008D2D01900D928A95E1F79BC02991399154
:103CB000499159910E94163625E0C534D207B1F7D3
:103CC000EA9CE001EB9CD00D11248E01045B1C4F9B
:103CD000F801638E20E030E040E451E40E947E363B
:103CE000F80160837183828393839482E582DE018D
:103CF000D3CFB801605B7C4FAE018BA50E94D3315E
:103D0000811103C0CB8E1DA601C0CDA6EA9CF00197
:103D1000EB9CF00D1124E45BFC4F83A50E94C7319E
:103D200060C08BA50E94470B80910201BB24B39415
:103D3000BF0C81114EC01DA67B8E6091D901709180
:103D4000DA0180E090E00E94123720E030E040E2AB
:103D500051E40E947E36688379838A839B838C82B8
:103D60008AE18F0D8D83D801AE5ABC4FE0E3F8E0B5
:103D70008D2D01900D928A95E1F7EB9C8001112425
:103D8000E801C45BDC4F1DA6CB8E6091DB01709116
:103D9000DC01072E000C880B990B0E94143720E0E1
:103DA00030E040E251E40E947E36688379838A8362
:103DB0009B838C828BE28F0D8D83D801AE5ABC4FD2
:103DC000E0E3F8E08D2D01900D928A95E1F7FB2C50
:103DD00008C0CDA6FB2CEB9CF0011124E45BFC4F4A
:103DE000C5A6F394F4E0FF1508F016CF81E08093A8
:103DF0003903DF91CF911F910F91FF90EF90DF90EA
:103E0000CF90BF90AF909F908F907F906F905F907A
:103E10004F903F902F90089546E75DE060E070E09E
:103E200083E695E00C9419124FE35DE060E070E0EA
:103E300083E695E00C94191247E05DE00C941912AA
:103E4000CF92DF92EF92FF920F931F93CF93DF9366
:103E5000EC0169010E94191240EF5CE0BC01CE0147
:103E60000E941912A601BC01CE010E94191247EE50
:103E70005CE0BC01CE010E941912A801BC01CE0178
:103E80000E943A1244EE5CE0BC01CE010E9419127D
:103E9000A701BC01CE01DF91CF911F910F91FF903F
:103EA000EF90DF90CF900C9419123F924F925F9257
:103EB0006F927F928F929F92AF92BF92CF92DF923A
:103EC000EF92FF920F931F93CF93DF9300D000D018
:103ED00000D0CDB7DEB72A013B01C22E332E4801F8
:103EE000E82EF12C9EE2899FF0011124E45BFC4F47
:103EF000E38D8E2F90E0FC013197CE0101965C019D
:103F0000EA30F10508F0CCC0EC5CFF4F0C94F438BB
:103F10008EE28E9DF0018F9DF00D1124E45BFC4F2D
:103F20002081318142815381C301B2010E94163642
:103F3000162FF72EE82ED92E6EED7CE0C5010E94DB
:103F4000523A67ED7CE098C08EE28E9DF0018F9D25
:103F5000F00D1124E45BFC4F2081318142815381BB
:103F6000C301B2010E941636162FF72EE82ED92E65
:103F700061ED7CE0C5010E94523A6FEC7CE07CC0B0
:103F80008EE28E9DF0018F9DF00D1124E45BFC4FBD
:103F90002081318142815381C301B2010E941636D2
:103FA000162FF72EE82ED92E69EC7CE0C5010E9471
:103FB000523A66EC7CE060C020E030E0A901C30129
:103FC000B2010E947A36811114C08EE28E9DF001FA
:103FD0008F9DF00D1124E45BFC4F1081F180E28095
:103FE000D38060EC7CE0C5010E94523A6EEB7CE02D
:103FF00043C08EE28E9DF0018F9DF00D1124E45B95
:10400000FC4F2081318142815381C301B2010E9462
:104010001738162FF72EE82ED92E68EB7CE0C50155
:104020000E94523A66EB7CE027C08EE28E9DF00142
:104030008F9DF00D1124E45BFC4F1081F180E28034
:10404000D38060EB7CE0C5010E94523A6BEA7CE0D1
:1040500013C08EE28E9DF0018F9DF00D1124E45B64
:10406000FC4F1081F180E280D38065EA7CE0C501DD
:104070000E94523A6DE97CE0C4010FC08EE28E9D31
:10408000F0018F9DF00D1124E45BFC4F1081F18055
:10409000E280D3806AE97CE0C5010E94523A04C004
:1040A00010E0F12CE12CD12CDF92EF92FF921F93C4
:1040B000BF92AF923F92CF920E94483B0FB6F894C6
:1040C000DEBF0FBECDBF80E090E026960FB6F8941D
:1040D000DEBF0FBECDBFDF91CF911F910F91FF903B
:1040E000EF90DF90CF90BF90AF909F908F907F9098
:1040F0006F905F904F903F9008950F931F93CF93D1
:10410000DF93EC0189DE8C016091CE047091CF04C5
:104110008091D0049091D10448EE54E005DC45E54F
:104120005CE0B801CE010E9419124FE35CE0BC01D3
:10413000CE010E94191248EE54E0BC01CE010E944B
:104140003A1245E35CE0BC01CE010E94191240E244
:104150005CE0BC01CE010E94191248EE54E0BC01A3
:10416000CE010E943A1246E15CE0BC01CE010E9401
:10417000191245EF5BE0BC01CE010E94191248EE16
:1041800054E0BC01CE010E943A124BEE5BE0BC0150
:10419000CE010E94191248ED5BE0BC01CE01DF9117
:1041A000CF911F910F910C9419128F929F92AF9201
:1041B000BF92CF92DF92EF92FF920F931F93CF9314
:1041C000DF93EC0129DEBC01CE0136DE6C016CEC24
:1041D0007BE088E495E00E94523A45EB5BE0B60153
:1041E000CE010E9419124C01809139081F928F93C1
:1041F000809138081F928F93809137081F928F9378
:10420000809136081F928F9388E4A82E85E0B82EFF
:10421000BF92AF9298EEC92E94E0D92EDF92CF9242
:104220000E94483B2BEAE22E2BE0F22E860129EA7F
:104230003BE043EA5BE0B401CE0102DE4C01809139
:1042400035081F928F93809134081F928F9380912D
:1042500033081F928F93809132081F928F93809121
:1042600031081F928F93809130081F928F9325E819
:104270003BE03F932F93DF92CF920E94693B3BE755
:10428000E32E3BE0F32E29E73BE048E75BE0B40197
:10429000CE01D6DD4C0180913D081F928F93809115
:1042A0003C081F928F9380913B081F928F938091BF
:1042B0003A081F928F93BF92AF92DF92CF920E94E3
:1042C000483B2DB73EB7285D3F4F0FB6F8943EBF31
:1042D0000FBE2DBF4EE6E42E4BE0F42E2CE63BE065
:1042E0004BE65BE0B401CE01ABDD4C0180914108AF
:1042F0001F928F93809140081F928F9380913F0867
:104300001F928F9380913E081F928F93BF92AF921E
:10431000DF92CF920E94483B51E6E52E5BE0F52EFE
:104320002FE53BE04EE55BE0B401CE0189DD4C01B9
:10433000809145081F928F93809144081F928F931C
:10434000809143081F928F93809142081F928F9310
:10435000BF92AF92DF92CF920E94483B6DE5E62E6E
:104360006BE0F62E2BE53BE04AE55BE0B401CE01C5
:1043700067DD49E35BE0BC01CE010E9419122DB755
:104380003EB7285E3F4F0FB6F8943EBF0FBE2DBF1D
:10439000209146082F3F31F440E35BE0BC01CE01A1
:1043A0000E94191243E05BE0BC01CE010E94191289
:1043B0006C016091CE047091CF048091D0049091F3
:1043C000D10448EE54E0B0DA48EE54E0B601CE0134
:1043D0000E943A1247EC5AE0BC01CE01DF91CF9126
:1043E0001F910F91FF90EF90DF90CF90BF90AF9013
:1043F0009F908F900C9419126F927F928F929F9240
:10440000AF92BF92CF92DF92EF92FF920F931F93E2
:10441000CF93DF93EC01162FFFDC45EB5AE0BC0194
:10442000CE010E94191248E95AE0BC01CE010E9457
:104430001912C12ED12C2DE4129FF0011124EE5C33
:10444000FB4F20812F3F31F44FE85AE0BC01CE01F1
:104450000E9419124EE65AE0BC01CE010E941912C8
:104460002DE42C9D50012D9DB00C112485010B5C79
:104470001B4F20E6E22E2AE0F22E2BE53AE04AE539
:104480005AE0BC01CE01DCDC4C01C5018E5C9B4FC7
:104490003C01FC01E55BFF4F6081718180E090E0B1
:1044A00048EE54E041DA39E5E32E3AE0F32E08EE27
:1044B00014E024E53AE047E45AE0B401CE01C0DC60
:1044C0008501015B1B4F46E2E42E4AE0F42E21E217
:1044D0003AE044E15AE0BC01CE01B2DC5FEAA52E2D
:1044E00051E0B52E00E010E0EFEF6E1A7E0A45E0D5
:1044F0005AE0BC01CE010E9419124C014AE068EE5C
:1045000074E0C8010E94C43A48EE54E0B401CE0100
:104510000E943A12F30140815181F50122813381D9
:104520004217530731F44BEF59E0BC01CE010E9412
:10453000191249EF59E0BC01CE010E941912F50190
:1045400040815181BC01CE010E943A124FEE59E0E8
:10455000BC01CE010E9419120F5F1F4FF4E0AF0E95
:10456000B11C0530110519F642EC59E0BC01CE0131
:104570000E9419128C014AE068EE74E0C6010E94A4
:10458000C43A48EE54E0B801CE010E943A124BE81A
:1045900059E0BC01CE010E9419128C016091CE0439
:1045A0007091CF048091D0049091D10448EE54E0F2
:1045B000BBD948EE54E0B801CE010E943A1242E85D
:1045C00059E0BC01CE01DF91CF911F910F91FF9077
:1045D000EF90DF90CF90BF90AF909F908F907F90A3
:1045E0006F900C941912CF93DF93EC0115DCBC0192
:1045F000CE0122DC48E159E0BC01CE01DF91CF9130
:104600000C9419120F931F93CF93DF93EC01162F85
:1046100003DCBC01CE0110DCBC0111111BC04DE854
:1046200058E0CE010E9419128C016091CE04709165
:10463000CF048091D0049091D10448EE54E074D915
:1046400048EE54E0B801CE010E943A1243E858E027
:10465000BC0102C04AE758E0CE01DF91CF911F9123
:104660000F910C941912CF93DF93EC01D5DBBC01B1
:10467000CE01E2DB4AE558E0BC01CE01DF91CF91EB
:104680000C9419120F931F93CF93DF93EC01C4DBAB
:1046900044E358E0BC01CE010E9419128C016091E4
:1046A000CE047091CF048091D0049091D10448EE53
:1046B00054E03AD948EE54E0B801CE010E943A12D3
:1046C00048E258E0BC01CE01DF91CF911F910F91DC
:1046D0000C9419126F927F928F929F92BF92CF92F9
:1046E000DF92EF92FF920F931F93CF93DF93EC0132
:1046F000B62E142F91DBBC01CE019EDB41E258E0C7
:10470000BC01CE010E941912113031F443ED57E083
:10471000BC01CE010E94191241EC57E0BC01CE0150
:104720000E94191249EB57E0BC01CE010E941912F8
:104730006C018B2C912C2EE2B29E80011124045B23
:104740001C4FF80183851F928F9382851F928F9350
:1047500081851F928F9380851F928F9387811F92EF
:104760008F9386811F928F9385811F928F9384816F
:104770001F928F9328E937E03F932F9328EE34E080
:104780003F932F930E94693B48EE54E0B601CE015F
:104790000E943A1243E757E0BC01CE010E94191271
:1047A0002DB73EB72C5E3F4F0FB6F8943EBF0FBEFD
:1047B0002DBFF80121A12F3F31F44AE657E0BC019B
:1047C000CE010E9419122EE2289D6001299DD00C75
:1047D00011248601085A1C4F2CE5E22E27E0F22E08
:1047E00029E537E046E357E0BC01CE0129DB3C0177
:1047F0009601245B3C4F6901F9017D9683818F937B
:1048000082818F9381818F93F901858D8F9380E3CE
:1048100097E09F938F9388EE94E09F938F930E94ED
:10482000693B3AE1E32E37E0F32E08EE14E027E18E
:1048300037E048E057E0B301CE0102DB3C0108E479
:1048400015E028EE34E040E050E0BA018B2D2DDB7E
:1048500048EE54E0B301CE010E943A12A801BC0117
:10486000CE010E943A1245EF56E0BC01CE010E94F3
:1048700019123C01F601458D568D678D70A128EE09
:1048800034E08B2D12DB48EE54E0B301CE010E94E0
:104890003A12A801BC01CE010E943A1242ED56E044
:1048A000BC01CE010E9419128C014AE068EE74E04E
:1048B000C4010E94C43A48EE54E0B801CE010E94FF
:1048C0003A124EEA56E0BC01CE010E9419128C0148
:1048D0006091CE047091CF048091D0049091D10466
:1048E00048EE54E021D848EE54E0B801CE010E94D1
:1048F0003A122DB73EB7285F3F4F0FB6F8943EBF30
:104900000FBE2DBF4EE756E0BC01CE01DF91CF9127
:104910001F910F91FF90EF90DF90CF90BF909F90ED
:104920008F907F906F900C941912CF92DF92EF923C
:10493000FF920F931F93CF93DF93EC016B017A01EA
:1049400089016091CE047091CF048091D004909140
:10495000D10448EE54E00E94941C44E756E0B601AE
:10496000CE010E941912A701BC01CE010E941912AA
:104970004FE656E0BC01CE010E94191248EE54E009
:10498000BC01CE010E943A1243E656E0BC01CE01C2
:104990000E941912A801BC01CE010E9419124AE519
:1049A00056E0BC01CE01DF91CF911F910F91FF9096
:1049B000EF90DF90CF900C9419120F931F93CF9329
:1049C000DF93EC0129DABC01CE0136DA8C0160916B
:1049D000CE047091CF048091D0049091D10448EE20
:1049E00054E00E94941C23E536E04FE456E0B80101
:1049F000CE019BDF26E436E042E456E0BC01CE0166
:104A000094DF29E336E043E356E0BC01CE018DDFBD
:104A10002AE236E044E256E0BC01CE0186DF2DE119
:104A200036E048E156E0BC01CE017FDF23E136E00D
:104A30004FE056E0BC01CE01DF91CF911F910F9165
:104A400074CFCF92DF92EF92FF920F931F93CF9389
:104A5000DF93EC01E1D9BC01CE01EED946EE55E081
:104A6000BC01CE010E94191200E010E0E12CF12CF3
:104A7000F801E45BFC4F24A5222309F43FC044ED78
:104A800055E0BC01CE010E9419126C014AE068EEAB
:104A900074E0C7010E94C43A48EE54E0B601CE016A
:104AA0000E943A124EEC55E0BC01CE010E94191250
:104AB0006C016091CE047091CF048091D0049091EC
:104AC000D10448EE54E00E94941C48EE54E0B60134
:104AD000CE010E943A1242EC55E0BC01CE010E9488
:104AE0001912A801485A5C4FBC01CE010E943A122B
:104AF00049EB55E0BC01CE010E9419122FEFE21ADA
:104B0000F20A025D1F4F063E110509F0B1CFDF9199
:104B1000CF911F910F91FF90EF90DF90CF9008956C
:104B20002F923F924F925F926F927F928F929F92BD
:104B3000AF92BF92CF92DF92EF92FF920F931F93AB
:104B4000CF93DF9300D000D0CDB7DEB71C0164D97E
:104B5000BC01C10171D94DE355E0BC01C1010E9406
:104B60001912BC0189E7E82E83E0F82ED12CF70159
:104B70003C9780818F3F09F055C03B968081882308
:104B800009F450C0F7018081882331F049E355E0F2
:104B9000C1010E941912BC01870101521109A8012B
:104BA000C1010E943A125C01F80101900020E9F76E
:104BB00031979F01201B310B89010F30110550F4F3
:104BC00047E355E0B501C1010E9419125C010F5F76
:104BD0001F4FF3CFF701709740815181628173813C
:104BE00008E415E028EE34E08D2D5FD948EE54E05E
:104BF000B501C1010E943A12A801BC01C1010E9485
:104C00003A12F7012081222331F042E355E0BC0142
:104C1000C1010E9419124FE255E0BC01C1010E947E
:104C20001912BC01D394FEE2EF0EF11C25E0D21262
:104C30009ECF40EF54E0C1010E94191247EE54E0AC
:104C4000BC01C1010E9419128C0160914603709150
:104C50004703809148039091490324E630E040E007
:104C600050E00E94D238CA01B9010E9412370E9456
:104C70004F370E94E6366B017C0120E831E541E0C8
:104C800050E00E94D238CA01B9010E9412370E9436
:104C90004F370E94E6362B013C019B01AC0160E8D6
:104CA00071E581E090E00E94C338C61AD70AE80A8D
:104CB000F90AC701B60120E13EE040E050E00E9461
:104CC000D238CA01B9010E9412370E944F370E94A0
:104CD000E6364B015C01A0E1BEE09B01AC010E9405
:104CE0000939A7019601261B370B480B590B29835D
:104CF0003A834B835C83CA01B9012CE330E040E086
:104D000050E00E94D238CA01B9010E9412370E94B5
:104D10004F370E94E6366B017C01ACE3B0E09B01AB
:104D2000AC010E94093929813A814B815C81261BA3
:104D3000370B480B590B29833A834B835C8348EE2E
:104D400054E0C301B2010E94941C48EE54E0B80143
:104D5000C1010E943A1240EE54E0BC01C1010E9420
:104D600019128C0148EE54E0C501B4010E94941C54
:104D700048EE54E0B801C1010E943A124EED54E0F1
:104D8000BC01C1010E9419128C0148EE54E0C70118
:104D9000B6010E94941C48EE54E0B801C1010E9483
:104DA0003A124CED54E0BC01C1010E9419128C0171
:104DB00048EE54E069817A818B819C810E94941C29
:104DC00048EE54E0B801C1010E943A124DEC54E0A3
:104DD000BC01C1010F900F900F900F90DF91CF9108
:104DE0001F910F91FF90EF90DF90CF90BF90AF9009
:104DF0009F908F907F906F905F904F903F902F90FB
:104E00000C9419124F925F926F927F928F929F92A1
:104E1000AF92BF92CF92DF92EF92FF920F931F93C8
:104E2000CF93DF9363E675E080E091E00E94A90FE5
:104E30007C0110921F08809146088F3F31F4B70122
:104E400083E695E00E94690A7C010E945B0FB7012E
:104E500083E695E00E9420169093320280933102FF
:104E6000892BC9F48091240281110AC04EED59E1C9
:104E700061E08EE398E00E94011581E080932402B6
:104E80000E94FA14811107C080912402813019F424
:104E900082E08093240280913803882321F080915E
:104EA00037038111D6C180913803811117C08091D9
:104EB00032048F3FA9F08091110190911201A091CD
:104EC0001301B091140180933E0390933F03A0938C
:104ED0004003B093410381E08093380380E001C038
:104EE00081E09091370391111AC090917F049F3F08
:104EF000D9F040910D0150910E0160910F01709118
:104F0000100140933A0350933B0360933C0370932A
:104F10003D0391E0909337037724739401C0712C83
:104F2000813009F096C102C077247394E114F10432
:104F300009F08FC1C72CD12C2DE42C9DC0012D9DD3
:104F4000900D1124EC01CB5CDB4FFE0101900020A1
:104F5000E9F73197EC1BFD0B40E050E09C012E5C23
:104F60003B4F852F90E08E179F0750F4D901A80F73
:104F7000B91F13968C918E3209F44F5F5F5FF1CFAA
:104F8000433008F044C080912502811126C08091F1
:104F90002402823079F50E94670F882311F40C9463
:104FA00032301092220281E0809325024AE252E0E0
:104FB000BE0183E695E0DF91CF911F910F91FF90A5
:104FC000EF90DF90CF90BF90AF909F908F907F90A9
:104FD0006F905F904F900C94C80B813059F40E94F1
:104FE000BA0B882339F082E08093250286E292E0B2
:104FF0000E94BD0B80912502823071F080912202C7
:105000008D3310F40C943230109225021CC1BE0175
:1050100086E292E00E94EA1980913002813009F024
:1050200001C182E08093300269EC74E083E392E096
:105030000E94523A809135081F928F9380913408D4
:105040001F928F93809133081F928F938091320823
:105050001F928F93809131081F928F938091300817
:105060001F928F9380EB94E09F938F9388EE94E050
:105070009F938F930E94693B68EE74E083E392E014
:105080000E947F3AF9E78F2EF3E09F2E2DB73EB7AF
:10509000205F3F4F0FB6F8943EBF0FBE2DBF612C6F
:1050A000AEE84A2EA4E05A2EB8EEEB2EB4E0FB2E6A
:1050B0001AE8A12E14E0B12EF4013C9780818F3FB5
:1050C00009F05AC03B968081882309F455C0F40149
:1050D0008081813009F450C0B29780811F928F93F4
:1050E000319780811F928F93319780811F928F9388
:1050F000319780811F928F93319780811F928F9378
:10510000319780811F928F93319780811F928F9367
:10511000319780811F928F935F924F92FF92EF920F
:105120000E94693B68EE74E083E392E00E947F3A5C
:10513000F4017097408151816281738108E415E028
:1051400028EE34E0862D0E94551FFF92EF92BF9209
:10515000AF92C8019F930F930E94693BB80183E30C
:1051600092E00E947F3A2DB73EB7265E3F4F0FB6C2
:10517000F8943EBF0FBE2DBF63943EE2830E911C98
:1051800085E0681299CF2DE42C9DC0012D9D900DD6
:105190001124FC01E358FB4F808091806AE2A62E27
:1051A00062E0B62E76E2C72E72E0D72EEEECEE2E3F
:1051B000E9E1FE2E03E312E020E030E0AE016CE313
:1051C00071E0815B9B4F0E94C71510922202711003
:1051D00014C08091110190911201A0911301B0911E
:1051E000140180933E0390933F03A0934003B09338
:1051F000410381E08093380313C080910D019091A9
:105200000E01A0910F01B091100180933A03909389
:105210003B03A0933C03B0933D0381E080933703AD
:105220001092250280913002833029F08091220271
:10523000883008F417C781E0809330028091220201
:10524000883008F40FC780914A038F5F80934A0328
:1052500009C7C0913102D0913202209709F029C1CB
:10526000B70183E695E00E944C0C80917A0581316C
:1052700009F0F8C680918705853009F0F3C6809162
:105280008805843A09F0EEC644E050E065E874E031
:105290008DE895E00E94593A44E050E0892B09F0EE
:1052A00068C060E874E083E392E00E94493A80912C
:1052B0003E0890913F08A0914008B091410880932A
:1052C000370290933802A0933902B0933A0280914A
:1052D0003A0890913B08A0913C08B0913D0880931A
:1052E0003B0290933C02A0933D02B0933E0280911A
:1052F000360890913708A0913808B091390880930A
:105300003F0290934002A0934102B093420286E094
:10531000E0E3F8E0A3E4B2E001900D928A95E1F7B2
:105320008091420890914308A0914408B0914508AB
:105330008093490290934A02A0934B02B0934C028F
:105340002CEF30E24AE163E372E083E695E0DF911F
:10535000CF911F910F91FF90EF90DF90CF90BF9072
:10536000AF909F908F907F906F905F904F900C9434
:1053700093136BE774E08DE895E00E94593A892B0E
:1053800009F066C046E050E060E378E08DE995E022
:105390000E94723AEC01892B09F064C644E050E0A7
:1053A00066E774E083E392E00E94493A2CEF30E232
:1053B00044E063E372E083E695E00E9493138091FA
:1053C000910590919205A0919305B09194058093D9
:1053D0003E0890933F08A0934008B0934108809105
:1053E000950590919605A0919705B09198058093A9
:1053F0003A0890933B08A0933C08B0933D088091F5
:10540000990590919A05A0919B05B0919C05809378
:10541000360890933708A0933808B09339088091E4
:10542000A3059091A405A091A505B091A605809330
:10543000420890934308A0934408B09345084DE177
:1054400050E060E070E08AE298E00E94A63D19C05A
:1054500044E050E061E774E08DE895E00E94593A3D
:10546000892B09F0FFC546E050E060E378E08DE964
:1054700095E00E94723AEC01892B09F0F3C581E0B6
:1054800043D695B7916095BF95B79D7F95BFFE01B7
:10549000DF91CF911F910F91FF90EF90DF90CF9010
:1054A000BF90AF909F908F907F906F905F904F9044
:1054B0000994CD59DA4F45E050E06BE674E0CE0137
:1054C0000E94593A892B09F0CDC5D0936205C0934B
:1054D00061054FE251E065E371E0CE010E94351DA8
:1054E000BC0180916105909162050E948A3AC09149
:1054F0006105D09162058881811104C083E695E041
:105500000FDBA2C542E050E068E674E0CE010E94E5
:10551000593A892BE9F54BE351E06DE371E0CE0197
:105520000E94351DBC0183E392E00E948A3AE3E3C6
:10553000F2E001900020E9F73197E353F24034970D
:1055400018F167ED74E083E392E00E94AA3A892B98
:10555000D9F0209146033091470340914803509180
:1055600049036DE67DED81E090E00E94C3386093D1
:10557000CE047093CF048093D0049093D10483E63B
:1055800095E00E947D2060C583E695E02CD85CC53F
:1055900044E050E063E674E0CE010E94593A892B62
:1055A00051F044E050E06EE574E0CE010E94593ABB
:1055B000892B09F046C144E050E069E574E0CE0172
:1055C0000E94593A892B11F41092390345E254E0B4
:1055D00060E070E083E695E00E9419129093320239
:1055E0008093310246E154E0BC0183E695E00E94DD
:1055F0001912909332028093310280E090E0C12C26
:10560000FC01E45BFC4F21A12F3F19F424A52111DB
:10561000C3948E96863E910599F7C9E7D3E0EE24B0
:10562000E394F12C4BEEA42E43E0B42E58EE852EDD
:1056300054E0952ED12C77247A947E0CFE013C9771
:1056400080818F3F09F0E9C03B968081882309F46F
:10565000E4C060913102709132024DE054E083E683
:1056600095E00E9419129093320280933102FE015C
:10567000B29780811F928F93319780811F928F9371
:10568000319780811F928F93319780811F928F93E2
:10569000319780811F928F93319780811F928F93D2
:1056A000319780811F928F93319780811F928F93C2
:1056B000BF92AF929F928F920E94693B609131029C
:1056C0007091320248EE54E083E695E00E943A126F
:1056D000909332028093310241EE53E0BC0183E6A5
:1056E00095E00E9419129093320280933102FE01DC
:1056F000729780814AE068EE74E090E00E94C43ABC
:10570000609131027091320248EE54E083E695E0F8
:105710000E943A12909332028093310247ED53E097
:10572000BC0183E695E00E941912BC0190933202FD
:1057300080933102AE014152510983E695E00E9407
:105740003A12BC0190933202809331024DEC53E047
:1057500083E695E00E941912909332028093310201
:10576000FE017097408151816281738108E415E0E8
:1057700028EE34E0872D0E94551F60913102709110
:10578000320248EE54E083E695E00E943A1290938C
:1057900032028093310243EC53E0BC0183E695E092
:1057A0000E941912909332028093310288814AE05C
:1057B00068EE74E090E00E94C43A6091310270910A
:1057C000320248EE54E083E695E00E943A1290934C
:1057D0003202809331024EEB53E0BC0183E695E048
:1057E0000E94191290933202809331022DB73EB776
:1057F0002C5E3F4F0FB6F8943EBF0FBE2DBFEC148A
:10580000FD045CF44AEB53E0BC0183E695E00E94A2
:1058100019129093320280933102AE963FEFE31A51
:10582000F30A86E0E816F10409F005CF6091310231
:105830007091320247EB53E083E695E00E94191223
:1058400003C44BE050E06BEA73E0CE010E94593A8A
:10585000892B09F4F7C34BE351E061E471E0CE0119
:105860000E94351DBC0188EE94E00E948A3A609146
:10587000CE047091CF048091D0049091D10448E47B
:1058800055E00E94941C68E475E088EE94E00E9464
:10589000AA3A892B09F4D6C38091CE049091CF0403
:1058A000A091D004B091D104892B8A2B8B2B09F4C1
:1058B000C9C3C0916105D091620544E050E066EA39
:1058C00073E0CE010E94593A892B21F483E695E0DA
:1058D00074D8BAC343E050E062EA73E0CE010E949C
:1058E000593A892B21F483E695E0ABD8ADC344E067
:1058F00050E06DE973E0CE010E94593A892B29F4FA
:1059000083E695E00E9433239FC343E050E069E9BA
:1059100073E0CE010E94593A892BD1F54BE351E057
:1059200066E471E0CE010E94351DBC0188EE94E072
:105930000E948A3A43E050E068EE74E08BE491E024
:105940000E94913AEC01892BF1F40E940C1F909374
:1059500032028093310244E553E0BC0183E695E0D6
:105960000E9419129093320280933102BC0183E6A7
:1059700095E00E94EC1395B7916095BF95B79D7F18
:1059800095BFFE01099583E695E00E9442235CC322
:1059900042E050E061E573E0CE010E94593A892B64
:1059A000D1F40E940C1F90933202809331024CE09C
:1059B00053E0BC0183E695E00E94191290933202F5
:1059C000809331021092CE041092CF041092D00432
:1059D0001092D1043DC343E050E068E073E0CE0193
:1059E0000E94593A892B09F0A7C04BE351E06FE4BC
:1059F00071E0CE010E94351DBC0188EE94E00E944A
:105A00008A3A6AE070E088EE94E00E949E1C6C0185
:105A10004BE351E064E571E080916105909162058E
:105A20000E94351DBC0188EE94E00E948A3A44E051
:105A300050E063E073E088EE94E00E94593A892BCD
:105A400009F073C04BE351E068E571E080916105B6
:105A5000909162050E94351DBC0188EE94E00E9481
:105A60008A3A42E050E068EE74E08CE591E00E94F2
:105A7000913A7601FF24892B59F48EE28E9DF00134
:105A80008F9DF00D1124E45BFC4F8FEF81A309C0C3
:105A90008EE28E9DF0018F9DF00D1124E45BFC4F92
:105AA00011A24BE351E06FE571E0809161059091A7
:105AB00062050E94351DBC0183E392E00E948A3A90
:105AC00083E392E00E94731D8EE28E9DE0018F9D24
:105AD000D00D112463E372E0CE01885A9C4F0E94DE
