:10000000F2C700000C940F080C940F080C940F0812
:100010000C940F080C940F080C940F080C940F0804
:10002000FEC70000FCC70000FAC70000F8C70000C8
:10003000F6C70000F4C700000C94961BF0C7000040
:10004000EEC70000ECC70000EAC70000E8C70000E8
:10005000E6C70000E4C70000E2C70000E0C70000F8
:10006000DEC70000DCC700006E616E00696E6600CE
:1000700000407A10F35A00A0724E18090010A5D45F
:10008000E80000E87648170000E40B54020000CABC
:100090009A3B000000E1F505000080969800000002
:1000A00040420F000000A086010000001027000061
:1000B0000000E803000000006400000000000A00E7
:1000C000000000000100000000002C76D888DC67EA
:1000D0004F0823DFC1DFAE59E1B1B796E5E3E45342
:1000E000C63AE651997696E8E6C28426EB898C9B5F
:1000F00062ED407C6FFCEFBC9C9F40F2BAA56FA5FF
:10010000F490055A2AF75C936B6CF9676DC11BFC80
:10011000E0E40D47FEF520E6B500D0ED902E03009B
:10012000943577050080841E080000204E0A0000E8
:1001300000C80C333333330F986E12831141EF8DA7
:100140002114893BE65516CFFEE6DB18D1844B38E7
:100150001BF77C1D901DA4BBE424203284725E2218
:100160008100C9F124ECA1E53D274E414E494E499D
:100170005459494E46CDCCCC3D0AD7233C17B7D174
:100180003877CC2B329595E6241FB14F0A0000201A
:10019000410000C84200401C4620BCBE4CCA1B0E99
:1001A0005AAEC59D740D0A436F6E74656E742D54FE
:1001B0007970653A206170706C69636174696F6E03
:1001C0002F782D7777772D666F726D2D75726C6530
:1001D0006E636F6465640D0A0D0A00436F6E74658B
:1001E0006E742D4C656E6774683A20000D0A557365
:1001F00065722D4167656E743A20626F782F312EDB
:10020000310D0A4163636570743A202A2F2A0D0A62
:10021000000D0A0020485454502F312E310D0A4849
:100220006F73743A2000504F535420000D0A5573D9
:1002300065722D4167656E743A20626F782F312E9A
:10024000310D0A4163636570743A20746578742FC8
:1002500068746D6C0D0A0D0A0020485454502F31FB
:100260002E310D0A486F73743A2000474554200020
:100270000001080006040001450000820000400063
:1002800020223B3C2F5343524950543E003C4845AA
:1002900041443E3C534352495054206C616E677553
:1002A0006167653D224A61766153637269707422A9
:1002B0003E746F702E6C6F636174696F6E3D22685F
:1002C0007474703A2F2F0069700053617665007066
:1002D00069006970006F6E0054657374006C6F671D
:1002E00031006C6F6732006C6F6731005361766567
:1002F000004F6666004F6E0072656C0070610053BF
:100300006176650073656E003C48544D4C3E3C4838
:100310004541443E3C534352495054206C616E6702
:10032000756167653D224A617661536372697074D5
:10033000223E746F702E6C6F636174696F6E3D2224
:100340002F223B3C2F5343524950543E00657800C6
:100350003C48544D4C3E3C484541443E3C5343523E
:10036000495054206C616E67756167653D224A6132
:100370007661536372697074223E746F702E6C6F75
:10038000636174696F6E3D222F223B3C2F534352B1
:100390004950543E0072656200696E666F00646584
:1003A00076006D656E750066617669636F6E2E69A5
:1003B000636F005D7D002C005D2C2252656C6179BD
:1003C00073223A5B002C0D0A00220D0A7D00222CBC
:1003D0000D0A2245223A2200222C0D0A2256223AE8
:1003E0002200222C0D0A224E223A2200222C0D0A33
:1003F0002254223A22002225303258253032582504
:100400003032582530325825303258253032582570
:1004100030325825303258007B0D0A2249223A20CA
:10042000007B2253656E736F7273223A5B0D0A0074
:10043000485454502F312E3020323030204F4B0D45
:100440000A436F6E74656E742D747970653A20611D
:1004500070706C69636174696F6E2F6A736F6E0D73
:100460000A0D0A0078736F6E0078736F6E006A73FE
:100470006F6E006C6700474554202F00522A2A54A3
:1004800000534554520053455451004D494E4900C4
:1004900053524348003D25730026253032582530FD
:1004A00032582530325825303258253032582530D0
:1004B00032582530325825303258002530325825F0
:1004C00030325825303258253032582530325825B0
:1004D0003032580049443D003C2F626F64793E3C05
:1004E0002F68746D6C3E003A003A002064617973A5
:1004F0002000557074696D653A20003C2F68323ECB
:100500003C2F7072653E3C2F74643E3C2F74723EEB
:100510003C2F7461626C653E3C62723E3C62723E8E
:100520003C6120687265663D2F6C673E4C6F676961
:100530006E3C2F613E3C62723E000D0A003C2F7300
:100540003E0020003C733E003C7469746C653E576D
:1005500065624D6574656F426F782D6D696E693C9B
:100560002F7469746C653E3C63656E7465723E3CC5
:1005700068323E3C753E5765624D6574656F426FEB
:10058000782D6D696E693C2F753E202623393733EF
:10059000303B3C2F68323E3C7461626C6520626F78
:1005A000726465723D303E3C74723E3C74642076E9
:1005B000616C69676E3D746F703E3C7072653E3C65
:1005C00068323E003C2F613E3C62723E0020746106
:1005D000726765743D72663E00267369643D003C37
:1005E0006120687265663D2F73656E3F6E756D3D67
:1005F000003C68746D6C3E3C626F64793E3C6365A0
:100600006E7465723E53656E736F72733C2F6365D3
:100610006E7465723E3C62723E0065783F004578BC
:100620006974007265623F005265626F6F74007298
:10063000656C3F6E756D3D33260052656C617920A7
:10064000330072656C3F6E756D3D32260052656CED
:10065000617920320072656C3F6E756D3D31260008
:1006600052656C617920310072656C3F6E756D3D2D
:1006700030260052656C61792030006C6F67313F25
:10068000004C6F6767657220310070613F005061F8
:100690007373776F72640069703F005443502F4941
:1006A00050003C2F613E3C62723E002074617267D4
:1006B00065743D72663E007369643D003C6120686C
:1006C0007265663D2F003E3C62723E3C62723E3C6B
:1006D000696E70757420747970653D7375626D69AB
:1006E000742076616C75653D53617665206E616D31
:1006F000653D73613E003E3C696E7075742074798F
:1007000070653D68696464656E206E616D653D73FA
:1007100069642076616C75653D003C696E70757426
:1007200020747970653D68696464656E206E616DE2
:10073000653D6E756D2076616C75653D003C62723D
:100740003E43616C63756C617465643C62723E002B
:100750003C62723E4F66667365743C62723E006F27
:1007600066003C62723E43757272656E74207661FB
:100770006C75653C62723E0025322E3266003E4545
:100780006E61626C652F4469736162653C62723EA2
:1007900053656E736F72206E616D653A3C62723E96
:1007A000006E610020286D6178206C656E20313408
:1007B000290020636865636B6564003C2F623E3CE2
:1007C00062723E3C696E70757420747970653D6329
:1007D0006865636B626F78206E616D653D656E0064
:1007E000253032582530325825303258253032588D
:1007F000253032582530325825303258253032587D
:100800000049443A203C623E003C666F726D206DA8
:100810006574686F643D6765743E003C534352499C
:100820005054206C616E67756167653D224A617640
:1008300061536372697074223E706172656E742ECA
:100840006672616D65735B276C66275D2E6C6F63E6
:100850006174696F6E2E72656C6F616428293B3C10
:100860002F5343524950543E003C626F64793E001E
:100870003E5265626F6F743C2F613E003C63656E53
:100880007465723E3C62723E3C62723E3C6120681E
:100890007265663D2F7265623F7965732673696480
:1008A0003D0046573A20312E312E392E3220283045
:1008B000352E31302E32303136293C2F68746D6C34
:1008C0003E004368616E6765642100223E3C2F66EE
:1008D0006F726D3E006E65772070617373776F7213
:1008E000643A3C666F726D3E3C696E70757420743C
:1008F0007970653D74657874206E616D653D6E65D7
:1009000077206D61786C656E6774683D31343E3C6C
:1009100062723E3C696E70757420747970653D73C7
:1009200075626D69742076616C75653D4368616EB2
:100930006765206E616D653D6368613E3C696E7000
:10094000757420747970653D68696464656E206EA5
:10095000616D653D7369642076616C75653D22004B
:100960003C63656E7465723E3C62723E50617373A7
:10097000776F72643C666F726D3E3C696E70757421
:1009800020747970653D70617373776F7264206E47
:10099000616D653D70613E3C62723E3C696E707592
:1009A0007420747970653D7375626D697420766129
:1009B0006C75653D4C6F67696E206E616D653D6954
:1009C0006E3E3C2F666F726D3E003E3C2F666F722E
:1009D0006D3E00222076616C75653D22536176651F
:1009E0002654657374223E3C696E70757420747968
:1009F00070653D68696464656E206E616D653D7308
:100A000069642076616C75653D003C2F53454C450B
:100A100043543E3C62723E3C62723E3C696E70756D
:100A20007420747970653D7375626D6974206E61B0
:100A30006D653D226C73003C2F6F7074696F6E3E64
:100A4000003E002073656C6563746564003C6F70E4
:100A500074696F6E2076616C75653D003C62723E14
:100A6000506174683C62723E0070617468003C6260
:100A7000723E696E74657276616C3C62723E3C5384
:100A8000454C454354206E616D653D73703E003C9E
:100A900062723E506F72743C62723E00706F72748C
:100AA000000000686F73740020286D6178206C6509
:100AB0006E20323529003E456E61626C652F4469B7
:100AC0007361626C653C62723E486F7374206E6144
:100AD0006D653C62723E0020636865636B6564000F
:100AE0003C696E70757420747970653D63686563E8
:100AF0006B626F78206E616D653D656E003C666F60
:100B0000726D206D6574686F643D6765743E003C6E
:100B10002F73656C6563743E3C703E3C696E707506
:100B20007420747970653D7375626D6974206E61AF
:100B30006D653D736E642076616C75653D536176BD
:100B4000653E3C2F666F726D3E003C2F6F7074697E
:100B50006F6E3E003E002073656C656374656400D3
:100B60003C6F7074696F6E2076616C75653D003CFA
:100B7000703E3C73656C656374206E616D653D739A
:100B8000656E3E3C6F7074696F6E2076616C756542
:100B90003D3130303E4E6F7420757365643C2F6F6D
:100BA0007074696F6E3E000D4D41583A006D61786A
:100BB000000025322E3266000D4D494E3A006D6917
:100BC0006E000025322E3266003E003E3C696E709B
:100BD000757420747970653D68696464656E206E13
:100BE000616D653D7369642076616C75653D003C9F
:100BF000703E3C696E70757420747970653D6869EB
:100C00006464656E206E616D653D6E756D20766104
:100C10006C75653D004F4646004F4E002020203C3D
:100C2000696E70757420747970653D7375626D6955
:100C300074206E616D653D736E642076616C7565C0
:100C40003D4F6666207374796C653D2277696474E4
:100C5000683A363570783B6865696768743A363546
:100C600070783B223E20003C696E70757420747968
:100C700070653D7375626D6974206E616D653D735D
:100C80006E642076616C75653D4F6E207374796C6F
:100C9000653D2277696474683A363570783B6865DB
:100CA000696768743A363570783B223E003C707252
:100CB000653E3C666F726D206D6574686F643D675C
:100CC00065743E00223E3C696E70757420747970C4
:100CD000653D7375626D6974206E616D653D61631C
:100CE000742076616C75653D2253617665202620FF
:100CF0005265626F6F74223E3C2F666F726D3E00CC
:100D00003E444843503C62723E3C696E70757420AC
:100D1000747970653D68696464656E206E616D65A7
:100D20003D7369642076616C75653D2200206368BF
:100D300065636B6564003C62723E3C696E707574FD
:100D400020747970653D636865636B626F78206EAF
:100D5000616D653D646800006400000067003C62EE
:100D6000723E444E532020000073003C62723E47A6
:100D70005720202000006D003C62723E4D41534BD5
:100D80002000253032783A253032783A25303278D2
:100D90003A253032783A253032783A2530327800A8
:100DA00049502020200069003C62723E4D414320A2
:100DB00020003C7072653E3C666F726D206D6574FC
:100DC000686F643D6765743E0025642E25642E259A
:100DD000642E2564003C2F6672616D657365743EF8
:100DE0003C2F68746D6C3E00206E616D653D7266CF
:100DF0003E003C2F6672616D657365743E3C6672A1
:100E0000616D65207372633D2F696E666F3F736914
:100E1000643D00206E616D653D6C663E003C66720F
:100E2000616D65207372633D2F6465763F736964FD
:100E30003D00206E616D653D6D663E003C667261F1
:100E40006D65207372633D2F6D656E753F736964C8
:100E50003D003C68746D6C3E3C6672616D65736507
:100E60007420636F6C733D223137302C2A223E3C54
:100E70006672616D6573657420726F77733D22329F
:100E800036302C202A22207363726F6C6C696E6777
:100E90003D226E6F223E002566006D6D0025332ECB
:100EA000316600250025322E316600266465673BD9
:100EB000430025322E326600223E002076616C759A
:100EC000653D22003C696E70757420747970653DD3
:100ED00074657874206E616D653D003C68746D6C5E
:100EE0003E3C686561643E3C6D6574612063686189
:100EF000727365743D2277696E646F77732D31323A
:100F00003531222F3E3C2F686561643E3C626F6440
:100F1000793E00485454502F312E30203430342044
:100F20004E6F7420466F756E640D0A436F6E746564
:100F30006E742D547970653A20746578742F6874D6
:100F40006D6C0D0A0D0A45727200485454502F31D1
:100F50002E3020323030204F4B0D0A436F6E7465B7
:100F60006E742D547970653A20746578742F6874A6
:100F70006D6C0D0A507261676D613A206E6F2D6362
:100F8000616368650D0A0D0A003030004E6F206EF7
:100F9000616D6500828282820000004F586D0205FB
:100FA000C0A801DEFFFFFF00C0A80101C0A8010129
:100FB0000000828282820000004F586D0205C0A8A6
:100FC00001DEFFFFFF00C0A80101C0A80101000071
:100FD0002F706F73742E706870006E61726F646D25
:100FE0006F6E2E72750011241FBECFEFD8E0DEBFEA
:100FF000CDBF11E0A0E0B1E0EEE7FDE702C0059053
:101000000D92A03DB107D9F728E0A0EDB1E001C0F5
:101010001D92A431B207E1F787D50C94BD3E0C9424
:1010200000008091E4018F5F8093E4010895DF92D6
:10103000EF92FF920F931F93CF93DF9300D000D0D6
:1010400000D0CDB7DEB77C01D62E86E0E5E1F1E039
:10105000DE01119601900D928A95E1F78E010F5FE6
:101060001F4F23E430E0A80164E470E0C7010E9450
:101070003614F701128E138E148E158E81E082A71E
:1010800083A796E094A715A686A7D7A6D0AAD1AA2B
:10109000F296D701AA5BBF4F1192EA17FB07E1F75F
:1010A0009701245B3F4FCD0180549109FC01808161
:1010B0008D93A217B307B9F7C7018A5E9E4FF90156
:1010C00011929F01E817F907D1F783E68083F701B2
:1010D000E95EFE4F92E89083319693E590833196D6
:1010E000808326960FB6F894DEBF0FBECDBFDF918A
:1010F000CF911F910F91FF90EF90DF900895CF93C4
:10110000DF93EC0194DFFE01E65EFE4F85E3808312
:10111000319681E0808331968083319697E3908386
:10112000319692E0908331968083319683E080837C
:1011300031968FEF80833196108268EF70E0CE0198
:101140000E94A21480E0DF91CF9108956D3121E0DB
:10115000720700F12AE131E0A9014E5F5F4F4617A7
:101160005707C0F4FC01E20FF31FA181AA2391F0FD
:101170002A0F311DD90111966A177B0758F0E081BB
:10118000E53329F4FC01E40FF51F808108952E5FFB
:101190003F4FE2CF80E00895FC016F3F710591F071
:1011A00088F082AD882379F082AD93ADA4ADB5AD62
:1011B0008093E0019093E101A093E201B093E301F9
:1011C00081E0089580E00895FC016F3F710569F0AA
:1011D00060F083A1833449F482A5823031F497A56D
:1011E000941303C081E020A9291380E00895FC0135
:1011F0006F3F710529F020F081E096A5923009F04B
:1012000080E008954F925F927F928F929F92AF926B
:10121000BF92CF92DF92EF92FF920F931F93CF93E3
:10122000DF938B016D31714008F4C8C0E091D001AB
:10123000F091D1017090D30140E050E0BA01AAE1F1
:101240004A2E552453942CED31E0B4E0AB2EA20E7F
:1012500024ED31E0C4E0BC2EB20E28ED31E0D4E044
:101260008D2E820E92012E5F3F4F2017310750F4D2
:101270006201AFEFCA1ADA0AEC01CC0DDD1DD8818C
:10128000D11108C0F093D101E093D0017092D30145
:1012900081E095C0ED2EF12CCE0CDF1C0C151D0548
:1012A00088F36C01C40CD51CD601CC91C33019F164
:1012B00028F4CC2369F0C13069F07AC0C53309F451
:1012C0005AC0C63309F45CC0C33309F071C024C0EE
:1012D00028016EC0D43009F06BC06C01C20ED31E61
:1012E00028ED31E0D6019D906D01D9019D929D01BF
:1012F0008A12F8CF5DC0D43009F05AC06C01C20E1A
:10130000D31E2CED31E0D6019D906D01D9019D9247
:101310009D01AA12F8CF4CC0D43009F041C020E0A2
:1013200030E0762F652F542F4427F601E20FF31F8C
:10133000E2814E2B2F5F3F4F2430310591F74F3F15
:10134000BFEF5B076B077B0771F126E0769567952A
:10135000579547952A95D1F74E3FCFEF5C0761052A
:10136000710520F5FA01453051056105710500F55B
:10137000E5E0F0E01DC0EC01C20FD31F788018C07B
:10138000D430B1F46C01C20ED31E24ED31E0D6018D
:101390009D906D01D9019D929D01BA12F8CF08C0B0
:1013A000E0EAF5E005C0EFEFFFEF02C0EDEFFFEF81
:1013B000B2E0EB0EF11C4E0C5F1C54CF80E0DF91CD
:1013C000CF911F910F91FF90EF90DF90CF90BF9042
:1013D000AF909F908F907F905F904F900895CF93A4
:1013E000DF93EC0124DEFE01E65EFE4F85E38083A1
:1013F000319681E08083319683E080838091D401AF
:101400008823A9F086E33196808384E03196808337
:101410008091D4019091D501A091D601B091D701CE
:10142000319680839183A283B38369E001C063E036
:101430008091E0018823C9F0CE01860F911DFC0147
:10144000E65EFE4F22E32083319624E0208331962E
:101450008091E0019091E101A091E201B091E3015E
:1014600080839183A283B3836A5F70E0CE01860F8D
:10147000971FFC01E65EFE4F27E32083319622E0B2
:101480002083319621E02083319623E0208331961A
:101490002FEF2083319610826B507F4FCE010E9438
:1014A000A21480E0DF91CF9108950F931F93CF9303
:1014B000DF93EC018A01BBDD82E08EA7F801808119
:1014C0009181A281B3818A8F9B8FAC8FBD8F8081E8
:1014D0009181A281B3818EAB9FABA8AFB9AFFE0162
:1014E000E65EFE4F85E38083319681E0808331960E
:1014F00083E0808363EF70E0CE010E94A21480E05D
:10150000DF91CF911F910F910895CF92DF92EF92CB
:10151000FF920F931F93CF93DF931F92CDB7DEB748
:101520008C017B014983FAD4D82E4981882309F4A0
:1015300068C0E114F104A9F58091000190910101C6
:101540008230910581F481E090E0909301018093D5
:1015500000011092E4014093D201D4D46091D201F1
:10156000C801CDDD4DC0D090E001D11011C0209157
:10157000E401263068F08091D2018F5F8093D20120
:101580001092E401BFD46091D201C801B8DD39C026
:1015900083309105A8F10197909301018093000198
:1015A0002FC0C090D2014C2DB701C8010DDED82E3E
:1015B000882339F1B701C8011ADE813009F1B7017A
:1015C000C801C4DD823081F481E090E09093010194
:1015D00080930001B701C801DFDDB701C80112DE49
:1015E0006C2DC801FCDE0CC0853051F481E090E028
:1015F00090930101809300018BD4DD24D39401C02A
:10160000D12C8D2D0F90DF91CF911F910F91FF90D5
:10161000EF90DF90CF9008950F931F93009769F09C
:101620000091E0011091E1012091E2013091E3018C
:10163000FC0100831183228333836115710569F0F6
:101640008091D8019091D901A091DA01B091DB018C
:10165000FB0180839183A283B3834115510569F017
:101660008091DC019091DD01A091DE01B091DF015C
:10167000FA0180839183A283B3831F910F91089510
:101680000F931F93CF93DF938C01EB018091E401C3
:10169000893088F01092E4018091D0019091D101BD
:1016A0009C01225031092D3F3F4F28F40197909320
:1016B000D1018093D0012097C9F48091D0019091FD
:1016C000D101039738F52AD4882321F16091D20102
:1016D0006F5F6093D20140EE51E0C801E6DE85E025
:1016E00090E09093D1018093D00114C04091D20139
:1016F000BE01C80169DD882381F0BE01C80126DD75
:10170000853041F4BE01C80172DD882319F0BE01A5
:10171000C80178DD80E090E001C0CE01DF91CF917B
:101720001F910F91089599B121E030E002C0220F7E
:10173000331F8A95E2F7892F90E02823392381E02F
:10174000121613060CF080E008950F931F93CF93A9
:10175000DF93182F0FB7F8949AB1C1E0D0E001C021
:10176000CC0F8A95EAF79C2B9AB92BB1DC2FD09538
:101770002D232BB981E090E00E9408338BB1C82B58
:10178000CBB98AE68A95F1F700C09AB19D239AB940
:101790008AE68A95F1F700C0812FC5DF0FBFDF9180
:1017A000CF911F910F910895AF92BF92DF92EF9268
:1017B000FF920F931F93CF93DF93082FDFB6F89418
:1017C000C7E0D0E010E0AA24A394B12C92E1E92E66
:1017D00097E2F92E802FA7DF811106C0A89521E09E
:1017E000E21AF108B9F71EC080E58A95F1F7802F5B
:1017F0009ADF813039F4C5010C2E01C0880F0A949C
:10180000EAF7182B82E1E82E87E2F82E802F8BDF93
:10181000813031F4A89581E0E81AF108B9F702C0E7
:101820002197A0F6DFBE812FDF91CF911F910F91FD
:10183000FF90EF90DF90BF90AF900895EF92FF92EE
:101840000F931F93CF93DF9300D000D01F92CDB79B
:10185000DEB7F82E10920201F89477DF8093020130
:10186000813009F451C085E88A95F1F7000008E459
:1018700010E08F2D58DF811108C00150110929F0A7
:10188000E2E0EA95F1F700C0F4CF8F2D4CDF811133
:1018900002C082E01DC0F5EDFA95F1F700008E015F
:1018A0000F5F1F4F75E0E72EE00E8F2D7DDFF801F3
:1018B00081938F01EE12F9CF89814A812B813C817E
:1018C000942F980F920F930F5D81591721F087E3A2
:1018D0008093020119C090E0982F8827840F911DF2
:1018E0009093E6018093E501822F8F7790E0982F07
:1018F0008827830F911D27FF03C09195819591093A
:101900009093E8018093E70178940F900F900F90E7
:101910000F900F90DF91CF911F910F91FF90EF905B
:1019200008958091EE010895EAEEF1E024E02E0F93
:101930003191DC013D93CD012E13FACF0895EF9242
:10194000FF920F931F93CF93DF93EC01F62EE72EB8
:101950008A011092EE01E2D2811105C084E08093E9
:10196000E90181E067C01092E9018091EF018F5F8A
:101970008093EF0190E0BC01706E25E330E04DE014
:1019800058E0CE0173D78091EF018BA781E08CA73F
:10199000FE01BD96CE01C6961192E817F907E1F750
:1019A00081E08FA7EF2DFE2D9CE04DE04F19642FB5
:1019B0006E0F5081262F30E0552391F05E3241F4B6
:1019C000DE01A90FB11D81509A968C93962F80E06D
:1019D0005191DE01A20FB31F9A965C938F5FE7CF00
:1019E000FE01E90FF11D815082A7FE01E20FF31FF6
:1019F00012A681E0860FFE01E80FF11D12A682E01B
:101A0000860FFE01E80FF11D81E082A793E0960F9B
:101A1000FE01E90FF11D12A694E0960FFE01E90FF9
:101A2000F11D82A789EF860F8AA76B5F70E0CE0158
:101A300089D780E0DF91CF911F910F91FF90EF90B8
:101A40000895CF93DF93FC016634710508F468C0F4
:101A500083A1853309F064C084A1803E09F060C091
:101A600085A19091EF0189135BC093A5981358C08D
:101A700085A58F78803811F081E038C022A5245FD9
:101A800061537109DF01A20FB11D9A968C91807C80
:101A900011F02E5F0EC0822F90E08617970748F452
:101AA0002F5FDF01A20FB11D9A968C918111F3CFA8
:101AB0002F5FDF01A20FB11D9B968C919B97813008
:101AC00081F088E0820FDF01A80FB11D9B968C91F9
:101AD000265F280F822F90E08617970798F283E001
:101AE00005C0D3969C91943021F082E08093E90167
:101AF00017C0265FCAEED1E040E050E030E0DA01E6
:101B0000A20FB31FAE0FBF1F9A969C9199934F5F80
:101B10005F4F4430510599F791E09093EE0101C079
:101B200080E0DF91CF91089510923C0210923B0229
:101B3000F8949FE088E10FB6F894A8958093600030
:101B40000FBE909360000E94E431189903C080E0BA
:101B50000E9406328AEF90E00E940833A8950E9406
:101B6000DF321092CA031092F803109226041092EA
:101B70005404109282044FE050E060E570E08BED79
:101B800094E00E946D3E2091850430918604A4E685
:101B9000B0E00E94FA3960930D0170930E018093BA
:101BA0000F019093100180E40E94701980E80E9458
:101BB000701942E355E066E080E40E94EF1A42E3C8
:101BC00055E067E080E80E94EF1A8FEE92E00E94F5
:101BD00008330E94CB317894809111088F3F91F5A2
:101BE0008BEF97E01DD362E375E08CEB92E0D8D1E8
:101BF0001092EE0740910008BC0182E395E085DC7D
:101C0000C82F81E00E94D81ACC2369F349E058E03C
:101C100065E078E081E098E0FFDC80910908909130
:101C20000A08A0910B08B0910C0880930D089093BE
:101C30000E08A0930F08B093100865E078E081E0EB
:101C400098E0F9D261E078E08BEF97E0A3D580E5EA
:101C500090E0B1D563D1811102C00E94CB31A8952B
:101C60000E94BA270E94141EF5CF2A98962F9F71C2
:101C7000892B8EBD0DB407FEFDCF1EBC0DB407FE33
:101C8000FDCF67FD03C02A9A8EB508951EBC0DB422
:101C900007FEFDCFF8CF2A986F71862B8EBD0DB44D
:101CA00007FEFDCF4EBD0DB407FEFDCF2A9A089565
:101CB000FB012A982AE32EBD0DB407FEFDCF8E0F3F
:101CC0009F1FE817F90739F01EBC0DB407FEFDCFC2
:101CD0002EB52193F6CF10822A9A08952A982AE7E2
:101CE0002EBD0DB407FEFDCF860F971F681779072D
:101CF00041F0FB012191BF012EBD0DB407FEFDCFC8
:101D0000F5CF2A9A08951F93CF93DF93182F10765B
:101D1000C12FD0E02091F20130E0C217D30779F053
:101D200043E06FE180EAB7DFAE0185E05595479566
:101D30008A95E1F76FE180E8AEDF1093F201DF9161
:101D4000CF911F910895CF93DF931F92CDB7DEB748
:101D5000682F6983D8DF698180E00F90DF91CF9190
:101D600084CF1F93CF93DF931F92CDB7DEB7182F89
:101D70006983C9DF4981612F80E40F90DF91CF91A2
:101D80001F9189CFCF93682F84EDEBDF61E082ED67
:101D9000E8DF8AEED8DF80FDFCCF60E082EDE1DF96
:101DA00089EDD1DFC82F88EDCEDF2C2F30E0322F28
:101DB0002227A901482BCA01CF9108951F93CF93E1
:101DC000DF931F92CDB7DEB7162F682F84ED79838E
:101DD000C8DF612F86EDC5DF7981672F87EDC1DF11
:101DE00018E28AEEB0DF80FF04C0812F8A95F1F7F8
:101DF000F8CF0F90DF91CF911F910895CF93DF938C
:101E0000EC01229A2A9A84B1886284B924982B988A
:101E10002D9880E58CBD8DB581608DBD4FEF60E064
:101E20008FEF39DF80E090E00197F1F71092F10138
:101E30001092F00160E088E094DF60E089E091DFDB
:101E400060E08CE08EDF60E08DE08BDF6FEF8AE09A
:101E500088DF69E18BE085DF60E084E082DF6AE1B2
:101E600085E07FDF6FEF86E07CDF6FE187E079DF81
:101E700060EB88E376DF6FE388E273DF60E389E29B
:101E800070DF69EF80E36DDF67EF81E36ADF6DE0AC
:101E900080EC67DF60E081EC64DF42E362EC80E8C5
:101EA000FADE62E186EC5DDF6CE087EC5ADF62E12E
:101EB00084EC57DF6CED8AEC54DF65E08BEC51DF8E
:101EC000688184EE4EDF698185EE4BDF6A8182EEA8
:101ED00048DF6B8183EE45DF6C8180EE42DF6D81F0
:101EE00081EE3FDF60E071E080E168DF8FE10BDFD2
:101EF00040EC6BE180E8CFDE44E06FE180E8DF9109
:101F0000CF91C9CE88E31FDF682F616088E329CFB6
:101F100088E319DF682F6E7F88E323CF81E132DF0A
:101F200092FB882780F908950F931F93CF93DF9337
:101F3000EC018B016FE180E098DE83FDFBCF8CE14B
:101F400002DF81FF10C040E86FE180E8A4DE40E8D6
:101F50006FE180EAA0DE42E06CE180EA9CDE80E393
:101F600095E70197F1F760E082E0FBDE6AE183E04C
:101F7000F8DE6C2F86E0F5DECE01965E692F87E0F5
:101F8000F0DE40E060E08AE786DEB801CE01A6DE42
:101F900048E06FE180E8DF91CF911F910F917BCEF8
:101FA0009F92AF92BF92CF92DF92EF92FF920F93E8
:101FB0001F93CF93DF936C017B0189E3C4DE8823F9
:101FC00009F44EC06091F001C091F10180E0C9DEDA
:101FD0006C2F81E0C6DE60E08AE347DE082F60E018
:101FE0008AE343DE10E0182B1093F1010093F00117
:101FF00060E08AE33ADEC82F60E08AE336DE982E9E
:1020000060E08AE332DEA82E60E08AE32EDEA7FEDF
:102010000EC0960121503109D0E0D92924972C1700
:102020003D0708F4E901B701CE0142DE02C0C0E07D
:10203000D0E06FEF01308AE1180724F08CE091DEE8
:1020400069E106C0600F8CE08CDE01501109612F40
:102050008DE087DE40E46EE180E81DDECE0102C047
:1020600080E090E0DF91CF911F910F91FF90EF9072
:10207000DF90CF90BF90AF909F900895CF92DF9266
:10208000EF92FF920F931F93CF93DF937A01690131
:1020900090910B02891759F0E0910802F091090222
:1020A00040E050E060E070E084EF91E03EC06111FC
:1020B0003DC02D303105D0F1009108021091090288
:1020C0000115110599F1C091FC01D091FD01C40FDA
:1020D000D51F888590E00E94423B892B09F1A98594
:1020E000B0E0D097AA30B105D8F48B8590E0C097C6
:1020F0008A309105A8F46AE06A9FA0016B9F500D99
:1021000011243A85232F30E020533109240F351F45
:10211000629FA001639F500D1124840F951F02C080
:1021200080E090E0A601B701F801099580E0DF9119
:10213000CF911F910F91FF90EF90DF90CF90089576
:10214000CF92DF92EF92FF920F931F93CF93DF9383
:102150007C01FB01413051F4AB014850510960E072
:1021600070E04F5E5F4F6F4F7F4F0FC0423051F4B2
:10217000AB014850510960E070E04A5F5F4F6F4F1C
:102180007F4F03C040E050E0BA01D70111966F01C4
:1021900082E0C816D104B0F0CD010197EC010881AE
:1021A00010E020E030E0322F212F102F00278C91FB
:1021B000082B400F511F621F731FD2E0CD1AD108A8
:1021C0001296E6CFCF018E7FD701A80FB91FE0FF8F
:1021D0000CC08C9190E0A0E0B0E0BA2FA92F982F0E
:1021E0008827480F591F6A1F7B1F8B01222733271F
:1021F000011511052105310539F066277727400FB4
:10220000511F621F731FF1CFCA0180959095DF9116
:10221000CF911F910F91FF90EF90DF90CF90089595
:10222000FC01892B39F096E0A4E2B2E001900D9216
:102230009A95E1F70895009721F46115710559F415
:102240000895FC01A0E2B2E084E08A0F91919D9391
:102250008A13FCCFF2CFFB01A4E0B1E084E08A0F47
:1022600091919D938A13FCCF0895DC015A96FB014E
:102270004E963D912191321305C0A817B907C9F7B1
:1022800081E0089580E0089569327105A0F0FC01B5
:102290002485283081F42585263069F4B696A0E29D
:1022A000B2E084E08A0F21919D91291304C08A1322
:1022B000FACF81E0089580E00895FC016A3271054B
:1022C000B0F08485883099F48585811110C0968599
:1022D000953471F47E96A0E2B2E094E09A0F3191C9
:1022E0002D91321305C09A13FACF81E0089580E052
:1022F0000895CF93DF93A4E2B2E09C012A5F3F4FA1
:10230000F9014081EC014993CE014D914193C217EF
:10231000D307B9F7DF91CF910895CF93DF93EC0105
:10232000188E198E80E48C8B1D8A8E8B40E064E1C0
:1023300070E0CE010E9604DF988F898FDF91CF91E8
:102340000895CF93DF93EC016E96DC015A96E0E29C
:10235000F2E024E02E0F3C91399331913D932E13FE
:10236000FACFDF91CF91D9CF9C01265D3F4FFC0181
:10237000BE96D9018E91680F711D829160834423AE
:1023800011F08C9301C01C92672F7727E217F30797
:1023900089F70895CF93DF93EC018CA19AA19CA3B8
:1023A0008AA38DA19BA19DA38BA3CE01DDDF1AAAD9
:1023B0001BAA80E58EA7DF91CF910895CF93DF937D
:1023C000EC0197DF1C8A82E08D8BCE018096DE01C6
:1023D000569644E252E026E0240F3C91FC013193F2
:1023E000CF01FA013191AF013D932E13F6CFCE010B
:1023F0008696DE015C9640E252E024E0240F3C9198
:10240000FC013193CF01FA013191AF013D932E13BD
:10241000F6CFBE018AE290E0DF91CF9185CD0F9398
:102420001F93CF93DF93EC018B0163DFCE0189DF34
:102430001AA29CA1983F18F02DA12F5F2DA3985FA1
:102440009CA3BE01C801DF91CF911F910F916CCD6C
:10245000FC01208930E0322F22278189282B24514A
:10246000310986A582958F70A90164E0869F401985
:1024700051091124CA0157FF02C080E090E008957D
:102480009C01CB01FC01E61BF70BE40FF51FE49167
:10249000EE2339F0D901A80FB91FD696EC93019617
:1024A000F1CF0895DB01D696A80FB91FFA01420FAC
:1024B0004E1719F081918D93FBCFCB01820F911DA7
:1024C0000895FA0101900020E9F731979F01241B3C
:1024D000350BE8CFEF92FF920F931F93CF93DF93CB
:1024E00000D000D01F92CDB7DEB790910B028913B8
:1024F00092C080910A020091FC011091FD018111AE
:1025000026C04BE652E060E070E0C801B9DF4091C0
:10251000020250910302BC01C801B2DF40910002E7
:1025200050910102BC01C801CCDF49E552E0BC0179
:10253000C801A6DF4091FE015091FF01BC01C80116
:102540009FDF4CE252E0BC01C8019ADF66C046E260
:1025500052E060E070E0C80193DF409102025091C8
:102560000302BC01C801ADDF40910002509101029D
:10257000BC01C801A6DF44E152E0BC01C80180DF14
:102580004091FE015091FF01BC01C8019ADFE0902B
:102590000602F0900702E114F10449F041E152E033
:1025A000BC01C8016DDFA701BC01C80169DF4CEEA9
:1025B00051E0BC01C80164DF4BED51E0BC01C80132
:1025C0005FDF7C01A0910402B0910502FD01019042
:1025D0000020E9F731974AE0BE016F5F7F4FCF01DE
:1025E0008A1B9B0B0E94C43B0091FC011091FD01D2
:1025F000AE014F5F5F4FB701C80163DF45EA51E0AD
:10260000BC01C8013DDF4091040250910502BC01AC
:10261000C80157DF02C080E090E00F900F900F904C
:102620000F900F90DF91CF911F910F91FF90EF903E
:1026300008950F931F93CF93DF9300D01F92CDB7D0
:10264000DEB78C014B8369837A8353DE4B81842F01
:102650008061F80187A769817A81443029F061158A
:10266000710511F461E070E041E0C80193DEF8010A
:10267000108A88E2818BC80164DE84E0F80180ABB7
:1026800011AA42E06CE170E0C8014A9659DDF801F8
:1026900092AB83ABB80186E390E00F900F900F9060
:1026A000DF91CF911F910F913FCC0F931F93CF9349
:1026B000DF93EC018B01CB018896988B898BCE013F
:1026C0002CDE1AAA1BAAB801645E7F4F42E0CE013D
:1026D0004A9636DD9AAB8BABBE01C801C696DF9138
:1026E000CF911F910F9120CCCF92DF92EF92FF926A
:1026F0000F931F93CF93DF9300D0CDB7DEB76C015C
:10270000F42EE52E69837A83F4DD6981062F7A81C0
:10271000172F0D3D110510F00CED10E0F601108A99
:10272000C8014C96818BC6010CDEF60182A184A300
:1027300083A185A3E2A2F3A216A2C801089687A3EB
:1027400010A611A6B801605F7F4F41E0C6014A960E
:10275000F7DCF60190A781A7B601C8018A960F9011
:102760000F90DF91CF911F910F91FF90EF90DF902D
:10277000CF90DACBFB01BC01665D7F4FDB015A2FA6
:10278000561B541718F451915D93F9CF642F70E0E4
:10279000A901AACF6115710519F4009759F408959C
:1027A000FB01A0E2B2E024E02A0F31913D932A130D
:1027B000FCCFF3CF35CD9093F501809308010895B8
:1027C000CF93DF93EC0195DD188A8CE2898BCE01E3
:1027D000B8DD82E18FA740E061E070E0CE01DADD94
:1027E0001EA21FA280910C0188A719A68D5F80935D
:1027F0000C0182E08EAB84E08FAB85E088AF19AE30
:1028000080E68EA78AE088AB19AA42E060E270E019
:10281000CE014A9695DC9AAB8BABBE018AE390E081
:10282000DF91CF9181CB0F931F93CF93DF93EC0177
:102830008B016091F3017091F40140E0FADE89E1CF
:102840008FA7B801CE01DF91CF911F910F912DCFAE
:10285000640F751F4617570741F0FA012491FC01D8
:102860002193CF014F5F5F4FF5CF0895AF92BF9295
:10287000CF92DF92EF92FF920F931F93CF93DF934C
:1028800000D0CDB7DEB75C01F62EE72E6A01B501A8
:102890006A5F7F4FE4E2F2E046E04E0FD8015D91BF
:1028A0008D01DC015D93CD015191DB015D93BD0193
:1028B0004E13F4CF88E0F5018487158648E752E08F
:1028C00069E070E0C5010E9629833A83C1DF8091EB
:1028D0000301D50153968C9353978F5F8093030127
:1028E00050961C92509781E157968C938601C501B2
:1028F0004E96E0E2F2E044E04E0F3A812981D801A1
:102900005D918D01DC015D93CD015191BD0165505B
:102910007109DB015C934E13F2CFF50134A325A3BB
:10292000E2A2F3A216A210A611A60F900F90DF91BB
:10293000CF911F910F91FF90EF90DF90CF90BF90BC
:10294000AF9008950F931F93CF93DF93EC018B010A
:10295000CB014C96898B988BCE01DFDCC8010896A1
:102960008FA39EA3B801605F7F4F41E0CE014A96DE
:10297000E7DB89A798A7BE01C8018A96DF91CF91AE
:102980001F910F91D1CAEF92FF920F931F93CF9394
:10299000DF9320912002222309F44CC0EC0124E2B1
:1029A000E22E22E0F22EDC011696F7014FEF26E030
:1029B0002E0D499331913D932E13FBCF8B01EC01EA
:1029C00088E08C8786E08D8740E752E068E070E021
:1029D000CE010E963DDFAE01405E5F4FDE01969662
:1029E000F70121917F01CA010A97FC012083FA01B6
:1029F0001192AF01EA17FB0799F7C80160E272E094
:102A000024E0260FFC013191CF013D93FB01319170
:102A1000BF01AD014B505109FA0130832613F2CFAB
:102A2000BE018AE290E0DF91CF911F910F91FF905C
:102A3000EF907ACADF91CF911F910F91FF90EF90A5
:102A4000089581E09091F701923009F480E00895B3
:102A50005093D2044093D10421E02093F701609376
:102A6000F601E8EFF1E024E02E0FDC013D91CD010D
:102A700031932E13FACF0895FF920F931F93CF93A4
:102A8000DF93EC01162F042FF52E9C0184E292E0D7
:102A9000BE016A5F7F4FE3E1F2E046E04E0F5191E5
:102AA000D9015D939D01DC015D91CD01DB015D9359
:102AB000BD014E13F4CF88E08C871D8648E752E0B5
:102AC00069E070E0CE010E96C3DE8CE2898B8091C6
:102AD00003018B8B8F5F8093030186E08F8BDE0178
:102AE0005E9680E292E069E172E024E0260FFB014D
:102AF0003191BF013D93FC013191CF01AD014550B2
:102B00005109FA0130832613F2CFCE0106DCFCA274
:102B10000DA38BE08AA31BA3FE01B696CE018E9671
:102B20001192E817F907E1F780910C0188A78D5FF2
:102B300080930C0180E68EA782E08FA793E098AB8C
:102B400019AA1AAA1BAA1CAA1DAA8EAB94E09FABB5
:102B500088AF8EEE89AF42E060E270E0CE014A9627
:102B6000EFDA9AAB8BABBE018AE390E0DF91CF91B5
:102B70001F910F91FF90D8C90F931F9390930F024D
:102B800080930E0270930D0260930C02D901E9E16B
:102B9000F2E084E08E0F9D9191938E13FCCFD801CB
:102BA000E3E1F2E086E08E0F9D9191938E13FCCFCE
:102BB000509311024093100281E0809312028091A1
:102BC0001D028F5F883018F480931D0202C010929E
:102BD0001D0280911D021F910F9108952F923F9227
:102BE0004F925F926F927F928F929F92AF92BF921D
:102BF000CF92DF92EF92FF920F931F93CF93DF93C9
:102C000000D0CDB7DEB73C011B012A0129833A83EE
:102C100085D929813A81882329F170920302609233
:102C200002025092FF014092FE0130920102209276
:102C300000023093070220930602109305020093CE
:102C4000040281E080930A02F0920902E0920802F5
:102C500085019601A4016AE672E18EE390E18CDFC2
:102C600080930B020F900F90DF91CF911F910F91E6
:102C7000FF90EF90DF90CF90BF90AF909F908F909C
:102C80007F906F905F904F903F902F900895AF92FC
:102C9000BF92DF92EF92FF920F931F93CF93DF9338
:102CA0001F92CDB7DEB75C017B016115710509F09C
:102CB0004EC08091F701893069F4809109019091AB
:102CC0000A01892B39F42AD9882321F068EF71E0B1
:102CD000C50159DE8091F701813081F41FD9882325
:102CE00069F068EF71E0C5014EDE8091F701886000
:102CF0008093F70110920A01109209018091090155
:102D000090910A01019690930A01809309018091A4
:102D10001202813009F066C101D9882309F462C129
:102D200082E08093120260910B016F5F60930B0150
:102D300040911002509111026F7180911D0220E2AA
:102D4000829FC0011124682BC50196DE4BC19CDA1D
:102D5000882351F1D50155968C91813011F4C5012C
:102D60002DDB8091F70183FF3DC1F50115891230FC
:102D700009F038C144E050E068EF71E0C5014C96BD
:102D80000E94723B892B09F02DC1A5014A5E5F4F5D
:102D9000E091D104F091D2046091F60188EF91E0C6
:102DA00009951093F7011EC1B701C50186DA882382
:102DB00009F418C1D50157968C915797813091F439
:102DC00092968C91883009F00DC1E0911E02F0912D
:102DD0001F02309719F0C5014A960995B701C50140
:102DE0001EDB00C1B6E3EB16F10408F4FBC086302D
:102DF00009F0F8C0F50184A18B3009F0C1C0B09290
:102E0000FD01A092FC0169E172E0C5012EDA882380
:102E100009F4E8C0D5019F962C919F9722FF13C01B
:102E2000E0910E02F0910F02309759F095968C9137
:102E300020E030E040E050E063E0829586958770C6
:102E4000099586E092C0C501298302DB8C0180913F
:102E500012022981823089F5822F807122712231FC
:102E6000F9F440E060E070E0C501E3DB88E1F501E2
:102E700087A7E0910C02F0910D02309741F0D50147
:102E800093968C91829586958770099502C080E013
:102E900090E023E020931202BC01C50106DCA2C031
:102EA00091E090931202811104C0B8016F5F7F4FCF
:102EB00002C060E070E044E060C08330A9F5011515
:102EC000110591F184E080931202E0910E02F091DD
:102ED0000F02309749F1D5019E964C9142954F7063
:102EE000B4E04B9FA0011124C70108974E5D5F4FCE
:102EF0008417950708F4AC01C801840F951FE816E4
:102F0000F90620F49701241B350B01C09801D50167
:102F100095968C9160E082958695877009958823B7
:102F200019F049E0B8011EC090911202F50187A581
:102F3000953019F484FD85CF55C0963069F484FD31
:102F400004C0B8016F5F7F4F02C060E070E044E0F2
:102F5000C5016FDB87E009C080FF0AC0B8016F5F61
:102F60007F4F41E0C50165DB85E0809312023AC0E6
:102F700001151105B9F140E0B801C5015ADB32C0B5
:102F80009091F50189132EC095A1809108019813A5
:102F900029C0D7A4D1FE03C0C50112DC23C0D4FED2
:102FA00021C0C50155DA8C019093F4018093F3019F
:102FB000892B41F4D0FE16C040E060E070E0C5010E
:102FC00038DB12C0F50106A502950F70F4E00F9FE3
:102FD000800111240E5D1F4F28E0E21AF108E0166F
:102FE000F10610F400E010E0C8010F90DF91CF91DE
:102FF0001F910F91FF90EF90DF90BF90AF900895D9
:1030000098E028E1362F382730FD02C0669503C0CE
:1030100062276695606886959150A1F7862F08957E
:10302000EF92FF920F931F93CF93DF93EC017C01FC
:1030300087E0E80EF11C8E0160E0F80181918F01BC
:10304000DFDF682F0E151F05C1F781E09F8169132F
:1030500001C080E0DF91CF911F910F91FF90EF9021
:103060000895EF92FF920F931F93CF93DF93EC019C
:103070007C0188E0E80EF11C8E0160E0F80181918E
:103080008F01BEDF682F0E151F05C1F781E09885FF
:10309000691301C080E0DF91CF911F910F91FF90E4
:1030A000EF9008951F93CF93DF93D82F162FC8E08A
:1030B000812FD0FF02C022D101C039D1D695C15095
:1030C000B9F7DF91CF911F9108951F93CF93DF93AD
:1030D000182FD8E0C0E0C695812F42D18111C06879
:1030E000D150C9F78C2FDF91CF911F910895682F90
:1030F0008CECD8CFCF92DF92EF92FF921F93CF93B9
:10310000DF931F92CDB7DEB7F82E162F85E5998392
:10311000C9DFCF2C9981D92E760188E0E80EF11C09
:10312000612FF60181916F01BDDF81E090E00E9487
:103130000833CE14DF04A1F70F90DF91CF911F91D8
:10314000FF90EF90DF90CF900895CF92DF92EF92B3
:10315000FF920F931F93CF93DF938C01D62EE42E13
:10316000642F80EF9FDFC1E0F12CD1E08E2DF8D0ED
:10317000C82E8E2DF5D0CC2039F0811131C0F80148
:1031800080818C2B808319C0F8019081882321F0E5
:103190008C2F8095982303C0DD1104C09C2BF8016F
:1031A00090830BC0DD1630F48C2F80959823F801A6
:1031B000908302C09C2309F4FD2EF80180818C23AA
:1031C00019F08E2D9BD002C08E2DB1D0DF5FCC0FB9
:1031D00019F40F5F1F4FC1E0D13441F68F2D01C0AC
:1031E0008FEFDF91CF911F910F91FF90EF90DF90C4
:1031F000CF9008956F927F928F929F92AF92BF92DD
:10320000CF92DF92EF92FF920F931F93CF93DF93B2
:103210001F92CDB7DEB75C01062F942E69013C01E9
:1032200084E0680E711C930180E0801761F0A901B1
:10323000485F5F4FF9011192E417F507E1F78F5FDF
:10324000225D3F4FF2CF7301F30110E060E088E0B0
:10325000882E1017F9F0A895D701882D01900D92AE
:103260008A95E1F7892D69839BD06981882329F1AB
:10327000492DC7016ADF682F1F5FD5019EE2199FA4
:10328000A00DB11D11241496F701882311F07D01C2
:10329000E0CF012F10E0101771F0A895C301C0DE38
:1032A000EEE26E0E711C81110AC0F60180818F5F03
:1032B00080831F5FF0CF80E003C08FEF01C081E00B
:1032C0000F90DF91CF911F910F91FF90EF90DF90C2
:1032D000CF90BF90AF909F908F907F906F90089508
:1032E0009AB1809598239AB99BB189238BB98BEBBE
:1032F00093E00197F1F700C0000008952FB7F8940C
:103300009AB1982B9AB99BB1809598239BB99AE072
:103310009A95F1F700C09AB198239AB99BB1892385
:103320008BB985EA8A95F1F700002FBF08952FB772
:10333000F8949AB1982B9AB99BB1809598239BB930
:103340009AE99A95F1F700C09AB198239AB99BB17E
:1033500089238BB985E18A95F1F700002FBF089585
:103360003FB7F8949AB1982B9AB99BB1282F209522
:1033700092239BB99AE09A95F1F700C09AB19223F3
:103380009AB99BB192239BB922E12A95F1F700C02B
:1033900099B12DE82A95F1F700003FBF89230895E0
:1033A0003FB7F8949AB1982B9AB99BB1282F2095E2
:1033B00092239BB9EBEBF3E03197F1F700C00000EB
:1033C0009AB192239AB99BB192239BB9F5EBFA95E6
:1033D000F1F7000099B1EFE2F3E03197F1F700C0A7
:1033E00000003FBF909589230895883C910529F4FA
:1033F00080912D028F5F80932D0280913A0282305E
:1034000019F483E080933A020895613049F4DA01B7
:10341000E4E3F2E086E08E0F9D9191938E13FCCF52
:103420000895CF92DF92EF92FF920F931F93CF9365
:10343000DF9300D000D01F92CDB7DEB78C01FC0126
:1034400010821182128213827B0120E090E0F7014A
:1034500081917F01882361F12430D8F5933090F475
:10346000482F50E0405351094A30510548F4E1E0FB
:10347000F0E0EC0FFD1FE90FF11D80839F5F02C09C
:10348000992329F38E3219F7E1E0F0E0EC0FFD1FEC
:10349000E90FF11D10826801C20ED11CCE01019608
:1034A0002D830E944D3AF60180832D812F5FCECF70
:1034B000233079F4E1E0F0E0EC0FFD1FE90FF11D9E
:1034C0001082CE0101960E944D3AF801838380E07C
:1034D00001C081E00F900F900F900F900F90DF913F
:1034E000CF911F910F91FF90EF90DF90CF900895B3
:1034F00081E04D9B80E00895813011F45D9A08953C
:103500005D98089596B121E030E002C0220F331F8C
:103510008A95E2F7892F90E02823392381E012165B
:1035200013060CF080E0089593B121E030E002C072
:10353000220F331F8A95E2F7892F90E02823392341
:1035400081E0121613060CF080E0089545B121E0E9
:1035500030E0613049F4B90102C0660F771F8A95E7
:10356000E2F7CB01842B09C0B90102C0660F771FB7
:103570008A95E2F7CB018095842385B9089548B1F7
:1035800021E030E0613049F4B90102C0660F771FD5
:103590008A95E2F7CB01842B09C0B90102C0660FFE
:1035A000771F8A95E2F7CB018095842388B9089527
:1035B000CF93DF93D82FC0E0CD1771F05D9A82E3EF
:1035C00090E00E94083380E097DF82E390E00E9461
:1035D0000833A895CF5FF0CFDF91CF9108959F92E8
:1035E000AF92BF92CF92DF92EF92FF920F931F9311
:1035F000CF93DF931F92CDB7DEB7F82EE62E8A0168
:10360000DA018C9165E0681BBEE28B9FC00111243A
:103610009E012F5F3F4F4F2D82569C4FEBDDF801EF
:10362000D0808EE2C82E90E1992EAD2CB12C8981EC
:10363000D8012C9130E0280F311DA216B306ECF40E
:103640006D2D8F2D0E949433CA9CF001CB9CF00D00
:103650001124E256FC4F86A18F3721F06D2D8F2D5E
:103660000E94D933CA9CF001CB9CF00D1124E25684
:10367000FC4FF3A694A6D394D8CF811140C08E2DD1
:103680000E941E0C8AEF90E00E940833A8958AEFF2
:1036900090E00E940833A8958E2D0E941E0C809108
:1036A0000201811135C0D801EC914EE24E9FF0012C
:1036B0001124E256FC4FE3A62C9130E02F5F3F4FE0
:1036C000429FF001439FF00D1124E256FC4FE3A608
:1036D000EC914E9FF0011124E256FC4F21E124A70A
:1036E0008C9190E00196489FF001499FF00D1124C4
:1036F000E256FC4F24A78C918E5F8C9309C08F2DCE
:103700000E9413338981F8019081980F908301C042
:1037100080E00F90DF91CF911F910F91FF90EF907C
:10372000DF90CF90BF90AF909F9008951F920F921F
:103730000FB60F9211242F933F934F935F936F9384
:103740007F938F939F93AF93BF93EF93FF9380915A
:10375000500390915103A0915203B09153030196ED
:10376000A11DB11D8093500390935103A093520368
:10377000B093530380912A028F5F843618F48093AC
:103780002A0214C010922A0280912C028F5F80932B
:103790002C0280912B028F5F80932B0280912B0251
:1037A000863020F010922B020E9411088091420373
:1037B000813011F58091480390914903A0914A030B
:1037C000B0914B03892B8A2B8B2BA1F0809148035E
:1037D00090914903A0914A03B0914B030197A1092D
:1037E000B1098093480390934903A0934A03B0938F
:1037F0004B0302C01092420380914103813011F5C6
:103800008091440390914503A0914603B0914703F2
:10381000892B8A2B8B2BA1F0809144039091450337
:10382000A0914603B09147030197A109B109809384
:10383000440390934503A0934603B093470302C00B
:103840001092410380914303813011F580914C0324
:1038500090914D03A0914E03B0914F03892B8A2B79
:103860008B2BA1F080914C0390914D03A0914E03BE
:10387000B0914F030197A109B10980934C03909334
:103880004D03A0934E03B0934F0302C01092430325
:10389000FF91EF91BF91AF919F918F917F916F9128
:1038A0005F914F913F912F910F900FBE0F901F90FE
:1038B000189590ED980F9A3070F09FE9980F963018
:1038C00010F499EA05C09FEB980F963018F499EC24
:1038D000980F01C0982F892F089590ED980F9A3076
:1038E00060F09FE9980F963010F4875508959FEB8C
:1038F000980F963020F487530895892F089580E01B
:103900000895CF93DF93EA012AE00E94D63BCE01CF
:10391000DF91CF910895EF92FF920F931F93CF9372
:10392000DF938B01EC0120E030E08991882361F086
:10393000209F7001219FF00C309FF00C1124B9DF03
:103940009701280F311DF1CFC901DF91CF911F9150
:103950000F91FF90EF9008955F926F927F928F92F8
:103960009F92AF92BF92CF92DF92EF92FF920F930E
:103970001F93CF93DF93CDB7DEB72B970FB6F89495
:10398000DEBF0FBECDBF6C01562EFC0101900020A2
:10399000E9F731977F01E81AF90A5C0120E030E08D
:1039A00000E010E0842E912CC5018C199D098E1524
:1039B0009F0514F5F50181915F01E1E0F0E0EC0F66
:1039C000FD1FE20FF31F851113C010823801FFEFB6
:1039D0006F1A7F0AB401CE0101964B879CDFF80174
:1039E000E35CFD4F8083830120E030E04B85DCCF3A
:1039F00080832F5F3F4FD8CFE1E0F0E0EC0FFD1F59
:103A0000E20FF31F1082642F70E0CE01019683DF76
:103A1000F801E35CFD4F80832B960FB6F894DEBF70
:103A20000FBECDBFDF91CF911F910F91FF90EF900F
:103A3000DF90CF90BF90AF909F908F907F906F90CE
:103A40005F9008950F931F93CF93DF938A01FB013B
:103A500001900020E9F73197EF01C61BD70B0E94B8
:103A6000AA3B009719F410923D0223C0BC016C0FD1
:103A70007D1F8DE392E00E948A3BEDE3F2E001902E
:103A80000020E9F73197EF01CD53D240B8018DE323
:103A900092E00E94AA3BFC0101900020E9F73197D7
:103AA000E81BF90BCE018E1B9F0BFC01E35CFD4F65
:103AB00010828DE392E0DF91CF911F910F910895D5
:103AC000CF92DF92FF920F931F93CF93DF938C01DE
:103AD000EC01F80180818823D9F08B32A1F0853286
:103AE00099F4680182E0C80ED11CF8018181F5DEED
:103AF000F82EF8018281F1DEF0E1FF9E90011124A1
:103B0000822B860101C080E289930F5F1F4FE1CFB6
:103B10001882DF91CF911F910F91FF90DF90CF908E
:103B20000895AF92BF92CF92DF92EF92FF920F93E0
:103B30001F93CF93DF9305E513E086E6E82E83E03D
:103B4000F82EAA24A394B12CF70139978081811112
:103B500014C00E5E1F4F82E1E80EF11CE3E00D3948
:103B60001E0791F7DF91CF911F910F91FF90EF907A
:103B7000DF90CF90BF90AF900895CEE9D3E0C12CF5
:103B8000D12CF601E256FC4F81A18F3F09F042C0D3
:103B900084A5882309F43EC048E050E0B801CE0176
:103BA00004960E94723B892BA9F52D8D3E8D4F8D79
:103BB00058A1688179818A819B810E946137F801CF
:103BC00021853285438554850E94C53787FF04C00F
:103BD00060E0F7018081D3DC2D8D3E8D4F8D58A1A3
:103BE000688179818A819B810E946137F8012585EE
:103BF0003685478550890E94623918165CF428B1D1
:103C0000C501F701008002C0880F991F0A94E2F7EE
:103C1000822B88B9FEE2CF0ED11CAE9686EEC81676
:103C2000D10409F0AECF95CF6F927F929F92AF9261
:103C3000BF92CF92DF92EF92FF920F931F93CF9399
:103C4000DF93809143038111CAC052DC91E081115E
:103C500090E0892F51DC80915403882399F00E94D1
:103C6000CB311092540388EE93E0A0E0B0E0809353
:103C7000480390934903A0934A03B0934B0381E018
:103C80008093420384EF91E0A0E0B0E080931101C3
:103C900090931201A0931301B093140180934C03ED
:103CA00090934D03A0934E03B0934F033ADF10E07F
:103CB0008EE2D82E01E092E0992E2AEAB22E36E06A
:103CC000A32E612E712CD69C7001D79CF00C112470
:103CD000E701C256DC4F8CA5803119F08131C9F063
:103CE00077C0B7016E557C4FAE018BA50E941F3384
:103CF000811103C00B8F1DA601C00DA7D69CF0013A
:103D0000D79CF00D1124E256FC4F83A50E9413337B
:103D10005FC08BA50E941E0C80910201CC24C3942D
:103D2000C10E81114DC01DA69B8E6091E501709161
:103D3000E60180E090E00E945D3820E030E040E263
:103D400051E40E94C937688379838A839B83BC824C
:103D50008AE1810F8D83D701AC55BC4FEBEFF7E0C3
:103D60008A2D01900D928A95E1F7DC9C7001112457
:103D7000E701C256DC4F1DA60B8F6091E7017091E1
:103D8000E801072E000C880B990B0E945F3820E099
:103D900030E040E251E40E94C937688379838A8326
:103DA0009B83BC82155D1D83D701AC55BC4FEBEFE7
:103DB000F7E08A2D01900D928A95E1F71C2D08C03D
:103DC0000DA71C2DDC9CF0011124E256FC4F05A729
:103DD0001F5F153008F475CF81E080934303DF91B6
:103DE000CF911F910F91FF90EF90DF90CF90BF90F8
:103DF000AF909F907F906F9008954AE45FE060E0FD
:103E000070E082E395E00C94401243E15FE060E0F3
:103E100070E082E395E00C9440124BED5EE00C9470
:103E20004012CF92DF92EF92FF920F931F93CF93A6
:103E3000DF93EC0169010E94401244EC5EE0BC019A
:103E4000CE010E944012A601BC01CE010E94401288
:103E50004BEB5EE0BC01CE010E944012A801BC0108
:103E6000CE010E94611248EB5EE0BC01CE010E94CF
:103E70004012A701BC01CE01DF91CF911F910F919C
:103E8000FF90EF90DF90CF900C9440124F925F9292
:103E90006F927F928F929F92AF92BF92CF92DF925A
:103EA000EF92FF920F931F93CF93DF9300D000D038
:103EB00000D0CDB7DEB72A013B01922E832E5801E8
:103EC0002EE2829FC0011124FC01E256FC4F838D3B
:103ED0009E012F5F3F4F6901823021F1B8F481309C
:103EE00009F04BC02081318142815381C301B2016D
:103EF0000E946137162FF72EE82E092F62EB7EE025
:103F0000C6010E94523B6BEA7EE033C08330F1F081
:103F10008A3099F51081F180E280038167E97EE0C3
:103F2000C90128C02081318142815381C301B2017E
:103F30000E946137162FF72EE82E092F65EA7EE0E2
:103F4000C6010E94523B63EA7EE013C020813181AA
:103F500042815381C301B2010E946137162FF72EAF
:103F6000E82E092F6DE97EE0C6010E94523B6AE906
:103F70007EE0C5010E94523B04C010E0F12CE12C10
:103F800000E00F93EF92FF921F93DF92CF928F92F8
:103F90009F920E94483C0FB6F894DEBF0FBECDBF83
:103FA00080E090E026960FB6F894DEBF0FBECDBF3E
:103FB000DF91CF911F910F91FF90EF90DF90CF9005
:103FC000BF90AF909F908F907F906F905F904F9039
:103FD00008950F931F93CF93DF93EC010EDF8C01B5
:103FE0006091D3047091D4048091D5049091D6044B
:103FF0004CEE54E086DC42E55EE0B801CE010E9462
:1040000040124CE35EE0BC01CE010E9440124CEE37
:1040100054E0BC01CE010E94611242E35EE0BC01AB
:10402000CE010E9440124DE15EE0BC01CE010E9433
:1040300040124CEE54E0BC01CE010E94611243E1FB
:104040005EE0BC01CE010E94401242EF5DE0BC0187
:10405000CE010E9440124CEE54E0BC01CE010E9401
:10406000611248EE5DE0BC01CE010E94401245EDB8
:104070005DE0BC01CE01DF91CF911F910F910C94B7
:1040800040128F929F92AF92BF92CF92DF92EF92A7
:10409000FF920F931F93CF93DF93EC01AEDEBC0131
:1040A000CE01BBDE6C0169EC7DE087E195E00E940A
:1040B000523B42EB5DE0B601CE010E9440124C0142
:1040C000809104081F928F93809103081F928F9311
:1040D000809102081F928F93809101081F928F9305
:1040E00087E1A82E85E0B82EBF92AF929CEEC92E34
:1040F00094E0D92EDF92CF920E94483C28EAE22E2B
:104100002DE0F22E860126EA3DE040EA5DE0B401B2
:10411000CE0187DE4C01809100081F928F93809121
:10412000FF071F928F938091FE071F928F938091BC
:10413000FD071F928F938091FC071F928F938091B0
:10414000FB071F928F9322E83DE03F932F93DF926E
:10415000CF920E94693C38E7E32E3DE0F32E26E73C
:104160003DE045E75DE0B401CE015BDE4C018091AE
:1041700008081F928F93809107081F928F93809158
:1041800006081F928F93809105081F928F93BF920C
:10419000AF92DF92CF920E94483C2DB73EB7285D88
:1041A0003F4F0FB6F8943EBF0FBE2DBF4BE6E42E37
:1041B0004DE0F42E29E63DE048E65DE0B401CE0195
:1041C00030DE4C0180910C081F928F9380910B0878
:1041D0001F928F9380910A081F928F9380910908F4
:1041E0001F928F93BF92AF92DF92CF920E94483C72
:1041F0005EE5E52E5DE0F52E2CE53DE04BE55DE06E
:10420000B401CE010EDE4C01809110081F928F93F5
:1042100080910F081F928F9380910E081F928F93A9
:1042200080910D081F928F93BF92AF92DF92CF9231
:104230000E94483C6AE5E62E6DE0F62E28E53DE05A
:1042400047E55DE0B401CE01ECDD46E35DE0BC0195
:10425000CE010E9440122DB73EB7285E3F4F0FB6E9
:10426000F8943EBF0FBE2DBF209111082F3F31F4AF
:104270004DE25DE0BC01CE010E94401240E05DE0F5
:10428000BC01CE010E9440126C016091D304709178
:10429000D4048091D5049091D6044CEE54E031DBE7
:1042A0004CEE54E0B601CE010E94611244EC5CE099
:1042B000BC01CE01DF91CF911F910F91FF90EF9044
:1042C000DF90CF90BF90AF909F908F900C94401252
:1042D0008F929F92AF92BF92CF92DF92EF92FF9216
:1042E0000F931F93CF93DF93EC01D62E86DD4DEA1B
:1042F0005CE0BC01CE010E94401247E65CE0BC01DC
:10430000CE010E9440124CE15CE0BC01CE010E9453
:1043100040125C010D2D10E023E082E1809FF0014E
:10432000819FF00D1124EB5AFC4F81892D1510F05F
:10433000E9D801C0F9D8282F30E0232B19F469E11E
:104340007CE002C065E17CE08CEE94E00E94523B90
:104350004CEE54E0B501CE010E9461124FEE5BE0DD
:10436000BC01CE010E9440125C016D2D70E080E026
:1043700090E04CEE54E0C5DA4CEE54E0B501CE01CD
:104380000E9461124BEC5BE0BC01CE010E94401226
:104390006C016091D3047091D4048091D504909104
:1043A000D6044CEE54E0ADDA4CEE54E0B601CE014A
:1043B0000E94611249EC5BE0BC01CE010E944012F8
:1043C0004C0122E1209FC001219F900D1124FC018E
:1043D000EB5AFC4F6F01399683818F9382818F93C3
:1043E00081818F93F60181858F9383EC9BE09F936E
:1043F0008F938CEEA82E84E0B82EBF92AF920E94CD
:10440000693C92ECE92E9BE0F92E85012EEB3BE016
:1044100048EB5BE0B401CE0104DD4C01F6013D96B2
:1044200083818F9382818F9381818F93F60185851C
:104430008F9382EB9BE09F938F93BF92AF920E94EA
:10444000693C21EBE22E2BE0F22E2DEA3BE047EA1D
:104450005BE0B401CE01E5DC4FE65BE0BC01CE01E0
:104460000E9440122DB73EB7205F3F4F0FB6F89421
:104470003EBF0FBE2DBF00E010E0A12CB12C9C2C44
:104480008D2CF801E256FC4F21A12F3FE1F524A528
:104490002223C9F140E65BE0BC01CE010E9440123C
:1044A0006C014AE06CEE74E0C5010E94C43B4CEE26
:1044B00054E0B601CE010E9461126C0148E050E068
:1044C000692D782DC8018E559C4F0E94723B892B17
:1044D00039F446E55BE0B601CE010E9440126C0162
:1044E00044E55BE0B601CE010E944012A8014655AA
:1044F0005C4FBC01CE010E9461124AE45BE0BC014A
:10450000CE010E9440123FEFA31AB30A025D1F4F73
:10451000063E110509F0B5CF4FE05BE0BC01CE01CE
:10452000DF91CF911F910F91FF90EF90DF90CF908F
:10453000BF90AF909F908F900C9440126F927F929B
:104540008F929F92AF92BF92CF92DF92EF92FF92A3
:104550000F931F93CF93DF93EC01162F4EDC4DEF9B
:104560005AE0BC01CE010E94401240EE5AE0BC016C
:10457000CE010E944012C12ED12C2DE4129FF001D9
:104580001124EC57FB4F20812F3F31F447ED5AE0C7
:10459000BC01CE010E94401246EB5AE0BC01CE01A4
:1045A0000E9440122DE42C9D50012D9DB00C112431
:1045B000850109571B4F28EAE22E2AE0F22E23EA52
:1045C0003AE042EA5AE0BC01CE012BDC4C01C501C5
:1045D0008C579B4F3C01FC01E55BFF4F6081718173
:1045E00080E090E04CEE54E08CD931EAE32E3AE0E2
:1045F000F32E0CEE14E02CE93AE04FE85AE0B40157
:10460000CE010FDC85010F551B4F4EE6E42E4AE02C
:10461000F42E29E63AE04CE55AE0BC01CE0101DC7B
:104620005BEBA52E51E0B52E00E010E0EFEF6E1A27
:104630007E0A4DE45AE0BC01CE010E9440124C01BA
:104640004AE06CEE74E0C8010E94C43B4CEE54E0BA
:10465000B401CE010E946112F30140815181F50144
:10466000228133814217530731F443E45AE0BC01FD
:10467000CE010E94401241E45AE0BC01CE010E94EA
:104680004012F50140815181BC01CE010E946112AE
:1046900047E35AE0BC01CE010E9440120F5F1F4F5A
:1046A000F4E0AF0EB11C0530110519F64AE05AE0EE
:1046B000BC01CE010E9440128C014AE06CEE74E015
:1046C000C6010E94C43B4CEE54E0B801CE010E94EA
:1046D000611243ED59E0BC01CE010E9440128C01F1
:1046E0006091D3047091D4048091D5049091D60444
:1046F0004CEE54E006D94CEE54E0B801CE010E94D5
:1047000061124AEC59E0BC01CE01DF91CF911F91BB
:104710000F91FF90EF90DF90CF90BF90AF909F9060
:104720008F907F906F900C944012CF93DF93EC01A9
:1047300064DBBC01CE0171DB40E659E0BC01CE0177
:10474000DF91CF910C9440120F931F93CF93DF937F
:10475000EC01162F52DBBC01CE015FDBBC01111155
:104760001BC045ED58E0CE010E9440128C016091C3
:10477000D3047091D4048091D5049091D6044CEE6A
:1047800054E0BFD84CEE54E0B801CE010E94611253
:104790004BEC58E0BC0102C042EC58E0CE01DF9186
:1047A000CF911F910F910C944012CF93DF93EC01A6
:1047B00024DBBC01CE0131DB42EA58E0BC01CE0172
:1047C000DF91CF910C9440120F931F93CF93DF93FF
:1047D000EC0113DB4CE758E0BC01CE010E94401213
:1047E0008C016091D3047091D4048091D504909190
:1047F000D6044CEE54E085D84CEE54E0B801CE011E
:104800000E94611240E758E0BC01CE01DF91CF91D8
:104810001F910F910C9440126F927F928F929F92F2
:10482000BF92CF92DF92EF92FF920F931F93CF939D
:10483000DF93EC01B62E142FE0DABC01CE01EDDAE5
:1048400049E658E0BC01CE010E944012113031F41B
:104850004BE158E0BC01CE010E94401249E058E013
:10486000BC01CE010E94401241E058E0BC01CE01E3
:104870000E9440126C018B2C912C2EE2B29E800182
:10488000112402561C4FF80183851F928F93828555
:104890001F928F9381851F928F9380851F928F9394
:1048A00087811F928F9386811F928F9385811F929C
:1048B0008F9384811F928F9320EE37E03F932F9345
:1048C0002CEE34E03F932F930E94693C4CEE54E071
:1048D000B601CE010E9461124BEB57E0BC01CE0144
:1048E0000E9440122DB73EB72C5E3F4F0FB6F89492
:1048F0003EBF0FBE2DBFF80121A12F3F31F442EB87
:1049000057E0BC01CE010E9440122EE2289D6001BA
:10491000299DD00C1124860106551C4F24EAE22E55
:1049200027E0F22E21EA37E04EE757E0BC01CE0146
:1049300078DA3C01960122563C4F6901F9017D96D7
:1049400083818F9382818F9381818F93F901858DEC
:104950008F9388E797E09F938F938CEE94E09F93DB
:104960008F930E94693C32E6E32E37E0F32E0CEE83
:1049700014E02FE537E040E557E0B301CE0151DA0E
:104980003C0107E115E02CEE34E040E050E0BA01D4
:104990008B2D7CDA4CEE54E0B301CE010E94611203
:1049A000A801BC01CE010E9461124DE357E0BC0199
:1049B000CE010E9440123C01F601458D568D678D57
:1049C00070A12CEE34E08B2D61DA4CEE54E0B30193
:1049D000CE010E946112A801BC01CE010E946112A9
:1049E0004AE157E0BC01CE010E9440128C014AE02E
:1049F0006CEE74E0C4010E94C43B4CEE54E0B8017C
:104A0000CE010E94611246EF56E0BC01CE010E9429
:104A100040128C016091D3047091D4048091D5042C
:104A20009091D6044CEE54E00E94811C4CEE54E070
:104A3000B801CE010E9461122DB73EB7285F3F4FEB
:104A40000FB6F8943EBF0FBE2DBF46EC56E0BC013A
:104A5000CE01DF91CF911F910F91FF90EF90DF90EA
:104A6000CF90BF909F908F907F906F900C9440124A
:104A7000CF92DF92EF92FF920F931F93CF93DF932A
:104A8000EC016B017A0189016091D3047091D40427
:104A90008091D5049091D6044CEE54E00E94811C84
:104AA0004CEB56E0B601CE010E944012A701BC01BA
:104AB000CE010E94401247EB56E0BC01CE010E949D
:104AC00040124CEE54E0BC01CE010E9461124BEA50
:104AD00056E0BC01CE010E944012A801BC01CE01EB
:104AE0000E94401242EA56E0BC01CE01DF91CF9114
:104AF0001F910F91FF90EF90DF90CF900C94401298
:104B00000F931F93CF93DF93EC0177D9BC01CE01B4
:104B100084D98C016091D3047091D4048091D50420
:104B20009091D6044CEE54E00E94811C2BE936E0B3
:104B300047E956E0B801CE019BDF2EE836E04AE8AF
:104B400056E0BC01CE0194DF21E836E04BE756E0A9
:104B5000BC01CE018DDF23E736E048E656E0BC011C
:104B6000CE0186DF20E636E045E556E0BC01CE0109
:104B70007FDF2DE436E042E456E0BC01CE0178DF71
:104B80002AE336E04FE256E0BC01CE0171DF28E2B5
:104B900036E043E256E0BC01CE016ADF2EE136E0AA
:104BA0004AE156E0BC01CE01DF91CF911F910F91F8
:104BB0005FCFCF92DF92EF92FF920F931F93CF932D
:104BC000DF93EC011AD9BC01CE0127D941EF55E0A2
:104BD000BC01CE010E94401200E010E0E12CF12C5B
:104BE000F801E256FC4F24A5222309F43FC04FED03
:104BF00055E0BC01CE010E9440126C014AE06CEE0F
:104C000074E0C7010E94C43B4CEE54E0B601CE01F3
:104C10000E94611249ED55E0BC01CE010E94401294
:104C20006C016091D3047091D4048091D50490916B
:104C3000D6044CEE54E00E94811C4CEE54E0B601C8
:104C4000CE010E9461124DEC55E0BC01CE010E94E4
:104C50004012A80146555C4FBC01CE010E94611272
:104C600044EC55E0BC01CE010E9440122FEFE21A45
:104C7000F20A025D1F4F063E110509F0B1CFDF9128
:104C8000CF911F910F91FF90EF90DF90CF900895FB
:104C90002F923F924F925F926F927F928F929F924C
:104CA000AF92BF92CF92DF92EF92FF920F931F933A
:104CB000CF93DF9300D000D0CDB7DEB71C019DD8D5
:104CC000BC01C101AAD848E455E0BC01C1010E9461
:104CD0004012BC018BECE82E83E0F82ED12CF701BA
:104CE0003C9780818F3F09F055C03B968081882397
:104CF00009F450C0F7018081882331F044E455E085
:104D0000C1010E944012BC01870101521109A80192
:104D1000C1010E9461125C01F80101900020E9F7D5
:104D200031979F01201B310B89010F30110550F481
:104D300042E455E0B501C1010E9440125C010F5FE1
:104D40001F4FF3CFF70170974081518162817381CA
:104D500007E115E02CEE34E08D2D98D84CEE54E0B0
:104D6000B501C1010E946112A801BC01C1010E94EC
:104D70006112F7012081222331F04DE355E0BC019F
:104D8000C1010E9440124AE355E0BC01C1010E94EA
:104D90004012BC01D394FEE2EF0EF11C25E0D212CA
:104DA0009ECF4BEF54E0C1010E94401242EF54E00D
:104DB000BC01C1010E9440128C01609150037091AE
:104DC0005103809152039091530324E630E040E078
:104DD00050E00E94D839CA01B9010E945D380E9492
:104DE0009A380E9431386B017C0120E831E541E0BE
:104DF00050E00E94D839CA01B9010E945D380E9472
:104E00009A380E9431382B013C019B01AC0160E8CB
:104E100071E581E090E00E94C939C61AD70AE80A14
:104E2000F90AC701B60120E13EE040E050E00E94EF
:104E3000D839CA01B9010E945D380E949A380E948F
:104E400031384B015C01A0E1BEE09B01AC010E9446
:104E5000093AA7019601261B370B480B590B2983EA
:104E60003A834B835C83CA01B9012CE330E040E014
:104E700050E00E94D839CA01B9010E945D380E94F1
:104E80009A380E9431386B017C01ACE3B0E09B01A1
:104E9000AC010E94093A29813A814B815C81261B31
:104EA000370B480B590B29833A834B835C834CEEB9
:104EB00054E0C301B2010E94811C4CEE54E0B801E1
:104EC000C1010E9461124BEE54E0BC01C1010E947D
:104ED00040128C014CEE54E0C501B4010E94811CCB
:104EE0004CEE54E0B801C1010E94611249EE54E059
:104EF000BC01C1010E9440128C014CEE54E0C7017C
:104F0000B6010E94811C4CEE54E0B801C1010E9420
:104F1000611247EE54E0BC01C1010E9440128C01B5
:104F20004CEE54E069817A818B819C810E94811CC6
:104F30004CEE54E0B801C1010E94611248ED54E00A
:104F4000BC01C1010F900F900F900F90DF91CF9196
:104F50001F910F91FF90EF90DF90CF90BF90AF9097
:104F60009F908F907F906F905F904F903F902F9089
:104F70000C9440127F928F929F92AF92BF92CF92E9
:104F8000DF92EF92FF920F931F93CF93DF9362E331
:104F900075E080E091E00E94D00F8C011092EE0746
:104FA000809111088F3F31F4B80182E395E00E94AF
:104FB000400B8C010E94820FB80182E395E00E94B1
:104FC000471690933C0280933B02892BC9F4809151
:104FD0002E0281110AC045E05AE161E089E098E0C3
:104FE0000E94281581E080932E020E9421158111D4
:104FF00007C080912E02813019F482E080932E0246
:1050000080914203882321F08091410381111DC0CA
:1050100080914203811119C0809184048F3F11F463
:105020000C944E3080910D0190910E01A0910F01D2
:10503000B09110018093480390934903A0934A03D1
:10504000B0934B0381E080934203C0913B02D09127
:105050003C02209709F02AC1B80182E395E00E9442
:10506000210D80914905813111F00C94B731809167
:105070005605853011F00C94B73180915705843A6C
:1050800011F00C94B73144E050E060E974E08CE535
:1050900095E00E94593B44E050E0892B09F065C03F
:1050A0006BE874E08DE392E00E94493B809109082F
:1050B00090910A08A0910B08B0910C0880934102CE
:1050C00090934202A0934302B0934402809105085A
:1050D00090910608A0910708B091080880934502B6
:1050E00090934602A0934702B09348028091010832
:1050F00090910208A0910308B0910408809349029E
:1051000090934A02A0934B02B0934C0286E0EBEFDF
:10511000F7E0ADE4B2E001900D928A95E1F780915D
:105120000D0890910E08A0910F08B091100880937F
:10513000530290935402A0935502B09356022CEF61
:1051400030E24AE16DE372E082E395E0DF91CF91D6
:105150001F910F91FF90EF90DF90CF90BF90AF9095
:105160009F908F907F900C94BA1366E874E08CE562
:1051700095E00E94593B892B09F067C046E050E05A
:105180006BEF77E08CE695E00E94723BEC01892B97
:1051900011F00C94B73144E050E061E874E08DE325
:1051A00092E00E94493B2CEF30E244E06DE372E074
:1051B00082E395E00E94BA138091600590916105A9
:1051C000A0916205B09163058093090890930A0845
:1051D000A0930B08B0930C0880916405909165052D
:1051E000A0916605B0916705809305089093060825
:1051F000A0930708B093080880916805909169050D
:10520000A0916A05B0916B05809301089093020804
:10521000A0930308B09304088091720590917305E0
:10522000A0917405B091750580930D0890930E08B8
:10523000A0930F08B09310084DE150E060E070E0DB
:1052400085EF97E00E94A63E1CC044E050E06CE76A
:1052500074E08CE595E00E94593B892B11F00C9489
:10526000B73146E050E06BEF77E08CE695E00E94C6
:10527000723BEC01892B11F00C94B73181E00E9454
:10528000063295B7916095BF95B79D7F95BFFE019A
:10529000DF91CF911F910F91FF90EF90DF90CF9012
:1052A000BF90AF909F908F907F900994CE5CDA4F23
:1052B00045E050E066E774E0CE010E94593B892B3F
:1052C00011F00C94B731D0933105C09330054BE207
:1052D00051E061E371E0CE010E94221DBC0180918A
:1052E0003005909131050E948A3BC0913005D091E4
:1052F00031058881811104C082E395E0C9DCC9C60B
:1053000042E050E063E774E0CE010E94593B892BF4
:10531000E9F547E351E069E371E0CE010E94221D07
:10532000BC018DE392E00E948A3BEDE3F2E0019044
:105330000020E9F73197ED53F240349718F16BED07
:1053400074E08DE392E00E94AA3B892BD9F0209172
:1053500050033091510340915203509153036DE635
:105360007DED81E090E00E94C9396093D304709391
:10537000D4048093D5049093D60482E395E00E94F0
:10538000E91F87C682E395E0D0D983C644E050E0A8
:105390006EE674E0CE010E94593B892B51F044E047
:1053A00050E069E674E0CE010E94593B892B09F078
:1053B00081C144E050E064E674E0CE010E94593BB4
:1053C000892B11F41092430340E354E060E070E055
:1053D00082E395E00E94401290933C0280933B024E
:1053E00041E254E0BC0182E395E00E9440129093B8
:1053F0003C0280933B0280E090E0C12CFC01E2562D
:10540000FC4F21A12F3F19F424A52111C3948E969E
:10541000863E910599F7CBECD3E0EE24E394F12C92
:1054200046EFA42E43E0B42E5CEE852E54E0952E7C
:10543000D12C77247A947E0CFE013C9780818F3F9B
:1054400009F0E9C03B968081882309F4E4C06091AB
:105450003B0270913C0248E154E082E395E00E94F7
:10546000401290933C0280933B02FE01B2978081F0
:105470001F928F93319780811F928F9331978081F4
:105480001F928F93319780811F928F9331978081E4
:105490001F928F93319780811F928F9331978081D4
:1054A0001F928F93319780811F928F93BF92AF92FB
:1054B0009F928F920E94693C60913B0270913C02E6
:1054C0004CEE54E082E395E00E94611290933C021E
:1054D00080933B024CEE53E0BC0182E395E00E94D6
:1054E000401290933C0280933B02FE0172978081B0
:1054F0004AE06CEE74E090E00E94C43B60913B0295
:1055000070913C024CEE54E082E395E00E946112FF
:1055100090933C0280933B0242EE53E0BC0182E355
:1055200095E00E944012BC0190933C0280933B02A4
:10553000AE014152510982E395E00E946112BC0123
:1055400090933C0280933B0248ED53E082E395E068
:105550000E94401290933C0280933B02FE017097A0
:10556000408151816281738107E115E02CEE34E0C6
:10557000872D0E94461F60913B0270913C024CEEC9
:1055800054E082E395E00E94611290933C02809384
:105590003B024EEC53E0BC0182E395E00E944012D6
:1055A00090933C0280933B0288814AE06CEE74E069
:1055B00090E00E94C43B60913B0270913C024CEE33
:1055C00054E082E395E00E94611290933C02809344
:1055D0003B0249EC53E0BC0182E395E00E9440129B
:1055E00090933C0280933B022DB73EB72C5E3F4F19
:1055F0000FB6F8943EBF0FBE2DBFEC14FD045CF453
:1056000045EC53E0BC0182E395E00E944012909388
:105610003C0280933B02AE963FEFE31AF30A86E02A
:10562000E816F10409F005CF60913B0270913C024D
:1056300048EB53E082E395E00E94401290933C02D5
:1056400080933B0206E613E0C0E0F80180810E94EF
:10565000821A4AE06CEE74E090E00E94C43B6091D4
:105660003B0270913C024CEE54E082E395E00E94D4
:10567000611290933C0280933B02C33059F046EB99
:1056800053E0BC0182E395E00E94401290933C02FB
:1056900080933B02CF5F0E5E1F4FC430B1F6609126
:1056A0003B0270913C0243EB53E082E395E00E94A1
:1056B0004012EFC44BE050E067EA73E0CE010E9475
:1056C000593B892B09F4E3C447E351E06DE371E0F2
:1056D000CE010E94221DBC018CEE94E00E948A3B08
:1056E0006091D3047091D4048091D5049091D60434
:1056F00047E155E00E94811C67E175E08CEE94E083
:105700000E94AA3B892B09F4C2C48091D3049091D2
:10571000D404A091D504B091D604892B8A2B8B2B6D
:1057200009F4B5C4C0913005D091310544E050E092
:1057300062EA73E0CE010E94593B892B21F482E397
:1057400095E0DED9A6C443E050E06EE973E0CE01F7
:105750000E94593B892B21F482E395E02ADA99C40F
:1057600044E050E069E973E0CE010E94593B892B87
:1057700021F482E395E019D88CC443E050E065E958
:1057800073E0CE010E94593B892BD1F547E351E0EC
:1057900062E471E0CE010E94221DBC018CEE94E017
:1057A0000E948A3B43E050E06CEE74E087E491E0B5
:1057B0000E94913BEC01892BF1F40E94FD1E909315
:1057C0003C0280933B0240E553E0BC0182E395E05C
:1057D0000E94401290933C0280933B02BC0182E302
:1057E00095E00E94131495B7916095BF95B79D7F82
:1057F00095BFFE01099582E395E00E94E42349C428
:1058000042E050E06DE473E0CE010E94593B892BE9
:10581000D1F40E94FD1E90933C0280933B0248E02D
:1058200053E0BC0182E395E00E94401290933C0259
:1058300080933B021092D3041092D4041092D504AA
:105840001092D6048AC543E050E064E073E0CE01D4
:105850000E94593B892B09F0A7C047E351E06BE454
:1058600071E0CE010E94221DBC018CEE94E00E94EA
:105870008A3B6AE070E08CEE94E00E948B1C7C0115
:1058800047E351E060E571E080913005909131058A
:105890000E94221DBC018CEE94E00E948A3B44E0F1
:1058A00050E06FEF72E08CEE94E00E94593B892B40
:1058B00009F073C047E351E064E771E0809130057F
:1058C000909131050E94221DBC018CEE94E00E9453
:1058D0008A3B42E050E06CEE74E084E591E00E9487
:1058E000913B87011127892B59F48EE2809FF001AB
:1058F000819FF00D1124E256FC4F8FEF81A309C068
:105900008EE2809FF001819FF00D1124E256FC4F42
:1059100011A247E351E067E571E080913005909175
:1059200031050E94221DBC018DE392E00E948A3B5A
:105930008DE392E00E94601D8EE2809FE001819FD6
:10594000D00D11246DE372E0CE0186559C4F0E946C
:105950008A3B47E351E06BE571E08091300590911F
:1059600031050E94221DBC018CEE94E00E948A3B0E
:105970008CEE94E00E944A3AFE01E256FC4F658F9D
:10598000768F878F90A3BE0160567E4F4EE250E027
:10599000CF010E94A63E41E001C040E06E2D82E3AF
:1059A00095E00E940C2475C342E050E06CEF72E079
:1059B000CE010E94593B892B61F547E351E06FE529
:1059C00071E0CE010E94221DBC018CEE94E00E9489
:1059D0008A3BECEEF4E001900020E9F73197EC5EB1
:1059E000F440349780F04FE050E060E570E08CEEDA
:1059F00094E00E94A63E6CEE74E08BED94E00E9471
:105A00008A3B61E001C060E082E395E00E94A4234C
:105A100040C343E050E068EF72E0CE010E94593B82
:105A2000892B09F0F5C047E351E06BE471E0CE014A
:105A30000E94221DBC018CEE94E00E948A3B6AE029
:105A400070E08CEE94E00E948B1C8C01C82F47E321
:105A500051E064E671E080913005909131050E943B
:105A6000221DBC018CEE94E00E948A3B42E050E093
:105A700065EF72E08CEE94E00E94593B892B99F41B
:105A8000C801992722E1289FF001299FF00D1124D8
:105A9000EB5AFC4F60E08189043018F40E94BF1A71
:105AA00002C00E94A61A43E050E061EF72E08CEE63
:105AB00094E00E94593B892B59F598013327C43053
:105AC000A0F448B182E1829FF001839FF00D112480
:105AD000EB5AFC4F81E090E0018802C0880F991FCB
