:10000000F5C700000C9412080C9412080C94120806
:100010000C9412080C9412080C9412080C941208F8
:100020000C9412080C941208FDC70000FBC70000D6
:10003000F9C70000F7C700000C94A71BF3C7000026
:10004000F1C70000EFC70000EDC70000EBC70000DC
:10005000E9C70000E7C70000E5C70000E3C70000EC
:10006000E1C70000DFC700000D0A436F6E74656EC4
:10007000742D547970653A206170706C6963617495
:10008000696F6E2F782D7777772D666F726D2D756E
:10009000726C656E636F6465640D0A0D0A00436FD0
:1000A0006E74656E742D4C656E6774683A20000D31
:1000B0000A557365722D4167656E743A20626F78D8
:1000C0002F312E310D0A4163636570743A202A2F57
:1000D0002A0D0A000D0A0020485454502F312E31A9
:1000E0000D0A486F73743A2000504F535420000D8E
:1000F0000A557365722D4167656E743A20626F7898
:100100002F312E310D0A4163636570743A20746596
:1001100078742F68746D6C0D0A0D0A0020485454D1
:10012000502F312E310D0A486F73743A2000474525
:100130005420000001080006040001450000820070
:1001400000400020223B3C2F5343524950543E0074
:100150003C484541443E3C534352495054206C6115
:100160006E67756167653D224A61766153637269A6
:100170007074223E746F702E6C6F636174696F6E61
:100180003D22687474703A2F2F00697000536176B5
:1001900065007069006970006F6E005465737400CB
:1001A0006C6F6731006C6F6732006C6F67310053A2
:1001B000617665004F6666004F6E0072656C007078
:1001C0006100536176650073656E003C48544D4C88
:1001D0003E3C484541443E3C534352495054206CB8
:1001E000616E67756167653D224A6176615363722E
:1001F000697074223E746F702E6C6F636174696FE6
:100200006E3D222F223B3C2F5343524950543E0017
:100210006578003C48544D4C3E3C484541443E3C8A
:10022000534352495054206C616E67756167653D58
:10023000224A617661536372697074223E746F70F2
:100240002E6C6F636174696F6E3D222F223B3C2FD1
:100250005343524950543E0072656200696E666FA6
:1002600000646576006D656E750066617669636F22
:100270006E2E69636F005D7D005D2C2252656C619E
:100280007973223A5B002C0D0A00220D0A7D0022B0
:100290002C0D0A2245223A2200222C0D0A22562237
:1002A0003A2200222C0D0A224E223A2200222C0D44
:1002B0000A2254223A220022253032582530325860
:1002C00025303258253032582530325825303258B2
:1002D0002530325825303258007B0D0A2249223A07
:1002E00020007B2253656E736F7273223A5B0D0A96
:1002F00000485454502F312E3020323030204F4B94
:100300000D0A436F6E74656E742D747970653A20B2
:100310006170706C69636174696F6E2F6A736F6E60
:100320000D0A0D0A0078736F6E0078736F6E006AA5
:10033000736F6E006C6700474554202F00522A2AC5
:100340005400534554520053455451004D494E49B1
:100350000053524348003D2573002625303258256E
:100360003032582530325825303258253032582511
:100370003032582530325825303258002530325826
:1003800025303258253032582530325825303258F1
:10039000253032580049443D003C2F626F64793E5D
:1003A0003C2F68746D6C3E003A003A00206461791D
:1003B000732000557074696D653A20003C2F6832D7
:1003C0003E3C2F7072653E3C2F74643E3C2F74722D
:1003D0003E3C2F7461626C653E3C62723E3C6272D0
:1003E0003E3C6120687265663D2F6C673E4C6F67CE
:1003F000696E3C2F613E3C62723E000D0A003C2F4C
:10040000733E0020003C733E003C7469746C653E92
:100410005765624D6574656F426F782D6D696E69C1
:100420003C2F7469746C653E3C63656E7465723E06
:100430003C68323E3C753E5765624D6574656F425F
:100440006F782D6D696E693C2F753E2026233937F4
:1004500033303B3C2F68323E3C7461626C652062F5
:100460006F726465723D303E3C74723E3C74642031
:1004700076616C69676E3D746F703E3C7072653E6C
:100480003C68323E003C2F613E3C62723E0020746C
:1004900061726765743D72663E00267369643D0053
:1004A0003C6120687265663D2F73656E3F6E756DA9
:1004B0003D003C68746D6C3E3C626F64793E3C6309
:1004C000656E7465723E53656E736F72733C2F6315
:1004D000656E7465723E3C62723E0065783F004511
:1004E000786974007265623F005265626F6F7400D4
:1004F00072656C3F6E756D3D30260052656C61799A
:10050000006C6F67323F004C6F6767657220320086
:100510006C6F67313F004C6F676765722031007008
:10052000613F0050617373776F72640069703F00C0
:100530005443502F4950003C2F613E3C62723E00B4
:10054000207461726765743D72663E007369643D34
:10055000003C6120687265663D2F003E3C62723E41
:100560003C62723E3C696E70757420747970653DB2
:100570007375626D69742076616C75653D53617643
:1005800065206E616D653D73613E003E3C696E7035
:10059000757420747970653D68696464656E206E59
:1005A000616D653D7369642076616C75653D003CE5
:1005B000696E70757420747970653D6869646465EE
:1005C0006E206E616D653D6E756D2076616C756532
:1005D0003D003C62723E43616C63756C617465649E
:1005E0003C62723E003C62723E4F66667365743CCC
:1005F00062723E006F66003C62723E4375727265C5
:100600006E742076616C75653C62723E0025322EF8
:100610003266003E456E61626C652F4469736162AB
:10062000653C62723E53656E736F72206E616D65DC
:100630003A3C62723E006E610020286D6178206C49
:10064000656E203134290020636865636B65640042
:100650003C2F623E3C62723E3C696E707574207441
:100660007970653D636865636B626F78206E616D5C
:10067000653D656E002530325825303258253032C0
:1006800058253032582530325825303258253032EE
:1006900058253032580049443A203C623E003C66BE
:1006A0006F726D206D6574686F643D6765743E00A0
:1006B0003C534352495054206C616E6775616765C5
:1006C0003D224A617661536372697074223E7061A3
:1006D00072656E742E6672616D65735B276C66273A
:1006E0005D2E6C6F636174696F6E2E72656C6F61E5
:1006F0006428293B3C2F5343524950543E003C62EE
:100700006F64793E003E5265626F6F743C2F613EAC
:10071000003C63656E7465723E3C62723E3C627280
:100720003E3C6120687265663D2F7265623F796567
:1007300073267369643D0046573A20312E312E39B5
:100740002E31202832332E30392E32303136293CAA
:100750002F68746D6C3E004368616E6765642100AC
:10076000223E3C2F666F726D3E006E657720706191
:100770007373776F72643A3C666F726D3E3C696E5C
:1007800070757420747970653D74657874206E613D
:100790006D653D6E6577206D61786C656E67746818
:1007A0003D31343E3C62723E3C696E70757420741B
:1007B0007970653D7375626D69742076616C7565DD
:1007C0003D4368616E6765206E616D653D6368617C
:1007D0003E3C696E70757420747970653D6869641B
:1007E00064656E206E616D653D7369642076616C31
:1007F00075653D22003C63656E7465723E3C6272B5
:100800003E50617373776F72643C666F726D3E3CED
:10081000696E70757420747970653D70617373775B
:100820006F7264206E616D653D70613E3C62723E28
:100830003C696E70757420747970653D7375626D76
:1008400069742076616C75653D4C6F67696E206ECA
:10085000616D653D696E3E3C2F666F726D3E3C2F4B
:1008600068746D6C3E003E3C2F666F726D3E3C2F8F
:1008700068746D6C3E00222076616C75653D225374
:100880006176652654657374223E3C696E7075749A
:1008900020747970653D68696464656E206E616D71
:1008A000653D7369642076616C75653D003C2F532E
:1008B000454C4543543E3C62723E3C62723E3C694C
:1008C0006E70757420747970653D7375626D6974AE
:1008D000206E616D653D226C73003C2F6F707469F2
:1008E0006F6E3E003E002073656C65637465640046
:1008F0003C6F7074696F6E2076616C75653D003C6D
:1009000062723E506174683C62723E00706174684D
:10091000003C62723E696E74657276616C3C627214
:100920003E3C53454C454354206E616D653D7370AC
:100930003E003C62723E506F72743C62723E0070C8
:100940006F7274000000686F73740020286D617806
:10095000206C656E20323529003E456E61626C6503
:100960002F44697361626C653C62723E486F7374B8
:10097000206E616D653C62723E0020636865636B4A
:100980006564003C696E70757420747970653D63B0
:100990006865636B626F78206E616D653D656E00A2
:1009A0003C666F726D206D6574686F643D67657439
:1009B0003E003C2F73656C6563743E3C703E3C6941
:1009C0006E70757420747970653D7375626D6974AD
:1009D000206E616D653D736E642076616C75653D5A
:1009E000536176653E3C2F666F726D3E003C2F6F03
:1009F0007074696F6E3E003E002073656C656374B1
:100A00006564003C6F7074696F6E2076616C75650B
:100A10003D003C703E3C73656C656374206E616D97
:100A2000653D73656E3E3C6F7074696F6E207661D4
:100A30006C75653D3130303E4E6F74207573656462
:100A40003C2F6F7074696F6E3E000D4D41583A0037
:100A50006D6178000025322E3266003E0D4D494E04
:100A60003A006D696E000025322E3266003E3C6908
:100A70006E70757420747970653D68696464656E24
:100A8000206E616D653D7369642076616C75653DAE
:100A9000003C703E3C696E70757420747970653DE1
:100AA00068696464656E206E616D653D6E756D206C
:100AB00076616C75653D004F4646004F4E00202024
:100AC000203C696E70757420747970653D73756231
:100AD0006D6974206E616D653D736E642076616C26
:100AE00075653D4F6666207374796C653D22776944
:100AF0006474683A363570783B6865696768743A3B
:100B0000363570783B223E20003C696E707574204B
:100B1000747970653D7375626D6974206E616D6581
:100B20003D736E642076616C75653D4F6E20737405
:100B3000796C653D2277696474683A363570783B24
:100B40006865696768743A363570783B223E003CC8
:100B50007072653E3C666F726D206D6574686F647F
:100B60003D6765743E00223E3C696E70757420746A
:100B70007970653D7375626D6974206E616D653D58
:100B80006163742076616C75653D225361766520E2
:100B900026205265626F6F74223E3C2F666F726D25
:100BA0003E3C2F68746D6C3E003E444843503C62AE
:100BB000723E3C696E70757420747970653D686929
:100BC0006464656E206E616D653D73696420766155
:100BD0006C75653D220020636865636B6564003C4D
:100BE00062723E3C696E70757420747970653D6305
:100BF0006865636B626F78206E616D653D64680047
:100C0000006400000067003C62723E444E532020A6
:100C1000000073003C62723E475720202000006DA8
:100C2000003C62723E4D41534B2000253032783AF1
:100C3000253032783A253032783A253032783A25E4
:100C40003032783A2530327800495020202000692F
:100C5000003C62723E4D41432020003C7072653E74
:100C60003C666F726D206D6574686F643D67657476
:100C70003E0025642E25642E25642E2564003C2F1D
:100C80006672616D657365743E3C2F68746D6C3E71
:100C900000206E616D653D72663E003C2F6672619C
:100CA0006D657365743E3C6672616D652073726339
:100CB0003D2F696E666F3F7369643D00206E616D04
:100CC000653D6C663E003C6672616D6520737263C3
:100CD0003D2F6465763F7369643D00206E616D65EC
:100CE0003D6D663E003C6672616D65207372633DCA
:100CF0002F6D656E753F7369643D003C68746D6C63
:100D00003E3C6672616D6573657420636F6C733D04
:100D1000223137302C2A223E3C6672616D65736544
:100D20007420726F77733D223236302C202A2220B5
:100D30007363726F6C6C696E673D226E6F223E004A
:100D40002566006D6D0025332E31660025002532A5
:100D50002E316600266465673B430025322E3266DD
:100D600000223E002076616C75653D22003C696E74
:100D700070757420747970653D74657874206E6147
:100D80006D653D003C68746D6C3E3C686561643E19
:100D90003C6D65746120636861727365743D227790
:100DA000696E646F77732D31323531222F3E3C2FBF
:100DB000686561643E3C626F64793E0048545450FB
:100DC0002F312E3020343034204E6F7420466F7512
:100DD0006E640D0A436F6E74656E742D5479706580
:100DE0003A20746578742F68746D6C0D0A0D0A458D
:100DF000727200485454502F312E3020323030203F
:100E00004F4B0D0A436F6E74656E742D5479706587
:100E10003A20746578742F68746D6C0D0A50726195
:100E2000676D613A206E6F2D63616368650D0A0D11
:100E30000A003030004E6F206E616D650082828244
:100E4000820000004F586D0205C0A801DEFFFFFFC1
:100E500000C0A80101C0A8010100008282828200B6
:100E600000004F586D0205C0A801DEFFFFFF00C063
:100E7000A80101C0A8010100002F7363726970749A
:100E80002F6164642E706870007765626D657465AB
:100E90006F626F782E7275002F706F73742E70688A
:100EA00070006E61726F646D6F6E2E7275006E6190
:100EB0006E00696E660000407A10F35A00A0724E10
:100EC00018090010A5D4E80000E87648170000E4EF
:100ED0000B54020000CA9A3B000000E1F505000037
:100EE00080969800000040420F000000A08601009C
:100EF0000000102700000000E8030000000064006C
:100F0000000000000A0000000000010000000000D6
:100F10002C76D888DC674F0823DFC1DFAE59E1B1FA
:100F2000B796E5E3E453C63AE651997696E8E6C209
:100F30008426EB898C9B62ED407C6FFCEFBC9C9F10
:100F400040F2BAA56FA5F490055A2AF75C936B6C32
:100F5000F9676DC11BFCE0E40D47FEF520E6B50026
:100F6000D0ED902E0300943577050080841E080094
:100F700000204E0A000000C80C333333330F986E44
:100F800012831141EF8D2114893BE65516CFFEE601
:100F9000DB18D1844B381BF77C1D901DA4BBE424C7
:100FA000203284725E228100C9F124ECA1E53D2744
:100FB0004E414E494E495459494E46CDCCCC3D0A3E
:100FC000D7233C17B7D13877CC2B329595E6241F21
:100FD000B14F0A000020410000C84200401C4620DA
:100FE000BCBE4CCA1B0E5AAEC59D740011241FBE58
:100FF000CFEFD8E0DEBFCDBF11E0A0E0B1E0E2E48A
:10100000FEE702C005900D92A43DB107D9F728E094
:10101000A4EDB1E001C01D92A136B207E1F787D57A
:101020000C941F3F0C9400008091E8018F5F809327
:10103000E8010895DF92EF92FF920F931F93CF93F1
:10104000DF9300D000D000D0CDB7DEB77C01D62E24
:1010500086E0E9E1F1E0DE01119601900D928A95BA
:10106000E1F78E010F5F1F4F23E430E0A80164E435
:1010700070E0C7010E944714F701128E138E148E80
:10108000158E81E082A783A796E094A715A686A770
:10109000D7A6D0AAD1AAF296D701AA5BBF4F1192C8
:1010A000EA17FB07E1F79701245B3F4FCD0180541E
:1010B0009109FC0180818D93A217B307B9F7C7018D
:1010C0008A5E9E4FF90111929F01E817F907D1F747
:1010D00083E68083F701E95EFE4F92E890833196C4
:1010E00093E590833196808326960FB6F894DEBF01
:1010F0000FBECDBFDF91CF911F910F91FF90EF9069
:10110000DF900895CF93DF93EC0194DFFE01E65E5C
:10111000FE4F85E38083319681E080833196808322
:10112000319697E39083319692E090833196808355
:10113000319683E0808331968FEF808331961082E1
:1011400068EF70E0CE010E94B31480E0DF91CF9190
:1011500008956D3121E0720700F12AE131E0A90123
:101160004E5F5F4F46175707C0F4FC01E20FF31FB5
:10117000A181AA2391F02A0F311DD90111966A1776
:101180007B0758F0E081E53329F4FC01E40FF51FFB
:10119000808108952E5F3F4FE2CF80E00895FC01EB
:1011A0006F3F710591F088F082AD882379F082ADB0
:1011B00093ADA4ADB5AD8093E4019093E501A09308
:1011C000E601B093E70181E0089580E00895FC0115
:1011D0006F3F710569F060F083A1833449F482A503
:1011E000823031F497A5941303C081E020A929131C
:1011F00080E00895FC016F3F710529F020F081E047
:1012000096A5923009F080E008954F925F927F9208
:101210008F929F92AF92BF92CF92DF92EF92FF9206
:101220000F931F93CF93DF938B016D31714008F4BF
:10123000C8C0E091D401F091D5017090D70140E091
:1012400050E0BA01AAE14A2E5524539420EE31E031
:10125000B4E0AB2EA20E28ED31E0C4E0BC2EB20EFD
:101260002CED31E0D4E08D2E820E92012E5F3F4FA7
:101270002017310750F46201AFEFCA1ADA0AEC0105
:10128000CC0DDD1DD881D11108C0F093D501E093BC
:10129000D4017092D70181E095C0ED2EF12CCE0CD7
:1012A000DF1C0C151D0588F36C01C40CD51CD60180
:1012B000CC91C33019F128F4CC2369F0C13069F026
:1012C0007AC0C53309F45AC0C63309F45CC0C333CD
:1012D00009F071C024C028016EC0D43009F06BC081
:1012E0006C01C20ED31E2CED31E0D6019D906D0134
:1012F000D9019D929D018A12F8CF5DC0D43009F0CA
:101300005AC06C01C20ED31E20EE31E0D6019D9072
:101310006D01D9019D929D01AA12F8CF4CC0D43025
:1013200009F041C020E030E0762F652F542F44278C
:10133000F601E20FF31FE2814E2B2F5F3F4F243067
:10134000310591F74F3FBFEF5B076B077B0771F1EB
:1013500026E076956795579547952A95D1F74E3FA4
:10136000CFEF5C076105710520F5FA0145305105A5
:101370006105710500F5E5E0F0E01DC0EC01C20F6C
:10138000D31F788018C0D430B1F46C01C20ED31EC4
:1013900028ED31E0D6019D906D01D9019D929D010E
:1013A000BA12F8CF08C0E0EAF5E005C0EFEFFFEFB2
:1013B00002C0EDEFFFEFB2E0EB0EF11C4E0C5F1C34
:1013C00054CF80E0DF91CF911F910F91FF90EF906C
:1013D000DF90CF90BF90AF909F908F907F905F9065
:1013E0004F900895CF93DF93EC0124DEFE01E65E7B
:1013F000FE4F85E38083319681E08083319683E0E0
:1014000080838091D8018823A9F086E33196808378
:1014100084E0319680838091D8019091D901A09188
:10142000DA01B091DB01319680839183A283B3838B
:1014300069E001C063E08091E4018823C9F0CE0136
:10144000860F911DFC01E65EFE4F22E3208331965C
:1014500024E0208331968091E4019091E501A091F0
:10146000E601B091E70180839183A283B3836A5F31
:1014700070E0CE01860F971FFC01E65EFE4F27E36A
:101480002083319622E02083319621E0208331961B
:1014900023E0208331962FEF2083319610826B500A
:1014A0007F4FCE010E94B31480E0DF91CF91089569
:1014B0000F931F93CF93DF93EC018A01BBDD82E092
:1014C0008EA7F80180819181A281B3818A8F9B8F41
:1014D000AC8FBD8F80819181A281B3818EAB9FAB98
:1014E000A8AFB9AFFE01E65EFE4F85E3808331967B
:1014F00081E08083319683E0808363EF70E0CE01EA
:101500000E94B31480E0DF91CF911F910F91089555
:10151000CF92DF92EF92FF920F931F93CF93DF93BF
:101520001F92CDB7DEB78C017B01498308D5D82E39
:101530004981882309F468C0E114F104A9F5809178
:101540000001909101018230910581F481E090E0E9
:1015500090930101809300011092E8014093D6011D
:10156000E2D46091D601C801CDDD4DC0D090E40138
:10157000D11011C02091E801263068F08091D60189
:101580008F5F8093D6011092E801CDD46091D6018F
:10159000C801B8DD39C083309105A8F10197909357
:1015A0000101809300012FC0C090D6014C2DB701DE
:1015B000C8010DDED82E882339F1B701C8011ADE23
:1015C000813009F1B701C801C4DD823081F481E0C6
:1015D00090E09093010180930001B701C801DFDD25
:1015E000B701C80112DE6C2DC801FCDE0CC08530CD
:1015F00051F481E090E0909301018093000199D42F
:10160000DD24D39401C0D12C8D2D0F90DF91CF918B
:101610001F910F91FF90EF90DF90CF9008950F935F
:101620001F93009769F00091E4011091E50120916A
:10163000E6013091E701FC010083118322833383AB
:101640006115710569F08091DC019091DD01A09137
:10165000DE01B091DF01FB0180839183A283B3831C
:101660004115510569F08091E0019091E101A0914F
:10167000E201B091E301FA0180839183A283B383F5
:101680001F910F9108950F931F93CF93DF938C01B8
:10169000EB018091E801893088F01092E801809197
:1016A000D4019091D5019C01225031092D3F3F4F2B
:1016B00028F401979093D5018093D4012097C9F421
:1016C0008091D4019091D501039738F538D48823BF
:1016D00021F16091D6016F5F6093D60144EE51E035
:1016E000C801E6DE85E090E09093D5018093D401B7
:1016F00014C04091D601BE01C80169DD882381F084
:10170000BE01C80126DD853041F4BE01C80172DD8D
:10171000882319F0BE01C80178DD80E090E001C0A7
:10172000CE01DF91CF911F910F91089599B121E0E2
:1017300030E002C0220F331F8A95E2F7892F90E034
:101740002823392381E0121613060CF080E0089557
:101750000F931F93CF93DF93182F0FB7F8949AB17D
:10176000C1E0D0E001C0CC0F8A95EAF79C2B9AB972
:101770002BB1DC2FD0952D232BB981E090E00E9476
:101780006A338BB1C82BCBB98AE68A95F1F700C0D2
:101790009AB19D239AB98AE68A95F1F700C0812F04
:1017A000C5DF0FBFDF91CF911F910F910895AF92C9
:1017B000BF92DF92EF92FF920F931F93CF93DF932D
:1017C000082FDFB6F894C7E0D0E010E0AA24A39475
:1017D000B12C92E1E92E97E2F92E802FA7DF81113B
:1017E00006C0A89521E0E21AF108B9F71EC080E50D
:1017F0008A95F1F7802F9ADF813039F4C5010C2EDC
:1018000001C0880F0A94EAF7182B82E1E82E87E2DC
:10181000F82E802F8BDF813031F4A89581E0E81A13
:10182000F108B9F702C02197A0F6DFBE812FDF9142
:10183000CF911F910F91FF90EF90DF90BF90AF90ED
:101840000895EF92FF920F931F93CF93DF9300D0F1
:1018500000D01F92CDB7DEB7F82E10920201F89497
:1018600077DF80930201813009F451C085E88A95C1
:10187000F1F7000008E410E08F2D58DF811108C057
:101880000150110929F0E2E0EA95F1F700C0F4CF28
:101890008F2D4CDF811102C082E01DC0F5EDFA955D
:1018A000F1F700008E010F5F1F4F75E0E72EE00E8D
:1018B0008F2D7DDFF80181938F01EE12F9CF8981A1
:1018C0004A812B813C81942F980F920F930F5D8159
:1018D000591721F087E38093020119C090E0982FF7
:1018E0008827840F911D9093EA018093E901822F4C
:1018F0008F7790E0982F8827830F911D27FF03C0D3
:101900009195819591099093EC018093EB017894E6
:101910000F900F900F900F900F90DF91CF911F912C
:101920000F91FF90EF9008958091F2010895EEEEEF
:10193000F1E024E02E0F3191DC013D93CD012E1317
:10194000FACF0895EF92FF920F931F93CF93DF93F7
:10195000EC01F62EE72E8A011092F201F0D28111ED
:1019600005C084E08093ED0181E067C01092ED0135
:101970008091F3018F5F8093F30190E0BC01706E62
:1019800025E330E04AE558E0CE0181D78091F301AC
:101990008BA781E08CA7FE01BD96CE01C696119261
:1019A000E817F907E1F781E08FA7EF2DFE2D9CE006
:1019B0004DE04F19642F6E0F5081262F30E05523D4
:1019C00091F05E3241F4DE01A90FB11D81509A966B
:1019D0008C93962F80E05191DE01A20FB31F9A964F
:1019E0005C938F5FE7CFFE01E90FF11D815082A765
:1019F000FE01E20FF31F12A681E0860FFE01E80F41
:101A0000F11D12A682E0860FFE01E80FF11D81E0B4
:101A100082A793E0960FFE01E90FF11D12A694E054
:101A2000960FFE01E90FF11D82A789EF860F8AA7A5
:101A30006B5F70E0CE0197D780E0DF91CF911F916F
:101A40000F91FF90EF900895CF93DF93FC016634E0
:101A5000710508F468C083A1853309F064C084A1CE
:101A6000803E09F060C085A19091F30189135BC0AD
:101A700093A5981358C085A58F78803811F081E020
:101A800038C022A5245F61537109DF01A20FB11D87
:101A90009A968C91807C11F02E5F0EC0822F90E080
:101AA0008617970748F42F5FDF01A20FB11D9A96A2
:101AB0008C918111F3CF2F5FDF01A20FB11D9B9697
:101AC0008C919B97813081F088E0820FDF01A80F15
:101AD000B11D9B968C91265F280F822F90E0861770
:101AE000970798F283E005C0D3969C91943021F03B
:101AF00082E08093ED0117C0265FCEEED1E040E09A
:101B000050E030E0DA01A20FB31FAE0FBF1F9A966C
:101B10009C9199934F5F5F4F4430510599F791E045
:101B20009093F20101C080E0DF91CF91089510926F
:101B3000400210923F02F8949FE088E10FB6F894BB
:101B4000A895809360000FBE909360000E9437328A
:101B5000189903C080E00E9459328AEF90E00E94F9
:101B60006A33A8950E944133109298031092C603DD
:101B70001092F40310922204109250044FE050E0AF
:101B800060E570E086EF94E00E94CF3E2091530420
:101B900030915404A4E6B0E00E945C3A60931101D5
:101BA0007093120180931301909314012091A0046B
:101BB0003091A1040E945C3A60930D0170930E0174
:101BC00080930F019093100180E40E94811980E8B6
:101BD0000E9481194DE455E066E080E40E94001BFC
:101BE0004DE455E067E080E80E94001B8FEE92E034
:101BF0000E946A330E941E32789480915E088F3F63
:101C000091F588E498E01DD36DE475E08EEE92E0E6
:101C1000D8D110923B0840914D08BC018DE495E06D
:101C200077DCC82F81E00E94E91ACC2369F346E5EE
:101C300058E062E578E08EE498E0F1DC80915608A7
:101C400090915708A0915808B091590880935A086C
:101C500090935B08A0935C08B0935D0862E578E020
:101C60008EE498E0F9D26EE478E088E498E0A3D5B9
:101C700080E590E0B1D563D1811102C00E941E328F
:101C8000A8950E94AF270E94121EF5CF2A98962F82
:101C90009F71892B8EBD0DB407FEFDCF1EBC0DB408
:101CA00007FEFDCF67FD03C02A9A8EB508951EBCBE
:101CB0000DB407FEFDCFF8CF2A986F71862B8EBD2D
:101CC0000DB407FEFDCF4EBD0DB407FEFDCF2A9A21
:101CD0000895FB012A982AE32EBD0DB407FEFDCF1F
:101CE0008E0F9F1FE817F90739F01EBC0DB407FED1
:101CF000FDCF2EB52193F6CF10822A9A08952A9807
:101D00002AE72EBD0DB407FEFDCF860F971F68177B
:101D1000790741F0FB012191BF012EBD0DB407FEF3
:101D2000FDCFF5CF2A9A08951F93CF93DF93182FF5
:101D30001076C12FD0E02091F60130E0C217D30712
:101D400079F043E06FE180EAB7DFAE0185E05595B9
:101D500047958A95E1F76FE180E8AEDF1093F601D1
:101D6000DF91CF911F910895CF93DF931F92CDB74D
:101D7000DEB7682F6983D8DF698180E00F90DF913B
:101D8000CF9184CF1F93CF93DF931F92CDB7DEB750
:101D9000182F6983C9DF4981612F80E40F90DF919B
:101DA000CF911F9189CFCF93682F84EDEBDF61E056
:101DB00082EDE8DF8AEED8DF80FDFCCF60E082EDC7
:101DC000E1DF89EDD1DFC82F88EDCEDF2C2F30E0A9
:101DD000322F2227A901482BCA01CF9108951F93C2
:101DE000CF93DF931F92CDB7DEB7162F682F84ED08
:101DF0007983C8DF612F86EDC5DF7981672F87ED95
:101E0000C1DF18E28AEEB0DF80FF04C0812F8A951F
:101E1000F1F7F8CF0F90DF91CF911F910895CF93F5
:101E2000DF93EC01229A2A9A84B1886284B92498BB
:101E30002B982D9880E58CBD8DB581608DBD4FEFC1
:101E400060E08FEF39DF80E090E00197F1F71092CA
:101E5000F5011092F40160E088E094DF60E089E031
:101E600091DF60E08CE08EDF60E08DE08BDF6FEF74
:101E70008AE088DF69E18BE085DF60E084E082DF73
:101E80006AE185E07FDF6FEF86E07CDF6FE187E06E
:101E900079DF60EB88E376DF6FE388E273DF60E38E
:101EA00089E270DF69EF80E36DDF67EF81E36ADF6E
:101EB0006DE080EC67DF60E081EC64DF42E362ECC0
:101EC00080E8FADE62E186EC5DDF6CE087EC5ADFE9
:101ED00062E184EC57DF6CED8AEC54DF65E08BEC5B
:101EE00051DF688184EE4EDF698185EE4BDF6A81C8
:101EF00082EE48DF6B8183EE45DF6C8180EE42DF4E
:101F00006D8181EE3FDF60E071E080E168DF8FE1AD
:101F10000BDF40EC6BE180E8CFDE44E06FE180E86E
:101F2000DF91CF91C9CE88E31FDF682F616088E31E
:101F300029CF88E319DF682F6E7F88E323CF81E103
:101F400032DF92FB882780F908950F931F93CF9378
:101F5000DF93EC018B016FE180E098DE83FDFBCF26
:101F60008CE102DF81FF10C040E86FE180E8A4DE71
:101F700040E86FE180EAA0DE42E06CE180EA9CDEAE
:101F800080E395E70197F1F760E082E0FBDE6AE12C
:101F900083E0F8DE6C2F86E0F5DECE01965E692FD9
:101FA00087E0F0DE40E060E08AE786DEB801CE013F
:101FB000A6DE48E06FE180E8DF91CF911F910F919D
:101FC0007BCE9F92AF92BF92CF92DF92EF92FF9221
:101FD0000F931F93CF93DF936C017B0189E3C4DEE2
:101FE000882309F44EC06091F401C091F50180E0AE
:101FF000C9DE6C2F81E0C6DE60E08AE347DE082F91
:1020000060E08AE343DE10E0182B1093F5010093A3
:10201000F40160E08AE33ADEC82F60E08AE336DE4E
:10202000982E60E08AE332DEA82E60E08AE32EDE9E
:10203000A7FE0EC0960121503109D0E0D92924977E
:102040002C173D0708F4E901B701CE0142DE02C0BA
:10205000C0E0D0E06FEF01308AE1180724F08CE097
:1020600091DE69E106C0600F8CE08CDE0150110941
:10207000612F8DE087DE40E46EE180E81DDECE0159
:1020800002C080E090E0DF91CF911F910F91FF900F
:10209000EF90DF90CF90BF90AF909F900895CF9238
:1020A000DF92EF92FF920F931F93CF93DF937A010A
:1020B000690190910F02891759F0E0910C02F0919B
:1020C0000D0240E050E060E070E084EF91E03EC03F
:1020D00061113DC02D303105D0F100910C021091FD
:1020E0000D020115110599F1C0910002D091010274
:1020F000C40FD51F888590E00E94A43B892B09F16D
:10210000A985B0E0D097AA30B105D8F48B8590E0CE
:10211000C0978A309105A8F46AE06A9FA0016B9F7E
:10212000500D11243A85232F30E020533109240F1C
:10213000351F629FA001639F500D1124840F951FCE
:1021400002C080E090E0A601B701F801099580E0A7
:10215000DF91CF911F910F91FF90EF90DF90CF9083
:102160000895CF92DF92EF92FF920F931F93CF9338
:10217000DF937C01FB01413051F4AB014850510920
:1021800060E070E04F5E5F4F6F4F7F4F0FC0423097
:1021900051F4AB014850510960E070E04A5F5F4F75
:1021A0006F4F7F4F03C040E050E0BA01D701119656
:1021B0006F0182E0C816D104B0F0CD010197EC01A7
:1021C000088110E020E030E0322F212F102F00276F
:1021D0008C91082B400F511F621F731FD2E0CD1A44
:1021E000D1081296E6CFCF018E7FD701A80FB91F75
:1021F000E0FF0CC08C9190E0A0E0B0E0BA2FA92FD6
:10220000982F8827480F591F6A1F7B1F8B01222791
:102210003327011511052105310539F06627772788
:10222000400F511F621F731FF1CFCA018095909517
:10223000DF91CF911F910F91FF90EF90DF90CF90A2
:102240000895FC01892B39F096E0A8E2B2E00190F4
:102250000D929A95E1F70895009721F461157105A3
:1022600059F40895FC01A4E2B2E084E08A0F919150
:102270009D938A13FCCFF2CFFB01A4E0B1E084E090
:102280008A0F91919D938A13FCCF0895DC015A9691
:10229000FB014E963D912191321305C0A817B90755
:1022A000C9F781E0089580E0089569327105A0F0D2
:1022B000FC012485283081F42585263069F4B69602
:1022C000A4E2B2E084E08A0F21919D91291304C019
:1022D0008A13FACF81E0089580E00895FC016A3204
:1022E0007105B0F08485883099F48585811110C01E
:1022F0009685953471F47E96A4E2B2E094E09A0F4C
:1023000031912D91321305C09A13FACF81E00895CF
:1023100080E00895CF93DF93A8E2B2E09C012A5FAA
:102320003F4FF9014081EC014993CE014D9141931A
:10233000C217D307B9F7DF91CF910895CF93DF93F9
:10234000EC01188E198E80E48C8B1D8A8E8B40E0F8
:1023500064E170E0CE010E9604DF988F898FDF91E3
:10236000CF910895CF93DF93EC016E96DC015A96DE
:10237000E4E2F2E024E02E0F3C91399331913D9359
:102380002E13FACFDF91CF91D9CF9C01265D3F4F1D
:10239000FC01BE96D9018E91680F711D82916083F8
:1023A000442311F08C9301C01C92672F7727E2170A
:1023B000F30789F70895CF93DF93EC018CA19AA1DD
:1023C0009CA38AA38DA19BA19DA38BA3CE01DDDF3E
:1023D0001AAA1BAA80E58EA7DF91CF910895CF930B
:1023E000DF93EC0197DF1C8A82E08D8BCE01809613
:1023F000DE01569648E252E026E0240F3C91FC01B3
:102400003193CF01FA013191AF013D932E13F6CFF5
:10241000CE018696DE015C9644E252E024E0240F71
:102420003C91FC013193CF01FA013191AF013D9311
:102430002E13F6CFBE018AE290E0DF91CF9185CDD9
:102440000F931F93CF93DF93EC018B0163DFCE01DA
:1024500089DF1AA29CA1983F18F02DA12F5F2DA310
:10246000985F9CA3BE01C801DF91CF911F910F918E
:102470006CCDFC01208930E0322F22278189282B66
:102480002451310986A582958F70A90164E0869F49
:10249000401951091124CA0157FF02C080E090E0A1
:1024A00008959C01CB01FC01E61BF70BE40FF51F1F
:1024B000E491EE2339F0D901A80FB91FD696EC9319
:1024C0000196F1CF0895DB01D696A80FB91FFA0146
:1024D000420F4E1719F081918D93FBCFCB01820FE4
:1024E000911D0895FA0101900020E9F731979F01AD
:1024F000241B350BE8CFEF92FF920F931F93CF93DE
:10250000DF9300D000D01F92CDB7DEB790910F02BD
:10251000891392C080910E02009100021091010275
:10252000811126C04EE251E060E070E0C801B9DFE1
:102530004091060250910702BC01C801B2DF4091F0
:10254000040250910502BC01C801CCDF4CE151E00E
:10255000BC01C801A6DF4091020250910302BC01F8
:10256000C8019FDF4FEE50E0BC01C8019ADF66C092
:1025700049EE50E060E070E0C80193DF4091060250
:1025800050910702BC01C801ADDF40910402509197
:102590000502BC01C801A6DF47ED50E0BC01C8013F
:1025A00080DF4091020250910302BC01C8019ADF12
:1025B000E0900A02F0900B02E114F10449F044EDBE
:1025C00050E0BC01C8016DDFA701BC01C80169DF93
:1025D0004FEA50E0BC01C80164DF4EE950E0BC01A5
:1025E000C8015FDF7C01A0910802B0910902FD01E2
:1025F00001900020E9F731974AE0BE016F5F7F4FFD
:10260000CF018A1B9B0B0E94263C00910002109177
:102610000102AE014F5F5F4FB701C80163DF48E6BB
:1026200050E0BC01C8013DDF409108025091090211
:10263000BC01C80157DF02C080E090E00F900F900E
:102640000F900F900F90DF91CF911F910F91FF90FE
:10265000EF9008950F931F93CF93DF9300D01F92B5
:10266000CDB7DEB78C014B8369837A8353DE4B8110
:10267000842F8061F80187A769817A81443029F02D
:102680006115710511F461E070E041E0C80193DE6D
:10269000F801108A88E2818BC80164DE84E0F801C9
:1026A00080AB11AA42E06CE170E0C8014A9659DDA6
:1026B000F80192AB83ABB80186E390E00F900F90E6
:1026C0000F90DF91CF911F910F913FCC0F931F93EC
:1026D000CF93DF93EC018B01CB018896988B898B8C
:1026E000CE012CDE1AAA1BAAB801645E7F4F42E01D
:1026F000CE014A9636DD9AAB8BABBE01C801C696B9
:10270000DF91CF911F910F9120CCCF92DF92EF926A
:10271000FF920F931F93CF93DF9300D0CDB7DEB717
:102720006C01F42EE52E69837A83F4DD6981062F2E
:102730007A81172F0D3D110510F00CED10E0F60118
:10274000108AC8014C96818BC6010CDEF60182A16D
:1027500084A383A185A3E2A2F3A216A2C8010896CE
:1027600087A310A611A6B801605F7F4F41E0C601A4
:102770004A96F7DCF60190A781A7B601C8018A96B0
:102780000F900F90DF91CF911F910F91FF90EF90DD
:10279000DF90CF90DACBFB01BC01665D7F4FDB01A0
:1027A0005A2F561B541718F451915D93F9CF642F8B
:1027B00070E0A901AACF6115710519F4009759F4C9
:1027C0000895FB01A4E2B2E024E02A0F31913D9389
:1027D0002A13FCCFF3CF35CD9093F90180930801F4
:1027E0000895CF93DF93EC0195DD188A8CE2898BF5
:1027F000CE01B8DD82E18FA740E061E070E0CE015C
:10280000DADD1EA21FA280910C0188A719A68D5F98
:1028100080930C0182E08EAB84E08FAB85E088AFC3
:1028200019AE80E68EA78AE088AB19AA42E060E282
:1028300070E0CE014A9695DC9AAB8BABBE018AE381
:1028400090E0DF91CF9181CB0F931F93CF93DF93D4
:10285000EC018B016091F7017091F80140E0FADE24
:1028600089E18FA7B801CE01DF91CF911F910F9120
:102870002DCF640F751F4617570741F0FA012491B9
:10288000FC012193CF014F5F5F4FF5CF0895AF92C9
:10289000BF92CF92DF92EF92FF920F931F93CF934D
:1028A000DF9300D0CDB7DEB75C01F62EE72E6A01CC
:1028B000B5016A5F7F4FE8E2F2E046E04E0FD801D3
:1028C0005D918D01DC015D93CD015191DB015D9343
:1028D000BD014E13F4CF88E0F501848715864BE3E4
:1028E00051E069E070E0C5010E9629833A83C1DFAB
:1028F00080910301D50153968C9353978F5F8093FA
:10290000030150961C92509781E157968C93860153
:10291000C5014E96E4E2F2E044E04E0F3A8129818F
:10292000D8015D918D01DC015D93CD015191BD0117
:1029300065507109DB015C934E13F2CFF50134A3AE
:1029400025A3E2A2F3A216A210A611A60F900F9043
:10295000DF91CF911F910F91FF90EF90DF90CF907B
:10296000BF90AF9008950F931F93CF93DF93EC0127
:102970008B01CB014C96898B988BCE01DFDCC80193
:1029800008968FA39EA3B801605F7F4F41E0CE0100
:102990004A96E7DB89A798A7BE01C8018A96DF910E
:1029A000CF911F910F91D1CAEF92FF920F931F9376
:1029B000CF93DF9320912402222309F44CC0EC0131
:1029C00028E2E22E22E0F22EDC011696F7014FEF0C
:1029D00026E02E0D499331913D932E13FBCF8B01B1
:1029E000EC0188E08C8786E08D8743E351E068E066
:1029F00070E0CE010E963DDFAE01405E5F4FDE011E
:102A00009696F70121917F01CA010A97FC01208364
:102A1000FA011192AF01EA17FB0799F7C80164E2C6
:102A200072E024E0260FFC013191CF013D93FB01C0
:102A30003191BF01AD014B505109FA01308326138A
:102A4000F2CFBE018AE290E0DF91CF911F910F910A
:102A5000FF90EF907ACADF91CF911F910F91FF9075
:102A6000EF90089581E09091FB01923009F480E0AD
:102A700008955093ED044093EC0421E02093FB0172
:102A80006093FA01ECEFF1E024E02E0FDC013D91C0
:102A9000CD0131932E13FACF0895FF920F931F9318
:102AA000CF93DF93EC01162F042FF52E9C0188E2C3
:102AB00092E0BE016A5F7F4FE7E1F2E046E04E0F31
:102AC0005191D9015D939D01DC015D91CD01DB0147
:102AD0005D93BD014E13F4CF88E08C871D864BE3D8
:102AE00051E069E070E0CE010E96C3DE8CE2898B86
:102AF000809103018B8B8F5F8093030186E08F8B26
:102B0000DE015E9684E292E06DE172E024E0260F41
:102B1000FB013191BF013D93FC013191CF01AD012A
:102B200045505109FA0130832613F2CFCE0106DC5D
:102B3000FCA20DA38BE08AA31BA3FE01B696CE01D7
:102B40008E961192E817F907E1F780910C0188A79A
:102B50008D5F80930C0180E68EA782E08FA793E0C3
:102B600098AB19AA1AAA1BAA1CAA1DAA8EAB94E09C
:102B70009FAB88AF8EEE89AF42E060E270E0CE019D
:102B80004A96EFDA9AAB8BABBE018AE390E0DF9115
:102B9000CF911F910F91FF90D8C90F931F939093DE
:102BA0001302809312027093110260931002D901F4
:102BB000EDE1F2E084E08E0F9D9191938E13FCCFB6
:102BC000D801E7E1F2E086E08E0F9D9191938E139C
:102BD000FCCF509315024093140281E080931602BB
:102BE000809121028F5F883018F48093210202C007
:102BF00010922102809121021F910F9108952F922E
:102C00003F924F925F926F927F928F929F92AF927C
:102C1000BF92CF92DF92EF92FF920F931F93CF93C9
:102C2000DF9300D0CDB7DEB73C011B012A01298319
:102C30003A8385D929813A81882329F17092070244
:102C40006092060250920302409202023092050204
:102C50002092040230930B0220930A02109309027F
:102C60000093080281E080930E02F0920D02E09240
:102C70000C0285019601A4016BE772E18FE490E1FB
:102C80008CDF80930F020F900F90DF91CF911F91F7
:102C90000F91FF90EF90DF90CF90BF90AF909F90FB
:102CA0008F907F906F905F904F903F902F900895FE
:102CB000AF92BF92DF92EF92FF920F931F93CF9349
:102CC000DF931F92CDB7DEB75C017B016115710503
:102CD00009F04EC08091FB01893069F480910901AF
:102CE00090910A01892B39F42AD9882321F06CEFBD
:102CF00071E0C50159DE8091FB01813081F41FD95B
:102D0000882369F06CEF71E0C5014EDE8091FB0114
:102D100088608093FB0110920A0110920901809152
:102D2000090190910A01019690930A01809309018B
:102D300080911602813009F066C101D9882309F417
:102D400062C182E08093160260910B016F5F609315
:102D50000B0140911402509115026F718091210274
:102D600020E2829FC0011124682BC50196DE4BC171
:102D70009CDA882351F1D50155968C91813011F45C
:102D8000C5012DDB8091FB0183FF3DC1F501158954
:102D9000123009F038C144E050E06CEF71E0C50139
:102DA0004C960E94D43B892B09F02DC1A5014A5EA7
:102DB0005F4FE091EC04F091ED046091FA018CEF2B
:102DC00091E009951093FB011EC1B701C50186DA98
:102DD000882309F418C1D50157968C9157978130F3
:102DE00091F492968C91883009F00DC1E091220205
:102DF000F0912302309719F0C5014A960995B70161
:102E0000C5011EDB00C1B6E3EB16F10408F4FBC0FC
:102E1000863009F0F8C0F50184A18B3009F0C1C0FB
:102E2000B0920102A09200026DE172E0C5012EDABB
:102E3000882309F4E8C0D5019F962C919F9722FF23
:102E400013C0E0911202F0911302309759F0959659
:102E50008C9120E030E040E050E063E08295869580
:102E60008770099586E092C0C501298302DB8C0139
:102E7000809116022981823089F5822F807122711A
:102E80002231F9F440E060E070E0C501E3DB88E165
:102E9000F50187A7E0911002F0911102309741F0FF
:102EA000D50193968C91829586958770099502C07D
:102EB00080E090E023E020931602BC01C50106DC0F
:102EC000A2C091E090931602811104C0B8016F5F17
:102ED0007F4F02C060E070E044E060C08330A9F53D
:102EE0000115110591F184E080931602E091120220
:102EF000F0911302309749F1D5019E964C9142957D
:102F00004F70B4E04B9FA0011124C70108974E5D9C
:102F10005F4F8417950708F4AC01C801840F951F13
:102F2000E816F90620F49701241B350B01C098011F
:102F3000D50195968C9160E082958695877009956C
:102F4000882319F049E0B8011EC090911602F501DE
:102F500087A5953019F484FD85CF55C0963069F466
:102F600084FD04C0B8016F5F7F4F02C060E070E075
:102F700044E0C5016FDB87E009C080FF0AC0B801EB
:102F80006F5F7F4F41E0C50165DB85E080931602EE
:102F90003AC001151105B9F140E0B801C5015ADB8D
:102FA00032C09091F90189132EC095A1809108013A
:102FB000981329C0D7A4D1FE03C0C50112DC23C0D9
:102FC000D4FE21C0C50155DA8C019093F80180939D
:102FD000F701892B41F4D0FE16C040E060E070E0BC
:102FE000C50138DB12C0F50106A502950F70F4E0AB
:102FF0000F9F800111240E5D1F4F28E0E21AF10897
:10300000E016F10610F400E010E0C8010F90DF9127
:10301000CF911F910F91FF90EF90DF90BF90AF90F5
:10302000089598E028E1362F382730FD02C06695D4
:1030300003C062276695606886959150A1F7862F38
:103040000895EF92FF920F931F93CF93DF93EC01BC
:103050007C0187E0E80EF11C8E0160E0F8018191AF
:103060008F01DFDF682F0E151F05C1F781E09F81FB
:10307000691301C080E0DF91CF911F910F91FF9004
:10308000EF900895EF92FF920F931F93CF93DF93EA
:10309000EC017C0188E0E80EF11C8E0160E0F80193
:1030A00081918F01BEDF682F0E151F05C1F781E0EA
:1030B0009885691301C080E0DF91CF911F910F9136
:1030C000FF90EF9008951F93CF93DF93D82F162F83
:1030D000C8E0812FD0FF02C022D101C039D1D695DE
:1030E000C150B9F7DF91CF911F9108951F93CF93EE
:1030F000DF93182FD8E0C0E0C695812F42D181110F
:10310000C068D150C9F78C2FDF91CF911F910895DE
:10311000682F8CECD8CFCF92DF92EF92FF921F9363
:10312000CF93DF931F92CDB7DEB7F82E162F85E52C
:103130009983C9DFCF2C9981D92E760188E0E80EDA
:10314000F11C612FF60181916F01BDDF81E090E0FC
:103150000E946A33CE14DF04A1F70F90DF91CF9164
:103160001F91FF90EF90DF90CF900895CF92DF9264
:10317000EF92FF920F931F93CF93DF938C01D62E84
:10318000E42E642F80EF9FDFC1E0F12CD1E08E2D83
:10319000F8D0C82E8E2DF5D0CC2039F0811131C059
:1031A000F80180818C2B808319C0F80190818823DD
:1031B00021F08C2F8095982303C0DD1104C09C2B37
:1031C000F80190830BC0DD1630F48C2F8095982386
:1031D000F801908302C09C2309F4FD2EF801808140
:1031E0008C2319F08E2D9BD002C08E2DB1D0DF5FC5
:1031F000CC0F19F40F5F1F4FC1E0D13441F68F2D72
:1032000001C08FEFDF91CF911F910F91FF90EF9051
:10321000DF90CF9008956F927F928F929F92AF929E
:10322000BF92CF92DF92EF92FF920F931F93CF93B3
:10323000DF931F92CDB7DEB75C01062F942E690194
:103240003C0184E0680E711C930180E0801761F0FE
:10325000A901485F5F4FF9011192E417F507E1F703
:103260008F5F225D3F4FF2CF7301F30110E060E00A
:1032700088E0882E1017F9F0A895D701882D0190C5
:103280000D928A95E1F7892D69839BD06981882306
:1032900029F1492DC7016ADF682F1F5FD5019EE222
:1032A000199FA00DB11D11241496F701882311F068
:1032B0007D01E0CF012F10E0101771F0A895C30138
:1032C000C0DEEEE26E0E711C81110AC0F601808133
:1032D0008F5F80831F5FF0CF80E003C08FEF01C05E
:1032E00081E00F90DF91CF911F910F91FF90EF90B0
:1032F000DF90CF90BF90AF909F908F907F906F9016
:1033000008959AB1809598239AB99BB189238BB976
:103310008BEB93E00197F1F700C0000008952FB701
:10332000F8949AB1982B9AB99BB1809598239BB940
:103330009AE09A95F1F700C09AB198239AB99BB197
:1033400089238BB985EA8A95F1F700002FBF08958C
:103350002FB7F8949AB1982B9AB99BB1809598237E
:103360009BB99AE99A95F1F700C09AB198239AB956
:103370009BB189238BB985E18A95F1F700002FBFB6
:1033800008953FB7F8949AB1982B9AB99BB1282F1A
:10339000209592239BB99AE09A95F1F700C09AB1D3
:1033A00092239AB99BB192239BB922E12A95F1F716
:1033B00000C099B12DE82A95F1F700003FBF89239D
:1033C00008953FB7F8949AB1982B9AB99BB1282FDA
:1033D000209592239BB9EBEBF3E03197F1F700C016
:1033E00000009AB192239AB99BB192239BB9F5EB55
:1033F000FA95F1F7000099B1EFE2F3E03197F1F7B8
:1034000000C000003FBF909589230895883C910536
:1034100029F4809131028F5F8093310280913E02C6
:10342000823019F483E080933E020895613049F4BC
:10343000DA01E8E3F2E086E08E0F9D9191938E131E
:10344000FCCF0895CF92DF92EF92FF920F931F93DC
:10345000CF93DF9300D000D01F92CDB7DEB78C01A1
:10346000FC0110821182128213827B0120E090E025
:10347000F70181917F01882361F12430D8F59330E1
:1034800090F4482F50E0405351094A30510548F418
:10349000E1E0F0E0EC0FFD1FE90FF11D80839F5F7D
:1034A00002C0992329F38E3219F7E1E0F0E0EC0F26
:1034B000FD1FE90FF11D10826801C20ED11CCE0163
:1034C00001962D830E94AF3AF60180832D812F5FF4
:1034D000CECF233079F4E1E0F0E0EC0FFD1FE90FEF
:1034E000F11D1082CE0101960E94AF3AF80183834C
:1034F00080E001C081E00F900F900F900F900F902F
:10350000DF91CF911F910F91FF90EF90DF90CF90BF
:10351000089581E04D9B80E00895813011F45D9A1B
:1035200008955D98089596B121E030E002C0220F21
:10353000331F8A95E2F7892F90E02823392381E011
:10354000121613060CF080E0089593B121E030E0EC
:1035500002C0220F331F8A95E2F7892F90E02823BB
:10356000392381E0121613060CF080E0089545B16E
:1035700021E030E0613049F4B90102C0660F771FE5
:103580008A95E2F7CB01842B09C0B90102C0660F0E
:10359000771F8A95E2F7CB018095842385B908953A
:1035A00048B121E030E0613049F4B90102C0660F52
:1035B000771F8A95E2F7CB01842B09C0B90102C0BD
:1035C000660F771F8A95E2F7CB018095842388B92F
:1035D0000895CF93DF93D82FC0E0CD1771F05D9A97
:1035E00082E390E00E946A3380E097DF82E390E01C
:1035F0000E946A33A895CF5FF0CFDF91CF910895F5
:103600009F92AF92BF92CF92DF92EF92FF920F9371
:103610001F93CF93DF931F92CDB7DEB7F82EE62E20
:103620008A01DA018C9165E0681BBEE28B9FC001C4
:1036300011249E012F5F3F4F4F2D84599C4FEBDD8E
:10364000F801D0808EE2C82E90E1992EAD2CB12CDD
:103650008981D8012C9130E0280F311DA216B306C4
:10366000ECF46D2D8F2D0E94F633CA9CF001CB9C9B
:10367000F00D1124E459FC4F86A18F3721F06D2DF8
:103680008F2D0E943B34CA9CF001CB9CF00D11247D
:10369000E459FC4FF3A694A6D394D8CF811140C02F
:1036A0008E2D0E94210C8AEF90E00E946A33A8952B
:1036B0008AEF90E00E946A33A8958E2D0E94210C1B
:1036C00080910201811135C0D801EC914EE24E9FEC
:1036D000F0011124E459FC4FE3A62C9130E02F5F58
:1036E0003F4F429FF001439FF00D1124E459FC4FDE
:1036F000E3A6EC914E9FF0011124E459FC4F21E127
:1037000024A78C9190E00196489FF001499FF00D0D
:103710001124E459FC4F24A78C918E5F8C9309C02F
:103720008F2D0E9475338981F8019081980F9083C5
:1037300001C080E00F90DF91CF911F910F91FF901A
:10374000EF90DF90CF90BF90AF909F9008951F9221
:103750000F920FB60F9211242F933F934F935F93C5
:103760006F937F938F939F93AF93BF93EF93FF9349
:103770008091540390915503A0915603B091570343
:103780000196A11DB11D8093540390935503A093FE
:103790005603B093570380912E028F5F843618F43E
:1037A00080932E0214C010922E02809130028F5FFF
:1037B0008093300280912F028F5F80932F0280913F
:1037C0002F02863020F010922F020E941408809160
:1037D0004603813011F580914C0390914D03A091E7
:1037E0004E03B0914F03892B8A2B8B2BA1F0809134
:1037F0004C0390914D03A0914E03B0914F0301975C
:10380000A109B10980934C0390934D03A0934E03FB
:10381000B0934F0302C0109246038091450381305C
:1038200011F58091480390914903A0914A03B0910A
:103830004B03892B8A2B8B2BA1F08091480390910D
:103840004903A0914A03B0914B030197A109B10923
:103850008093480390934903A0934A03B0934B038A
:1038600002C01092450380914703813011F5809189
:10387000500390915103A0915203B0915303892BAF
:103880008A2B8B2BA1F08091500390915103A09132
:103890005203B09153030197A109B10980935003DA
:1038A00090935103A0935203B093530302C010921C
:1038B0004703FF91EF91BF91AF919F918F917F91BE
:1038C0006F915F914F913F912F910F900FBE0F908D
:1038D0001F90189590ED980F9A3070F09FE9980F0F
:1038E000963010F499EA05C09FEB980F963018F4C3
:1038F00099EC980F01C0982F892F089590ED980F9B
:103900009A3060F09FE9980F963010F4875508952B
:103910009FEB980F963020F487530895892F0895D0
:1039200080E00895CF93DF93EA012AE00E94383CBB
:10393000CE01DF91CF910895EF92FF920F931F93E5
:10394000CF93DF938B01EC0120E030E08991882355
:1039500061F0209F7001219FF00C309FF00C11242A
:10396000B9DF9701280F311DF1CFC901DF91CF9148
:103970001F910F91FF90EF9008955F926F927F9249
:103980008F929F92AF92BF92CF92DF92EF92FF926F
:103990000F931F93CF93DF93CDB7DEB72B970FB65F
:1039A000F894DEBF0FBECDBF6C01562EFC01019016
:1039B0000020E9F731977F01E81AF90A5C0120E05D
:1039C00030E000E010E0842E912CC5018C199D0997
:1039D0008E159F0514F5F50181915F01E1E0F0E09E
:1039E000EC0FFD1FE20FF31F851113C01082380189
:1039F000FFEF6F1A7F0AB401CE0101964B879CDF5F
:103A0000F801EF5BFD4F8083830120E030E04B85C0
:103A1000DCCF80832F5F3F4FD8CFE1E0F0E0EC0FA9
:103A2000FD1FE20FF31F1082642F70E0CE0101969C
:103A300083DFF801EF5BFD4F80832B960FB6F89480
:103A4000DEBF0FBECDBFDF91CF911F910F91FF90D1
:103A5000EF90DF90CF90BF90AF909F908F907F902E
:103A60006F905F9008950F931F93CF93DF938A0118
:103A7000FB0101900020E9F73197EF01C61BD70B3E
:103A80000E940C3C009719F41092410223C0BC0123
:103A90006C0F7D1F81E492E00E94EC3BE1E4F2E0D8
:103AA00001900020E9F73197EF01C154D240B801ED
:103AB00081E492E00E940C3CFC0101900020E9F7B7
:103AC0003197E81BF90BCE018E1B9F0BFC01EF5BBE
:103AD000FD4F108281E492E0DF91CF911F910F9111
:103AE0000895CF92DF92FF920F931F93CF93DF93AE
:103AF0008C01EC01F80180818823D9F08B32A1F090
:103B0000853299F4680182E0C80ED11CF8018181E8
:103B1000F5DEF82EF8018281F1DEF0E1FF9E9001E2
:103B20001124822B860101C080E289930F5F1F4F11
:103B3000E1CF1882DF91CF911F910F91FF90DF901D
:103B4000CF900895EF92FF920F931F93CF93DF933F
:103B500080916103882309F45EC0CCE6D3E000E0E5
:103B600010E0EE24E394F12CF801E459FC4F81A11C
:103B70008F3F09F049C084A5882309F445C048E077
:103B800050E069E573E0CE0104960E94D43B892B96
:103B9000D9F52D8D3E8D4F8D58A1688179818A810F
:103BA0009B810E94C337209162033091630340914F
:103BB0006403509165030E94273887FF0BC028B12A
:103BC000C70100906A0302C0880F991F0A94E2F7A8
:103BD000822B88B92D8D3E8D4F8D58A168817981BA
:103BE0008A819B810E94C3372091660330916703CD
:103BF00040916803509169030E94C439181624F457
:103C000060E080916A03CCDC025D1F4FAE96063EF9
:103C1000110509F0A9CFDF91CF911F910F91FF906E
:103C2000EF9008956F927F929F92AF92BF92CF9242
:103C3000DF92EF92FF920F931F93CF93DF938091C8
:103C400047038111D4C065DC91E0811190E0892F98
:103C500064DC809158038823E9F00E941E321092A0
:103C6000580348EE53E060E070E040934C035093FB
:103C70004D0360934E0370934F0381E0809346039E
:103C8000409348035093490360934A0370934B0356
:103C90008093450384EF91E0A0E0B0E080931501AC
:103CA00090931601A0931701B093180180935003CD
:103CB00090935103A0935203B093530343DF10E05A
:103CC0008EE2D82E01E092E0992E2AEAB22E36E05A
:103CD000A32E612E712CD69C7001D79CF00C112460
:103CE000E701C459DC4F8CA5803119F08131C9F04E
:103CF00077C0B70160597C4FAE018BA50E9481331C
:103D0000811103C00B8F1DA601C00DA7D69CF00129
:103D1000D79CF00D1124E459FC4F83A50E94753304
:103D20005FC08BA50E94210C80910201CC24C3941A
:103D3000C10E81114DC01DA69B8E6091E90170914D
:103D4000EA0180E090E00E94BF3820E030E040E2ED
:103D500051E40E942B38688379838A839B83BC82D9
:103D60008AE1810F8D83D701AE58BC4FE8E4F8E0BB
:103D70008A2D01900D928A95E1F7DC9C7001112447
:103D8000E701C459DC4F1DA60B8F6091EB017091C8
:103D9000EC01072E000C880B990B0E94C13820E023
:103DA00030E040E251E40E942B38688379838A83B3
:103DB0009B83BC82155D1D83D701AE58BC4FE8E4E0
:103DC000F8E08A2D01900D928A95E1F71C2D08C02C
:103DD0000DA71C2DDC9CF0011124E459FC4F05A714
:103DE0001F5F153008F475CF81E080934703DF91A2
:103DF000CF911F910F91FF90EF90DF90CF90BF90E8
:103E0000AF909F907F906F90089543EF5DE060E0EA
:103E100070E08DE495E00C9451124CEB5DE060E0B5
:103E200070E08DE495E00C94511244E85DE00C9450
:103E30005112CF92DF92EF92FF920F931F93CF9385
:103E4000DF93EC0169010E9451124DE65DE0BC0177
:103E5000CE010E945112A601BC01CE010E94511256
:103E600044E65DE0BC01CE010E945112A801BC01F4
:103E7000CE010E94721241E65DE0BC01CE010E94BB
:103E80005112A701BC01CE01DF91CF911F910F917B
:103E9000FF90EF90DF90CF900C9451124F925F9271
:103EA0006F927F928F929F92AF92BF92CF92DF924A
:103EB000EF92FF920F931F93CF93DF9300D000D028
:103EC00000D0CDB7DEB72A013B01922E832E5801D8
:103ED0002EE2829FC0011124FC01E459FC4F838D26
:103EE0009E012F5F3F4F6901823021F1B8F481308C
:103EF00009F04BC02081318142815381C301B2015D
:103F00000E94C337162FF72EE82E092F6BE57DE0B0
:103F1000C6010E94B43B64E57DE033C08330F1F01C
:103F20008A3099F51081F180E280038160E47DE0C0
:103F3000C90128C02081318142815381C301B2016E
:103F40000E94C337162FF72EE82E092F6EE47DE06E
:103F5000C6010E94B43B6CE47DE013C02081318136
:103F600042815381C301B2010E94C337162FF72E3D
:103F7000E82E092F66E47DE0C6010E94B43B63E4AD
:103F80007DE0C5010E94B43B04C010E0F12CE12C9F
:103F900000E00F93EF92FF921F93DF92CF928F92E8
:103FA0009F920E94AA3C0FB6F894DEBF0FBECDBF11
:103FB00080E090E026960FB6F894DEBF0FBECDBF2E
:103FC000DF91CF911F910F91FF90EF90DF90CF90F5
:103FD000BF90AF909F908F907F906F905F904F9029
:103FE00008950F931F93CF93DF93EC010EDF8C01A5
:103FF0006091EE047091EF048091F0049091F104CF
:1040000047E055E08FDC4BEF5CE0B801CE010E9449
:10401000511245EE5CE0BC01CE010E94511247E016
:1040200055E0BC01CE010E9472124BED5CE0BC0178
:10403000CE010E94511246EC5CE0BC01CE010E9410
:10404000511247E055E0BC01CE010E9472124CEBC8
:104050005CE0BC01CE010E9451124BE95CE0BC0166
:10406000CE010E94511247E055E0BC01CE010E94F2
:10407000721241E95CE0BC01CE010E9451124EE790
:104080005CE0BC01CE01DF91CF911F910F910C94A8
:1040900051128F929F92AF92BF92CF92DF92EF9286
:1040A000FF920F931F93CF93DF93EC01AEDEBC0121
:1040B000CE01BBDE6C0162E77CE082E395E00E940A
:1040C000B43B4BE55CE0B601CE010E9451124C01BD
:1040D000809151081F928F93809150081F928F9367
:1040E00080914F081F928F9380914E081F928F935B
:1040F00082E3A82E85E0B82EBF92AF9297E0C92E3A
:1041000095E0D92EDF92CF920E94AA3C21E5E22EC3
:104110002CE0F22E86012FE43CE049E45CE0B4019F
:10412000CE0187DE4C0180914D081F928F938091C4
:104130004C081F928F9380914B081F928F93809110
:104140004A081F928F93809149081F928F93809104
:1041500048081F928F932BE23CE03F932F93DF920E
:10416000CF920E94CB3C31E2E32E3CE0F32E2FE1D4
:104170003CE04EE15CE0B401CE015BDE4C0180919D
:1041800055081F928F93809154081F928F938091AE
:1041900053081F928F93809152081F928F93BF9262
:1041A000AF92DF92CF920E94AA3C2DB73EB7285D16
:1041B0003F4F0FB6F8943EBF0FBE2DBF44E1E42E33
:1041C0004CE0F42E22E13CE041E15CE0B401CE01A0
:1041D00030DE4C01809159081F928F9380915808CE
:1041E0001F928F93809157081F928F93809156084A
:1041F0001F928F93BF92AF92DF92CF920E94AA3C00
:1042000057E0E52E5CE0F52E25E03CE044E05CE084
:10421000B401CE010EDE4C0180915D081F928F9398
:1042200080915C081F928F9380915B081F928F93FF
:1042300080915A081F928F93BF92AF92DF92CF92D4
:104240000E94AA3C63E0E62E6CE0F62E21E03CE002
:1042500040E05CE0B401CE01ECDD4FED5BE0BC0181
:10426000CE010E9451122DB73EB7285E3F4F0FB6C8
:10427000F8943EBF0FBE2DBF20915E082F3F31F452
:1042800046ED5BE0BC01CE010E94511249EA5BE0C1
:10429000BC01CE010E9451126C016091EE0470913C
:1042A000EF048091F0049091F10447E055E03ADB8F
:1042B00047E055E0B601CE010E94721246E65BE08F
:1042C000BC01CE01DF91CF911F910F91FF90EF9034
:1042D000DF90CF90BF90AF909F908F900C94511231
:1042E0008F929F92AF92BF92CF92DF92EF92FF9206
:1042F0000F931F93CF93DF93EC01D62E86DD4FE40F
:104300005BE0BC01CE010E94511249E05BE0BC01C0
:10431000CE010E9451124EEB5AE0BC01CE010E9428
:1043200051125C010D2D10E023E082E1809FF0012D
:10433000819FF00D1124E75AFC4F81892D1510F053
:10434000F2D801C002D9282F30E02130310519F40C
:104350006BEB7AE002C067EB7AE087E095E00E94C1
:10436000B43B47E055E0B501CE010E94721241E92D
:104370005AE0BC01CE010E9451125C016D2D70E02B
:1043800080E090E047E055E0CDDA47E055E0B50148
:10439000CE010E9472124DE65AE0BC01CE010E948D
:1043A00051126C016091EE047091EF048091F00461
:1043B0009091F10447E055E0B5DA47E055E0B601E9
:1043C000CE010E9472124C0122E1209FC001219F68
:1043D000900D1124FC01E75AFC4F6F01399683813F
:1043E0008F9382818F9381818F93F60181858F9343
:1043F00087E69AE09F938F9387E0A82E85E0B82EFA
:10440000BF92AF920E94CB3C96E6E92E9AE0F92E3D
:10441000850122E63AE04BE55AE0B401CE0109DD20
:104420004C01F6013D9683818F9382818F93818128
:104430008F93F60185858F9385E59AE09F938F93FF
:10444000BF92AF920E94CB3C24E5E22E2AE0F22EEE
:1044500020E53AE04AE45AE0B401CE01EADC42E168
:104460005AE0BC01CE010E9451122DB73EB7205F29
:104470003F4F0FB6F8943EBF0FBE2DBF00E010E0D7
:10448000A12CB12C9C2C8D2CF801E459FC4F21A1BE
:104490002F3FE1F524A52223C9F143E05AE0BC01F6
:1044A000CE010E9451126C014AE067E075E0C5013F
:1044B0000E94263C47E055E0B601CE010E947212F0
:1044C0006C0148E050E0692D782DC80180599C4F5F
:1044D0000E94D43B892B39F449EF59E0B601CE0153
:1044E0000E9451126C0147EF59E0B601CE010E94C3
:1044F0005112A80148585C4FBC01CE010E947212B3
:104500004DEE59E0BC01CE010E9451123FEFA31ABB
:10451000B30A025D1F4F063E110509F0B5CF42EB0D
:1045200059E0BC01CE01DF91CF911F910F91FF9017
:10453000EF90DF90CF90BF90AF909F908F900C94B2
:1045400051126F927F928F929F92AF92BF92CF92B1
:10455000DF92EF92FF920F931F93CF93DF93EC01C3
:10456000162F53DC40EA59E0BC01CE010E945112E3
:1045700043E859E0BC01CE010E945112C12ED12C5A
:104580002DE4129FF0011124EE5AFB4F20812F3FA2
:1045900031F44AE759E0BC01CE010E94511249E5CD
:1045A00059E0BC01CE010E9451122DE42C9D500116
:1045B0002D9DB00C112485010B5A1B4F2BE4E22ECC
:1045C00029E0F22E26E439E045E459E0BC01CE01B1
:1045D00030DC4C01C5018E5A9B4F3C01FC01E55B70
:1045E000FF4F6081718180E090E047E055E09AD90B
:1045F00034E4E32E39E0F32E07E015E02FE339E051
:1046000042E359E0B401CE0114DC850101591B4F8E
:1046100041E1E42E49E0F42E2CE039E04FEF58E080
:10462000BC01CE0106DC5FEBA52E51E0B52E00E00B
:1046300010E0EFEF6E1A7E0A40EF58E0BC01CE01A9
:104640000E9451124C014AE067E075E0C8010E94E7
:10465000263C47E055E0B401CE010E947212F301FE
:1046600040815181F501228133814217530731F492
:1046700046EE58E0BC01CE010E94511244EE58E0D3
:10468000BC01CE010E945112F50140815181BC0153
:10469000CE010E9472124AED58E0BC01CE010E9488
:1046A00051120F5F1F4FF4E0AF0EB11C0530110522
:1046B00019F64DEA58E0BC01CE010E9451128C015E
:1046C0004AE067E075E0C6010E94263C47E055E0FD
:1046D000B801CE010E94721246E758E0BC01CE013B
:1046E0000E9451128C016091EE047091EF04809150
:1046F000F0049091F10447E055E014D947E055E00B
:10470000B801CE010E94721246E658E0BC01CE010B
:10471000DF91CF911F910F91FF90EF90DF90CF909D
:10472000BF90AF909F908F907F906F900C9451129C
:10473000CF93DF93EC0169DBBC01CE0176DB45EF63
:1047400057E0BC01CE01DF91CF910C9451120F9331
:104750001F93CF93DF93EC01162F57DBBC01CE01E3
:1047600064DBBC0111111BC04AE657E0CE010E9478
:1047700051128C016091EE047091EF048091F0046D
:104780009091F10447E055E0CDD847E055E0B801FD
:10479000CE010E94721240E657E0BC0102C047E51C
:1047A00057E0CE01DF91CF911F910F910C945112E0
:1047B000CF93DF93EC0129DBBC01CE0136DB47E36D
:1047C00057E0BC01CE01DF91CF910C9451120F93B1
:1047D0001F93CF93DF93EC0118DB41E157E0BC015D
:1047E000CE010E9451128C016091EE047091EF0491
:1047F0008091F0049091F10447E055E093D847E0B0
:1048000055E0B801CE010E94721245E057E0BC01AC
:10481000CE01DF91CF911F910F910C9451126F92A5
:104820007F928F929F92BF92CF92DF92EF92FF92F0
:104830000F931F93CF93DF93EC01B62E142FE5DA7D
:10484000BC01CE01F2DA4EEF56E0BC01CE010E946F
:104850005112113031F440EB56E0BC01CE010E9400
:1048600051124EE956E0BC01CE010E94511246E9B8
:1048700056E0BC01CE010E9451126C018B2C912C90
:104880002EE2B29E8001112404591C4FF801838549
:104890001F928F9382851F928F9381851F928F9392
:1048A00080851F928F9387811F928F9386811F929D
:1048B0008F9385811F928F9384811F928F9325E719
:1048C00036E03F932F9327E035E03F932F930E94EC
:1048D000CB3C47E055E0B601CE010E94721240E5A4
:1048E00056E0BC01CE010E9451122DB73EB72C5E9E
:1048F0003F4F0FB6F8943EBF0FBE2DBFF80121A168
:104900002F3F31F447E456E0BC01CE010E94511222
:104910002EE2289D6001299DD00C112486010858A3
:104920001C4F29E3E22E26E0F22E26E336E043E197
:1049300056E0BC01CE017DDA3C01960124593C4F82
:104940006901F9017D9683818F9382818F938181A3
:104950008F93F901858D8F938DE096E09F938F93D0
:1049600087E095E09F938F930E94CB3C37EFE32E37
:1049700035E0F32E07E015E024EF35E045EE55E095
:10498000B301CE0156DA3C0102E315E027E035E041
:1049900040E050E0BA018B2D81DA47E055E0B301E9
:1049A000CE010E947212A801BC01CE010E947212B7
:1049B00042ED55E0BC01CE010E9451123C01F601CE
:1049C000458D568D678D70A127E035E08B2D66DA19
:1049D00047E055E0B301CE010E947212A801BC016C
:1049E000CE010E9472124FEA55E0BC01CE010E9436
:1049F00051128C014AE067E075E0C4010E94263C38
:104A000047E055E0B801CE010E9472124BE855E034
:104A1000BC01CE010E9451128C016091EE04709194
:104A2000EF048091F0049091F10447E055E00E947A
:104A3000921C47E055E0B801CE010E9472122DB7DA
:104A40003EB7285F3F4F0FB6F8943EBF0FBE2DBF55
:104A50004BE555E0BC01CE01DF91CF911F910F9145
:104A6000FF90EF90DF90CF90BF909F908F907F90BE
:104A70006F900C945112CF92DF92EF92FF920F93AE
:104A80001F93CF93DF93EC016B017A018901609151
:104A9000EE047091EF048091F0049091F10447E0EE
:104AA00055E00E94921C41E555E0B601CE010E94FE
:104AB0005112A701BC01CE010E9451124CE455E0F5
:104AC000BC01CE010E94511247E055E0BC01CE016D
:104AD0000E94721240E455E0BC01CE010E945112C6
:104AE000A801BC01CE010E94511247E355E0BC0170
:104AF000CE01DF91CF911F910F91FF90EF90DF904A
:104B0000CF900C9451120F931F93CF93DF93EC012E
:104B10007CD9BC01CE0189D98C016091EE047091E1
:104B2000EF048091F0049091F10447E055E00E9479
:104B3000921C20E335E04CE255E0B801CE019BDF4A
:104B400023E235E04FE155E0BC01CE0194DF26E1E0
:104B500035E040E155E0BC01CE018DDF27E035E0D6
:104B600041E055E0BC01CE0186DF2BEF34E040EFA1
:104B700054E0BC01CE017FDF29EE34E044EE54E086
:104B8000BC01CE0178DF2FED34E04BED54E0BC01E9
:104B9000CE01DF91CF911F910F916DCFCF92DF9218
:104BA000EF92FF920F931F93CF93DF93EC012DD9D8
:104BB000BC01CE013AD942EB54E0BC01CE010E94C7
:104BC000511200E010E0E12CF12CF801E459FC4F07
:104BD00024A5222309F43FC040EA54E0BC01CE01E1
:104BE0000E9451126C014AE067E075E0C7010E9423
:104BF000263C47E055E0B601CE010E9472124AE918
:104C000054E0BC01CE010E9451126C016091EE048F
:104C10007091EF048091F0049091F10447E055E029
:104C20000E94921C47E055E0B601CE010E9472122C
:104C30004EE854E0BC01CE010E945112A801485830
:104C40005C4FBC01CE010E94721245E854E0BC01E9
:104C5000CE010E9451122FEFE21AF20A025D1F4F9D
:104C6000063E110509F0B1CFDF91CF911F910F9151
:104C7000FF90EF90DF90CF9008952F923F924F9248
:104C80005F926F927F928F929F92AF92BF92CF92DC
:104C9000DF92EF92FF920F931F93CF93DF9300D099
:104CA00000D0CDB7DEB71C01B0D8BC01C101BDD862
:104CB00049E054E0BC01C1010E945112BC0189E9E4
:104CC000E82E83E0F82ED12CF7013C9780818F3FAE
:104CD00009F055C03B968081882309F450C0F70144
:104CE0008081882331F045E054E0C1010E945112D7
:104CF000BC01870101521109A801C1010E94721271
:104D00005C01F80101900020E9F731979F01201B19
:104D1000310B89010F30110550F443E054E0B50127
:104D2000C1010E9451125C010F5F1F4FF3CFF701C9
:104D30007097408151816281738102E315E027E021
:104D400035E08D2DABD847E055E0B501C1010E949B
:104D50007212A801BC01C1010E947212F7012081E8
:104D6000222331F04EEF53E0BC01C1010E945112E9
:104D70004BEF53E0BC01C1010E945112BC01D3941E
:104D8000FEE2EF0EF11C25E0D2129ECF4CEB53E079
:104D9000C1010E94511243EB53E0BC01C1010E94CA
:104DA00051128C0160915403709155038091560308
:104DB0009091570324E630E040E050E00E943A3AF8
:104DC000CA01B9010E94BF380E94FC380E94933882
:104DD0006B017C0120E831E541E050E00E943A3A65
:104DE000CA01B9010E94BF380E94FC380E94933862
:104DF0002B013C019B01AC0160E871E581E090E092
:104E00000E942B3AC61AD70AE80AF90AC701B60166
:104E100020E13EE040E050E00E943A3ACA01B90188
:104E20000E94BF380E94FC380E9493384B015C01FD
:104E3000A0E1BEE09B01AC010E946B3AA701960184
:104E4000261B370B480B590B29833A834B835C8312
:104E5000CA01B9012CE330E040E050E00E943A3A48
:104E6000CA01B9010E94BF380E94FC380E949338E1
:104E70006B017C01ACE3B0E09B01AC010E946B3A9A
:104E800029813A814B815C81261B370B480B590BDA
:104E900029833A834B835C8347E055E0C301B20129
:104EA0000E94921C47E055E0B801C1010E947212B5
:104EB0004CEA53E0BC01C1010E9451128C0147E051
:104EC00055E0C501B4010E94921C47E055E0B801CD
:104ED000C1010E9472124AEA53E0BC01C1010E9462
:104EE00051128C0147E055E0C701B6010E94921CA7
:104EF00047E055E0B801C1010E94721248EA53E050
:104F0000BC01C1010E9451128C0147E055E069814A
:104F10007A818B819C810E94921C47E055E0B80108
:104F2000C1010E94721249E953E0BC01C1010F9016
:104F30000F900F900F90DF91CF911F910F91FF90E5
:104F4000EF90DF90CF90BF90AF909F908F907F9029
:104F50006F905F904F903F902F900C9451124F9212
:104F60005F926F927F928F929F92AF92BF92CF92F9
:104F7000DF92EF92FF920F931F93CF93DF936DE435
:104F800075E080E091E00E94E10F7C0110923B0807
:104F900080915E088F3F31F4B7018DE495E00E9467
:104FA000430B7C010E94930FB7018DE495E00E94B2
:104FB00058169093400280933F02892BC9F4809148
:104FC000320281110AC046E15AE161E086E598E0CB
:104FD0000E94391581E0809332020E9432158111BE
:104FE00007C080913202813019F482E0809332024E
:104FF00080914603882321F0809145038111D9C116
:1050000080914603811117C0809152048F3FA9F00F
:105010008091110190911201A0911301B09114019E
:1050200080934C0390934D03A0934E03B0934F0392
:1050300081E08093460380E001C081E090914503C8
:1050400091111AC090919F049F3FD9F040910D019A
:1050500050910E0160910F0170911001409348032F
:105060005093490360934A0370934B0391E09093EC
:1050700045037724739401C0712C813009F099C1E4
:1050800002C077247394E114F10409F092C1C72C93
:10509000D12C2DE42C9DC0012D9D900D1124EC01EF
:1050A000CB5ADB4FFE0101900020E9F73197EC1B52
:1050B000FD0B40E050E09C012E5A3B4F852F90E0C5
:1050C0008E179F0750F4D901A80FB91F13968C9122
:1050D0008E3209F44F5F5F5FF1CF433008F044C078
:1050E00080913302811126C080913202823079F59D
:1050F0000E949F0F882311F40C9407321092300203
:1051000081E08093330248E352E0BE018DE495E0F4
:10511000DF91CF911F910F91FF90EF90DF90CF9093
:10512000BF90AF909F908F907F906F905F904F90C7
:105130000C94A20C813059F40E94940C882339F00D
:1051400082E08093330284E392E00E94970C809186
:105150003302823071F0809130028D3310F40C9460
:105160000732109233021EC1BE0184E392E00E9416
:10517000221A80913E02813009F001C182E08093C1
:105180003E0265E973E081E492E00E94B43B8091C5
:105190004D081F928F9380914C081F928F9380919E
:1051A0004B081F928F9380914A081F928F93809192
:1051B00049081F928F93809148081F928F938CE724
:1051C00093E09F938F9387E095E09F938F930E9446
:1051D000CB3C67E075E081E492E00E94E13BF9E9B5
:1051E0008F2EF3E09F2E2DB73EB7205F3F4F0FB6B7
:1051F000F8943EBF0FBE2DBF612CAAE54A2EA3E056
:105200005A2EB7E0EB2EB5E0FB2E16E5A12E13E0EB
:10521000B12EF4013C9780818F3F09F05AC03B9634
:105220008081882309F455C0F4018081813009F41C
:1052300050C0B29780811F928F93319780811F92C7
:105240008F93319780811F928F93319780811F9226
:105250008F93319780811F928F93319780811F9216
:105260008F93319780811F928F93319780811F9206
:105270008F935F924F92FF92EF920E94CB3C67E038
:1052800075E081E492E00E94E13BF4017097408177
:1052900051816281738102E315E027E035E0862DBC
:1052A0000E944E1FFF92EF92BF92AF92C8019F9350
:1052B0000F930E94CB3CB80181E492E00E94E13B55
:1052C0002DB73EB7265E3F4F0FB6F8943EBF0FBED8
:1052D0002DBF63943EE2830E911C85E0681299CF46
:1052E0002DE42C9DC0012D9D900D1124FC01E35651
:1052F000FB4F8080918068E3A62E62E0B62E74E3B7
:10530000C72E72E0D72EE6E0EE2EEAE1FE2E01E493
:1053100012E020E030E0AE016CE371E081599B4F78
:105320000E94FF1510923002711014C0809111017B
:1053300090911201A0911301B091140180934C033C
:1053400090934D03A0934E03B0934F0381E080935D
:10535000460313C080910D0190910E01A0910F01A1
:10536000B09110018093480390934903A0934A039E
:10537000B0934B0381E080934503109233028091F8
:105380003E02833031F080913002883010F40C946A
:10539000073281E080933E0280913002883010F421
:1053A0000C940732809158038F5F809358030C94BC
:1053B0000732C0913F02D0914002209709F02CC1E2
:1053C000B7018DE495E00E94240D80916405813140
:1053D00011F00C94073280917105853011F00C9416
:1053E000073280917205843A11F00C94073244E040
:1053F00050E061E573E087E795E00E94BB3B44E045
:1054000050E0892B09F068C06CE473E081E492E01D
:105410000E94AB3B8091560890915708A091580884
:10542000B09159088093450290934602A093470299
:10543000B09348028091520890915308A09154086B
:10544000B09155088093490290934A02A0934B0271
:10545000B0934C0280914E0890914F08A091500853
:10546000B091510880934D0290934E02A0934F0249
:10547000B093500286E0E8E4F8E0A1E5B2E00190E4
:105480000D928A95E1F780915A0890915B08A0915E
:105490005C08B0915D088093570290935802A093E6
:1054A0005902B0935A022CEF30E24AE161E472E013
:1054B0008DE495E0DF91CF911F910F91FF90EF90D8
:1054C000DF90CF90BF90AF909F908F907F906F9024
:1054D0005F904F900C94CB1367E473E087E795E0FF
:1054E0000E94BB3B892B09F066C046E050E068E4AF
:1054F00078E087E895E00E94D43BEC01892B09F025
:1055000086C744E050E062E473E081E492E00E94E8
:10551000AB3B2CEF30E244E061E472E08DE495E0D7
:105520000E94CB1380917B0590917C05A0917D0515
:10553000B0917E058093560890935708A093580821
:10554000B093590880917F0590918005A0918105C5
:10555000B09182058093520890935308A093540809
:10556000B09355088091830590918405A09185059D
:10557000B091860580934E0890934F08A0935008F1
:10558000B093510880918D0590918E05A0918F0563
:10559000B091900580935A0890935B08A0935C08A3
:1055A000B0935D084DE150E060E070E082E498E087
:1055B0000E94083F19C044E050E06DE373E087E7C4
:1055C00095E00E94BB3B892B09F021C746E050E0E3
:1055D00068E478E087E895E00E94D43BEC01892BF1
:1055E00009F015C781E065D795B7916095BF95B76C
:1055F0009D7F95BFFE01DF91CF911F910F91FF908D
:10560000EF90DF90CF90BF90AF909F908F907F9062
:105610006F905F904F900994C35BDA4F45E050E084
:1056200067E373E0CE010E94BB3B892B09F0EFC614
:10563000D0934C05C0934B054FE251E065E371E018
:10564000CE010E94331DBC0180914B0590914C0509
:105650000E94EC3BC0914B05D0914C058881811193
:1056600004C08DE495E009DBC4C642E050E064E389
:1056700073E0CE010E94BB3B892BE9F54BE351E07F
:105680006DE371E0CE010E94331DBC0181E492E024
:105690000E94EC3BE1E4F2E001900020E9F7319751
:1056A000E154F240349718F166EF74E081E492E03F
:1056B0000E940C3C892BD9F0209154033091550362
:1056C00040915603509157036DE67DED81E090E0E7
:1056D0000E942B3A6093EE047093EF048093F004E1
:1056E0009093F1048DE495E00E94F11F82C68DE451
:1056F00095E01ED87EC644E050E06FE273E0CE0134
:105700000E94BB3B892B51F044E050E06AE273E019
:10571000CE010E94BB3B892B09F069C144E050E0F7
:1057200065E273E0CE010E94BB3B892B11F410921D
:10573000470341EF52E060E070E08DE495E00E94A5
:1057400051129093400280933F0242EE52E0BC011E
:105750008DE495E00E9451129093400280933F02A5
:1057600080E090E0C12CFC01E459FC4F21A12F3FC7
:1057700019F424A52111C3948E96863E910599F7BC
:10578000C9E9D3E0EE24E394F12C47EBA42E42E0E8
:10579000B42E57E0852E55E0952ED12C77247A949F
:1057A0007E0CFE013C9780818F3F09F0E9C03B965B
:1057B0008081882309F4E4C060913F027091400227
:1057C00049ED52E08DE495E00E9451129093400221
:1057D00080933F02FE01B29780811F928F93319791
:1057E00080811F928F93319780811F928F93319781
:1057F00080811F928F93319780811F928F93319771
:1058000080811F928F93319780811F928F93319760
:1058100080811F928F93BF92AF929F928F920E942E
:10582000CB3C60913F027091400247E055E08DE42F
:1058300095E00E9472129093400280933F024DEADD
:1058400052E0BC018DE495E00E9451129093400219
:1058500080933F02FE01729780814AE067E075E025
:1058600090E00E94263C60913F027091400247E028
:1058700055E08DE495E00E9472129093400280936F
:105880003F0243EA52E0BC018DE495E00E945112D0
:10589000BC019093400280933F02AE0141525109F6
:1058A0008DE495E00E947212BC01909340028093B7
:1058B0003F0249E952E08DE495E00E945112909335
:1058C000400280933F02FE017097408151816281C6
:1058D000738102E315E027E035E0872D0E944E1F1B
:1058E00060913F027091400247E055E08DE495E001
:1058F0000E9472129093400280933F024FE852E060
:10590000BC018DE495E00E94511290934002809377
:105910003F0288814AE067E075E090E00E94263C03
:1059200060913F027091400247E055E08DE495E0C0
:105930000E9472129093400280933F024AE852E024
:10594000BC018DE495E00E94511290934002809337
:105950003F022DB73EB72C5E3F4F0FB6F8943EBFC7
:105960000FBE2DBFEC14FD045CF446E852E0BC0110
:105970008DE495E00E9451129093400280933F0283
:10598000AE963FEFE31AF30A86E0E816F10409F059
:1059900005CF60913F027091400249E752E08DE4EB
:1059A00095E00E9451129093400280933F028091B3
:1059B0006A030E94931A4AE067E075E090E00E9453
:1059C000263C60913F027091400247E055E08DE433
:1059D00095E00E9472129093400280933F0246E746
:1059E00052E0BC018DE495E00E94511202C54BE0EB
:1059F00050E06AE672E0CE010E94BB3B892B09F4BD
:105A0000F6C44BE351E061E471E0CE010E94331D26
:105A1000BC0187E095E00E94EC3B6091EE04709140
:105A2000EF048091F0049091F10442E355E00E946C
:105A3000921C62E375E087E095E00E940C3C892BA4
:105A400009F4D5C48091EE049091EF04A091F00484
:105A5000B091F104892B8A2B8B2B09F4C8C4C09117
:105A60004B05D0914C0544E050E065E672E0CE0174
:105A70000E94BB3B892B21F48DE495E044D8B9C446
:105A800043E050E061E672E0CE010E94BB3B892B0F
:105A900021F48DE495E082D8ACC444E050E06CE59C
:105AA00072E0CE010E94BB3B892B29F48DE495E086
:105AB0000E94D8239EC443E050E068E572E0CE0126
:105AC0000E94BB3B892BD1F54BE351E066E471E0CA
:105AD000CE010E94331DBC0187E095E00E94EC3BA3
