:10000000A2C70000BCC70000BAC70000B8C7000004
:10001000B6C70000B4C70000B2C70000B0C70000F8
:10002000AEC70000ACC70000AAC70000A8C7000008
:10003000A6C70000A4C700000C94701CA0C7000055
:100040009EC700009CC700009AC7000098C7000028
:1000500096C7000094C7000092C7000090C7000038
:100060008EC700008CC70000D020EC20082124217E
:100070009821982198215D21712186216E616E0061
:10008000696E660000407A10F35A00A0724E18099B
:100090000010A5D4E80000E87648170000E40B54EF
:1000A000020000CA9A3B000000E1F50500008096BE
:1000B0009800000040420F000000A08601000000F0
:1000C000102700000000E8030000000064000000AA
:1000D00000000A00000000000100000000002C7673
:1000E000D888DC674F0823DFC1DFAE59E1B1B7968E
:1000F000E5E3E453C63AE651997696E8E6C28426EB
:10010000EB898C9B62ED407C6FFCEFBC9C9F40F2C6
:10011000BAA56FA5F490055A2AF75C936B6CF96742
:100120006DC11BFCE0E40D47FEF520E6B500D0ED07
:10013000902E0300943577050080841E080000206F
:100140004E0A000000C80C333333330F986E12830D
:100150001141EF8D2114893BE65516CFFEE6DB18E1
:10016000D1844B381BF77C1D901DA4BBE4242032A6
:1001700084725E228100C9F124ECA1E53D274E4145
:100180004E494E495459494E46CDCCCC3D0AD72311
:100190003C17B7D13877CC2B329595E6241FB14F59
:1001A0000A000020410000C84200401C4620BCBE9E
:1001B0004CCA1B0E5AAEC59D740D0A436F6E746512
:1001C0006E742D547970653A206170706C6963614A
:1001D00074696F6E2F782D7777772D666F726D2D1E
:1001E00075726C656E636F6465640D0A0D0A004379
:1001F0006F6E74656E742D4C656E6774683A20007E
:100200000D0A557365722D4167656E743A20626FF1
:10021000782F312E310D0A4163636570743A202ABC
:100220002F2A0D0A000D0A0020485454502F312E59
:10023000310D0A486F73743A2000504F5354200018
:100240000D0A557365722D4167656E743A20626FB1
:10025000782F312E310D0A4163636570743A207432
:100260006578742F68746D6C0D0A0D0A002048546F
:1002700054502F312E310D0A486F73743A200047C5
:1002800045542000000108000604000145000082DA
:100290000000400020223B3C2F5343524950543E23
:1002A000003C484541443E3C534352495054206C25
:1002B000616E67756167653D224A6176615363725D
:1002C000697074223E746F702E6C6F636174696F15
:1002D0006E3D22687474703A2F2F0069700053616C
:1002E0007665007069006970006F6E005465737404
:1002F000006C6F6731006C6F6732006C6F673100A4
:1003000053617665004F6666004F6E0072656C0043
:10031000706100536176650073656E003C48544D12
:100320004C3E3C484541443E3C5343524950542086
:100330006C616E67756167653D224A6176615363E2
:1003400072697074223E746F702E6C6F6361746991
:100350006F6E3D222F223B3C2F5343524950543E57
:10036000006578003C48544D4C3E3C484541443E75
:100370003C534352495054206C616E677561676508
:100380003D224A617661536372697074223E746FD4
:10039000702E6C6F636174696F6E3D222F223B3C3F
:1003A0002F5343524950543E0072656200696E6695
:1003B0006F00646576006D656E75006661766963D1
:1003C0006F6E2E69636F006C6700474554202F00E5
:1003D000522A2A5400534554520053455451004D5B
:1003E000494E490053524348003D257300262530AD
:1003F0003258253032582530325825303258253081
:1004000032582530325825303258253032580025A0
:100410003032582530325825303258253032582560
:10042000303258253032580049443D003C2F626F2D
:1004300064793E3C2F68746D6C3E003A003A0020AF
:10044000646179732000557074696D653A20003CD1
:100450002F68323E3C2F7072653E3C2F74643E3CE8
:100460002F74723E3C2F7461626C653E3C62723E3A
:100470003C62723E3C6120687265663D2F6C673E4F
:100480004C6F67696E3C2F613E3C62723E000D0A04
:10049000003C2F733E0020003C733E003C746974A6
:1004A0006C653E5765624D6574656F426F782D6D62
:1004B000696E693C2F7469746C653E3C63656E744B
:1004C00065723E3C68323E3C753E5765624D6574D0
:1004D000656F426F782D6D696E693C2F753E2026E1
:1004E00023393733303B3C2F68323E3C7461626CB9
:1004F0006520626F726465723D303E3C74723E3CB2
:1005000074642076616C69676E3D746F703E3C70F8
:1005100072653E3C68323E003C2F613E3C62723E5A
:1005200000207461726765743D72663E00267369CF
:10053000643D003C6120687265663D2F73656E3FC7
:100540006E756D3D003C68746D6C3E3C626F647905
:100550003E3C63656E7465723E53656E736F727375
:100560003C2F63656E7465723E3C62723E00657836
:100570003F0045786974007265623F005265626FA2
:100580006F740072656C3F6E756D3D31260052656B
:100590006C617920310072656C3F6E756D3D30265F
:1005A0000052656C61792030006C6F67313F004C00
:1005B0006F6767657220310070613F00506173732F
:1005C000776F72640069703F005443502F495000A8
:1005D0003C2F613E3C62723E00207461726765741C
:1005E0003D72663E007369643D003C61206872653F
:1005F000663D2F003E3C62723E3C62723E3C696E3C
:1006000070757420747970653D7375626D697420BE
:1006100076616C75653D53617665206E616D653DF3
:1006200073613E003E3C696E70757420747970652C
:100630003D68696464656E206E616D653D736964D3
:100640002076616C75653D003C696E707574207430
:100650007970653D68696464656E206E616D653DA5
:100660006E756D2076616C75653D003C62723E432F
:10067000616C63756C617465643C62723E003C62DF
:10068000723E4F66667365743C62723E006F660030
:100690003C62723E43757272656E742076616C7551
:1006A000653C62723E0025322E3266003E456E6128
:1006B000626C652F4469736162653C62723E53658A
:1006C0006E736F72206E616D653A3C62723E006EB1
:1006D000610020286D6178206C656E20313429001E
:1006E00020636865636B6564003C2F623E3C627208
:1006F0003E3C696E70757420747970653D63686501
:10070000636B626F78206E616D653D656E002530AC
:10071000325825303258253032582530325825305D
:100720003258253032582530325825303258004959
:10073000443A203C623E003C666F726D206D6574E9
:10074000686F643D6765743E003C534352495054A2
:10075000206C616E67756167653D224A6176615301
:100760006372697074223E706172656E742E667277
:10077000616D65735B276C66275D2E6C6F636174BA
:10078000696F6E2E72656C6F616428293B3C2F5334
:1007900043524950543E003C626F64793E003E52E1
:1007A00065626F6F743C2F613E003C63656E7465DB
:1007B000723E3C62723E3C62723E3C6120687265F1
:1007C000663D2F7265623F796573267369643D00EB
:1007D00046573A20312E312E392E32202830332EF2
:1007E00030322E32303137293C2F68746D6C3E0028
:1007F0004368616E6765642100223E3C2F666F721C
:100800006D3E006E65772070617373776F72643A26
:100810003C666F726D3E3C696E70757420747970C1
:10082000653D74657874206E616D653D6E657720F9
:100830006D61786C656E6774683D31343E3C627200
:100840003E3C696E70757420747970653D73756295
:100850006D69742076616C75653D4368616E67658E
:10086000206E616D653D6368613E3C696E707574B4
:1008700020747970653D68696464656E206E616D91
:10088000653D7369642076616C75653D22003C634B
:10089000656E7465723E3C62723E50617373776F31
:1008A00072643C666F726D3E3C696E707574207444
:1008B0007970653D70617373776F7264206E616DDE
:1008C000653D70613E3C62723E3C696E707574209D
:1008D000747970653D7375626D69742076616C75AD
:1008E000653D4C6F67696E206E616D653D696E3E5A
:1008F0003C2F666F726D3E003E3C2F666F726D3E00
:1009000000222076616C75653D2253617665265420
:10091000657374223E3C696E7075742074797065DD
:100920003D68696464656E206E616D653D736964E0
:100930002076616C75653D003C2F53454C45435412
:100940003E3C62723E3C62723E3C696E7075742041
:10095000747970653D7375626D6974206E616D6543
:100960003D226C73003C2F6F7074696F6E3E003EC9
:10097000002073656C6563746564003C6F70746916
:100980006F6E2076616C75653D003C62723E506111
:1009900074683C62723E0070617468003C62723E32
:1009A000696E74657276616C3C62723E3C53454C74
:1009B000454354206E616D653D73703E003C62722C
:1009C0003E506F72743C62723E00706F7274000031
:1009D00000686F73740020286D6178206C656E204C
:1009E000323529003E456E61626C652F4469736142
:1009F000626C653C62723E486F7374206E616D6517
:100A00003C62723E0020636865636B6564003C690C
:100A10006E70757420747970653D636865636B6290
:100A20006F78206E616D653D656E003C666F726D1E
:100A3000206D6574686F643D6765743E003C2F737C
:100A4000656C6563743E3C703E3C696E70757420E5
:100A5000747970653D7375626D6974206E616D6542
:100A60003D736E642076616C75653D536176653EBD
:100A70003C2F666F726D3E003C2F6F7074696F6E15
:100A80003E003E002073656C6563746564003C6FD6
:100A90007074696F6E2076616C75653D003C703EC8
:100AA0003C73656C656374206E616D653D73656E46
:100AB0003E3C6F7074696F6E2076616C75653D3178
:100AC00030303E4E6F7420757365643C2F6F7074C8
:100AD000696F6E3E000D4D41583A006D617800001F
:100AE00025322E3266000D4D494E3A006D696E007A
:100AF0000025322E3266003E003E3C696E707574F1
:100B000020747970653D68696464656E206E616DFE
:100B1000653D7369642076616C75653D003C703E8F
:100B20003C696E70757420747970653D68696464A1
:100B3000656E206E616D653D6E756D2076616C75BC
:100B4000653D004F4646004F4E002020203C696E18
:100B500070757420747970653D7375626D69742069
:100B60006E616D653D736E642076616C75653D4F99
:100B70006666207374796C653D2277696474683A9F
:100B8000363570783B6865696768743A36357078D1
:100B90003B223E20003C696E70757420747970654C
:100BA0003D7375626D6974206E616D653D736E6431
:100BB0002076616C75653D4F6E207374796C653D70
:100BC0002277696474683A363570783B686569677E
:100BD00068743A363570783B223E003C7072653E50
:100BE0003C666F726D206D6574686F643D676574F7
:100BF0003E00223E3C696E70757420747970653DCC
:100C00007375626D6974206E616D653D61637420FA
:100C100076616C75653D22536176652026205265AC
:100C2000626F6F74223E3C2F666F726D3E003E44D1
:100C30004843503C62723E3C696E70757420747912
:100C400070653D68696464656E206E616D653D73B5
:100C500069642076616C75653D2200206368656378
:100C60006B6564003C62723E3C696E707574207402
:100C70007970653D636865636B626F78206E616D46
:100C8000653D646800006400000067003C62723EDD
:100C9000444E532020000073003C62723E475720B0
:100CA000202000006D003C62723E4D41534B2000FD
:100CB000253032783A253032783A253032783A2564
:100CC0003032783A253032783A253032780049503F
:100CD0002020200069003C62723E4D4143202000EC
:100CE0003C7072653E3C666F726D206D6574686F16
:100CF000643D6765743E0025642E25642E25642EB0
:100D00002564003C2F6672616D657365743E3C2FEF
:100D100068746D6C3E00206E616D653D72663E00CC
:100D20003C2F6672616D657365743E3C6672616DE1
:100D300065207372633D2F696E666F3F7369643D12
:100D400000206E616D653D6C663E003C6672616DB3
:100D500065207372633D2F6465763F7369643D005F
:100D6000206E616D653D6D663E003C6672616D652D
:100D7000207372633D2F6D656E753F7369643D002E
:100D80003C68746D6C3E3C6672616D657365742081
:100D9000636F6C733D223137302C2A223E3C6672E1
:100DA000616D6573657420726F77733D22323630E2
:100DB0002C202A22207363726F6C6C696E673D224F
:100DC0006E6F223E00256600D0F3E12FECE8ED00C7
:100DD00025312E3366006B572F680025332E32667F
:100DE00000570025332E316600410025332E316631
:100DF000006D6D0025332E316600250025322E3121
:100E00006600266465673B430025322E3266002269
:100E10003E002076616C75653D22003C696E707500
:100E20007420747970653D74657874206E616D65A9
:100E30003D003C68746D6C3E3C686561643E3C6D91
:100E400065746120636861727365743D2277696EB1
:100E5000646F77732D31323531222F3E3C2F686518
:100E600061643E3C626F64793E00485454502F31B7
:100E70002E3020343034204E6F7420466F756E64EF
:100E80000D0A436F6E74656E742D547970653A2047
:100E9000746578742F68746D6C0D0A0D0A45727252
:100EA00000485454502F312E3020323030204F4BD8
:100EB0000D0A436F6E74656E742D547970653A2017
:100EC000746578742F68746D6C0D0A507261676D6B
:100ED000613A206E6F2D63616368650D0A0D0A002B
:100EE0005061796D656E74003030004E6F206E6118
:100EF0006D6500828282820000004F586D0205C03D
:100F0000A801DEFFFFFF00C0A80101C0A801010089
:100F100000828282820000004F586D0205C0A80145
:100F2000DEFFFFFF00C0A80101C0A8010100002FE3
:100F3000706F73742E706870006E61726F646D6F85
:100F40006E2E7275000011241FBECFEFD8E0DEBFF9
:100F5000CDBF11E0A0E0B1E0EEEEFEE702C00590EB
:100F60000D92A03DB107D9F728E0A0EDB1E001C096
:100F70001D92AE35B207E1F788D50C94753F40C895
:100F80008091E4018F5F8093E4010895DF92EF92F6
:100F9000FF920F931F93CF93DF9300D000D000D028
:100FA000CDB7DEB77C01D62E86E0E5E1F1E0DE01CB
:100FB000119601900D928A95E1F78E010F5F1F4FF8
:100FC00023E430E0A80164E470E0C7010E948714C4
:100FD000F701128E138E148E158E81E082A783A7DF
:100FE00096E094A715A686A7D7A6D0AAD1AAF2966E
:100FF000D701AA5BBF4F1192EA17FB07E1F79701F0
:10100000245B3F4FCD0180549109FC0180818D9379
:10101000A217B307B9F7C7018A5E9E4FF901119273
:101020009F01E817F907D1F783E68083F701E95EAE
:10103000FE4F92E89083319693E5908331968083BA
:1010400026960FB6F894DEBF0FBECDBFDF91CF91CD
:101050001F910F91FF90EF90DF900895CF93DF9352
:10106000EC0194DFFE01E65EFE4F85E3808331965E
:1010700081E0808331968083319697E39083319627
:1010800092E0908331968083319683E0808331961D
:101090008FEF80833196108268EF70E0CE010E945E
:1010A000F31480E0DF91CF9108956D3121E0720754
:1010B00000F12AE131E0A9014E5F5F4F4617570763
:1010C000C0F4FC01E20FF31FA181AA2391F02A0FC3
:1010D000311DD90111966A177B0758F0E081E5337D
:1010E00029F4FC01E40FF51F808108952E5F3F4F26
:1010F000E2CF80E00895FC016F3F710591F088F028
:1011000082AD882379F082AD93ADA4ADB5AD809367
:10111000E0019093E101A093E201B093E30181E04B
:10112000089580E00895FC016F3F710569F060F05B
:1011300083A1833449F482A5823031F497A59413B6
:1011400003C081E020A9291380E00895FC016F3FCE
:10115000710529F020F081E096A5923009F080E039
:1011600008954F925F927F928F929F92AF92BF921B
:10117000CF92DF92EF92FF920F931F93CF93DF9363
:101180008B016D31714008F4C8C0E091D001F0913D
:10119000D1017090D30140E050E0BA01AAE14A2E9B
:1011A000552453942CED31E0B4E0AB2EA20E24ED87
:1011B00031E0C4E0BC2EB20E28ED31E0D4E08D2E3B
:1011C000820E92012E5F3F4F2017310750F46201CB
:1011D000AFEFCA1ADA0AEC01CC0DDD1DD881D111AE
:1011E00008C0F093D101E093D0017092D30181E067
:1011F00095C0ED2EF12CCE0CDF1C0C151D0588F3CF
:101200006C01C40CD51CD601CC91C33019F128F463
:10121000CC2369F0C13069F07AC0C53309F45AC0F3
:10122000C63309F45CC0C33309F071C024C028017F
:101230006EC0D43009F06BC06C01C20ED31E28ED15
:1012400031E0D6019D906D01D9019D929D018A12D8
:10125000F8CF5DC0D43009F05AC06C01C20ED31E65
:101260002CED31E0D6019D906D01D9019D929D013B
:10127000AA12F8CF4CC0D43009F041C020E030E0D1
:10128000762F652F542F4427F601E20FF31FE281DA
:101290004E2B2F5F3F4F2430310591F74F3FBFEF6B
:1012A0005B076B077B0771F126E07695679557958D
:1012B00047952A95D1F74E3FCFEF5C076105710541
:1012C00020F5FA01453051056105710500F5E5E0AD
:1012D000F0E01DC0EC01C20FD31F788018C0D430DD
:1012E000B1F46C01C20ED31E24ED31E0D6019D9005
:1012F0006D01D9019D929D01BA12F8CF08C0E0EAB4
:10130000F5E005C0EFEFFFEF02C0EDEFFFEFB2E059
:10131000EB0EF11C4E0C5F1C54CF80E0DF91CF919F
:101320001F910F91FF90EF90DF90CF90BF90AF9003
:101330009F908F907F905F904F900895CF93DF9311
:10134000EC0124DEFE01E65EFE4F85E380833196EC
:1013500081E08083319683E080838091D40188236B
:10136000A9F086E33196808384E031968083809172
:10137000D4019091D501A091D601B091D7013196B9
:1013800080839183A283B38369E001C063E080918D
:10139000E0018823C9F0CE01860F911DFC01E65EB5
:1013A000FE4F22E32083319624E020833196809102
:1013B000E0019091E101A091E201B091E30180830D
:1013C0009183A283B3836A5F70E0CE01860F971F7B
:1013D000FC01E65EFE4F27E32083319622E0208366
:1013E000319621E02083319623E0208331962FEF40
:1013F0002083319610826B507F4FCE010E94F314F0
:1014000080E0DF91CF9108950F931F93CF93DF93E7
:10141000EC018A01BBDD82E08EA7F8018081918119
:10142000A281B3818A8F9B8FAC8FBD8F8081918188
:10143000A281B3818EAB9FABA8AFB9AFFE01E65ED0
:10144000FE4F85E38083319681E08083319683E08F
:10145000808363EF70E0CE010E94F31480E0DF919F
:10146000CF911F910F910895CF92DF92EF92FF924B
:101470000F931F93CF93DF931F92CDB7DEB78C01ED
:101480007B0149839CD5D82E4981882309F468C003
:10149000E114F104A9F580910001909101018230DD
:1014A000910581F481E090E0909301018093000127
:1014B0001092E4014093D20176D56091D201C80127
:1014C000CDDD4DC0D090E001D11011C02091E401DC
:1014D000263068F08091D2018F5F8093D201109204
:1014E000E40161D56091D201C801B8DD39C0833013
:1014F0009105A8F1019790930101809300012FC0FD
:10150000C090D2014C2DB701C8010DDED82E882322
:1015100039F1B701C8011ADE813009F1B701C801FC
:10152000C4DD823081F481E090E0909301018093EA
:101530000001B701C801DFDDB701C80112DE6C2D63
:10154000C801FCDE0CC0853051F481E090E090933E
:101550000101809300012DD5DD24D39401C0D12C4D
:101560008D2D0F90DF91CF911F910F91FF90EF90F4
:10157000DF90CF9008950F931F93009769F000912B
:10158000E0011091E1012091E2013091E301FC01C1
:1015900000831183228333836115710569F0809183
:1015A000D8019091D901A091DA01B091DB01FB0142
:1015B00080839183A283B3834115510569F08091A3
:1015C000DC019091DD01A091DE01B091DF01FA0113
:1015D00080839183A283B3831F910F9108950F930A
:1015E0001F93CF93DF938C01EB018091E40189304D
:1015F00088F01092E4018091D0019091D1019C017A
:10160000225031092D3F3F4F28F401979093D1018B
:101610008093D0012097C9F48091D0019091D1019D
:10162000039738F5CCD4882321F16091D2016F5F04
:101630006093D20140EE51E0C801E6DE85E090E023
:101640009093D1018093D00114C04091D201BE018A
:10165000C80169DD882381F0BE01C80126DD85301F
:1016600041F4BE01C80172DD882319F0BE01C80132
:1016700078DD80E090E001C0CE01DF91CF911F9135
:101680000F91089599B121E030E002C0220F331F7D
:101690008A95E2F7892F90E02823392381E01216FA
:1016A00013060CF080E008950F931F93CF93DF9300
:1016B000182F0FB7F8949AB1C1E0D0E001C0CC0F59
:1016C0008A95EAF79C2B9AB92BB1DC2FD0952D2364
:1016D0002BB981E090E00E9470338BB1C82BCBB95D
:1016E0008AE68A95F1F700C09AB19D239AB98AE6F5
:1016F0008A95F1F700C0812FC5DF0FBFDF91CF9131
:101700001F910F910895AF92BF92DF92EF92FF92D7
:101710000F931F93CF93DF93082FDFB6F894C7E0A2
:10172000D0E010E0AA24A394B12C92E1E92E97E234
:10173000F92E802FA7DF811106C0A89521E0E21ABB
:10174000F108B9F71EC080E58A95F1F7802F9ADF7E
:10175000813039F4C5010C2E01C0880F0A94EAF7D4
:10176000182B82E1E82E87E2F82E802F8BDF813064
:1017700031F4A89581E0E81AF108B9F702C0219781
:10178000A0F6DFBE812FDF91CF911F910F91FF90C7
:10179000EF90DF90BF90AF900895EF92FF920F937C
:1017A0001F93CF93DF9300D000D01F92CDB7DEB749
:1017B000F82E10920201F89477DF809302018130B5
:1017C00009F451C085E88A95F1F7000008E410E0BB
:1017D0008F2D58DF811108C00150110929F0E2E076
:1017E000EA95F1F700C0F4CF8F2D4CDF811102C0D4
:1017F00082E01DC0F5EDFA95F1F700008E010F5F54
:101800001F4F75E0E72EE00E8F2D7DDFF8018193ED
:101810008F01EE12F9CF89814A812B813C81942F6F
:10182000980F920F930F5D81591721F087E38093F2
:10183000020119C090E0982F8827840F911D909382
:10184000E6018093E501822F8F7790E0982F88271B
:10185000830F911D27FF03C0919581959109909366
:10186000E8018093E70178940F900F900F900F900C
:101870000F90DF91CF911F910F91FF90EF900895FE
:101880008091EE010895EAEEF1E024E02E0F31910F
:10189000DC013D93CD012E13FACF0895EF92FF9214
:1018A0000F931F93CF93DF93EC01F62EE72E8A015F
:1018B0001092EE0184D3811105C084E08093E90188
:1018C00081E069C01092E9018091EF018F5F809300
:1018D000EF0190E0BC01706E25E330E047E558E091
:1018E000CE010E9487148091EF018BA781E08CA725
:1018F000FE01BD96CE01C6961192E817F907E1F7F1
:1019000081E08FA7EF2DFE2D9CE04DE04F19642F55
:101910006E0F5081262F30E0552391F05E3241F456
:10192000DE01A90FB11D81509A968C93962F80E00D
:101930005191DE01A20FB31F9A965C938F5FE7CFA0
:10194000FE01E90FF11D815082A7FE01E20FF31F96
:1019500012A681E0860FFE01E80FF11D12A682E0BB
:10196000860FFE01E80FF11D81E082A793E0960F3C
:10197000FE01E90FF11D12A694E0960FFE01E90F9A
:10198000F11D82A789EF860F8AA76B5F70E0CE01F9
:101990000E94F31480E0DF91CF911F910F91FF908F
:1019A000EF900895CF93DF93FC016634710508F43E
:1019B00068C083A1853309F064C084A1803E09F02A
:1019C00060C085A19091EF0189135BC093A5981326
:1019D00058C085A58F78803811F081E038C022A5E5
:1019E000245F61537109DF01A20FB11D9A968C919A
:1019F000807C11F02E5F0EC0822F90E08617970733
:101A000048F42F5FDF01A20FB11D9A968C918111CE
:101A1000F3CF2F5FDF01A20FB11D9B968C919B9797
:101A2000813081F088E0820FDF01A80FB11D9B9605
:101A30008C91265F280F822F90E08617970798F2E7
:101A400083E005C0D3969C91943021F082E080938E
:101A5000E90117C0265FCAEED1E040E050E030E077
:101A6000DA01A20FB31FAE0FBF1F9A969C919993F4
:101A70004F5F5F4F4430510599F791E09093EE012D
:101A800001C080E0DF91CF91089510923E02109244
:101A90003D02F8949FE088E10FB6F894A8958093F2
:101AA00060000FBE909360000E940F32189903C02F
:101AB00080E00E9431328AEF90E00E947033A89556
:101AC0000E9447331092A8031092D6031092040488
:101AD00010923204109260044FE050E060E570E034
:101AE0008AEB94E00E94253F2091630430916404C6
:101AF000A4E6B0E00E94B23A60930D0170930E012B
:101B000080930F0190931001909146058EE2899F7A
:101B1000F0011124E458FC4F23E124A7E1E0E90F90
:101B20008E9FF0011124E458FC4F24E124A7E2E049
:101B3000E90F8E9FF0011124E458FC4F85E184A742
:101B40009D5F9093460580E40E94C11980E80E9441
:101B5000C11946E455E066E080E40E94401B8FEE28
:101B600092E00E9470330E94F631789480915B0875
:101B70008F3F91F585E498E0A4D366E475E08EEE9E
:101B800092E05FD21092340840914A08BC0186E48A
:101B900095E06ADCC82F81E00E94291BCC2369F301
:101BA00043E558E06FE478E08BE498E0E4DC809172
:101BB000530890915408A0915508B091560880930D
:101BC000570890935808A0935908B0935A086FE4A7
:101BD00078E08BE498E080D36BE478E085E498E0EB
:101BE0002AD680E590E038D6EAD1811102C00E9461
:101BF000F631A8950E948C290E94F51E80912A0535
:101C00008130C9F561E070E086E00E94FD1B6093C1
:101C1000E6047093E7048093E8049093E90420912C
:101C2000C7033091C8034091C9035091CA030E9471
:101C3000CF3920E030E041E655E40E94323820E020
:101C400030E04AE754E40E9432389B01AC016091D5
:101C500035087091360880913708909138080E94B5
:101C6000CA3760933508709336088093370890938D
:101C7000380810922A0580912A0290912B02892B14
:101C800009F0B2CFC091B70484E0C89F800111244D
:101C900008501B4F2091C7033091C8034091C903DE
:101CA0005091CA036091E6047091E7048091E804C2
:101CB0009091E9040E94CF3920E030E040E752E4FF
:101CC0000E94323820E030E04AE754E40E94323883
:101CD0002091F5033091F6034091F7035091F803FA
:101CE0000E94CF39F8016083718382839383CF5F31
:101CF000CD3018F4C093B70402C01092B70481E04D
:101D000090E090932B0280932A026ECF2A98962F10
:101D10009F71892B8EBD0DB407FEFDCF1EBC0DB487
:101D200007FEFDCF67FD03C02A9A8EB508951EBC3D
:101D30000DB407FEFDCFF8CF2A986F71862B8EBDAC
:101D40000DB407FEFDCF4EBD0DB407FEFDCF2A9AA0
:101D50000895FB012A982AE32EBD0DB407FEFDCF9E
:101D60008E0F9F1FE817F90739F01EBC0DB407FE50
:101D7000FDCF2EB52193F6CF10822A9A08952A9886
:101D80002AE72EBD0DB407FEFDCF860F971F6817FB
:101D9000790741F0FB012191BF012EBD0DB407FE73
:101DA000FDCFF5CF2A9A08951F93CF93DF93182F75
:101DB0001076C12FD0E02091F20130E0C217D30796
:101DC00079F043E06FE180EAB7DFAE0185E0559539
:101DD00047958A95E1F76FE180E8AEDF1093F20155
:101DE000DF91CF911F910895CF93DF931F92CDB7CD
:101DF000DEB7682F6983D8DF698180E00F90DF91BB
:101E0000CF9184CF1F93CF93DF931F92CDB7DEB7CF
:101E1000182F6983C9DF4981612F80E40F90DF911A
:101E2000CF911F9189CFCF93682F84EDEBDF61E0D5
:101E300082EDE8DF8AEED8DF80FDFCCF60E082ED46
:101E4000E1DF89EDD1DFC82F88EDCEDF2C2F30E028
:101E5000322F2227A901482BCA01CF9108951F9341
:101E6000CF93DF931F92CDB7DEB7162F682F84ED87
:101E70007983C8DF612F86EDC5DF7981672F87ED14
:101E8000C1DF18E28AEEB0DF80FF04C0812F8A959F
:101E9000F1F7F8CF0F90DF91CF911F910895CF9375
:101EA000DF93EC01229A2A9A84B1886284B924983B
:101EB0002B982D9880E58CBD8DB581608DBD4FEF41
:101EC00060E08FEF39DF80E090E00197F1F710924A
:101ED000F1011092F00160E088E094DF60E089E0B9
:101EE00091DF60E08CE08EDF60E08DE08BDF6FEFF4
:101EF0008AE088DF69E18BE085DF60E084E082DFF3
:101F00006AE185E07FDF6FEF86E07CDF6FE187E0ED
:101F100079DF60EB88E376DF6FE388E273DF60E30D
:101F200089E270DF69EF80E36DDF67EF81E36ADFED
:101F30006DE080EC67DF60E081EC64DF42E362EC3F
:101F400080E8FADE62E186EC5DDF6CE087EC5ADF68
:101F500062E184EC57DF6CED8AEC54DF65E08BECDA
:101F600051DF688184EE4EDF698185EE4BDF6A8147
:101F700082EE48DF6B8183EE45DF6C8180EE42DFCD
:101F80006D8181EE3FDF60E071E080E168DF8FE12D
:101F90000BDF40EC6BE180E8CFDE44E06FE180E8EE
:101FA000DF91CF91C9CE88E31FDF682F616088E39E
:101FB00029CF88E319DF682F6E7F88E323CF81E183
:101FC00032DF92FB882780F908950F931F93CF93F8
:101FD000DF93EC018B016FE180E098DE83FDFBCFA6
:101FE0008CE102DF81FF10C040E86FE180E8A4DEF1
:101FF00040E86FE180EAA0DE42E06CE180EA9CDE2E
:1020000080E395E70197F1F760E082E0FBDE6AE1AB
:1020100083E0F8DE6C2F86E0F5DECE01965E692F58
:1020200087E0F0DE40E060E08AE786DEB801CE01BE
:10203000A6DE48E06FE180E8DF91CF911F910F911C
:102040007BCE9F92AF92BF92CF92DF92EF92FF92A0
:102050000F931F93CF93DF936C017B0189E3C4DE61
:10206000882309F44EC06091F001C091F10180E035
:10207000C9DE6C2F81E0C6DE60E08AE347DE082F10
:1020800060E08AE343DE10E0182B1093F101009327
:10209000F00160E08AE33ADEC82F60E08AE336DED2
:1020A000982E60E08AE332DEA82E60E08AE32EDE1E
:1020B000A7FE0EC0960121503109D0E0D9292497FE
:1020C0002C173D0708F4E901B701CE0142DE02C03A
:1020D000C0E0D0E06FEF01308AE1180724F08CE017
:1020E00091DE69E106C0600F8CE08CDE01501109C1
:1020F000612F8DE087DE40E46EE180E81DDECE01D9
:1021000002C080E090E0DF91CF911F910F91FF908E
:10211000EF90DF90CF90BF90AF909F900895CF92B7
:10212000DF92EF92FF920F931F93CF93DF937A0189
:10213000690190910B02891759F0E0910802F09122
:10214000090240E050E060E070E084EF91E03EC0C2
:1021500061113DC02D303105D0F100910802109180
:1021600009020115110599F1C091FC01D091FD0101
:10217000C40FD51F888590E00E94FA3B892B09F196
:10218000A985B0E0D097AA30B105D8F48B8590E04E
:10219000C0978A309105A8F46AE06A9FA0016B9FFE
:1021A000500D11243A85232F30E020533109240F9C
:1021B000351F629FA001639F500D1124840F951F4E
:1021C00002C080E090E0A601B701F801099580E027
:1021D000DF91CF911F910F91FF90EF90DF90CF9003
:1021E0000895CF92DF92EF92FF920F931F93CF93B8
:1021F000DF937C01FB01413051F4AB0148505109A0
:1022000060E070E04F5E5F4F6F4F7F4F0FC0423016
:1022100051F4AB014850510960E070E04A5F5F4FF4
:102220006F4F7F4F03C040E050E0BA01D7011196D5
:102230006F0182E0C816D104B0F0CD010197EC0126
:10224000088110E020E030E0322F212F102F0027EE
:102250008C91082B400F511F621F731FD2E0CD1AC3
:10226000D1081296E6CFCF018E7FD701A80FB91FF4
:10227000E0FF0CC08C9190E0A0E0B0E0BA2FA92F55
:10228000982F8827480F591F6A1F7B1F8B01222711
:102290003327011511052105310539F06627772708
:1022A000400F511F621F731FF1CFCA018095909597
:1022B000DF91CF911F910F91FF90EF90DF90CF9022
:1022C0000895FC01892B39F096E0A4E2B2E0019078
:1022D0000D929A95E1F70895009721F46115710523
:1022E00059F40895FC01A0E2B2E084E08A0F9191D4
:1022F0009D938A13FCCFF2CFFB01A4E0B1E084E010
:102300008A0F91919D938A13FCCF0895DC015A9610
:10231000FB014E963D912191321305C0A817B907D4
:10232000C9F781E0089580E0089569327105A0F051
:10233000FC012485283081F42585263069F4B69681
:10234000A0E2B2E084E08A0F21919D91291304C09C
:102350008A13FACF81E0089580E00895FC016A3283
:102360007105B0F08485883099F48585811110C09D
:102370009685953471F47E96A0E2B2E094E09A0FCF
:1023800031912D91321305C09A13FACF81E008954F
:1023900080E00895CF93DF93A4E2B2E09C012A5F2E
:1023A0003F4FF9014081EC014993CE014D9141939A
:1023B000C217D307B9F7DF91CF910895CF93DF9379
:1023C000EC01188E198E80E48C8B1D8A8E8B40E078
:1023D00064E170E0CE010E9604DF988F898FDF9163
:1023E000CF910895CF93DF93EC016E96DC015A965E
:1023F000E0E2F2E024E02E0F3C91399331913D93DD
:102400002E13FACFDF91CF91D9CF9C01265D3F4F9C
:10241000FC01BE96D9018E91680F711D8291608377
:10242000442311F08C9301C01C92672F7727E21789
:10243000F30789F70895CF93DF93EC018CA19AA15C
:102440009CA38AA38DA19BA19DA38BA3CE01DDDFBD
:102450001AAA1BAA80E58EA7DF91CF910895CF938A
:10246000DF93EC0197DF1C8A82E08D8BCE01809692
:10247000DE01569644E252E026E0240F3C91FC0136
:102480003193CF01FA013191AF013D932E13F6CF75
:10249000CE018696DE015C9640E252E024E0240FF5
:1024A0003C91FC013193CF01FA013191AF013D9391
:1024B0002E13F6CFBE018AE290E0DF91CF9185CD59
:1024C0000F931F93CF93DF93EC018B0163DFCE015A
:1024D00089DF1AA29CA1983F18F02DA12F5F2DA390
:1024E000985F9CA3BE01C801DF91CF911F910F910E
:1024F0006CCDFC01208930E0322F22278189282BE6
:102500002451310986A582958F70A90164E0869FC8
:10251000401951091124CA0157FF02C080E090E020
:1025200008959C01CB01FC01E61BF70BE40FF51F9E
:10253000E491EE2339F0D901A80FB91FD696EC9398
:102540000196F1CF0895DB01D696A80FB91FFA01C5
:10255000420F4E1719F081918D93FBCFCB01820F63
:10256000911D0895FA0101900020E9F731979F012C
:10257000241B350BE8CFEF92FF920F931F93CF935D
:10258000DF9300D000D01F92CDB7DEB790910B0241
:10259000891392C080910A020091FC011091FD0103
:1025A000811126C04FE752E060E070E0C801B9DF5A
:1025B0004091020250910302BC01C801B2DF409178
:1025C000000250910102BC01C801CCDF4DE652E08F
:1025D000BC01C801A6DF4091FE015091FF01BC0182
:1025E000C8019FDF40E452E0BC01C8019ADF66C029
:1025F0004AE352E060E070E0C80193DF40910202DC
:1026000050910302BC01C801ADDF4091000250911E
:102610000102BC01C801A6DF48E252E0BC01C801CA
:1026200080DF4091FE015091FF01BC01C8019ADF9B
:10263000E0900602F0900702E114F10449F045E24F
:1026400052E0BC01C8016DDFA701BC01C80169DF10
:1026500040E052E0BC01C80164DF4FEE51E0BC0134
:10266000C8015FDF7C01A0910402B0910502FD0169
:1026700001900020E9F731974AE0BE016F5F7F4F7C
:10268000CF018A1B9B0B0E947C3C0091FC011091A6
:10269000FD01AE014F5F5F4FB701C80163DF49EB3A
:1026A00051E0BC01C8013DDF409104025091050298
:1026B000BC01C80157DF02C080E090E00F900F908E
:1026C0000F900F900F90DF91CF911F910F91FF907E
:1026D000EF9008950F931F93CF93DF9300D01F9235
:1026E000CDB7DEB78C014B8369837A8353DE4B8190
:1026F000842F8061F80187A769817A81443029F0AD
:102700006115710511F461E070E041E0C80193DEEC
:10271000F801108A88E2818BC80164DE84E0F80148
:1027200080AB11AA42E06CE170E0C8014A9659DD25
:10273000F80192AB83ABB80186E390E00F900F9065
:102740000F90DF91CF911F910F913FCC0F931F936B
:10275000CF93DF93EC018B01CB018896988B898B0B
:10276000CE012CDE1AAA1BAAB801645E7F4F42E09C
:10277000CE014A9636DD9AAB8BABBE01C801C69638
:10278000DF91CF911F910F9120CCCF92DF92EF92EA
:10279000FF920F931F93CF93DF9300D0CDB7DEB797
:1027A0006C01F42EE52E69837A83F4DD6981062FAE
:1027B0007A81172F0D3D110510F00CED10E0F60198
:1027C000108AC8014C96818BC6010CDEF60182A1ED
:1027D00084A383A185A3E2A2F3A216A2C80108964E
:1027E00087A310A611A6B801605F7F4F41E0C60124
:1027F0004A96F7DCF60190A781A7B601C8018A9630
:102800000F900F90DF91CF911F910F91FF90EF905C
:10281000DF90CF90DACBFB01BC01665D7F4FDB011F
:102820005A2F561B541718F451915D93F9CF642F0A
:1028300070E0A901AACF6115710519F4009759F448
:102840000895FB01A0E2B2E024E02A0F31913D930C
:102850002A13FCCFF3CF35CD9093F5018093080177
:102860000895CF93DF93EC0195DD188A8CE2898B74
:10287000CE01B8DD82E18FA740E061E070E0CE01DB
:10288000DADD1EA21FA280910C0188A719A68D5F18
:1028900080930C0182E08EAB84E08FAB85E088AF43
:1028A00019AE80E68EA78AE088AB19AA42E060E202
:1028B00070E0CE014A9695DC9AAB8BABBE018AE301
:1028C00090E0DF91CF9181CB0F931F93CF93DF9354
:1028D000EC018B016091F3017091F40140E0FADEAC
:1028E00089E18FA7B801CE01DF91CF911F910F91A0
:1028F0002DCF640F751F4617570741F0FA01249139
:10290000FC012193CF014F5F5F4FF5CF0895AF9248
:10291000BF92CF92DF92EF92FF920F931F93CF93CC
:10292000DF9300D0CDB7DEB75C01F62EE72E6A014B
:10293000B5016A5F7F4FE4E2F2E046E04E0FD80156
:102940005D918D01DC015D93CD015191DB015D93C2
:10295000BD014E13F4CF88E0F501848715864CE85D
:1029600052E069E070E0C5010E9629833A83C1DF29
:1029700080910301D50153968C9353978F5F809379
:10298000030150961C92509781E157968C938601D3
:10299000C5014E96E0E2F2E044E04E0F3A81298113
:1029A000D8015D918D01DC015D93CD015191BD0197
:1029B00065507109DB015C934E13F2CFF50134A32E
:1029C00025A3E2A2F3A216A210A611A60F900F90C3
:1029D000DF91CF911F910F91FF90EF90DF90CF90FB
:1029E000BF90AF9008950F931F93CF93DF93EC01A7
:1029F0008B01CB014C96898B988BCE01DFDCC80113
:102A000008968FA39EA3B801605F7F4F41E0CE017F
:102A10004A96E7DB89A798A7BE01C8018A96DF918D
:102A2000CF911F910F91D1CAEF92FF920F931F93F5
:102A3000CF93DF9320912002222309F44CC0EC01B4
:102A400024E2E22E22E0F22EDC011696F7014FEF8F
:102A500026E02E0D499331913D932E13FBCF8B0130
:102A6000EC0188E08C8786E08D8744E852E068E0DE
:102A700070E0CE010E963DDFAE01405E5F4FDE019D
:102A80009696F70121917F01CA010A97FC012083E4
:102A9000FA011192AF01EA17FB0799F7C80160E24A
:102AA00072E024E0260FFC013191CF013D93FB0140
:102AB0003191BF01AD014B505109FA01308326130A
:102AC000F2CFBE018AE290E0DF91CF911F910F918A
:102AD000FF90EF907ACADF91CF911F910F91FF90F5
:102AE000EF90089581E09091F701923009F480E031
:102AF00008955093B0044093AF0421E02093F70170
:102B00006093F601E8EFF1E024E02E0FDC013D9147
:102B1000CD0131932E13FACF0895FF920F931F9397
:102B2000CF93DF93EC01162F042FF52E9C0184E246
:102B300092E0BE016A5F7F4FE3E1F2E046E04E0FB4
:102B40005191D9015D939D01DC015D91CD01DB01C6
:102B50005D93BD014E13F4CF88E08C871D864CE851
:102B600052E069E070E0CE010E96C3DE8CE2898B04
:102B7000809103018B8B8F5F8093030186E08F8BA5
:102B8000DE015E9680E292E069E172E024E0260FC9
:102B9000FB013191BF013D93FC013191CF01AD01AA
:102BA00045505109FA0130832613F2CFCE0106DCDD
:102BB000FCA20DA38BE08AA31BA3FE01B696CE0157
:102BC0008E961192E817F907E1F780910C0188A71A
:102BD0008D5F80930C0180E68EA782E08FA793E043
:102BE00098AB19AA1AAA1BAA1CAA1DAA8EAB94E01C
:102BF0009FAB88AF8EEE89AF42E060E270E0CE011D
:102C00004A96EFDA9AAB8BABBE018AE390E0DF9194
:102C1000CF911F910F91FF90D8C90F931F9390935D
:102C20000F0280930E0270930D0260930C02D90183
:102C3000E9E1F2E084E08E0F9D9191938E13FCCF39
:102C4000D801E3E1F2E086E08E0F9D9191938E131F
:102C5000FCCF509311024093100281E08093120246
:102C600080911D028F5F883018F480931D0202C08E
:102C700010921D0280911D021F910F9108952F92B5
:102C80003F924F925F926F927F928F929F92AF92FC
:102C9000BF92CF92DF92EF92FF920F931F93CF9349
:102CA000DF9300D0CDB7DEB73C011B012A01298399
:102CB0003A8385D929813A81882329F170920302C8
:102CC000609202025092FF014092FE013092010296
:102CD000209200023093070220930602109305020F
:102CE0000093040281E080930A02F0920902E092CC
:102CF000080285019601A4016BEB72E18FE890E177
:102D00008CDF80930B020F900F90DF91CF911F917A
:102D10000F91FF90EF90DF90CF90BF90AF909F907A
:102D20008F907F906F905F904F903F902F9008957D
:102D3000AF92BF92DF92EF92FF920F931F93CF93C8
:102D4000DF931F92CDB7DEB75C017B016115710582
:102D500009F04EC08091F701893069F48091090132
:102D600090910A01892B39F42AD9882321F068EF40
:102D700071E0C50159DE8091F701813081F41FD9DE
:102D8000882369F068EF71E0C5014EDE8091F7019C
:102D900088608093F70110920A01109209018091D6
:102DA000090190910A01019690930A01809309010B
:102DB00080911202813009F066C101D9882309F49B
:102DC00062C182E08093120260910B016F5F609399
:102DD0000B0140911002509111026F7180911D0200
:102DE00020E2829FC0011124682BC50196DE4BC1F1
:102DF0009CDA882351F1D50155968C91813011F4DC
:102E0000C5012DDB8091F70183FF3DC1F5011589D7
:102E1000123009F038C144E050E068EF71E0C501BC
:102E20004C960E942A3C892B09F02DC1A5014A5ECF
:102E30005F4FE091AF04F091B0046091F60188EF2C
:102E400091E009951093F7011EC1B701C50186DA1B
:102E5000882309F418C1D50157968C915797813072
:102E600091F492968C91883009F00DC1E0911E0288
:102E7000F0911F02309719F0C5014A960995B701E4
:102E8000C5011EDB00C1B6E3EB16F10408F4FBC07C
:102E9000863009F0F8C0F50184A18B3009F0C1C07B
:102EA000B092FD01A092FC0169E172E0C5012EDA49
:102EB000882309F4E8C0D5019F962C919F9722FFA3
:102EC00013C0E0910E02F0910F02309759F09596E1
:102ED0008C9120E030E040E050E063E08295869500
:102EE0008770099586E092C0C501298302DB8C01B9
:102EF000809112022981823089F5822F807122719E
:102F00002231F9F440E060E070E0C501E3DB88E1E4
:102F1000F50187A7E0910C02F0910D02309741F086
:102F2000D50193968C91829586958770099502C0FC
:102F300080E090E023E020931202BC01C50106DC92
:102F4000A2C091E090931202811104C0B8016F5F9A
:102F50007F4F02C060E070E044E060C08330A9F5BC
:102F60000115110591F184E080931202E0910E02A7
:102F7000F0910F02309749F1D5019E964C91429500
:102F80004F70B4E04B9FA0011124C70108974E5D1C
:102F90005F4F8417950708F4AC01C801840F951F93
:102FA000E816F90620F49701241B350B01C098019F
:102FB000D50195968C9160E08295869587700995EC
:102FC000882319F049E0B8011EC090911202F50162
:102FD00087A5953019F484FD85CF55C0963069F4E6
:102FE00084FD04C0B8016F5F7F4F02C060E070E0F5
:102FF00044E0C5016FDB87E009C080FF0AC0B8016B
:103000006F5F7F4F41E0C50165DB85E08093120271
:103010003AC001151105B9F140E0B801C5015ADB0C
:1030200032C09091F50189132EC095A180910801BD
:10303000981329C0D7A4D1FE03C0C50112DC23C058
:10304000D4FE21C0C50155DA8C019093F401809320
:10305000F301892B41F4D0FE16C040E060E070E03F
:10306000C50138DB12C0F50106A502950F70F4E02A
:103070000F9F800111240E5D1F4F28E0E21AF10816
:10308000E016F10610F400E010E0C8010F90DF91A7
:10309000CF911F910F91FF90EF90DF90BF90AF9075
:1030A000089598E028E1362F382730FD02C0669554
:1030B00003C062276695606886959150A1F7862FB8
:1030C0000895EF92FF920F931F93CF93DF93EC013C
:1030D0007C0187E0E80EF11C8E0160E0F80181912F
:1030E0008F01DFDF682F0E151F05C1F781E09F817B
:1030F000691301C080E0DF91CF911F910F91FF9084
:10310000EF900895EF92FF920F931F93CF93DF9369
:10311000EC017C0188E0E80EF11C8E0160E0F80112
:1031200081918F01BEDF682F0E151F05C1F781E069
:103130009885691301C080E0DF91CF911F910F91B5
:10314000FF90EF9008951F93CF93DF93D82F162F02
:10315000C8E0812FD0FF02C022D101C039D1D6955D
:10316000C150B9F7DF91CF911F9108951F93CF936D
:10317000DF93182FD8E0C0E0C695812F42D181118E
:10318000C068D150C9F78C2FDF91CF911F9108955E
:10319000682F8CECD8CFCF92DF92EF92FF921F93E3
:1031A000CF93DF931F92CDB7DEB7F82E162F85E5AC
:1031B0009983C9DFCF2C9981D92E760188E0E80E5A
:1031C000F11C612FF60181916F01BDDF81E090E07C
:1031D0000E947033CE14DF04A1F70F90DF91CF91DE
:1031E0001F91FF90EF90DF90CF900895CF92DF92E4
:1031F000EF92FF920F931F93CF93DF938C01D62E04
:10320000E42E642F80EF9FDFC1E0F12CD1E08E2D02
:10321000F8D0C82E8E2DF5D0CC2039F0811131C0D8
:10322000F80180818C2B808319C0F801908188235C
:1032300021F08C2F8095982303C0DD1104C09C2BB6
:10324000F80190830BC0DD1630F48C2F8095982305
:10325000F801908302C09C2309F4FD2EF8018081BF
:103260008C2319F08E2D9BD002C08E2DB1D0DF5F44
:10327000CC0F19F40F5F1F4FC1E0D13441F68F2DF1
:1032800001C08FEFDF91CF911F910F91FF90EF90D1
:10329000DF90CF9008956F927F928F929F92AF921E
:1032A000BF92CF92DF92EF92FF920F931F93CF9333
:1032B000DF931F92CDB7DEB75C01062F942E690114
:1032C0003C0184E0680E711C930180E0801761F07E
:1032D000A901485F5F4FF9011192E417F507E1F783
:1032E0008F5F225D3F4FF2CF7301F30110E060E08A
:1032F00088E0882E1017F9F0A895D701882D019045
:103300000D928A95E1F7892D69839BD06981882385
:1033100029F1492DC7016ADF682F1F5FD5019EE2A1
:10332000199FA00DB11D11241496F701882311F0E7
:103330007D01E0CF012F10E0101771F0A895C301B7
:10334000C0DEEEE26E0E711C81110AC0F6018081B2
:103350008F5F80831F5FF0CF80E003C08FEF01C0DD
:1033600081E00F90DF91CF911F910F91FF90EF902F
:10337000DF90CF90BF90AF909F908F907F906F9095
:1033800008959AB1809598239AB99BB189238BB9F6
:103390008BEB93E00197F1F700C0000008952FB781
:1033A000F8949AB1982B9AB99BB1809598239BB9C0
:1033B0009AE09A95F1F700C09AB198239AB99BB117
:1033C00089238BB985EA8A95F1F700002FBF08950C
:1033D0002FB7F8949AB1982B9AB99BB180959823FE
:1033E0009BB99AE99A95F1F700C09AB198239AB9D6
:1033F0009BB189238BB985E18A95F1F700002FBF36
:1034000008953FB7F8949AB1982B9AB99BB1282F99
:10341000209592239BB99AE09A95F1F700C09AB152
:1034200092239AB99BB192239BB922E12A95F1F795
:1034300000C099B12DE82A95F1F700003FBF89231C
:1034400008953FB7F8949AB1982B9AB99BB1282F59
:10345000209592239BB9EBEBF3E03197F1F700C095
:1034600000009AB192239AB99BB192239BB9F5EBD4
:10347000FA95F1F7000099B1EFE2F3E03197F1F737
:1034800000C000003FBF909589230895883C9105B6
:1034900029F480912F028F5F80932F0280913C024C
:1034A000823019F483E080933C020895613049F43E
:1034B000DA01E6E3F2E086E08E0F9D9191938E13A0
:1034C000FCCF0895CF92DF92EF92FF920F931F935C
:1034D000CF93DF9300D000D01F92CDB7DEB78C0121
:1034E000FC0110821182128213827B0120E090E0A5
:1034F000F70181917F01882361F12430D8F5933061
:1035000090F4482F50E0405351094A30510548F497
:10351000E1E0F0E0EC0FFD1FE90FF11D80839F5FFC
:1035200002C0992329F38E3219F7E1E0F0E0EC0FA5
:10353000FD1FE90FF11D10826801C20ED11CCE01E2
:1035400001962D830E94053BF60180832D812F5F1C
:10355000CECF233079F4E1E0F0E0EC0FFD1FE90F6E
:10356000F11D1082CE0101960E94053BF801838374
:1035700080E001C081E00F900F900F900F900F90AE
:10358000DF91CF911F910F91FF90EF90DF90CF903F
:10359000089581E04D9B80E00895813011F45D9A9B
:1035A00008955D98089596B121E030E002C0220FA1
:1035B000331F8A95E2F7892F90E02823392381E091
:1035C000121613060CF080E0089593B121E030E06C
:1035D00002C0220F331F8A95E2F7892F90E028233B
:1035E000392381E0121613060CF080E0089545B1EE
:1035F00021E030E0613049F4B90102C0660F771F65
:103600008A95E2F7CB01842B09C0B90102C0660F8D
:10361000771F8A95E2F7CB018095842385B90895B9
:1036200048B121E030E0613049F4B90102C0660FD1
:10363000771F8A95E2F7CB01842B09C0B90102C03C
:10364000660F771F8A95E2F7CB018095842388B9AE
:103650000895CF93DF93D82FC0E0CD1771F05D9A16
:1036600082E390E00E94703380E097DF82E390E095
:103670000E947033A895CF5FF0CFDF91CF9108956E
:103680009F92AF92BF92CF92DF92EF92FF920F93F1
:103690001F93CF93DF931F92CDB7DEB7F82EE62EA0
:1036A0008A01DA018C9165E0681BBEE28B9FC00144
:1036B00011249E012F5F3F4F4F2D84589C4FEBDD0F
:1036C000F801D0808EE2C82E90E1992EAD2CB12C5D
:1036D0008981D8012C9130E0280F311DA216B30644
:1036E000ECF46D2D8F2D0E94FC33CA9CF001CB9C15
:1036F000F00D1124E458FC4F86A18F3721F06D2D79
:103700008F2D0E944134CA9CF001CB9CF00D1124F6
:10371000E458FC4FF3A694A6D394D8CF811140C0AF
:103720008E2D0E94CD0B8AEF90E00E947033A895F9
:103730008AEF90E00E947033A8958E2D0E94CD0BE9
:1037400080910201811135C0D801EC914EE24E9F6B
:10375000F0011124E458FC4FE3A62C9130E02F5FD8
:103760003F4F429FF001439FF00D1124E458FC4F5E
:10377000E3A6EC914E9FF0011124E458FC4F21E1A7
:1037800024A78C9190E00196489FF001499FF00D8D
:103790001124E458FC4F24A78C918E5F8C9309C0B0
:1037A0008F2D0E947B338981F8019081980F90833F
:1037B00001C080E00F90DF91CF911F910F91FF909A
:1037C000EF90DF90CF90BF90AF909F90089580646E
:1037D00080937C0080917A00806480937A0080914D
:1037E0007A0084FFFCCF80917A00806180937A0018
:1037F000809178009091790008958F929F92AF9276
:10380000BF92CF92DF92EF92FF920F931F93CF93CD
:10381000DF93D82EEB0187E0DADF7C0100E911E0CD
:10382000812C912C54018D2DD2DF8E199F0997FF89
:1038300003C0919581959109BC01990F880B990B53
:103840000E94C8389B01AC010E94CF399B01AC019A
:10385000C501B4010E94CA374B015C0182E48A951C
:10386000F1F700C001501109F1F620E030E048EC1A
:1038700053E4C501B4010E9432380E94363A6B010C
:103880007C01BE01DD0F880B990B0E94C8384B01EB
:103890005C0120E030EC4FE754E4C701B6010E9420
:1038A000323823E333E343E550E40E94CF3920E08C
:1038B00030E040EF51E40E94CF399B01AC01C501DB
:1038C000B4010E94CF39DF91CF911F910F91FF90EA
:1038D000EF90DF90CF90BF90AF909F908F90089522
:1038E0001F920F920FB60F9211242F933F934F9375
:1038F0005F936F937F938F939F93AF93BF93EF9358
:10390000FF938091520390915303A0915403B0917F
:1039100055030196A11DB11D80935203909353034B
:10392000A0935403B093550380912C028F5F84368B
:1039300018F480932C0217C010922C0280912E0252
:103940008F5F80932E0281E080932A0580912D0263
:103950008F5F80932D0280912D02863020F010928F
:103960002D020E94C00780914403813011F580919F
:103970004A0390914B03A0914C03B0914D03892BC6
:103980008A2B8B2BA1F080914A0390914B03A0913D
:103990004C03B0914D030197A109B10980934A03EB
:1039A00090934B03A0934C03B0934D0302C010922D
:1039B000440380914303813011F580914603909137
:1039C0004703A0914803B0914903892B8A2B8B2B85
:1039D000A1F08091460390914703A0914803B091D4
:1039E00049030197A109B1098093460390934703C6
:1039F000A0934803B093490302C0109243038091FF
:103A00004503813031F580914E0390914F03A09191
:103A10005003B0915103892B8A2B8B2BA1F08091FD
:103A20004E0390914F03A0915003B0915103019721
:103A3000A109B10980934E0390934F03A0935003C3
:103A4000B093510306C01092450310922B021092BE
:103A50002A02FF91EF91BF91AF919F918F917F913A
:103A60006F915F914F913F912F910F900FBE0F90EB
:103A70001F90189590ED980F9A3070F09FE9980F6D
:103A8000963010F499EA05C09FEB980F963018F421
:103A900099EC980F01C0982F892F089590ED980FF9
:103AA0009A3060F09FE9980F963010F4875508958A
:103AB0009FEB980F963020F487530895892F08952F
:103AC00080E00895CF93DF93EA012AE00E948E3CC4
:103AD000CE01DF91CF910895EF92FF920F931F9344
:103AE000CF93DF938B01EC0120E030E089918823B4
:103AF00061F0209F7001219FF00C309FF00C112489
:103B0000B9DF9701280F311DF1CFC901DF91CF91A6
:103B10001F910F91FF90EF9008955F926F927F92A7
:103B20008F929F92AF92BF92CF92DF92EF92FF92CD
:103B30000F931F93CF93DF93CDB7DEB72B970FB6BD
:103B4000F894DEBF0FBECDBF6C01562EFC01019074
:103B50000020E9F731977F01E81AF90A5C0120E0BB
:103B600030E000E010E0842E912CC5018C199D09F5
:103B70008E159F0514F5F50181915F01E1E0F0E0FC
:103B8000EC0FFD1FE20FF31F851113C010823801E7
:103B9000FFEF6F1A7F0AB401CE0101964B879CDFBD
:103BA000F801E15CFD4F8083830120E030E04B852C
:103BB000DCCF80832F5F3F4FD8CFE1E0F0E0EC0F08
:103BC000FD1FE20FF31F1082642F70E0CE010196FB
:103BD00083DFF801E15CFD4F80832B960FB6F894EC
:103BE000DEBF0FBECDBFDF91CF911F910F91FF9030
:103BF000EF90DF90CF90BF90AF909F908F907F908D
:103C00006F905F9008950F931F93CF93DF938A0176
:103C1000FB0101900020E9F73197EF01C61BD70B9C
:103C20000E94623C009719F410923F0223C0BC012D
:103C30006C0F7D1F8FE392E00E94423CEFE3F2E0C5
:103C400001900020E9F73197EF01CF53D240B8013E
:103C50008FE392E00E94623CFC0101900020E9F7B2
:103C60003197E81BF90BCE018E1B9F0BFC01E15C29
:103C7000FD4F10828FE392E0DF91CF911F910F9162
:103C80000895CF92DF92FF920F931F93CF93DF930C
:103C90008C01EC01F80180818823D9F08B32A1F0EE
:103CA000853299F4680182E0C80ED11CF801818147
:103CB000F5DEF82EF8018281F1DEF0E1FF9E900141
:103CC0001124822B860101C080E289930F5F1F4F70
:103CD000E1CF1882DF91CF911F910F91FF90DF907C
:103CE000CF900895AF92BF92CF92DF92EF92FF9262
:103CF0000F931F93CF93DF9307E513E088E6E82E39
:103D000083E0F82EAA24A394B12CF701399780817F
:103D1000811114C00E5E1F4F82E1E80EF11CE3E03A
:103D20000B371E0791F7DF91CF911F910F91FF90F5
:103D3000EF90DF90CF90BF90AF900895CCE7D3E0A5
:103D4000C12CD12CF601E458FC4F81A18F3F09F022
:103D500042C084A5882309F43EC048E050E0B80181
:103D6000CE0104960E942A3C892BA9F52D8D3E8D0B
:103D70004F8D58A1688179818A819B810E94CA37C1
:103D8000F80121853285438554850E942E3887FFAE
:103D900004C060E0F701808143DC2D8D3E8D4F8DA6
:103DA00058A1688179818A819B810E94CA37F80174
:103DB00025853685478550890E94CB3918165CF4D5
:103DC00028B1C501F701008002C0880F991F0A942D
:103DD000E2F7822B88B9FEE2CF0ED11CAE9686EEBA
:103DE000C816D10409F0AECF95CF2F923F924F92D3
:103DF0005F926F927F928F929F92AF92BF92CF927B
:103E0000DF92EF92FF920F931F93CF93DF938091F6
:103E10004503811136C1BDDB91E0811190E0892F0E
:103E2000BCDB80915603882399F00E94F6311092F2
:103E3000560388EE93E0A0E0B0E080934A039093AD
:103E40004B03A0934C03B0934D0381E08093440354
:103E500084EF91E0A0E0B0E0809311019093120113
:103E6000A0931301B093140180934E0390934F03DA
:103E7000A0935003B093510335DFF12C8EE2E82E6E
:103E800094E0292E2CEA922E3EE0332E46E0D42EEA
:103E900058E0452E6EE1562E79E0672ECC24C3946F
:103EA000E2E07E2EFAEA8F2EAF2CB12CEA9C800144
:103EB000EB9C100D1124E801C458DC4F8CA5833114
:103EC00099F038F4803109F45CC0813109F471C093
:103ED000D0C08431C9F0853109F0CBC0C8EFD4E03F
:103EE00060E070E0CB012AC02B8E8091E6049091B7
:103EF000E704A091E804B091E90488839983AA8338
:103F0000BB839C823D820FC04B8E8091350890917F
:103F10003608A0913708B091380888839983AA831E
:103F2000BB839C825D82D801AE57BC4FE5E4F8E0CC
:103F30008D2D01900D928A95E1F79BC029913991C1
:103F4000499159910E94CA3725E0C832D207B1F78A
:103F5000EA9CE001EB9CD00D11248E0104581C4F0B
:103F6000F801638E20E030E040E451E40E943238F2
:103F7000F80160837183828393839482E582DE01FA
:103F8000D3CFB80160587C4FAE018BA50E94873318
:103F9000811103C0CB8E1DA601C0CDA6EA9CF00105
:103FA000EB9CF00D1124E458FC4F83A50E947B3359
:103FB00060C08BA50E94CD0B80910201BB24B394FD
:103FC000BF0C81114EC01DA67B8E6091E5017091E2
:103FD000E60180E090E00E94C63820E030E040E258
:103FE00051E40E943238688379838A839B838C8270
:103FF0008AE18F0D8D83D801AE57BC4FE5E4F8E020
:104000008D2D01900D928A95E1F7EB9C8001112492
:10401000E801C458DC4F1DA6CB8E6091E70170917A
:10402000E801072E000C880B990B0E94C83820E08D
:1040300030E040E251E40E943238688379838A8319
:104040009B838C828BE28F0D8D83D801AE57BC4F42
:10405000E5E4F8E08D2D01900D928A95E1F7FB2CB7
:1040600008C0CDA6FB2CEB9CF0011124E458FC4FBA
:10407000C5A6F394F4E0FF1508F016CF81E0809315
:104080004503DF91CF911F910F91FF90EF90DF904B
:10409000CF90BF90AF909F908F907F906F905F90E8
:1040A0004F903F902F90089541EA5EE060E070E00D
:1040B00086E495E00C9491124AE65EE060E070E0E0
:1040C00086E495E00C94911242E35EE00C94911228
:1040D000CF92DF92EF92FF920F931F93CF93DF93D4
:1040E000EC0169010E9491124BE15EE0BC01CE013E
:1040F0000E949112A601BC01CE010E94911242E1E0
:104100005EE0BC01CE010E949112A801BC01CE016B
:104110000E94B2124FE05EE0BC01CE010E949112FB
:10412000A701BC01CE01DF91CF911F910F91FF90AC
:10413000EF90DF90CF900C9491123F924F925F924C
:104140006F927F928F929F92AF92BF92CF92DF92A7
:10415000EF92FF920F931F93CF93DF9300D000D085
:1041600000D0CDB7DEB72A013B01C22E332E480165
:10417000E82EF12C9EE2899FF0011124E458FC4FB7
:10418000E38D8E2F90E0FC013197CE0101965C010A
:10419000EA30F10508F0CCC0EC5CFF4F0C94AC3A6F
:1041A0008EE28E9DF0018F9DF00D1124E458FC4F9E
:1041B0002081318142815381C301B2010E94CA37FB
:1041C000162FF72EE82ED92E69E07EE0C5010E9459
:1041D0000A3C62E07EE098C08EE28E9DF0018F9DE9
:1041E000F00D1124E458FC4F20813181428153812C
:1041F000C301B2010E94CA37162FF72EE82ED92E1E
:104200006CEF7DE0C5010E940A3C6AEF7DE07CC056
:104210008EE28E9DF0018F9DF00D1124E458FC4F2D
:104220002081318142815381C301B2010E94CA378A
:10423000162FF72EE82ED92E64EF7DE0C5010E94DF
:104240000A3C61EF7DE060C020E030E0A901C301DD
:10425000B2010E942E38811114C08EE28E9DF001B1
:104260008F9DF00D1124E458FC4F1081F180E28005
:10427000D3806BEE7DE0C5010E940A3C69EE7DE0D3
:1042800043C08EE28E9DF0018F9DF00D1124E45805
:10429000FC4F2081318142815381C301B2010E94D0
:1042A000CF39162FF72EE82ED92E63EE7DE0C5010B
:1042B0000E940A3C61EE7DE027C08EE28E9DF001F7
:1042C0008F9DF00D1124E458FC4F1081F180E280A5
:1042D000D3806BED7DE0C5010E940A3C66ED7DE078
:1042E00013C08EE28E9DF0018F9DF00D1124E458D5
:1042F000FC4F1081F180E280D38060ED7DE0C5014C
:104300000E940A3C68EC7DE0C4010FC08EE28E9DE5
:10431000F0018F9DF00D1124E458FC4F1081F180C5
:10432000E280D38065EC7DE0C5010E940A3C04C0B8
:1043300010E0F12CE12CD12CDF92EF92FF921F9331
:10434000BF92AF923F92CF920E94003D0FB6F89479
:10435000DEBF0FBECDBF80E090E026960FB6F8948A
:10436000DEBF0FBECDBFDF91CF911F910F91FF90A8
:10437000EF90DF90CF90BF90AF909F908F907F9005
:104380006F905F904F903F9008950F931F93CF933E
:10439000DF93EC0189DE8C016091B1047091B2046D
:1043A0008091B3049091B4044BEC54E08BDB40E873
:1043B0005DE0B801CE010E9491124AE65DE0BC01C9
:1043C000CE010E9491124BEC54E0BC01CE010E9440
:1043D000B21240E65DE0BC01CE010E9491124BE4B6
:1043E0005DE0BC01CE010E9491124BEC54E0BC0197
:1043F000CE010E94B21241E45DE0BC01CE010E94F8
:10440000911240E25DE0BC01CE010E9491124BECA2
:1044100054E0BC01CE010E94B21246E15DE0BC0155
:10442000CE010E94911243E05DE0BC01CE01DF911C
:10443000CF911F910F910C9491128F929F92AF92F6
:10444000BF92CF92DF92EF92FF920F931F93CF9381
:10445000DF93EC0129DEBC01CE0136DE6C0167EF93
:104460007CE08BE295E00E940A3C40EE5CE0B60105
:10447000CE010E9491124C0180914E081F928F93A1
:1044800080914D081F928F9380914C081F928F93BB
:1044900080914B081F928F938BE2A82E85E0B82E57
:1044A000BF92AF929BECC92E94E0D92EDF92CF92AF
:1044B0000E94003D26EDE22E2CE0F22E860124ED36
:1044C0003CE04EEC5CE0B401CE0102DE4C01809198
:1044D0004A081F928F93809149081F928F93809171
:1044E00048081F928F93809147081F928F93809165
:1044F00046081F928F93809145081F928F9320EB5F
:104500003CE03F932F93DF92CF920E94213D36EA09
:10451000E32E3CE0F32E24EA3CE043EA5CE0B40105
:10452000CE01D6DD4C01809152081F928F9380916D
:1045300051081F928F93809150081F928F93809102
:104540004F081F928F93BF92AF92DF92CF920E943B
:10455000003D2DB73EB7285D3F4F0FB6F8943EBFE4
:104560000FBE2DBF49E9E42E4CE0F42E27E93CE0D4
:1045700046E95CE0B401CE01ABDD4C018091560808
:104580001F928F93809155081F928F9380915408AA
:104590001F928F93809153081F928F93BF92AF9277
:1045A000DF92CF920E94003D5CE8E52E5CE0F52EA4
:1045B0002AE83CE049E85CE0B401CE0189DD4C0129
:1045C00080915A081F928F93809159081F928F9360
:1045D000809158081F928F93809157081F928F9354
:1045E000BF92AF92DF92CF920E94003D68E8E62E24
:1045F0006CE0F62E26E83CE045E85CE0B401CE0134
:1046000067DD44E65CE0BC01CE010E9491122DB74B
:104610003EB7285E3F4F0FB6F8943EBF0FBE2DBF8A
:1046200020915B082F3F31F44BE55CE0BC01CE01EB
:104630000E9491124EE25CE0BC01CE010E949112F8
:104640006C016091B1047091B2048091B3049091B7
:10465000B4044BEC54E036DA4BEC54E0B601CE0136
:104660000E94B21242EF5BE0BC01CE01DF91CF911C
:104670001F910F91FF90EF90DF90CF90BF90AF9080
:104680009F908F900C9491128F929F92AF92BF92B5
:10469000CF92DF92EF92FF920F931F93CF93DF930E
:1046A000EC01D62E01DD4BED5BE0BC01CE010E949A
:1046B000911245E95BE0BC01CE010E9491124AE4EF
:1046C0005BE0BC01CE010E9491125C010D2D10E057
:1046D00023E082E1809FF001819FF00D1124E95ACF
:1046E000FC4F81892D1518F00E94D31A02C00E9438
:1046F000E51A282F30E0232B19F467E47BE002C091
:1047000063E47BE08BEC94E00E940A3C4BEC54E0C9
:10471000B501CE010E94B2124DE15BE0BC01CE01B9
:104720000E9491125C016D2D70E080E090E04BECF6
:1047300054E0C8D94BEC54E0B501CE010E94B2124E
:1047400049EF5AE0BC01CE010E9491126C016091C8
:10475000B1047091B2048091B3049091B4044BEC15
:1047600054E0B0D94BEC54E0B601CE010E94B21235
:1047700047EF5AE0BC01CE010E9491124C0122E1A8
:10478000209FC001219F900D1124FC01E95AFC4F8C
:104790006F01399683818F9382818F9381818F936B
:1047A000F60181858F9381EF9AE09F938F938BEC35
:1047B000A82E84E0B82EBF92AF920E94213D90EFC8
:1047C000E92E9AE0F92E85012CEE3AE046EE5AE009
:1047D000B401CE017DDC4C01F6013D9683818F93BF
:1047E00082818F9381818F93F60185858F9380EEEF
:1047F0009AE09F938F93BF92AF920E94213D2FED3D
:10480000E22E2AE0F22E2BED3AE045ED5AE0B4011B
:10481000CE015EDC4DE95AE0BC01CE010E9491124E
:104820002DB73EB7205F3F4F0FB6F8943EBF0FBE87
:104830002DBF00E010E0A12CB12C9C2C8D2CF80198
:10484000E458FC4F21A12F3FE1F524A52223C9F113
:104850004EE85AE0BC01CE010E9491126C014AE080
:104860006BEC74E0C5010E947C3C4BEC54E0B6015B
:10487000CE010E94B2126C0148E050E0692D782D03
:10488000C80180589C4F0E942A3C892B39F444E887
:104890005AE0B601CE010E9491126C0142E85AE042
:1048A000B601CE010E949112A80148575C4FBC018D
:1048B000CE010E94B21248E75AE0BC01CE010E942C
:1048C00091123FEFA31AB30A025D1F4F063E110576
:1048D00009F0B5CF4DE35AE0BC01CE01DF91CF9195
:1048E0001F910F91FF90EF90DF90CF90BF90AF900E
:1048F0009F908F900C9491126F927F928F929F92C3
:10490000AF92BF92CF92DF92EF92FF920F931F93DD
:10491000CF93DF93EC01162FC7DB4BE25AE0BC01CB
:10492000CE010E9491124EE05AE0BC01CE010E94DD
:104930009112C12ED12C2DE4129FF0011124EE59B9
:10494000FB4F20812F3F31F445E05AE0BC01CE01FE
:104950000E94911244EE59E0BC01CE010E949112D6
:104960002DE42C9D50012D9DB00C112485010B5977
:104970001B4F26EDE22E29E0F22E21ED39E040ED2D
:1049800059E0BC01CE01A4DB4C01C5018E599B4FFF
:104990003C01FC01E55BFF4F6081718180E090E0AC
:1049A0004BEC54E08FD83FECE32E39E0F32E0BECC8
:1049B00014E02AEC39E04DEB59E0B401CE0188DB7C
:1049C000850101581B4F4CE9E42E49E0F42E27E9FC
:1049D00039E04AE859E0BC01CE017ADB5BEBA52E59
:1049E00051E0B52E00E010E0EFEF6E1A7E0A4BE7C3
:1049F00059E0BC01CE010E9491124C014AE06BECDF
:104A000074E0C8010E947C3C4BEC54E0B401CE0140
:104A10000E94B212F30140815181F501228133815C
:104A20004217530731F441E759E0BC01CE010E941F
:104A300091124FE659E0BC01CE010E949112F5019E
:104A400040815181BC01CE010E94B21245E659E07D
:104A5000BC01CE010E9491120F5F1F4FF4E0AF0E18
:104A6000B11C0530110519F648E359E0BC01CE012F
:104A70000E9491128C014AE06BEC74E0C6010E9426
:104A80007C3C4BEC54E0B801CE010E94B21241E0F4
:104A900059E0BC01CE010E9491128C016091B104D9
:104AA0007091B2048091B3049091B4044BEC54E043
:104AB00009D84BEC54E0B801CE010E94B21248EF85
:104AC00058E0BC01CE01DF91CF911F910F91FF9073
:104AD000EF90DF90CF90BF90AF909F908F907F909E
:104AE0006F900C949112CF93DF93EC01DDDABC014F
:104AF000CE01EADA4EE858E0BC01CE01DF91CF9159
:104B00000C9491120F931F93CF93DF93EC01162F08
:104B1000CBDABC01CE01D8DABC0111111CC043E0D4
:104B200058E0CE010E9491128C016091B104709105
:104B3000B2048091B3049091B4044BEC54E00E9411
:104B4000621D4BEC54E0B801CE010E94B21249EF55
:104B500057E0BC0102C040EF57E0CE01DF91CF919A
:104B60001F910F910C949112CF93DF93EC019CDA7B
:104B7000BC01CE01A9DA40ED57E0BC01CE01DF91C6
:104B8000CF910C9491120F931F93CF93DF93EC016D
:104B90008BDA4AEA57E0BC01CE010E9491128C01E7
:104BA0006091B1047091B2048091B3049091B40407
:104BB0004BEC54E00E94621D4BEC54E0B801CE0176
:104BC0000E94B2124EE957E0BC01CE01DF91CF91B5
:104BD0001F910F910C9491126F927F928F929F92DE
:104BE000BF92CF92DF92EF92FF920F931F93CF93DA
:104BF000DF93EC01B62E142F57DABC01CE0164DA34
:104C000047E957E0BC01CE010E949112113031F406
:104C100049E457E0BC01CE010E94911247E357E0FE
:104C2000BC01CE010E9491124FE257E0BC01CE01BF
:104C30000E9491126C018B2C912C2EE2B29E80016D
:104C4000112404581C4FF80183851F928F9382858D
:104C50001F928F9381851F928F9380851F928F93D0
:104C600087811F928F9386811F928F9385811F92D8
:104C70008F9384811F928F932EE037E03F932F9381
:104C80002BEC34E03F932F930E94213D4BEC54E0FA
:104C9000B601CE010E94B21249EE56E0BC01CE012F
:104CA0000E9491122DB73EB72C5E3F4F0FB6F8947D
:104CB0003EBF0FBE2DBFF80121A12F3F31F440EEC2
:104CC00056E0BC01CE010E9491122EE2289D6001A7
:104CD000299DD00C1124860108571C4F22EDE22E8D
:104CE00026E0F22E2FEC36E04CEA56E0BC01CE0175
:104CF000EFD93C01960124583C4F6901F9017D969A
:104D000083818F9382818F9381818F93F901858D28
:104D10008F9386EA96E09F938F938BEC94E09F931A
:104D20008F930E94213D30E9E32E36E0F32E0BEC09
:104D300014E02DE836E04EE756E0B301CE01C8D9C5
:104D40003C010BE215E02BEC34E040E050E0BA010E
:104D50008B2DF3D94BEC54E0B301CE010E94B2127B
:104D6000A801BC01CE010E94B2124BE656E0BC0184
:104D7000CE010E9491123C01F601458D568D678D42
:104D800070A12BEC34E08B2DD8D94BEC54E0B3015F
:104D9000CE010E94B212A801BC01CE010E94B21243
:104DA00048E456E0BC01CE010E9491128C014AE019
:104DB0006BEC74E0C4010E947C3C4BEC54E0B80105
:104DC000CE010E94B21244E256E0BC01CE010E9424
:104DD00091128C016091B1047091B2048091B3047E
:104DE0009091B4044BEC54E00E94621D4BEC54E0F3
:104DF000B801CE010E94B2122DB73EB7285F3F4FD7
:104E00000FB6F8943EBF0FBE2DBF44EF55E0BC0176
:104E1000CE01DF91CF911F910F91FF90EF90DF9026
:104E2000CF90BF909F908F907F906F900C94911235
:104E3000CF92DF92EF92FF920F931F93CF93DF9366
:104E4000EC016B017A0189016091B1047091B204A7
:104E50008091B3049091B4044BEC54E00E94621D25
:104E60004AEE55E0B601CE010E949112A701BC01A5
:104E7000CE010E94911245EE55E0BC01CE010E9488
:104E800091124BEC54E0BC01CE010E94B21249EDEC
:104E900055E0BC01CE010E949112A801BC01CE01D7
:104EA0000E94911240ED55E0BC01CE01DF91CF91FF
:104EB0001F910F91FF90EF90DF90CF900C94911283
:104EC0000F931F93CF93DF93EC01EED8BC01CE017B
:104ED000FBD88C016091B1047091B2048091B3044D
:104EE0009091B4044BEC54E00E94621D29EC35E033
:104EF00045EC55E0B801CE019BDF2CEB35E048EBEB
:104F000055E0BC01CE0194DF2FEA35E049EA55E0D7
:104F1000BC01CE018DDF21EA35E046E955E0BC0158
:104F2000CE0186DF2EE835E043E855E0BC01CE0136
:104F30007FDF2CE735E047E755E0BC01CE0178DFA5
:104F400022E735E04EE655E0BC01CE01DF91CF917E
:104F50001F910F916DCFCF92DF92EF92FF920F933F
:104F60001F93CF93DF93EC019FD8BC01CE01ACD847
:104F700045E455E0BC01CE010E94911200E010E032
:104F8000E12CF12CF801E458FC4F24A5222309F46C
:104F90003FC043E355E0BC01CE010E9491126C0179
:104FA0004AE06BEC74E0C7010E947C3C4BEC54E09F
:104FB000B601CE010E94B2124DE255E0BC01CE0115
:104FC0000E9491126C016091B1047091B2048091C1
:104FD000B3049091B4044BEC54E00E94621D4BEC7E
:104FE00054E0B601CE010E94B21241E255E0BC018C
:104FF000CE010E949112A80148575C4FBC01CE011E
:105000000E94B21248E155E0BC01CE010E9491120B
:105010002FEFE21AF20A025D1F4F063E110509F05A
:10502000B1CFDF91CF911F910F91FF90EF90DF9063
:10503000CF9008952F923F924F925F926F927F92FE
:105040008F929F92AF92BF92CF92DF92EF92FF9298
:105050000F931F93CF93DF9300D000D0CDB7DEB76F
:105060001C0122D8BC01C1012FD84CE954E0BC017D
:10507000C1010E949112BC0189EAE82E83E0F82E5A
:10508000D12CF7013C9780818F3F09F055C03B96AA
:105090008081882309F450C0F7018081882331F092
:1050A00048E954E0C1010E949112BC0187010152FC
:1050B0001109A801C1010E94B2125C01F80101901E
:1050C0000020E9F731979F01201B310B89010F3038
:1050D000110550F446E954E0B501C1010E94911256
:1050E0005C010F5F1F4FF3CFF70170974081518133
:1050F000628173810BE215E02BEC34E08D2D1DD81D
:105100004BEC54E0B501C1010E94B212A801BC01F0
:10511000C1010E94B212F7012081222331F041E93E
:1051200054E0BC01C1010E9491124EE854E0BC0160
:10513000C1010E949112BC01D394FEE2EF0EF11C5A
:1051400025E0D2129ECF4FE454E0C1010E9491129B
:1051500046E454E0BC01C1010E9491128C016091AF
:10516000520370915303809154039091550324E6A8
:1051700030E040E050E00E948A3ACA01B9010E9442
:10518000C6380E9403390E949A386B017C0120E8DE
:1051900031E541E050E00E948A3ACA01B9010E941B
:1051A000C6380E9403390E949A382B013C019B01AA
:1051B000AC0160E871E581E090E00E947B3AC61A9C
:1051C000D70AE80AF90AC701B60120E13EE040E04B
:1051D00050E00E948A3ACA01B9010E94C6380E9472
:1051E00003390E949A384B015C01A0E1BEE09B01AB
:1051F000AC010E94C13AA7019601261B370B480B50
:10520000590B29833A834B835C83CA01B9012CE390
:1052100030E040E050E00E948A3ACA01B9010E94A1
:10522000C6380E9403390E949A386B017C01ACE3B6
:10523000B0E09B01AC010E94C13A29813A814B81C7
:105240005C81261B370B480B590B29833A834B8310
:105250005C834BEC54E0C301B2010E94621D4BEC35
:1052600054E0B801C1010E94B2124FE354E0BC0106
:10527000C1010E9491128C014BEC54E0C501B401B4
:105280000E94621D4BEC54E0B801C1010E94B212B1
:105290004DE354E0BC01C1010E9491128C014BEC22
:1052A00054E0C701B6010E94621D4BEC54E0B80106
:1052B000C1010E94B2124BE354E0BC01C1010E9443
:1052C00091128C014BEC54E069817A818B819C8135
:1052D0000E94621D4BEC54E0B801C1010E94B21261
:1052E0004CE254E0BC01C1010F900F900F900F9061
:1052F000DF91CF911F910F91FF90EF90DF90CF90B2
:10530000BF90AF909F908F907F906F905F904F90E5
:105310003F902F900C9491128F929F92AF92BF92D8
:10532000CF92DF92EF92FF920F931F93CF93DF9371
:1053300066E475E080E091E00E9421108C011092FB
:10534000340880915B088F3F31F4B80186E495E022
:105350000E94EF0A8C010E94D30FB80186E495E009
:105360000E94981690933E0280933D02892BC9F4C7
:105370008091300281110AC046E55AE161E083E57F
:1053800098E00E94791581E0809330020E947215A6
:10539000811107C080913002813019F482E080933E
:1053A000300280914403882321F0809143038111CE
:1053B0001CC080914403811118C0809162048F3F0A
:1053C00009F49BC680910D0190910E01A0910F01EF
:1053D000B091100180934A0390934B03A0934C0328
:1053E000B0934D0381E080934403C0913D02D0917E
:1053F0003E02209709F021C1B80186E495E00E94A1
:10540000D20C80915D05813109F0DDC780916A057C
:10541000853009F0D8C780916B05843A09F0D3C76D
:1054200044E050E064EE73E080E795E00E94113CB8
:1054300044E050E0892B09F064C06FED73E08FE326
:1054400092E00E94013C8091530890915408A091F1
:105450005508B09156088093430290934402A0935C
:105460004502B093460280914F0890915008A09158
:105470005108B09152088093470290934802A0933C
:105480004902B0934A0280914B0890914C08A09138
:105490004D08B0914E0880934B0290934C02A0931C
:1054A0004D02B0934E0286E0E5E4F8E0AFE4B2E0EE
:1054B00001900D928A95E1F78091570890915808D4
:1054C000A0915908B0915A088093550290935602C2
:1054D000A0935702B09358022CEF30E24AE16FE3F9
:1054E00072E086E495E0DF91CF911F910F91FF90DC
:1054F000EF90DF90CF90BF90AF909F908F900C94E3
:105500000B146AED73E080E795E00E94113C892B53
:1055100009F066C046E050E065E478E080E895E098
:105520000E942A3CEC01892B09F04DC744E050E071
:1055300065ED73E08FE392E00E94013C2CEF30E2D6
:1055400044E06FE372E086E495E00E940B148091E2
:10555000740590917505A0917605B09177058093BB
:10556000530890935408A0935508B093560880911F
:10557000780590917905A0917A05B0917B0580938B
:105580004F0890935008A0935108B093520880910F
:105590007C0590917D05A0917E05B0917F0580935B
:1055A0004B0890934C08A0934D08B0934E088091FF
:1055B000860590918705A0918805B0918905809313
:1055C000570890935808A0935908B0935A084DE192
:1055D00050E060E070E08FE398E00E945E3F19C009
:1055E00044E050E060ED73E080E795E00E94113CFC
:1055F000892B09F0E8C646E050E065E478E080E8F1
:1056000095E00E942A3CEC01892B09F0DCC681E080
:1056100028D795B7916095BF95B79D7F95BFFE013F
:10562000DF91CF911F910F91FF90EF90DF90CF907E
:10563000BF90AF909F908F900994CA5BDA4F45E07E
:1056400050E06AEC73E0CE010E94113C892B09F016
:10565000BAC6D0934505C09344054BE251E061E3DF
:1056600071E0CE010E94031EBC018091440590911F
:1056700045050E94423CC0914405D0914505888172
:10568000811104C086E495E0D5DC32C542E050E0EB
:1056900067EC73E0CE010E94113C892BE9F547E3EA
:1056A00051E069E371E0CE010E94031EBC018FE36B
:1056B00092E00E94423CEFE3F2E001900020E9F723
:1056C0003197EF53F240349718F16AEB74E08FE3AF
:1056D00092E00E94623C892BD9F0209152033091D4
:1056E000530340915403509155036DE67DED81E0E5
:1056F00090E00E947B3A6093B1047093B20480936F
:10570000B3049093B40486E495E00E94C521F0C4EC
:1057100086E495E0E8D9ECC44BE050E06BEB73E035
:10572000CE010E94113C892B09F4E0C447E351E00B
:105730006DE371E0CE010E94031EBC018BEC94E08E
:105740000E94423C6091B1047091B2048091B30414
:105750009091B4044BE255E00E94621D6BE275E04B
:105760008BEC94E00E94623C892B09F4BFC48091C9
:10577000B1049091B204A091B304B091B404892B08
:105780008A2B8B2B09F4B2C4C0914405D0914505F6
:1057900044E050E066EB73E0CE010E94113C892B9F
:1057A00021F486E495E08CDBA3C443E050E062EB97
:1057B00073E0CE010E94113C892B21F486E495E030
:1057C000CADB96C444E050E06DEA73E0CE010E946B
:1057D000113C892B21F486E495E0C6D989C443E0C5
:1057E00050E069EA73E0CE010E94113C892BC9F5B3
:1057F00047E351E062E471E0CE010E94031EBC0168
:105800008BEC94E00E94423C43E050E06BEC74E08F
:1058100087E491E00E94493CEC01892BF1F40E945D
:10582000542090933E0280933D0244E653E0BC0135
:1058300086E495E00E94911290933E0280933D028F
:10584000BC0186E495E00E94641495B7916095BF11
:1058500095B79D7F95BFFE01099586E495E093D9A4
:1058600047C442E050E061E673E0CE010E94113C83
:10587000892BD1F40E94542090933E0280933D02E4
:105880004CE153E0BC0186E495E00E9491129093B4
:105890003E0280933D021092B1041092B204109225
:1058A000B3041092B40485C543E050E068E173E0AE
:1058B000CE010E94113C892B09F0A6C047E351E0BC
:1058C0006BE471E0CE010E94031EBC018BEC94E0FE
:1058D0000E94423C6AE070E08BEC94E00E946C1DF8
:1058E0006C0147E351E060E571E0809144059091DF
:1058F00045050E94031EBC018BEC94E00E94423CD3
:1059000044E050E063E173E08BEC94E00E94113CD2
:10591000892B09F073C047E351E064E771E080919F
:105920004405909145050E94031EBC018BEC94E058
:105930000E94423C42E050E06BEC74E084E591E070
:105940000E94493C86011127892B59F48EE2809FE1
:10595000F001819FF00D1124E458FC4F8FEF81A3DB
:1059600009C08EE2809FF001819FF00D1124E45860
:10597000FC4F11A247E351E067E571E080914405D7
:10598000909145050E94031EBC018FE392E00E94A6
:10599000423C8FE392E00E94411E8EE2809FE00134
:1059A000819FD00D11246FE372E0CE0188579C4F88
:1059B0000E94423C47E351E06BE571E08091440571
:1059C000909145050E94031EBC018BEC94E00E945F
:1059D000423C8BEC94E00E94023BFE01E458FC4FF9
:1059E000658F768F878F90A3BE0160567E4F4EE203
:1059F00050E0CF010E945E3F41E001C040E06C2DCD
:105A000086E495E0E9D874C342E050E060E173E0D9
:105A1000CE010E94113C892B59F547E351E06FE517
:105A200071E0CE010E94031EBC018BEC94E00E9449
:105A3000423CEBECF4E001900020E9F73197EB5C9D
:105A4000F440349780F04FE050E060E570E08BEC7C
:105A500094E00E945E3F6BEC74E08AEB94E00E945D
:105A6000423C61E001C060E086E495E04BD840C371
:105A700043E050E06CE073E0CE010E94113C892BC2
:105A800009F0F5C047E351E06BE471E0CE010E94FC
:105A9000031EBC018BEC94E00E94423C6AE070E083
:105AA0008BEC94E00E946C1D8C01C82F47E351E001
:105AB00064E671E080914405909145050E94031EC3
:105AC000BC018BEC94E00E94423C42E050E069E073
:105AD00073E08BEC94E00E94113C892B99F4C8018F
