:10000000AAC60000C4C60000C2C60000C0C60000E8
:10001000BEC60000BCC60000BAC600000C941E1B81
:10002000B6C60000B4C60000B2C60000B0C60000EC
:10003000AEC60000ACC600000C94421BA8C600006F
:10004000A6C60000A4C60000A2C60000A0C600000C
:100050009EC600009CC600009AC6000098C600001C
:1000600096C6000094C60000E30CE30CE30CCF0C32
:10007000F20CE30CF20CF60CF60C6E616E00696E7D
:10008000660000407A10F35A00A0724E1809001062
:10009000A5D4E80000E87648170000E40B540200FD
:1000A00000CA9A3B000000E1F50500008096980028
:1000B000000040420F000000A08601000000102751
:1000C00000000000E80300000000640000000000E1
:1000D0000A00000000000100000000002C76D88813
:1000E000DC674F0823DFC1DFAE59E1B1B796E5E326
:1000F000E453C63AE651997696E8E6C28426EB893F
:100100008C9B62ED407C6FFCEFBC9C9F40F2BAA5DB
:100110006FA5F490055A2AF75C936B6CF9676DC173
:100120001BFCE0E40D47FEF520E6B500D0ED902E77
:100130000300943577050080841E080000204E0AD5
:10014000000000C80C333333330F986E1283114113
:10015000EF8D2114893BE65516CFFEE6DB18D184DE
:100160004B381BF77C1D901DA4BBE4242032847205
:100170005E228100C9F124ECA1E53D274E414E49A4
:100180004E495459494E46CDCCCC3D0AD7233C1755
:10019000B7D13877CC2B329595E6241FB14F0A00A2
:1001A0000020410000C84200401C4620BCBE4CCA92
:1001B0001B0E5AAEC59D740D0A436F6E74656E7446
:1001C0002D547970653A206170706C69636174694F
:1001D0006F6E2F782D7777772D666F726D2D757214
:1001E0006C656E636F6465640D0A0D0A00436F6E83
:1001F00074656E742D4C656E6774683A20000D0A44
:10020000557365722D4167656E743A20626F782F61
:10021000312E310D0A4163636570743A202A2F2A0A
:100220000D0A000D0A0020485454502F312E310D74
:100230000A486F73743A2000504F535420000D0A3F
:10024000557365722D4167656E743A20626F782F21
:10025000312E310D0A4163636570743A20746578FC
:10026000742F68746D6C0D0A0D0A002048545450A8
:100270002F312E310D0A486F73743A2000474554D0
:100280002000000108000604000145000082000073
:10029000400020223B3C2F5343524950543E003CE7
:1002A000484541443E3C534352495054206C616E92
:1002B00067756167653D224A617661536372697053
:1002C00074223E746F702E6C6F636174696F6E3D43
:1002D00022687474703A2F2F00697000536176653C
:1002E000007069006970006F6E0054657374006C73
:1002F0006F6731006C6F6732006C6F67310070613F
:1003000000536176650073656E003C48544D4C3E69
:100310003C484541443E3C534352495054206C6153
:100320006E67756167653D224A61766153637269E4
:100330007074223E746F702E6C6F636174696F6E9F
:100340003D222F223B3C2F5343524950543E0065DF
:1003500078003C48544D4C3E3C484541443E3C535B
:100360004352495054206C616E67756167653D2248
:100370004A617661536372697074223E746F702EA5
:100380006C6F636174696F6E3D222F223B3C2F536B
:1003900043524950543E0072656200696E666F00B8
:1003A000646576006D656E750066617669636F6E73
:1003B0002E69636F006C6700474554202F00522A56
:1003C0002A5400534554520053455451004D494E50
:1003D000490053524348003D2573002625303258CA
:1003E0002530325825303258253032582530325891
:1003F00025303258253032582530325800253032D9
:100400005825303258253032582530325825303270
:1004100058253032580049443D003C2F626F6479C2
:100420003E3C2F68746D6C3E003A003A00206461D7
:1004300079732000557074696D653A20003C2F680F
:10044000323E3C2F7072653E3C2F74643E3C2F74EC
:10045000723E3C2F7461626C653E3C62723E3C624F
:10046000723E3C6120687265663D2F6C673E4C6F42
:1004700067696E3C2F613E3C62723E000D0A003C93
:100480002F733E0020003C733E003C7469746C6521
:100490003E5765624D6574656F426F782D6D696E6C
:1004A000693C2F7469746C653E3C63656E7465725B
:1004B0003E3C68323E3C753E5765624D6574656FE3
:1004C000426F782D6D696E693C2F753E2026233969
:1004D0003733303B3C2F68323E3C7461626C6520A0
:1004E000626F726465723D303E3C74723E3C74646F
:1004F0002076616C69676E3D746F703E3C7072650A
:100500003E3C68323E003C2F613E3C62723E002021
:100510007461726765743D72663E00267369643D5E
:10052000003C6120687265663D2F73656E3F6E7595
:100530006D3D003C68746D6C3E3C626F64793E3C7E
:1005400063656E7465723E53656E736F72733C2F94
:1005500063656E7465723E3C62723E0065783F0072
:1005600045786974007265623F005265626F6F740E
:10057000006C6F67323F004C6F6767657220320016
:100580006C6F67313F004C6F676765722031007098
:10059000613F0050617373776F72640069703F0050
:1005A0005443502F4950003C2F613E3C62723E0044
:1005B000207461726765743D72663E007369643DC4
:1005C000003C6120687265663D2F003E3C62723ED1
:1005D0003C62723E3C696E70757420747970653D42
:1005E0007375626D69742076616C75653D536176D3
:1005F00065206E616D653D73613E003E3C696E70C5
:10060000757420747970653D68696464656E206EE8
:10061000616D653D7369642076616C75653D003C74
:10062000696E70757420747970653D68696464657D
:100630006E206E616D653D6E756D2076616C7565C1
:100640003D003C62723E43616C63756C617465642D
:100650003C62723E003C62723E4F66667365743C5B
:1006600062723E006F66003C62723E437572726554
:100670006E742076616C75653C62723E0025322E88
:100680003266003E456E61626C652F44697361623B
:10069000653C62723E53656E736F72206E616D656C
:1006A0003A3C62723E006E610020286D6178206CD9
:1006B000656E203134290020636865636B656400D2
:1006C0003C2F623E3C62723E3C696E7075742074D1
:1006D0007970653D636865636B626F78206E616DEC
:1006E000653D656E00253032582530325825303250
:1006F000582530325825303258253032582530327E
:1007000058253032580049443A203C623E003C664D
:100710006F726D206D6574686F643D6765743E002F
:100720003C534352495054206C616E677561676554
:100730003D224A617661536372697074223E706132
:1007400072656E742E6672616D65735B276C6627C9
:100750005D2E6C6F636174696F6E2E72656C6F6174
:100760006428293B3C2F5343524950543E003C627D
:100770006F64793E003E5265626F6F743C2F613E3C
:10078000003C63656E7465723E3C62723E3C627210
:100790003E3C6120687265663D2F7265623F7965F7
:1007A00073267369643D0046573A20312E312E3945
:1007B0002E332028536570203134203230313729D0
:1007C0003C2F68746D6C3E004368616E6765642100
:1007D00000223E3C2F666F726D3E006E6577207082
:1007E000617373776F72643A3C666F726D3E3C69F9
:1007F0006E70757420747970653D74657874206EC0
:10080000616D653D6E6577206D61786C656E6774AE
:10081000683D31343E3C62723E3C696E70757420B6
:10082000747970653D7375626D69742076616C755D
:10083000653D4368616E6765206E616D653D636807
:10084000613E3C696E70757420747970653D6869AD
:100850006464656E206E616D653D736964207661C8
:100860006C75653D22003C63656E7465723E3C624A
:10087000723E50617373776F72643C666F726D3E47
:100880003C696E70757420747970653D7061737326
:10089000776F7264206E616D653D70613E3C62727F
:1008A0003E3C696E70757420747970653D73756235
:1008B0006D69742076616C75653D4C6F67696E205B
:1008C0006E616D653D696E3E3C2F666F726D3E00D8
:1008D0003E3C2F666F726D3E00222076616C75651E
:1008E0003D22536176652654657374223E3C696EE1
:1008F00070757420747970653D68696464656E20F4
:100900006E616D653D7369642076616C75653D004F
:100910003C2F53454C4543543E3C62723E3C627210
:100920003E3C696E70757420747970653D737562B4
:100930006D6974206E616D653D226C73003C2F6F94
:100940007074696F6E3E003E002073656C65637461
:100950006564003C6F7074696F6E2076616C7565BC
:100960003D003C62723E506174683C62723E0070B1
:10097000617468003C62723E696E74657276616C87
:100980003C62723E3C53454C454354206E616D655C
:100990003D73703E003C62723E506F72743C6272F6
:1009A0003E00706F7274000000686F73740020283E
:1009B0006D6178206C656E20323529003E456E6190
:1009C000626C652F44697361626C653C62723E487B
:1009D0006F7374206E616D653C62723E00206368C7
:1009E00065636B6564003C696E7075742074797022
:1009F000653D636865636B626F78206E616D653D10
:100A0000656E003C666F726D206D6574686F643D45
:100A10006765743E00223E3C696E7075742074797F
:100A200070653D7375626D6974206E616D653D61C1
:100A300063742076616C75653D225361766520266E
:100A4000205265626F6F74223E3C2F666F726D3E5E
:100A5000003E444843503C62723E3C696E7075747F
:100A600020747970653D68696464656E206E616D9F
:100A7000653D7369642076616C75653D2200206375
:100A80006865636B6564003C62723E3C696E7075BC
:100A90007420747970653D636865636B626F78205C
:100AA0006E616D653D646800006400000067003C95
:100AB00062723E444E532020000073003C62723E3E
:100AC000475720202000006D003C62723E4D41538C
:100AD0004B2000253032783A253032783A253032B2
:100AE000783A253032783A253032783A25303278E3
:100AF0000049502020200069003C62723E4D414375
:100B00002020003C7072653E3C666F726D206D6502
:100B100074686F643D6765743E0025642E25642EFD
:100B200025642E2564003C2F6672616D65736574C3
:100B30003E3C2F68746D6C3E00206E616D653D72A9
:100B4000663E003C2F6672616D657365743E3C665F
:100B500072616D65207372633D2F696E666F3F73BE
:100B600069643D00206E616D653D6C663E003C66CB
:100B700072616D65207372633D2F6465763F7369A2
:100B8000643D00206E616D653D6D663E003C6672A1
:100B9000616D65207372633D2F6D656E753F73697E
:100BA000643D003C68746D6C3E3C6672616D6573BB
:100BB000657420636F6C733D223137302C2A223EDE
:100BC0003C6672616D6573657420726F77733D2248
:100BD0003236302C202A22207363726F6C6C696E5F
:100BE000673D226E6F223E002566006D6D00253345
:100BF0002E316600250025322E3166002664656799
:100C00003B430025322E326600223E002076616C86
:100C100075653D22003C696E70757420747970654D
:100C20003D74657874206E616D653D003C68746D3F
:100C30006C3E3C686561643E3C6D65746120636830
:100C400061727365743D2277696E646F77732D31BD
:100C5000323531222F3E3C2F686561643E3C626F25
:100C600064793E00485454502F312E3020343034B3
:100C7000204E6F7420466F756E640D0A436F6E745C
:100C8000656E742D547970653A20746578742F6898
:100C9000746D6C0D0A0D0A45727200485454502F41
:100CA000312E3020323030204F4B0D0A436F6E749E
:100CB000656E742D547970653A20746578742F6868
:100CC000746D6C0D0A507261676D613A206E6F2D04
:100CD00063616368650D0A0D0A003030004E6F20B5
:100CE0006E616D6500828282820000004F586D0245
:100CF00005C0A801DEFFFFFF00C0A80101C0A801D8
:100D0000010000828282820000004F586D0205C0FF
:100D1000A801DEFFFFFF00C0A80101C0A80101007B
:100D2000002F7363726970742F6164642E70687031
:100D3000007765626D6574656F626F782E727500FD
:100D40002F706F73742E706870006E61726F646DB7
:100D50006F6E2E72750011241FBECFEFD8E0DEBF7C
:100D6000CDBF11E0A0E0B1E0EEE5F5E702C00590EF
:100D70000D92A83DB107D9F728E0A8EDB1E001C078
:100D80001D92A832B207E1F79FD60C94AD3A38C94C
:100D90008091EC018F5F8093EC010895DF92EF92D8
:100DA000FF920F931F93CF93DF9300D000D000D01A
:100DB000CDB7DEB77C01D62E86E0E9E1F1E0DE01B9
:100DC000119601900D928A95E1F78E010F5F1F4FEA
:100DD00023E430E0A80164E470E0C7010E94141429
:100DE000F701128E138E148E158E81E082A783A7D1
:100DF00096E094A715A686A7D7A6D0AAD1AAF29660
:100E0000D701AA5BBF4F1192EA17FB07E1F79701E1
:100E1000245B3F4FCD0180549109FC0180818D936B
:100E2000A217B307B9F7C7018A5E9E4FF901119265
:100E30009F01E817F907D1F783E68083F701E95EA0
:100E4000FE4F92E89083319693E5908331968083AC
:100E500026960FB6F894DEBF0FBECDBFDF91CF91BF
:100E60001F910F91FF90EF90DF900895CF93DF9344
:100E7000EC0194DFFE01E65EFE4F85E38083319650
:100E800081E0808331968083319697E39083319619
:100E900092E0908331968083319683E0808331960F
:100EA0008FEF80833196108268EF70E0CE010E9450
:100EB000801480E0DF91CF9108956D3121E07207B9
:100EC00000F12AE131E0A9014E5F5F4F4617570755
:100ED000C0F4FC01E20FF31FA181AA2391F02A0FB5
:100EE000311DD90111966A177B0758F0E081E5336F
:100EF00029F4FC01E40FF51F808108952E5F3F4F18
:100F0000E2CF80E00895FC016F3F710591F088F019
:100F100082AD882379F082AD93ADA4ADB5AD809359
:100F2000E8019093E901A093EA01B093EB0181E01D
:100F3000089580E00895FC016F3F710569F060F04D
:100F400083A1833449F482A5823031F497A59413A8
:100F500003C081E020A9291380E00895FC016F3FC0
:100F6000710529F020F081E096A5923009F080E02B
:100F700008954F925F927F928F929F92AF92BF920D
:100F8000CF92DF92EF92FF920F931F93CF93DF9355
:100F90008B016D31714008F4C8C0E091D801F09127
:100FA000D9017090DB0140E050E0BA01AAE14A2E7D
:100FB0005524539424EE31E0B4E0AB2EA20E2CED78
:100FC00031E0C4E0BC2EB20E20EE31E0D4E08D2E34
:100FD000820E92012E5F3F4F2017310750F46201BD
:100FE000AFEFCA1ADA0AEC01CC0DDD1DD881D111A0
:100FF00008C0F093D901E093D8017092DB0181E041
:1010000095C0ED2EF12CCE0CDF1C0C151D0588F3C0
:101010006C01C40CD51CD601CC91C33019F128F455
:10102000CC2369F0C13069F07AC0C53309F45AC0E5
:10103000C63309F45CC0C33309F071C024C0280171
:101040006EC0D43009F06BC06C01C20ED31E20EE0E
:1010500031E0D6019D906D01D9019D929D018A12CA
:10106000F8CF5DC0D43009F05AC06C01C20ED31E57
:1010700024EE31E0D6019D906D01D9019D929D0134
:10108000AA12F8CF4CC0D43009F041C020E030E0C3
:10109000762F652F542F4427F601E20FF31FE281CC
:1010A0004E2B2F5F3F4F2430310591F74F3FBFEF5D
:1010B0005B076B077B0771F126E07695679557957F
:1010C00047952A95D1F74E3FCFEF5C076105710533
:1010D00020F5FA01453051056105710500F5E5E09F
:1010E000F0E01DC0EC01C20FD31F788018C0D430CF
:1010F000B1F46C01C20ED31E2CED31E0D6019D90EF
:101100006D01D9019D929D01BA12F8CF08C0E0EAA5
:10111000F5E005C0EFEFFFEF02C0EDEFFFEFB2E04B
:10112000EB0EF11C4E0C5F1C54CF80E0DF91CF9191
:101130001F910F91FF90EF90DF90CF90BF90AF90F5
:101140009F908F907F905F904F900895CF93DF9303
:10115000EC0124DEFE01E65EFE4F85E380833196DE
:1011600081E08083319683E080838091DC01882355
:10117000A9F086E33196808384E031968083809164
:10118000DC019091DD01A091DE01B091DF0131968B
:1011900080839183A283B38369E001C063E080917F
:1011A000E8018823C9F0CE01860F911DFC01E65E9F
:1011B000FE4F22E32083319624E0208331968091F4
:1011C000E8019091E901A091EA01B091EB018083DF
:1011D0009183A283B3836A5F70E0CE01860F971F6D
:1011E000FC01E65EFE4F27E32083319622E0208358
:1011F000319621E02083319623E0208331962FEF32
:101200002083319610826B507F4FCE010E94801454
:1012100080E0DF91CF9108950F931F93CF93DF93D9
:10122000EC018A01BBDD82E08EA7F801808191810B
:10123000A281B3818A8F9B8FAC8FBD8F808191817A
:10124000A281B3818EAB9FABA8AFB9AFFE01E65EC2
:10125000FE4F85E38083319681E08083319683E081
:10126000808363EF70E0CE010E94801480E0DF9104
:10127000CF911F910F910895CF92DF92EF92FF923D
:101280000F931F93CF93DF931F92CDB7DEB78C01DF
:101290007B01498321D6D82E4981882309F468C06F
:1012A000E114F104A9F580910001909101018230CF
:1012B000910581F481E090E0909301018093000119
:1012C0001092EC014093DA01FBD56091DA01C8017C
:1012D000CDDD4DC0D090E801D11011C02091EC01BE
:1012E000263068F08091DA018F5F8093DA011092E6
:1012F000EC01E6D56091DA01C801B8DD39C0833070
:101300009105A8F1019790930101809300012FC0EE
:10131000C090DA014C2DB701C8010DDED82E88230C
:1013200039F1B701C8011ADE813009F1B701C801EE
:10133000C4DD823081F481E090E0909301018093DC
:101340000001B701C801DFDDB701C80112DE6C2D55
:10135000C801FCDE0CC0853051F481E090E0909330
:10136000010180930001B2D5DD24D39401C0D12CBA
:101370008D2D0F90DF91CF911F910F91FF90EF90E6
:10138000DF90CF9008950F931F93009769F000911D
:10139000E8011091E9012091EA013091EB01FC0193
:1013A00000831183228333836115710569F0809175
:1013B000E0019091E101A091E201B091E301FB0114
:1013C00080839183A283B3834115510569F0809195
:1013D000E4019091E501A091E601B091E701FA01E5
:1013E00080839183A283B3831F910F9108950F93FC
:1013F0001F93CF93DF938C01EB018091EC01893037
:1014000088F01092EC018091D8019091D9019C0153
:10141000225031092D3F3F4F28F401979093D90175
:101420008093D8012097C9F48091D8019091D90177
:10143000039738F551D5882321F16091DA016F5F68
:101440006093DA0148EE51E0C801E6DE85E090E005
:101450009093D9018093D80114C04091DA01BE0164
:10146000C80169DD882381F0BE01C80126DD853011
:1014700041F4BE01C80172DD882319F0BE01C80124
:1014800078DD80E090E001C0CE01DF91CF911F9127
:101490000F91089599B121E030E002C0220F331F6F
:1014A0008A95E2F7892F90E02823392381E01216EC
:1014B00013060CF080E008950F931F93CF93DF93F2
:1014C000182F0FB7F8949AB1C1E0D0E001C0CC0F4B
:1014D0008A95EAF79C2B9AB92BB1DC2FD0952D2356
:1014E0002BB981E090E00E94F62E8BB1C82BCBB9CE
:1014F0008AE68A95F1F700C09AB19D239AB98AE6E7
:101500008A95F1F700C0812FC5DF0FBFDF91CF9122
:101510001F910F910895AF92BF92DF92EF92FF92C9
:101520000F931F93CF93DF93082FDFB6F894C7E094
:10153000D0E010E0AA24A394B12C92E1E92E97E226
:10154000F92E802FA7DF811106C0A89521E0E21AAD
:10155000F108B9F71EC080E58A95F1F7802F9ADF70
:10156000813039F4C5010C2E01C0880F0A94EAF7C6
:10157000182B82E1E82E87E2F82E802F8BDF813056
:1015800031F4A89581E0E81AF108B9F702C0219773
:10159000A0F6DFBE812FDF91CF911F910F91FF90B9
:1015A000EF90DF90BF90AF900895EF92FF920F936E
:1015B0001F93CF93DF9300D000D01F92CDB7DEB73B
:1015C000F82E10920201F89477DF809302018130A7
:1015D00009F451C085E88A95F1F7000008E410E0AD
:1015E0008F2D58DF811108C00150110929F0E2E068
:1015F000EA95F1F700C0F4CF8F2D4CDF811102C0C6
:1016000082E01DC0F5EDFA95F1F700008E010F5F45
:101610001F4F75E0E72EE00E8F2D7DDFF8018193DF
:101620008F01EE12F9CF89814A812B813C81942F61
:10163000980F920F930F5D81591721F087E38093E4
:10164000020119C090E0982F8827840F911D909374
:10165000EE018093ED01822F8F7790E0982F8827FD
:10166000830F911D27FF03C0919581959109909358
:10167000F0018093EF0178940F900F900F900F90EE
:101680000F90DF91CF911F910F91FF90EF900895F0
:101690008091F6010895E2EFF1E024E02E0F319100
:1016A000DC013D93CD012E13FACF0895EF92FF9206
:1016B0000F931F93CF93DF93EC01F62EE72E8A0151
:1016C0001092F60109D4811105C084E08093F101E4
:1016D00081E069C01092F1018091F7018F5F8093E2
:1016E000F70190E0BC01706E25E330E041E258E084
:1016F000CE010E9414148091F7018BA781E08CA782
:10170000FE01BD96CE01C6961192E817F907E1F7E2
:1017100081E08FA7EF2DFE2D9CE04DE04F19642F47
:101720006E0F5081262F30E0552391F05E3241F448
:10173000DE01A90FB11D81509A968C93962F80E0FF
:101740005191DE01A20FB31F9A965C938F5FE7CF92
:10175000FE01E90FF11D815082A7FE01E20FF31F88
:1017600012A681E0860FFE01E80FF11D12A682E0AD
:10177000860FFE01E80FF11D81E082A793E0960F2E
:10178000FE01E90FF11D12A694E0960FFE01E90F8C
:10179000F11D82A789EF860F8AA76B5F70E0CE01EB
:1017A0000E94801480E0DF91CF911F910F91FF90F4
:1017B000EF900895CF93DF93FC016634710508F430
:1017C00068C083A1853309F064C084A1803E09F01C
:1017D00060C085A19091F70189135BC093A5981310
:1017E00058C085A58F78803811F081E038C022A5D7
:1017F000245F61537109DF01A20FB11D9A968C918C
:10180000807C11F02E5F0EC0822F90E08617970724
:1018100048F42F5FDF01A20FB11D9A968C918111C0
:10182000F3CF2F5FDF01A20FB11D9B968C919B9789
:10183000813081F088E0820FDF01A80FB11D9B96F7
:101840008C91265F280F822F90E08617970798F2D9
:1018500083E005C0D3969C91943021F082E0809380
:10186000F10117C0265FC2EFD1E040E050E030E068
:10187000DA01A20FB31FAE0FBF1F9A969C919993E6
:101880004F5F5F4F4430510599F791E09093F60117
:1018900001C080E0DF91CF9108950F931F93CF9304
:1018A000DF93E1E0F0E0DF0101C0AA0F8A95EAF7DB
:1018B000BA2FB09501C0EE0F6A95EAF7FE2FE095BA
:1018C00087E090E030E067E070E041110AC0EB0192
:1018D000C81BD90B890102C015950795CA95E2F777
:1018E00008C0E901082E02C0D595C7950A94E2F711
:1018F0000C2F55B100FF02C05A2B01C05B2355B914
:1019000058B15F2B58B958B15E2358B90197E8F622
:1019100085B18B2385B9DF91CF911F910F910895E8
:10192000CF93C82F262F439841E061E087E0B5DFD1
:10193000EC2FF0E0EB5CFE4F208141E061E087E0BE
:10194000ACDF439ACF9108958F929F92AF92BF924E
:10195000EF92FF920F931F93CF93DF93CDB7DEB734
:101960002B970FB6F894DEBF0FBECDBF188D098D33
:10197000FA8CEB8C8DA89EA8AFA8B8AC26968FAD3C
:10198000269781116BC0EBA98E2F90E0FC01319757
:10199000E930F10538F5EC5CFF4F0C94E43520E0BC
:1019A00030E0A901C501B4010E94B3338823F1F0EE
:1019B000A5019401D801F7016B2F7A2F8F2F9E2F4D
:1019C0000E9450350AC0A5019401D801F7016B2F80
:1019D0007A2F8F2F9E2F0E944F33162F072FF82E0E
:1019E000E92E04C010E000E0F12CE12CEF92FF9210
:1019F0000F931F938FE291E09F938F938E010F5F60
:101A00001F4F1F930F930E9438380FB6F894DEBF14
:101A10000FBECDBF41E020E0822F90E0F801E80F3B
:101A2000F91FE081F0E0E75FFE4F3081E2E0F0E097
:101A3000EC0FFD1FE80FF91F50818FEF840F90E02E
:101A4000FC01EB5BFB4F5E3221F43F7730832F5F6D
:101A500001C030832F5F4F5F2530F0F22B960FB619
:101A6000F894DEBF0FBECDBFDF91CF911F910F91D4
:101A7000FF90EF90BF90AF909F908F9008958091CE
:101A8000F801813061F028F0823079F08330A9F0DC
:101A900008956091450483E043DF81E00BC06091CD
:101AA000460482E03DDF82E005C06091470481E0AA
:101AB00037DF83E08093F80108956091480480E067
:101AC0002FDF1092F80108951092450210924402FF
:101AD000F8949FE088E10FB6F894A8958093600091
:101AE0000FBE909360000E94C82D189903C080E03B
:101AF0000E94FB2D8AEF90E00E94F62EA8950E948E
:101B0000D52E10928B031092B9031092E703109216
:101B10001504109243044FE050E060E570E08FEE52
:101B200094E00E945D3A20914C0430914D04A4E66B
:101B3000B0E00E94EA356093110170931201809326
:101B40001301909314012091990430919A040E94FA
:101B5000EA3560930D0170930E0180930F0190930D
:101B6000100180E40E944E1980E80E944E1946E45C
:101B700055E066E080E40E94771A46E455E067E0AD
:101B800080E80E94771A8FEE92E00E94F62E0E9463
:101B9000AF2D7894809125088F3F91F58FE098E0E4
:101BA0001DD366E475E08CEB92E0D8D11092020868
:101BB00040911408BC0186E495E05EDBC82F81E00B
:101BC0000E94601ACC2369F34DE158E069E178E0A6
:101BD00085E198E0D8DB80911D0890911E08A091C6
:101BE0001F08B09120088093210890932208A093A9
:101BF0002308B093240869E178E085E198E0F9D200
:101C000065E178E08FE098E0A3D580E590E0B1D57C
:101C100063D1811102C00E94AF2DA8950E94CC25EE
:101C20000E943D1DF5CF2A98962F9F71892B8EBD5E
:101C30000DB407FEFDCF1EBC0DB407FEFDCF67FD42
:101C400003C02A9A8EB508951EBC0DB407FEFDCFC1
:101C5000F8CF2A986F71862B8EBD0DB407FEFDCF8D
:101C60004EBD0DB407FEFDCF2A9A0895FB012A98B8
:101C70002AE32EBD0DB407FEFDCF8E0F9F1FE81780
:101C8000F90739F01EBC0DB407FEFDCF2EB5219328
:101C9000F6CF10822A9A08952A982AE72EBD0DB40D
:101CA00007FEFDCF860F971F6817790741F0FB01EC
:101CB0002191BF012EBD0DB407FEFDCFF5CF2A9AAD
:101CC00008951F93CF93DF93182F1076C12FD0E084
:101CD0002091FB0130E0C217D30779F043E06FE1B8
:101CE00080EAB7DFAE0185E0559547958A95E1F723
:101CF0006FE180E8AEDF1093FB01DF91CF911F9180
:101D00000895CF93DF931F92CDB7DEB7682F698315
:101D1000D8DF698180E00F90DF91CF9184CF1F934E
:101D2000CF93DF931F92CDB7DEB7182F6983C9DF3A
:101D30004981612F80E40F90DF91CF911F9189CF6E
:101D4000CF93682F84EDEBDF61E082EDE8DF8AEE70
:101D5000D8DF80FDFCCF60E082EDE1DF89EDD1DFEF
:101D6000C82F88EDCEDF2C2F30E0322F2227A9019B
:101D7000482BCA01CF9108951F93CF93DF931F92F1
:101D8000CDB7DEB7162F682F84ED7983C8DF612FBA
:101D900086EDC5DF7981672F87EDC1DF18E28AEE16
:101DA000B0DF80FF04C0812F8A95F1F7F8CF0F9044
:101DB000DF91CF911F910895CF93DF93EC01229A89
:101DC0002A9A84B1886284B924982B982D9880E54A
:101DD0008CBD8DB581608DBD4FEF60E08FEF39DF39
:101DE00080E090E00197F1F71092FA011092F9016A
:101DF00060E088E094DF60E089E091DF60E08CE003
:101E00008EDF60E08DE08BDF6FEF8AE088DF69E1D5
:101E10008BE085DF60E084E082DF6AE185E07FDFE0
:101E20006FEF86E07CDF6FE187E079DF60EB88E3CE
:101E300076DF6FE388E273DF60E389E270DF69EFEA
:101E400080E36DDF67EF81E36ADF6DE080EC67DFE1
:101E500060E081EC64DF42E362EC80E8FADE62E19C
:101E600086EC5DDF6CE087EC5ADF62E184EC57DFE3
:101E70006CED8AEC54DF65E08BEC51DF688184EE19
:101E80004EDF698185EE4BDF6A8182EE48DF6B8130
:101E900083EE45DF6C8180EE42DF6D8181EE3FDFB6
:101EA00060E071E080E168DF8FE10BDF40EC6BE127
:101EB00080E8CFDE44E06FE180E8DF91CF91C9CECA
:101EC00088E31FDF682F616088E329CF88E319DF8B
:101ED000682F6E7F88E323CF81E132DF92FB882772
:101EE00080F908950F931F93CF93DF93EC018B013B
:101EF0006FE180E098DE83FDFBCF8CE102DF81FFA4
:101F000010C040E86FE180E8A4DE40E86FE180EABD
:101F1000A0DE42E06CE180EA9CDE80E395E7019779
:101F2000F1F760E082E0FBDE6AE183E0F8DE6C2F2F
:101F300086E0F5DECE01965E692F87E0F0DE40E0B8
:101F400060E08AE786DEB801CE01A6DE48E06FE1F8
:101F500080E8DF91CF911F910F917BCE9F92AF923E
:101F6000BF92CF92DF92EF92FF920F931F93CF9386
:101F7000DF936C017B0189E3C4DE882309F44EC042
:101F80006091F901C091FA0180E0C9DE6C2F81E017
:101F9000C6DE60E08AE347DE082F60E08AE343DEC6
:101FA00010E0182B1093FA010093F90160E08AE326
:101FB0003ADEC82F60E08AE336DE982E60E08AE3DE
:101FC00032DEA82E60E08AE32EDEA7FE0EC0960168
:101FD00021503109D0E0D92924972C173D0708F466
:101FE000E901B701CE0142DE02C0C0E0D0E06FEFF0
:101FF00001308AE1180724F08CE091DE69E106C027
:10200000600F8CE08CDE01501109612F8DE087DEBE
:1020100040E46EE180E81DDECE0102C080E090E089
:10202000DF91CF911F910F91FF90EF90DF90CF90B4
:10203000BF90AF909F900895CF92DF92EF92FF9262
:102040000F931F93CF93DF937A016901909114024C
:10205000891759F0E0911102F091120240E050E02E
:1020600060E070E084EF91E03EC061113DC02D3032
:102070003105D0F1009111021091120201151105E4
:1020800099F1C0910502D0910602C40FD51F888531
:1020900090E00E943237892B09F1A985B0E0D097F2
:1020A000AA30B105D8F48B8590E0C0978A309105AD
:1020B000A8F46AE06A9FA0016B9F500D11243A8535
:1020C000232F30E020533109240F351F629FA001D8
:1020D000639F500D1124840F951F02C080E090E093
:1020E000A601B701F801099580E0DF91CF911F911A
:1020F0000F91FF90EF90DF90CF900895CF92DF92F5
:10210000EF92FF920F931F93CF93DF937C01FB011C
:10211000413051F4AB014850510960E070E04F5E2E
:102120005F4F6F4F7F4F0FC0423051F4AB014850AB
:10213000510960E070E04A5F5F4F6F4F7F4F03C00F
:1021400040E050E0BA01D70111966F0182E0C81655
:10215000D104B0F0CD010197EC01088110E020E03E
:1021600030E0322F212F102F00278C91082B400FA9
:10217000511F621F731FD2E0CD1AD1081296E6CF0D
:10218000CF018E7FD701A80FB91FE0FF0CC08C9143
:1021900090E0A0E0B0E0BA2FA92F982F8827480F31
:1021A000591F6A1F7B1F8B01222733270115110539
:1021B0002105310539F066277727400F511F621F2F
:1021C000731FF1CFCA0180959095DF91CF911F9138
:1021D0000F91FF90EF90DF90CF900895FC01892B35
:1021E00039F096E0ADE2B2E001900D929A95E1F7F8
:1021F0000895009721F46115710559F40895FC01C3
:10220000A9E2B2E084E08A0F91919D938A13FCCFFA
:10221000F2CFFB01A4E0B1E084E08A0F91919D939D
:102220008A13FCCF0895DC015A96FB014E963D912E
:102230002191321305C0A817B907C9F781E00895A5
:1022400080E0089569327105A0F0FC0124852830F2
:1022500081F42585263069F4B696A9E2B2E084E0DF
:102260008A0F21919D91291304C08A13FACF81E02E
:10227000089580E00895FC016A327105B0F084850C
:10228000883099F48585811110C09685953471F454
:102290007E96A9E2B2E094E09A0F31912D9132132B
:1022A00005C09A13FACF81E0089580E00895CF9396
:1022B000DF93ADE2B2E09C012A5F3F4FF90140811C
:1022C000EC014993CE014D914193C217D307B9F761
:1022D000DF91CF910895CF93DF93EC01188E198E83
:1022E00080E48C8B1D8A8E8B40E064E170E0CE012F
:1022F0000E9604DF988F898FDF91CF910895CF9349
:10230000DF93EC016E96DC015A96E9E2F2E024E0FC
:102310002E0F3C91399331913D932E13FACFDF91DB
:10232000CF91D9CF9C01265D3F4FFC01BE96D901CC
:102330008E91680F711D82916083442311F08C93FC
:1023400001C01C92672F7727E217F30789F70895DA
:10235000CF93DF93EC018CA19AA19CA38AA38DA1BA
:102360009BA19DA38BA3CE01DDDF1AAA1BAA80E54A
:102370008EA7DF91CF910895CF93DF93EC0197DF84
:102380001C8A82E08D8BCE018096DE0156964DE24E
:1023900052E026E0240F3C91FC013193CF01FA0179
:1023A0003191AF013D932E13F6CFCE018696DE011B
:1023B0005C9649E252E024E0240F3C91FC01319309
:1023C000CF01FA013191AF013D932E13F6CFBE013B
:1023D0008AE290E0DF91CF9185CD0F931F93CF9349
:1023E000DF93EC018B0163DFCE0189DF1AA29CA190
:1023F000983F18F02DA12F5F2DA3985F9CA3BE01DD
:10240000C801DF91CF911F910F916CCDFC01208904
:1024100030E0322F22278189282B2451310986A5CB
:1024200082958F70A90164E0869F4019510911249B
:10243000CA0157FF02C080E090E008959C01CB01E3
:10244000FC01E61BF70BE40FF51FE491EE2339F0D6
:10245000D901A80FB91FD696EC930196F1CF089534
:10246000DB01D696A80FB91FFA01420F4E1719F0DB
:1024700081918D93FBCFCB01820F911D0895FA01BD
:1024800001900020E9F731979F01241B350BE8CF1D
:10249000EF92FF920F931F93CF93DF9300D000D062
:1024A0001F92CDB7DEB790911402891392C080912C
:1024B00013020091050210910602811126C04DE71A
:1024C00052E060E070E0C801B9DF40910B0250912A
:1024D0000C02BC01C801B2DF4091090250910A020E
:1024E000BC01C801CCDF4BE652E0BC01C801A6DF4D
:1024F0004091070250910802BC01C8019FDF4EE3E2
:1025000052E0BC01C8019ADF66C048E352E060E0D7
:1025100070E0C80193DF40910B0250910C02BC01A6
:10252000C801ADDF4091090250910A02BC01C80107
:10253000A6DF46E252E0BC01C80180DF40910702FD
:1025400050910802BC01C8019ADFE0900F02F090A0
:102550001002E114F10449F043E252E0BC01C80169
:102560006DDFA701BC01C80169DF4EEF51E0BC017E
:10257000C80164DF4DEE51E0BC01C8015FDF7C01A2
:10258000A0910D02B0910E02FD0101900020E9F72B
:1025900031974AE0BE016F5F7F4FCF018A1B9B0BD3
:1025A0000E94B4370091050210910602AE014F5F00
:1025B0005F4FB701C80163DF47EB51E0BC01C801C1
:1025C0003DDF40910D0250910E02BC01C80157DF62
:1025D00002C080E090E00F900F900F900F900F904E
:1025E000DF91CF911F910F91FF90EF9008950F937E
:1025F0001F93CF93DF9300D01F92CDB7DEB78C012E
:102600004B8369837A8353DE4B81842F8061F80189
:1026100087A769817A81443029F06115710511F429
:1026200061E070E041E0C80193DEF801108A88E2C1
:10263000818BC80164DE84E0F80180AB11AA42E01E
:102640006CE170E0C8014A9659DDF80192AB83ABAA
:10265000B80186E390E00F900F900F90DF91CF913B
:102660001F910F913FCC0F931F93CF93DF93EC01FA
:102670008B01CB018896988B898BCE012CDE1AAA10
:102680001BAAB801645E7F4F42E0CE014A9636DD58
:102690009AAB8BABBE01C801C696DF91CF911F915B
:1026A0000F9120CCCF92DF92EF92FF920F931F9366
:1026B000CF93DF9300D0CDB7DEB76C01F42EE52EBB
:1026C00069837A83F4DD6981062F7A81172F0D3DA6
:1026D000110510F00CED10E0F601108AC8014C96BF
:1026E000818BC6010CDEF60182A184A383A185A3A0
:1026F000E2A2F3A216A2C801089687A310A611A60B
:10270000B801605F7F4F41E0C6014A96F7DCF601F1
:1027100090A781A7B601C8018A960F900F90DF910C
:10272000CF911F910F91FF90EF90DF90CF90DACB78
:10273000FB01BC01665D7F4FDB015A2F561B54170E
:1027400018F451915D93F9CF642F70E0A901AACFDD
:102750006115710519F4009759F40895FB01A9E278
:10276000B2E024E02A0F31913D932A13FCCFF3CF3E
:1027700035CD9093FE01809308010895CF93DF93A8
:10278000EC0195DD188A8CE2898BCE01B8DD82E1FF
:102790008FA740E061E070E0CE01DADD1EA21FA24B
:1027A00080910C0188A719A68D5F80930C0182E0AF
:1027B0008EAB84E08FAB85E088AF19AE80E68EA744
:1027C0008AE088AB19AA42E060E270E0CE014A9646
:1027D00095DC9AAB8BABBE018AE390E0DF91CF91A1
:1027E00081CB0F931F93CF93DF93EC018B0160910B
:1027F000FC017091FD0140E0FADE89E18FA7B8018C
:10280000CE01DF91CF911F910F912DCF640F751FD6
:102810004617570741F0FA012491FC012193CF019B
:102820004F5F5F4FF5CF0895AF92BF92CF92DF9287
:10283000EF92FF920F931F93CF93DF9300D0CDB70A
:10284000DEB75C01F62EE72E6A01B5016A5F7F4FA5
:10285000EDE2F2E046E04E0FD8015D918D01DC0122
:102860005D93CD015191DB015D93BD014E13F4CF1A
:1028700088E0F501848715864AE852E069E070E057
:10288000C5010E9629833A83C1DF80910301D501EA
:1028900053968C9353978F5F8093030150961C92AD
:1028A000509781E157968C938601C5014E96E9E2D7
:1028B000F2E044E04E0F3A812981D8015D918D010B
:1028C000DC015D93CD015191BD0165507109DB01C2
:1028D0005C934E13F2CFF50134A325A3E2A2F3A239
:1028E00016A210A611A60F900F90DF91CF911F9105
:1028F0000F91FF90EF90DF90CF90BF90AF90089531
:102900000F931F93CF93DF93EC018B01CB014C9678
:10291000898B988BCE01DFDCC80108968FA39EA31C
:10292000B801605F7F4F41E0CE014A96E7DB89A79F
:1029300098A7BE01C8018A96DF91CF911F910F9190
:10294000D1CAEF92FF920F931F93CF93DF93209101
:102950002902222309F44CC0EC012DE2E22E22E0F0
:10296000F22EDC011696F7014FEF26E02E0D49936B
:1029700031913D932E13FBCF8B01EC0188E08C87C6
:1029800086E08D8742E852E068E070E0CE010E9666
:102990003DDFAE01405E5F4FDE019696F70121916B
:1029A0007F01CA010A97FC012083FA011192AF014D
:1029B000EA17FB0799F7C80169E272E024E0260FE5
:1029C000FC013191CF013D93FB013191BF01AD017C
:1029D0004B505109FA0130832613F2CFBE018AE22F
:1029E00090E0DF91CF911F910F91FF90EF907ACA05
:1029F000DF91CF911F910F91FF90EF90089581E0AB
:102A000090910002923009F480E008955093E6041A
:102A10004093E50421E0209300026093FF01E1E090
:102A2000F2E024E02E0FDC013D91CD0131932E1315
:102A3000FACF0895FF920F931F93CF93DF93EC018A
:102A4000162F042FF52E9C018DE292E0BE016A5FE5
:102A50007F4FECE1F2E046E04E0F5191D9015D93DA
:102A60009D01DC015D91CD01DB015D93BD014E1344
:102A7000F4CF88E08C871D864AE852E069E070E078
:102A8000CE010E96C3DE8CE2898B809103018B8B85
:102A90008F5F8093030186E08F8BDE015E9689E273
:102AA00092E062E272E024E0260FFB013191BF0167
:102AB0003D93FC013191CF01AD0145505109FA011F
:102AC00030832613F2CFCE0106DCFCA20DA38BE0EF
:102AD0008AA31BA3FE01B696CE018E961192E8172B
:102AE000F907E1F780910C0188A78D5F80930C01B5
:102AF00080E68EA782E08FA793E098AB19AA1AAA66
:102B00001BAA1CAA1DAA8EAB94E09FAB88AF8EEEC9
:102B100089AF42E060E270E0CE014A96EFDA9AAB0C
:102B20008BABBE018AE390E0DF91CF911F910F91B3
:102B3000FF90D8C90F931F939093180280931702A8
:102B40007093160260931502D901E2E2F2E084E08C
:102B50008E0F9D9191938E13FCCFD801ECE1F2E0A2
:102B600086E08E0F9D9191938E13FCCF50931A02A5
:102B70004093190281E080931B02809126028F5FAF
:102B8000883018F48093260202C0109226028091A9
:102B900026021F910F9108952F923F924F925F92BC
:102BA0006F927F928F929F92AF92BF92CF92DF925D
:102BB000EF92FF920F931F93CF93DF9300D0CDB787
:102BC000DEB73C011B012A0129833A8385D929817B
:102BD0003A81882329F170920C0260920B02509284
:102BE00008024092070230920A02209209023093B2
:102BF000100220930F0210930E0200930D0281E049
:102C000080931302F0921202E09211028501960164
:102C1000A40168E472E18CE190E18CDF80931402FE
:102C20000F900F90DF91CF911F910F91FF90EF9038
:102C3000DF90CF90BF90AF909F908F907F906F90DC
:102C40005F904F903F902F900895AF92BF92DF9288
:102C5000EF92FF920F931F93CF93DF931F92CDB705
:102C6000DEB75C017B016115710509F04EC08091F2
:102C70000002893069F48091090190910A01892B41
:102C800039F42AD9882321F061E072E0C50159DEC8
:102C900080910002813081F41FD9882369F061E0BE
:102CA00072E0C5014EDE80910002886080930002D0
:102CB00010920A01109209018091090190910A0174
:102CC000019690930A018093090180911B02813043
:102CD00009F066C101D9882309F462C182E08093BA
:102CE0001B0260910B016F5F60930B014091190211
:102CF00050911A026F718091260220E2829FC001DA
:102D00001124682BC50196DE4BC19CDA882351F152
:102D1000D50155968C91813011F4C5012DDB809140
:102D2000000283FF3DC1F5011589123009F038C159
:102D300044E050E061E072E0C5014C960E946237C9
:102D4000892B09F02DC1A5014A5E5F4FE091E50492
:102D5000F091E6046091FF0181E092E00995109303
:102D600000021EC1B701C50186DA882309F418C123
:102D7000D50157968C915797813091F492968C910A
:102D8000883009F00DC1E0912702F09128023097B8
:102D900019F0C5014A960995B701C5011EDB00C1AE
:102DA000B6E3EB16F10408F4FBC0863009F0F8C076
:102DB000F50184A18B3009F0C1C0B0920602A09247
:102DC000050262E272E0C5012EDA882309F4E8C048
:102DD000D5019F962C919F9722FF13C0E091170277
:102DE000F0911802309759F095968C9120E030E0E0
:102DF00040E050E063E0829586958770099586E013
:102E000092C0C501298302DB8C0180911B022981BC
:102E1000823089F5822F807122712231F9F440E0ED
:102E200060E070E0C501E3DB88E1F50187A7E09190
:102E30001502F0911602309741F0D50193968C91CE
:102E4000829586958770099502C080E090E023E026
:102E500020931B02BC01C50106DCA2C091E0909347
:102E60001B02811104C0B8016F5F7F4F02C060E098
:102E700070E044E060C08330A9F50115110591F1BF
:102E800084E080931B02E0911702F09118023097C2
:102E900049F1D5019E964C9142954F70B4E04B9FFD
:102EA000A0011124C70108974E5D5F4F8417950755
:102EB00008F4AC01C801840F951FE816F90620F448
:102EC0009701241B350B01C09801D50195968C9173
:102ED00060E08295869587700995882319F049E00E
:102EE000B8011EC090911B02F50187A5953019F419
:102EF00084FD85CF55C0963069F484FD04C0B801C7
:102F00006F5F7F4F02C060E070E044E0C5016FDB9F
:102F100087E009C080FF0AC0B8016F5F7F4F41E0C2
:102F2000C50165DB85E080931B023AC001151105E0
:102F3000B9F140E0B801C5015ADB32C09091FE0101
:102F400089132EC095A180910801981329C0D7A498
:102F5000D1FE03C0C50112DC23C0D4FE21C0C501CF
:102F600055DA8C019093FD018093FC01892B41F48B
:102F7000D0FE16C040E060E070E0C50138DB12C052
:102F8000F50106A502950F70F4E00F9F8001112452
:102F90000E5D1F4F28E0E21AF108E016F10610F46A
:102FA00000E010E0C8010F90DF91CF911F910F91C9
:102FB000FF90EF90DF90BF90AF90089598E028E1E8
:102FC000362F382730FD02C0669503C0622766950C
:102FD000606886959150A1F7862F0895EF92FF9231
:102FE0000F931F93CF93DF93EC017C0187E0E80EF2
:102FF000F11C8E0160E0F80181918F01DFDF682F05
:103000000E151F05C1F781E09F81691301C080E0A3
:10301000DF91CF911F910F91FF90EF900895EF9264
:10302000FF920F931F93CF93DF93EC017C0188E015
:10303000E80EF11C8E0160E0F80181918F01BEDF86
:10304000682F0E151F05C1F781E09885691301C02F
:1030500080E0DF91CF911F910F91FF90EF90089545
:103060001F93CF93DF93D82F162FC8E0812FD0FF67
:1030700002C022D101C039D1D695C150B9F7DF9134
:10308000CF911F9108951F93CF93DF93182FD8E00E
:10309000C0E0C695812F42D18111C068D150C9F7D7
:1030A0008C2FDF91CF911F910895682F8CECD8CF92
:1030B000CF92DF92EF92FF921F93CF93DF931F92F5
:1030C000CDB7DEB7F82E162F85E59983C9DFCF2C53
:1030D0009981D92E760188E0E80EF11C612FF60166
:1030E00081916F01BDDF81E090E00E94F62ECE1449
:1030F000DF04A1F70F90DF91CF911F91FF90EF9028
:10310000DF90CF900895CF92DF92EF92FF920F93CE
:103110001F93CF93DF938C01D62EE42E642F80EF84
:103120009FDFC1E0F12CD1E08E2DF8D0C82E8E2D7E
:10313000F5D0CC2039F0811131C0F80180818C2B81
:10314000808319C0F8019081882321F08C2F80950D
:10315000982303C0DD1104C09C2BF80190830BC0A1
:10316000DD1630F48C2F80959823F801908302C0EF
:103170009C2309F4FD2EF80180818C2319F08E2DFB
:103180009BD002C08E2DB1D0DF5FCC0F19F40F5F42
:103190001F4FC1E0D13441F68F2D01C08FEFDF9179
:1031A000CF911F910F91FF90EF90DF90CF900895F6
:1031B0006F927F928F929F92AF92BF92CF92DF9247
:1031C000EF92FF920F931F93CF93DF931F92CDB790
:1031D000DEB75C01062F942E69013C0184E0680E85
:1031E000711C930180E0801761F0A901485F5F4F77
:1031F000F9011192E417F507E1F78F5F225D3F4F68
:10320000F2CF7301F30110E060E088E0882E101720
:10321000F9F0A895D701882D01900D928A95E1F7D4
:10322000892D69839BD06981882329F1492DC701A4
:103230006ADF682F1F5FD5019EE2199FA00DB11DA7
:1032400011241496F701882311F07D01E0CF012F9E
:1032500010E0101771F0A895C301C0DEEEE26E0E0B
:10326000711C81110AC0F60180818F5F80831F5F0E
:10327000F0CF80E003C08FEF01C081E00F90DF91BD
:10328000CF911F910F91FF90EF90DF90CF90BF9063
:10329000AF909F908F907F906F9008959AB1809596
:1032A00098239AB99BB189238BB98BEB93E0019753
:1032B000F1F700C0000008952FB7F8949AB1982B49
:1032C0009AB99BB1809598239BB99AE09A95F1F7AA
:1032D00000C09AB198239AB99BB189238BB985EA2A
:1032E0008A95F1F700002FBF08952FB7F8949AB18F
:1032F000982B9AB99BB1809598239BB99AE99A9596
:10330000F1F700C09AB198239AB99BB189238BB980
:1033100085E18A95F1F700002FBF08953FB7F89433
:103320009AB1982B9AB99BB1282F209592239BB9DB
:103330009AE09A95F1F700C09AB192239AB99BB19D
:1033400092239BB922E12A95F1F700C099B12DE8AB
:103350002A95F1F700003FBF892308953FB7F894FD
:103360009AB1982B9AB99BB1282F209592239BB99B
:10337000EBEBF3E03197F1F700C000009AB1922334
:103380009AB99BB192239BB9F5EBFA95F1F700003E
:1033900099B1EFE2F3E03197F1F700C000003FBFD1
:1033A000909589230895883C910529F480913602EF
:1033B0008F5F8093360280914302823019F483E05C
:1033C000809343020895613049F4DA01EDE3F2E0BD
:1033D00086E08E0F9D9191938E13FCCF0895CF922E
:1033E000DF92EF92FF920F931F93CF93DF9300D062
:1033F00000D01F92CDB7DEB78C01FC011082118284
:10340000128213827B0120E090E0F70181917F011D
:10341000882361F12430D8F5933090F4482F50E0A0
:10342000405351094A30510548F4E1E0F0E0EC0F17
:10343000FD1FE90FF11D80839F5F02C0992329F3CF
:103440008E3219F7E1E0F0E0EC0FFD1FE90FF11DFE
:1034500010826801C20ED11CCE0101962D830E94FC
:103460003D36F60180832D812F5FCECF233079F456
:10347000E1E0F0E0EC0FFD1FE90FF11D1082CE013D
:1034800001960E943D36F801838380E001C081E00F
:103490000F900F900F900F900F90DF91CF911F9191
:1034A0000F91FF90EF90DF90CF90089581E04D9BBA
:1034B00080E00895813011F45D9A08955D98089533
:1034C000CF93DF93D82FC0E0CD1771F05D9A82E3E0
:1034D00090E00E94F62E80E0EDDF82E390E00E9413
:1034E000F62EA895CF5FF0CFDF91CF9108959F92F0
:1034F000AF92BF92CF92DF92EF92FF920F931F9302
:10350000CF93DF931F92CDB7DEB7F82EE62E8A0158
:10351000DA018C9165E0681BBEE28B9FC00111242B
:103520009E012F5F3F4F4F2D815A9C4F41DEF80186
:10353000D0808EE2C82E90E1992EAD2CB12C8981DD
:10354000D8012C9130E0280F311DA216B306ECF4FF
:103550006D2D8F2D0E94822FCA9CF001CB9CF00D07
:103560001124E15AFC4F86A18F3721F06D2D8F2D4C
:103570000E94C72FCA9CF001CB9CF00D1124E15A88
:10358000FC4FF3A694A6D394D8CF811140C08E2DC2
:103590000E94D50A8AEF90E00E94F62EA8958AEF45
:1035A00090E00E94F62EA8958E2D0E94D50A80915B
:1035B0000201811135C0D801EC914EE24E9FF0011D
:1035C0001124E15AFC4FE3A62C9130E02F5F3F4FCE
:1035D000429FF001439FF00D1124E15AFC4FE3A6F6
:1035E000EC914E9FF0011124E15AFC4F21E124A7F8
:1035F0008C9190E00196489FF001499FF00D1124B5
:10360000E15AFC4F24A78C918E5F8C9309C08F2DBB
:103610000E94012F8981F8019081980F908301C049
:1036200080E00F90DF91CF911F910F91FF90EF906D
:10363000DF90CF90BF90AF909F9008951F920F9210
:103640000FB60F9211242F933F934F935F936F9375
:103650007F938F939F93AF93BF93EF93FF930E94BA
:103660003F0DFF91EF91BF91AF919F918F917F910E
:103670006F915F914F913F912F910F900FBE0F90DF
:103680001F9018951F920F920FB60F9211242F932F
:103690003F934F935F936F937F938F939F93AF93DA
:1036A000BF93EF93FF938091590390915A03A09198
:1036B0005B03B0915C030196A11DB11D809359037A
:1036C00090935A03A0935B03B0935C038091330201
:1036D0008F5F843618F48093330214C01092330243
:1036E000809135028F5F80933502809134028F5F25
:1036F0008093340280913402863020F0109234029C
:103700000E94C80680914B03813011F580915103CE
:1037100090915203A0915303B0915403892B8A2BAB
:103720008B2BA1F08091510390915203A0915303F0
:10373000B09154030197A109B1098093510390936B
:103740005203A0935303B093540302C010924B034F
:1037500080914A03813011F580914D0390914E0381
:10376000A0914F03B0915003892B8A2B8B2BA1F092
:1037700080914D0390914E03A0914F03B09150035F
:103780000197A109B10980934D0390934E03A09333
:103790004F03B093500302C010924A0380914C0330
:1037A000813011F58091550390915603A0915703F4
:1037B000B0915803892B8A2B8B2BA1F08091550354
:1037C00090915603A0915703B09158030197A10916
:1037D000B1098093550390935603A0935703B09378
:1037E000580302C010924C03FF91EF91BF91AF912B
:1037F0009F918F917F916F915F914F913F912F9109
:103800000F900FBE0F901F90189590ED980F9A3063
:1038100070F09FE9980F963010F499EA05C09FEB7D
:10382000980F963018F499EC980F01C0982F892FB3
:10383000089590ED980F9A3060F09FE9980F9630B8
:1038400010F4875508959FEB980F963020F4875316
:103850000895892F089580E00895CF93DF93EA01BA
:103860002AE00E94C637CE01DF91CF910895EF92F2
:10387000FF920F931F93CF93DF938B01EC0120E016
:1038800030E08991882361F0209F7001219FF00C26
:10389000309FF00C1124B9DF9701280F311DF1CFB3
:1038A000C901DF91CF911F910F91FF90EF90089583
:1038B0005F926F927F928F929F92AF92BF92CF92C0
:1038C000DF92EF92FF920F931F93CF93DF93CDB7C9
:1038D000DEB72B970FB6F894DEBF0FBECDBF6C01DD
:1038E000562EFC0101900020E9F731977F01E81A7C
:1038F000F90A5C0120E030E000E010E0842E912C19
:10390000C5018C199D098E159F0514F5F50181914E
:103910005F01E1E0F0E0EC0FFD1FE20FF31F851106
:1039200013C010823801FFEF6F1A7F0AB401CE0175
:1039300001964B879CDFF801EA5BFD4F8083830192
:1039400020E030E04B85DCCF80832F5F3F4FD8CF26
:10395000E1E0F0E0EC0FFD1FE20FF31F1082642F97
:1039600070E0CE01019683DFF801EA5BFD4F8083B2
:103970002B960FB6F894DEBF0FBECDBFDF91CF916F
:103980001F910F91FF90EF90DF90CF90BF90AF907D
:103990009F908F907F906F905F9008950F931F93EB
:1039A000CF93DF938A01FB0101900020E9F7319763
:1039B000EF01C61BD70B0E949A37009719F410929B
:1039C000460223C0BC016C0F7D1F86E492E00E947A
:1039D0007A37E6E4F2E001900020E9F73197EF0151
:1039E000C654D240B80186E492E00E949A37FC01A6
:1039F00001900020E9F73197E81BF90BCE018E1BEF
:103A00009F0BFC01EA5BFD4F108286E492E0DF91A0
:103A1000CF911F910F910895CF92DF92FF920F9354
:103A20001F93CF93DF938C01EC01F80180818823F1
:103A3000D9F08B32A1F0853299F4680182E0C80E8A
:103A4000D11CF8018181F5DEF82EF8018281F1DECA
:103A5000F0E1FF9E90011124822B860101C080E2DB
:103A600089930F5F1F4FE1CF1882DF91CF911F9194
:103A70000F91FF90DF90CF9008956F927F929F9269
:103A8000AF92BF92CF92DF92EF92FF920F931F936C
:103A9000CF93DF9380914C03811101C107DD91E049
:103AA000811190E0892F06DD80915D038823E9F084
:103AB0000E94AF2D10925D0348EE53E060E070E08D
:103AC00040935103509352036093530370935403F4
:103AD00081E080934B0340934D0350934E036093DA
:103AE0004F037093500380934A0384EF91E0A0E06A
:103AF000B0E08093150190931601A0931701B09345
:103B000018018093550390935603A0935703B093E5
:103B1000580310E08EE2D82E01E092E0992E2AEAB6
:103B2000B22E36E0A32E612E712CD69C7001D79C4C
:103B3000F00C1124E701C15ADC4F8CA5803119F03B
:103B40008131C9F077C0B7016D597C4FAE018BA5AB
:103B50000E940D2F811103C00B8F1DA601C00DA760
:103B6000D69CF001D79CF00D1124E15AFC4F83A59F
:103B70000E94012F5FC08BA50E94D50A809102018F
:103B8000CC24C394C10E81114DC01DA69B8E6091A3
:103B9000ED017091EE0180E090E00E944B3420E056
:103BA00030E040E251E40E94B733688379838A832E
:103BB0009B83BC828AE1810F8D83D701AB59BC4FB7
:103BC000EFE0F8E08A2D01900D928A95E1F7DC9CF8
:103BD00070011124E701C15ADC4F1DA60B8F6091C3
:103BE000EF017091F001072E000C880B990B0E94D9
:103BF0004D3420E030E040E251E40E94B733688366
:103C000079838A839B83BC82155D1D83D701AB5961
:103C1000BC4FEFE0F8E08A2D01900D928A95E1F714
:103C20001C2D08C00DA71C2DDC9CF0011124E15AAD
:103C3000FC4F05A71F5F153008F475CFEBE6F3E0E6
:103C400080E090E020812A3211F52EE2289FF001D9
:103C5000299FF00D1124E15AFC4F8DB79EB78E9726
:103C60000FB6F8949EBF0FBE8DBFADB7BEB711960D
:103C700001900D922A95E1F70E94A40C8DB79EB792
:103C80008E960FB6F8949EBF0FBE8DBF05C00196ED
:103C9000BE9685309105B1F681E080934C03DF91AB
:103CA000CF911F910F91FF90EF90DF90CF90BF9039
:103CB000AF909F907F906F9008954BE95CE060E03B
:103CC00070E086E495E00C941E1244E65CE060E04F
:103CD00070E086E495E00C941E124CE25CE00C94DB
:103CE0001E12CF92DF92EF92FF920F931F93CF930A
:103CF000DF93EC0169010E941E1245E15CE0BC010A
:103D0000CE010E941E12A601BC01CE010E941E120D
:103D10004CE05CE0BC01CE010E941E12A801BC0177
:103D2000CE010E943F1249E05CE0BC01CE010E943E
:103D30001E12A701BC01CE01DF91CF911F910F91FF
:103D4000FF90EF90DF90CF900C941E124F925F92F5
:103D50006F927F928F929F92AF92BF92CF92DF929B
:103D6000EF92FF920F931F93CF93DF9300D000D079
:103D700000D0CDB7DEB72A013B01922E832E580129
:103D80002EE2829FC0011124FC01E15AFC4F838D79
:103D90009E012F5F3F4F6901823021F1B8F48130DD
:103DA00009F04BC02081318142815381C301B201AE
:103DB0000E944F33162FF72EE82E092F63E07CE088
:103DC000C6010E9442376CEF7BE033C08330F1F0D4
:103DD0008A3099F51081F180E280038168EE7BE002
:103DE000C90128C02081318142815381C301B201C0
:103DF0000E944F33162FF72EE82E092F66EF7BE037
:103E0000C6010E94423764EF7BE013C020813181FC
:103E100042815381C301B2010E944F33162FF72E06
:103E2000E82E092F6EEE7BE0C6010E9442376BEE52
:103E30007BE0C5010E94423704C010E0F12CE12C68
:103E400000E00F93EF92FF921F93DF92CF928F9239
:103E50009F920E9438380FB6F894DEBF0FBECDBFD8
:103E600080E090E026960FB6F894DEBF0FBECDBF7F
:103E7000DF91CF911F910F91FF90EF90DF90CF9046
:103E8000BF90AF909F908F907F906F905F904F907A
:103E900008950F931F93CF93DF93EC010EDF8C01F6
:103EA0006091E7047091E8048091E9049091EA043C
:103EB00040E055E0D2DC43EA5BE0B801CE010E946D
:103EC0001E124DE85BE0BC01CE010E941E1240E0D4
:103ED00055E0BC01CE010E943F1243E85BE0BC010B
:103EE000CE010E941E124EE65BE0BC01CE010E9494
:103EF0001E1240E055E0BC01CE010E943F1244E694
:103F00005BE0BC01CE010E941E1243E45BE0BC01F9
:103F1000CE010E941E1240E055E0BC01CE010E947D
:103F20003F1249E35BE0BC01CE010E941E1246E253
:103F30005BE0BC01CE01DF91CF911F910F910C94FA
:103F40001E128F929F92AF92BF92CF92DF92EF920A
:103F5000FF920F931F93CF93DF93EC01AEDEBC0172
:103F6000CE01BBDE6C016AE17BE08BE295E00E9452
:103F7000423743E05BE0B601CE010E941E124C01C5
:103F8000809118081F928F93809117081F928F932A
:103F9000809116081F928F93809115081F928F931E
:103FA0008BE2A82E85E0B82EBF92AF9290E0C92E8A
:103FB00095E0D92EDF92CF920E94383829EFE22E79
:103FC0002AE0F22E860127EF3AE041EF5AE0B401F1
:103FD000CE0187DE4C01809114081F928F9380914F
:103FE00013081F928F93809112081F928F938091D4
:103FF00011081F928F93809110081F928F938091C8
:104000000F081F928F9323ED3AE03F932F93DF9297
:10401000CF920E94593839ECE32E3AE0F32E27EC88
:104020003AE046EC5AE0B401CE015BDE4C018091EF
:104030001C081F928F9380911B081F928F93809171
:104040001A081F928F93809119081F928F93BF9225
:10405000AF92DF92CF920E9438382DB73EB7285DDD
:104060003F4F0FB6F8943EBF0FBE2DBF4CEBE42E72
:104070004AE0F42E2AEB3AE049EB5AE0B401CE01D3
:1040800030DE4C01809120081F928F9380911F0891
:104090001F928F9380911E081F928F9380911D080D
:1040A0001F928F93BF92AF92DF92CF920E943838C7
:1040B0005FEAE52E5AE0F52E2DEA3AE04CEA5AE0A6
:1040C000B401CE010EDE4C01809124081F928F9323
:1040D000809123081F928F93809122081F928F93C3
:1040E000809121081F928F93BF92AF92DF92CF925F
:1040F0000E9438386BEAE62E6AE0F62E29EA3AE0AA
:1041000048EA5AE0B401CE01ECDD47E85AE0BC01D0
:10411000CE010E941E122DB73EB7285E3F4F0FB64C
:10412000F8943EBF0FBE2DBF209125082F3F31F4DC
:104130004EE75AE0BC01CE010E941E1241E55AE052
:10414000BC01CE010E941E126C016091E7047091C7
:10415000E8048091E9049091EA0440E055E07DDBB9
:1041600040E055E0B601CE010E943F1245E15AE021
:10417000BC01CE01DF91CF911F910F91FF90EF9085
:10418000DF90CF90BF90AF909F908F900C941E12B5
:104190006F927F928F929F92AF92BF92CF92DF9257
:1041A000EF92FF920F931F93CF93DF93EC01162FA3
:1041B00084DD43E05AE0BC01CE010E941E1246EEAF
:1041C00059E0BC01CE010E941E12C12ED12C2DE45B
:1041D000129FF0011124E55BFB4F20812F3F31F44A
:1041E0004DED59E0BC01CE010E941E124CEB59E08E
:1041F000BC01CE010E941E122DE42C9D50012D9D6C
:10420000B00C11248501025B1B4F2EEAE22E29E03F
:10421000F22E29EA39E048EA59E0BC01CE0161DD1D
:104220004C01C501855B9B4F3C01FC01E55BFF4FE9
:104230006081718180E090E040E055E00EDB37EA7C
:10424000E32E39E0F32E00E015E022EA39E045E9FB
:1042500059E0B401CE0145DD850108591B4F44E703
:10426000E42E49E0F42E2FE639E042E659E0BC01A5
:10427000CE0137DD53ECA52E51E0B52E00E010E065
:10428000EFEF6E1A7E0A43E559E0BC01CE010E94B1
:104290001E124C014AE060E075E0C8010E94B4378C
:1042A00040E055E0B401CE010E943F12F30140818D
:1042B0005181F501228133814217530731F449E4DA
:1042C00059E0BC01CE010E941E1247E459E0BC0136
:1042D000CE010E941E12F50140815181BC01CE0128
:1042E0000E943F124DE359E0BC01CE010E941E1214
:1042F0000F5F1F4FF4E0AF0EB11C0530110519F62A
:1043000040E159E0BC01CE010E941E128C014AE03E
:1043100060E075E0C6010E94B43740E055E0B801A6
:10432000CE010E943F1249ED58E0BC01CE010E942F
:104330001E128C016091E7047091E8048091E904F9
:104340009091EA0440E055E088DA40E055E0B80199
:10435000CE010E943F1240ED58E0BC01CE01DF913A
:10436000CF911F910F91FF90EF90DF90CF90BF9072
:10437000AF909F908F907F906F900C941E12CF9370
:10438000DF93EC019ADCBC01CE01A7DC46E658E0E5
:10439000BC01CE01DF91CF910C941E120F931F939D
:1043A000CF93DF93EC01162F88DCBC01CE0195DCA6
:1043B000BC0111111BC04BED57E0CE010E941E1233
:1043C0008C016091E7047091E8048091E904909178
:1043D000EA0440E055E041DA40E055E0B801CE01A2
:1043E0000E943F1241ED57E0BC0102C048EC57E08B
:1043F000CE01DF91CF911F910F910C941E12CF939C
:10440000DF93EC015ADCBC01CE0167DC47EA57E0E0
:10441000BC01CE01DF91CF910C941E120F931F931C
:10442000CF93DF93EC0149DC41E857E0BC01CE01BA
:104430000E941E128C016091E7047091E804809143
:10444000E9049091EA0440E055E007DA40E055E0E5
:10445000B801CE010E943F1245E757E0BC01CE01F2
:10446000DF91CF911F910F910C941E126F927F924A
:104470008F929F92BF92CF92DF92EF92FF920F9313
:104480001F93CF93DF93EC01B62E142F16DCBC01E3
:10449000CE0123DC4EE657E0BC01CE010E941E1285
:1044A000113031F440E257E0BC01CE010E941E12EF
:1044B0004EE057E0BC01CE010E941E1246E057E0DC
:1044C000BC01CE010E941E126C018B2C912C2EE29D
:1044D000B29E80011124015A1C4FF80183851F925E
:1044E0008F9382851F928F9381851F928F938085F2
:1044F0001F928F9387811F928F9386811F928F9334
:1045000085811F928F9384811F928F9325EE36E0D1
:104510003F932F9320E035E03F932F930E9459382B
:1045200040E055E0B601CE010E943F1240EC56E05B
:10453000BC01CE010E941E122DB73EB72C5E3F4F2C
:104540000FB6F8943EBF0FBE2DBFF80121A12F3F3B
:1045500031F447EB56E0BC01CE010E941E122EE260
:10456000289D6001299DD00C1124860105591C4FFE
:1045700029EAE22E26E0F22E26EA36E043E856E06B
:10458000BC01CE01AEDB3C019601215A3C4F6901D2
:10459000F9017D9683818F9382818F9381818F939F
:1045A000F901858D8F938DE796E09F938F9380E03F
:1045B00095E09F938F930E94593837E6E32E36E0BB
:1045C000F32E00E015E024E636E045E556E0B301C1
:1045D000CE0187DB3C010BE215E020E035E040E056
:1045E00050E0BA018B2DB2DB40E055E0B301CE01C3
:1045F0000E943F12A801BC01CE010E943F1242E47A
:1046000056E0BC01CE010E941E123C01F601458D10
:10461000568D678D70A120E035E08B2D97DB40E053
:1046200055E0B301CE010E943F12A801BC01CE01AA
:104630000E943F124FE156E0BC01CE010E941E12C3
:104640008C014AE060E075E0C4010E94B43740E0AC
:1046500055E0B801CE010E943F124BEF55E0BC017E
:10466000CE010E941E128C016091E7047091E80453
:104670008091E9049091EA0440E055E0EED840E0F2
:1046800055E0B801CE010E943F122DB73EB7285F1A
:104690003F4F0FB6F8943EBF0FBE2DBF4BEC55E019
:1046A000BC01CE01DF91CF911F910F91FF90EF9050
:1046B000DF90CF90BF909F908F907F906F900C94E1
:1046C0001E12CF92DF92EF92FF920F931F93CF9320
:1046D000DF93EC016B017A0189016091E70470912D
:1046E000E8048091E9049091EA0440E055E0B5D8EF
:1046F00041EC55E0B601CE010E941E12A701BC019B
:10470000CE010E941E124CEB55E0BC01CE010E946E
:104710001E1240E055E0BC01CE010E943F1240EB6A
:1047200055E0BC01CE010E941E12A801BC01CE01C1
:104730000E941E1247EA55E0BC01CE01DF91CF91E5
:104740001F910F91FF90EF90DF90CF900C941E126D
:104750000F931F93CF93DF93EC01AFDABC01CE012F
:10476000BCDA8C016091E7047091E8048091E9045F
:104770009091EA0440E055E070D820EA35E04CE939
:1047800055E0B801CE019DDF23E935E04FE855E063
:10479000BC01CE0196DF26E835E040E855E0BC01DB
:1047A000CE018FDF27E735E041E755E0BC01CE01C0
:1047B00088DF2AE635E045E655E0BC01CE0181DF21
:1047C00020E635E04CE555E0BC01CE01DF91CF910C
:1047D0001F910F9176CFCF92DF92EF92FF920F93BE
:1047E0001F93CF93DF93EC0168DABC01CE0175DA39
:1047F00043E355E0BC01CE010E941E1200E010E030
:10480000E12CF12CF801E15AFC4F24A5222309F4F4
:104810003FC041E255E0BC01CE010E941E126C0176
:104820004AE060E075E0C7010E94B43740E055E01F
:10483000B601CE010E943F124BE155E0BC01CE0112
:104840000E941E126C016091E7047091E80480914F
:10485000E9049091EA0440E055E00E942D1C40E0FC
:1048600055E0B601CE010E943F124FE055E0BC0179
:10487000CE010E941E12A80145595C4FBC01CE0119
:104880000E943F1246E055E0BC01CE010E941E127C
:104890002FEFE21AF20A025D1F4F063E110509F0E2
:1048A000B1CFDF91CF911F910F91FF90EF90DF90EB
:1048B000CF9008952F923F924F925F926F927F9286
:1048C0008F929F92AF92BF92CF92DF92EF92FF9220
:1048D0000F931F93CF93DF9300D000D0CDB7DEB7F7
:1048E0001C01EBD9BC01C101F8D94AE854E0BC0174
:1048F000C1010E941E12BC018CE8E82E83E0F82E54
:10490000D12CF7013C9780818F3F09F055C03B9631
:104910008081882309F450C0F7018081882331F019
:1049200046E854E0C1010E941E12BC0187010152F9
:104930001109A801C1010E943F125C01F801019018
:104940000020E9F731979F01201B310B89010F30BF
:10495000110550F444E854E0B501C1010E941E1253
:104960005C010F5F1F4FF3CFF701709740815181BA
:10497000628173810BE215E020E035E08D2DE6D9F0
:1049800040E055E0B501C1010E943F12A801BC0101
:10499000C1010E943F12F7012081222331F04FE72D
:1049A00054E0BC01C1010E941E124CE754E0BC015E
:1049B000C1010E941E12BC01D394FEE2EF0EF11C55
:1049C00025E0D2129ECF4DE354E0C1010E941E1299
:1049D00044E354E0BC01C1010E941E128C016091AD
:1049E000590370915A0380915B0390915C0324E614
:1049F00030E040E050E00E94C235CA01B9010E9497
:104A00004B340E9488340E941F346B017C0120E8E3
:104A100031E541E050E00E94C235CA01B9010E946F
:104A20004B340E9488340E941F342B013C019B01AF
:104A3000AC0160E871E581E090E00E94B335C61AF0
:104A4000D70AE80AF90AC701B60120E13EE040E0D2
:104A500050E00E94C235CA01B9010E944B340E9445
:104A600088340E941F344B015C01A0E1BEE09B0131
:104A7000AC010E94F935A7019601261B370B480BA4
:104A8000590B29833A834B835C83CA01B9012CE318
:104A900030E040E050E00E94C235CA01B9010E94F6
:104AA0004B340E9488340E941F346B017C01ACE3BC
:104AB000B0E09B01AC010E94F93529813A814B811C
:104AC0005C81261B370B480B590B29833A834B8398
:104AD0005C8340E055E0C301B2010E942D1C40E020
:104AE00055E0B801C1010E943F124DE254E0BC0103
:104AF000C1010E941E128C0140E055E0C501B401C5
:104B00000E942D1C40E055E0B801C1010E943F12F7
:104B10004BE254E0BC01C1010E941E128C0140E036
:104B200055E0C701B6010E942D1C40E055E0B801D8
:104B3000C1010E943F1249E254E0BC01C1010E9440
:104B40001E128C0140E055E069817A818B819C8145
:104B50000E942D1C40E055E0B801C1010E943F12A7
:104B60004AE154E0BC01C1010F900F900F900F90EB
:104B7000DF91CF911F910F91FF90EF90DF90CF9039
:104B8000BF90AF909F908F907F906F905F904F906D
:104B90003F902F900C941E124F925F926F927F92D3
:104BA0008F929F92AF92BF92CF92DF92EF92FF923D
:104BB0000F931F93CF93DF9366E475E080E091E05D
:104BC0000E94AE0F7C0110920208809125088F3F51
:104BD00031F4B70186E495E00E94F7097C010E9458
:104BE000600FB70186E495E00E9425169093450278
:104BF00080934402892BC9F48091370281110AC045
:104C000043EE59E161E08DE198E00E94061581E0F4
:104C1000809337020E94FF14811107C080913702F0
:104C2000813019F482E08093370280914B0388230E
:104C300021F080914A038111D2C180914B038111EF
:104C400017C080914B048F3FA9F080911101909182
:104C50001201A0911301B09114018093510390931C
:104C60005203A0935303B093540381E080934B030A
:104C700080E001C081E090914A0391111AC09091A7
:104C800098049F3FD9F040910D0150910E01609121
:104C90000F017091100140934D0350934E036093A8
:104CA0004F037093500391E090934A0377247394D9
:104CB00001C0712C813009F092C102C07724739435
:104CC000E114F10409F08BC1C72CD12C2DE42C9DEB
:104CD000C0012D9D900D1124EC01C25BDB4FFE0144
:104CE00001900020E9F73197EC1BFD0B40E050E00C
:104CF0009C01255B3B4F852F90E08E179F0750F45A
:104D0000D901A80FB91F13968C918E3209F44F5F09
:104D10005F5FF1CF433008F042C0809138028111CB
:104D200025C080913702823071F50E946C0F882374
:104D300009F4FEC61092350281E0809338024DE3FB
:104D400052E0BE0186E495E0DF91CF911F910F9173
:104D5000FF90EF90DF90CF90BF90AF909F908F909B
:104D60007F906F905F904F900C94560B813059F468
:104D70000E94480B882339F082E08093380289E34F
:104D800092E00E944B0B80913802823069F0809152
:104D900035028D3308F4CCC6109238021AC1BE0118
:104DA00089E392E00E94EF1980914302813009F07B
:104DB000FFC082E08093430266E174E086E492E003
:104DC0000E944237809114081F928F93809113089C
:104DD0001F928F93809112081F928F9380911108D8
:104DE0001F928F93809110081F928F9380910F08CC
:104DF0001F928F938DEF93E09F938F9380E095E0C8
:104E00009F938F930E94593860E075E086E492E0AA
:104E10000E946F376CE8862E63E0962E8DB79EB7A2
:104E200040960FB6F8949EBF0FBE8DBF612C7BEDF0
:104E3000472E73E0572EE0E0EE2EE5E0FE2EF7ED74
:104E4000AF2EF3E0BF2EF4013C9780818F3F09F035
:104E500059C03B968081882309F454C0F4018081B5
:104E6000813009F44FC0B29780811F928F933197A0
:104E700080811F928F93319780811F928F933197FA
:104E800080811F928F93319780811F928F933197EA
:104E900080811F928F93319780811F928F933197DA
:104EA00080811F928F935F924F92FF92EF920E94A8
:104EB000593860E075E086E492E00E946F37F401B3
:104EC000709740815181628173810BE215E020E08F
:104ED00035E0862D0E94A61EFF92EF92BF92AF9200
:104EE000C8019F930F930E945938B80186E492E05D
:104EF0000E946F378DB79EB74A960FB6F8949EBF43
:104F00000FBE8DBF63949EE2890E911CE5E06E1288
:104F10009ACF2DE42C9DC0012D9D900D1124FC01F4
:104F2000EA56FB4F808091803DE3A32E32E0B32E02
:104F300049E3C42E42E0D42E53EDE52E59E1F52E7F
:104F400006E412E020E030E0AE0160E571E088594F
:104F50009B4F0E94CC1510923502711014C08091A5
:104F6000110190911201A0911301B091140180934D
:104F7000510390935203A0935303B093540381E0E1
:104F800080934B0313C080910D0190910E01A0916D
:104F90000F01B091100180934D0390934E03A093A5
:104FA0004F03B093500381E080934A03109238027C
:104FB00080914302833029F080913502883008F4D3
:104FC000B7C581E08093430280913502883008F4B0
:104FD000AFC580915D038F5F80935D03A9C5C091CC
:104FE0004402D0914502209709F029C1B70186E417
:104FF00095E00E94DA0B80915D05813109F098C53A
:1050000080916A05853009F093C580916B05843ADB
:1050100009F08EC544E050E062ED73E080E795E072
:105020000E94493744E050E0892B09F068C06DECDC
:1050300073E086E492E00E94393780911D089091D8
:105040001E08A0911F08B091200880934A029093F7
:105050004B02A0934C02B0934D028091190890919D
:105060001A08A0911B08B0911C0880934E029093DF
:105070004F02A0935002B093510280911508909175
:105080001608A0911708B0911808809352029093C7
:105090005302A0935402B093550286E0EFE0F8E08B
:1050A000A6E5B2E001900D928A95E1F78091210882
:1050B00090912208A0912308B091240880935C026B
:1050C00090935D02A0935E02B0935F022CEF30E2FA
:1050D0004AE166E472E086E495E0DF91CF911F91AA
:1050E0000F91FF90EF90DF90CF90BF90AF909F9087
:1050F0008F907F906F905F904F900C94981368EC16
:1051000073E080E795E00E944937892B09F066C07B
:1051100046E050E06FE078E080E895E00E9462377A
:10512000EC01892B09F004C544E050E063EC73E026
:1051300086E492E00E9439372CEF30E244E066E4E6
:1051400072E086E495E00E94981380917405909136
:105150007505A0917605B091770580931D08909311
:105160001E08A0931F08B0932008809178059091A5
:105170007905A0917A05B0917B05809319089093E9
:105180001A08A0931B08B0931C0880917C0590918D
:105190007D05A0917E05B0917F05809315089093C1
:1051A0001608A0931708B09318088091860590916F
:1051B0008705A0918805B091890580932108909377
:1051C0002208A0932308B09324084DE150E060E04A
:1051D00070E089E098E00E94963A19C044E050E0FF
:1051E0006EEB73E080E795E00E944937892B09F068
:1051F0009FC446E050E06FE078E080E895E00E94D0
:105200006237EC01892B09F093C481E0F4D495B79F
:10521000916095BF95B79D7F95BFFE01DF91CF91BE
:105220001F910F91FF90EF90DF90CF90BF90AF90C4
:105230009F908F907F906F905F904F900994CA5B82
:10524000DA4F45E050E068EB73E0CE010E94493749
:10525000892B09F06DC4D0934505C093440543E400
:1052600051E069E471E0CE010E94CE1CBC01809146
:105270004405909145050E947A37C0914405D0912C
:1052800045058881811104C086E495E013DB42C4A2
:1052900042E050E065EB73E0CE010E944937892B74
:1052A000E9F54FE451E061E571E0CE010E94CE1CCA
:1052B000BC0186E492E00E947A37E6E4F2E00190D5
:1052C0000020E9F73197E654F240349718F16FEE79
:1052D00074E086E492E00E949A37892BD9F02091FD
:1052E000590330915A0340915B0350915C036DE682
:1052F0007DED81E090E00E94B3356093E704709308
:10530000E8048093E9049093EA0486E495E00E941F
:10531000491F00C486E495E032D8FCC34BE050E05E
:1053200069EA73E0CE010E944937892B09F4F0C382
:105330004FE451E065E571E0CE010E94CE1CBC0156
:1053400080E095E00E947A376091E7047091E8046C
:105350008091E9049091EA044BE255E00E942D1CF3
:105360006BE275E080E095E00E949A37892B09F4A2
:10537000CFC38091E7049091E804A091E904B09133
:10538000EA04892B8A2B8B2B09F4C2C3C0914405F4
:10539000D091450544E050E064EA73E0CE010E94FC
:1053A0004937892B21F486E495E0D2D9B3C343E091
:1053B00050E060EA73E0CE010E944937892B21F466
:1053C00086E495E008DAA6C344E050E06BE973E0B8
:1053D000CE010E944937892B21F486E495E00FD84D
:1053E00099C343E050E067E973E0CE010E9449377A
:1053F000892BD1F54FE451E06AE571E0CE010E94BE
:10540000CE1CBC0180E095E00E947A3743E050E07A
:1054100060E075E08FE591E00E948137EC01892B17
:10542000F1F40E945D1E909345028093440242E590
:1054300053E0BC0186E495E00E941E129093450261
:1054400080934402BC0186E495E00E94F11395B775
:10545000916095BF95B79D7F95BFFE01099586E444
:1054600095E00E940E2256C342E050E06FE473E0E4
:10547000CE010E944937892BD1F40E945D1E909382
:105480004502809344024AE053E0BC0186E495E083
:105490000E941E1290934502809344021092E704EA
:1054A0001092E8041092E9041092EA0437C343E032
:1054B00050E066E073E0CE010E944937892B09F085
:1054C000A7C04FE451E063E671E0CE010E94CE1C1C
:1054D000BC0180E095E00E947A376AE070E080E0ED
:1054E00095E00E94371C6C014FE451E068E671E0E2
:1054F00080914405909145050E94CE1CBC0180E03E
:1055000095E00E947A3744E050E061E073E080E08B
:1055100095E00E944937892B09F073C04FE451E0B0
:105520006CE671E080914405909145050E94CE1C87
:10553000BC0180E095E00E947A3742E050E060E0F4
:1055400075E080E791E00E9481377601FF24892B86
:1055500059F48EE28E9DF0018F9DF00D1124E15AD9
:10556000FC4F8FEF81A309C08EE28E9DF0018F9DCD
:10557000F00D1124E15AFC4F11A24FE451E063E712
:1055800071E080914405909145050E94CE1CBC01BC
:1055900086E492E00E947A3786E492E00E940C1D35
:1055A0008EE28E9DE0018F9DD00D112466E472E0A5
:1055B000CE0185599C4F0E947A374FE451E067E74E
:1055C00071E080914405909145050E94CE1CBC017C
:1055D00080E095E00E947A3780E095E00E943A36BC
:1055E000FE01E15AFC4F658F768F878F90A3BE0135
:1055F00060567E4F4EE250E0CF010E94963A41E065
:1056000001C040E06C2D86E495E00E94362282C203
:1056100042E050E06EEF72E0CE010E944937892BE4
:1056200031F54FE451E06BE771E0CE010E94CE1CF2
:10563000BC0180E095E00E947A37809100058823C4
:1056400081F04FE050E060E570E080E095E00E947E
:10565000963A60E075E08FEE94E00E947A3761E060
:1056600001C060E086E495E00E94CE2153C244E090
:1056700050E069EF72E0CE010E944937892B51F06A
:1056800044E050E064EF72E0CE010E944937892B7C
:1056900009F0F3C044E050E06FEE72E0CE010E94EA
:1056A000493711E0892B09F410E04FE451E060E83C
:1056B00071E0CE010E94CE1CBC0186E492E00E9403
:1056C0007A3744E050E06AEE72E086E492E00E94AD
:1056D0004937892B09F0CBC04FE451E06CE671E00B
:1056E00080914405909145050E94CE1CBC0186E442
:1056F00092E00E947A3742E050E067EE72E086E482
:1057000092E00E944937E12EF12C892B59F48DE467
:105710008E9DF0018F9DF00D1124E55BFB4F8FEF07
:10572000808309C08DE48E9DF0018F9DF00D1124C2
:10573000E55BFB4F10824FE451E068E871E0809137
:105740004405909145050E94CE1C2DE42E9DE0015C
:105750002F9DD00D1124BC01CE01825B9B4F0E9476
:105760007A37CE0188599B4F7C018EE2F701119266
:105770008A95E9F74FE451E06EE871E080914405C5
:10578000909145050E94CE1CBC0186E492E00E94E7
:105790007A3786E492E00E940C1D66E472E0C7014D
:1057A0000E947A374FE451E064E971E0809144054A
:1057B000909145050E94CE1CBC0186E492E00E94B7
:1057C0007A376AE070E086E492E00E94371CC55B9D
:1057D000DB4FFE01E55BFF4F918380834FE451E097
:1057E0006AE971E080914405909145050E94CE1CC4
:1057F000BC0186E492E00E947A376AE070E086E4B9
:1058000092E00E94371C880F991F880F991FFC0196
:10581000ED53FE4F228133813A832983A4E6B0E021
:105820000E94EA35111112C06093110170931201A8
:1058300080931301909314014DE450E060EA70E00E
:10584000CE010E94753A10924B0311C060930D0176
:1058500070930E0180930F01909310014DE450E07E
:105860006DEE70E0CE010E94753A10924A03612FEE
:1058700086E495E00E94C8204DC142E050E064EE0D
:1058800072E0CE010E944937892B51F042E050E08E
:1058900061EE72E0CE010E944937892B09F048C1C0
:1058A0004EE951E060EA71E0CE010E94CE1CBC01DD
:1058B00080E095E00E947A3744E050E06CED72E0C1
:1058C00080E095E00E944937892B09F01CC1C09106
:1058D0004405D091450542E050E069ED72E0CE010B
:1058E0000E944937892BF9F04FE451E065E671E0F9
:1058F000CE010E94CE1CBC0180E095E00E947A3768
:1059000080E095E00E940C1D40E16AE380E095E0B4
:105910000E94581C86E0E6E4F2E0AFE0B8E00190B7
:105920000D928A95E1F74FE451E065EA71E08091CC
:105930004405909145050E94CE1CBC0180E095E095
:105940000E947A374AE06EE280E095E00E94581C9F
:105950008091460290914702A0914802B09149027D
:105960008093190890931A08A0931B08B0931C0801
:105970004FE451E068EA71E080914405909145055B
:105980000E94CE1CBC0180E095E00E947A374AE07C
:105990006EE280E095E00E94581C80914602909152
:1059A0004702A0914802B091490280931D0890934C
:1059B0001E08A0931F08B09320084FE451E067E54C
:1059C00071E080914405909145050E94CE1CBC0178
:1059D00080E095E00E947A374AE06EE280E095E050
:1059E0000E94581C8091460290914702A091480263
:1059F000B09149028093210890932208A093230834
:105A0000B09324084FE451E06BEA71E080914405C3
:105A1000909145050E94CE1CBC0180E095E00E945B
:105A20007A3742E050E060E075E080E791E00E9464
:105A30008137892B21F48FEF8093250802C01092C3
:105A400025084FE451E06FEA71E0809144059091A0
:105A500045050E94CE1CBC0180E095E00E947A378B
:105A60004AE06EE280E095E00E94581C8091460278
:105A700090914702A0914802B09149028093150885
:105A800090931608A0931708B09318084DE150E0C2
:105A900060E070E089E098E00E94753A0E945D1E27
:105AA00090934502809344024FE952E0BC0186E4A2
:105AB00095E00E941E12909345028093440240E0BC
:105AC00055E0BC0186E495E00E943F1290934502A8
:105AD0008093440243E952E0BC0186E495E00E94D1
