:10000000AAC60000C4C60000C2C60000C0C60000E8
:10001000BEC60000BCC60000BAC600000C94481A58
:10002000B6C60000B4C60000B2C60000B0C60000EC
:10003000AEC60000ACC600000C946C1AA8C6000046
:10004000A6C60000A4C60000A2C60000A0C600000C
:100050009EC600009CC600009AC6000098C600001C
:1000600096C6000094C60000B30CB30CB30C9F0CF2
:10007000C20CB30CC20CC60CC60C6E616E00696E6D
:10008000660000407A10F35A00A0724E1809001062
:10009000A5D4E80000E87648170000E40B540200FD
:1000A00000CA9A3B000000E1F50500008096980028
:1000B000000040420F000000A08601000000102751
:1000C00000000000E80300000000640000000000E1
:1000D0000A00000000000100000000002C76D88813
:1000E000DC674F0823DFC1DFAE59E1B1B796E5E326
:1000F000E453C63AE651997696E8E6C28426EB893F
:100100008C9B62ED407C6FFCEFBC9C9F40F2BAA5DB
:100110006FA5F490055A2AF75C936B6CF9676DC173
:100120001BFCE0E40D47FEF520E6B500D0ED902E77
:100130000300943577050080841E080000204E0AD5
:10014000000000C80C333333330F986E1283114113
:10015000EF8D2114893BE65516CFFEE6DB18D184DE
:100160004B381BF77C1D901DA4BBE4242032847205
:100170005E228100C9F124ECA1E53D274E414E49A4
:100180004E495459494E46CDCCCC3D0AD7233C1755
:10019000B7D13877CC2B329595E6241FB14F0A00A2
:1001A0000020410000C84200401C4620BCBE4CCA92
:1001B0001B0E5AAEC59D740D0A436F6E74656E7446
:1001C0002D547970653A206170706C69636174694F
:1001D0006F6E2F782D7777772D666F726D2D757214
:1001E0006C656E636F6465640D0A0D0A00436F6E83
:1001F00074656E742D4C656E6774683A20000D0A44
:10020000557365722D4167656E743A20626F782F61
:10021000312E310D0A4163636570743A202A2F2A0A
:100220000D0A000D0A0020485454502F312E310D74
:100230000A486F73743A2000504F535420000D0A3F
:10024000557365722D4167656E743A20626F782F21
:10025000312E310D0A4163636570743A20746578FC
:10026000742F68746D6C0D0A0D0A002048545450A8
:100270002F312E310D0A486F73743A2000474554D0
:100280002000000108000604000145000082000073
:10029000400020223B3C2F5343524950543E003CE7
:1002A000484541443E3C534352495054206C616E92
:1002B00067756167653D224A617661536372697053
:1002C00074223E746F702E6C6F636174696F6E3D43
:1002D00022687474703A2F2F00697000536176653C
:1002E000007069006970006F6E0054657374006C73
:1002F0006F6731006C6F6732006C6F67310070613F
:1003000000536176650073656E003C48544D4C3E69
:100310003C484541443E3C534352495054206C6153
:100320006E67756167653D224A61766153637269E4
:100330007074223E746F702E6C6F636174696F6E9F
:100340003D222F223B3C2F5343524950543E0065DF
:1003500078003C48544D4C3E3C484541443E3C535B
:100360004352495054206C616E67756167653D2248
:100370004A617661536372697074223E746F702EA5
:100380006C6F636174696F6E3D222F223B3C2F536B
:1003900043524950543E0072656200696E666F00B8
:1003A000646576006D656E750066617669636F6E73
:1003B0002E69636F006C6700474554202F00522A56
:1003C0002A5400534554520053455451004D494E50
:1003D000490053524348003D2573002625303258CA
:1003E0002530325825303258253032582530325891
:1003F00025303258253032582530325800253032D9
:100400005825303258253032582530325825303270
:1004100058253032580049443D003C2F626F6479C2
:100420003E3C2F68746D6C3E003A003A00206461D7
:1004300079732000557074696D653A20003C2F680F
:10044000323E3C2F7072653E3C2F74643E3C2F74EC
:10045000723E3C2F7461626C653E3C62723E3C624F
:10046000723E3C6120687265663D2F6C673E4C6F42
:1004700067696E3C2F613E3C62723E000D0A003C93
:100480002F733E0020003C733E003C7469746C6521
:100490003E5765624D6574656F426F782D6D696E6C
:1004A000693C2F7469746C653E3C63656E7465725B
:1004B0003E3C68323E3C753E5765624D6574656FE3
:1004C000426F782D6D696E693C2F753E2026233969
:1004D0003733303B3C2F68323E3C7461626C6520A0
:1004E000626F726465723D303E3C74723E3C74646F
:1004F0002076616C69676E3D746F703E3C7072650A
:100500003E3C68323E003C2F613E3C62723E002021
:100510007461726765743D72663E00267369643D5E
:10052000003C6120687265663D2F73656E3F6E7595
:100530006D3D003C68746D6C3E3C626F64793E3C7E
:1005400063656E7465723E53656E736F72733C2F94
:1005500063656E7465723E3C62723E0065783F0072
:1005600045786974007265623F005265626F6F740E
:10057000006C6F67323F004C6F6767657220320016
:100580006C6F67313F004C6F676765722031007098
:10059000613F0050617373776F72640069703F0050
:1005A0005443502F4950003C2F613E3C62723E0044
:1005B000207461726765743D72663E007369643DC4
:1005C000003C6120687265663D2F003E3C62723ED1
:1005D0003C62723E3C696E70757420747970653D42
:1005E0007375626D69742076616C75653D536176D3
:1005F00065206E616D653D73613E003E3C696E70C5
:10060000757420747970653D68696464656E206EE8
:10061000616D653D7369642076616C75653D003C74
:10062000696E70757420747970653D68696464657D
:100630006E206E616D653D6E756D2076616C7565C1
:100640003D003C62723E43616C63756C617465642D
:100650003C62723E003C62723E4F66667365743C5B
:1006600062723E006F66003C62723E437572726554
:100670006E742076616C75653C62723E0025322E88
:100680003266003E456E61626C652F44697361623B
:10069000653C62723E53656E736F72206E616D656C
:1006A0003A3C62723E006E610020286D6178206CD9
:1006B000656E203134290020636865636B656400D2
:1006C0003C2F623E3C62723E3C696E7075742074D1
:1006D0007970653D636865636B626F78206E616DEC
:1006E000653D656E00253032582530325825303250
:1006F000582530325825303258253032582530327E
:1007000058253032580049443A203C623E003C664D
:100710006F726D206D6574686F643D6765743E002F
:100720003C534352495054206C616E677561676554
:100730003D224A617661536372697074223E706132
:1007400072656E742E6672616D65735B276C6627C9
:100750005D2E6C6F636174696F6E2E72656C6F6174
:100760006428293B3C2F5343524950543E003C627D
:100770006F64793E003E5265626F6F743C2F613E3C
:10078000003C63656E7465723E3C62723E3C627210
:100790003E3C6120687265663D2F7265623F7965F7
:1007A00073267369643D0046573A20312E312E3945
:1007B0002E3320284A616E203138203230313829DA
:1007C0003C2F68746D6C3E004368616E6765642100
:1007D00000223E3C2F666F726D3E006E6577207082
:1007E000617373776F72643A3C666F726D3E3C69F9
:1007F0006E70757420747970653D74657874206EC0
:10080000616D653D6E6577206D61786C656E6774AE
:10081000683D31343E3C62723E3C696E70757420B6
:10082000747970653D7375626D69742076616C755D
:10083000653D4368616E6765206E616D653D636807
:10084000613E3C696E70757420747970653D6869AD
:100850006464656E206E616D653D736964207661C8
:100860006C75653D22003C63656E7465723E3C624A
:10087000723E50617373776F72643C666F726D3E47
:100880003C696E70757420747970653D7061737326
:10089000776F7264206E616D653D70613E3C62727F
:1008A0003E3C696E70757420747970653D73756235
:1008B0006D69742076616C75653D4C6F67696E205B
:1008C0006E616D653D696E3E3C2F666F726D3E00D8
:1008D0003E3C2F666F726D3E00222076616C75651E
:1008E0003D22536176652654657374223E3C696EE1
:1008F00070757420747970653D68696464656E20F4
:100900006E616D653D7369642076616C75653D004F
:100910003C2F53454C4543543E3C62723E3C627210
:100920003E3C696E70757420747970653D737562B4
:100930006D6974206E616D653D226C73003C2F6F94
:100940007074696F6E3E003E002073656C65637461
:100950006564003C6F7074696F6E2076616C7565BC
:100960003D003C62723E506174683C62723E0070B1
:10097000617468003C62723E696E74657276616C87
:100980003C62723E3C53454C454354206E616D655C
:100990003D73703E003C62723E506F72743C6272F6
:1009A0003E00706F7274000000686F73740020283E
:1009B0006D6178206C656E20323529003E456E6190
:1009C000626C652F44697361626C653C62723E487B
:1009D0006F7374206E616D653C62723E00206368C7
:1009E00065636B6564003C696E7075742074797022
:1009F000653D636865636B626F78206E616D653D10
:100A0000656E003C666F726D206D6574686F643D45
:100A10006765743E00223E3C696E7075742074797F
:100A200070653D7375626D6974206E616D653D61C1
:100A300063742076616C75653D225361766520266E
:100A4000205265626F6F74223E3C2F666F726D3E5E
:100A5000003E444843503C62723E3C696E7075747F
:100A600020747970653D68696464656E206E616D9F
:100A7000653D7369642076616C75653D2200206375
:100A80006865636B6564003C62723E3C696E7075BC
:100A90007420747970653D636865636B626F78205C
:100AA0006E616D653D646800006400000067003C95
:100AB00062723E444E532020000073003C62723E3E
:100AC000475720202000006D003C62723E4D41538C
:100AD0004B2000253032783A253032783A253032B2
:100AE000783A253032783A253032783A25303278E3
:100AF0000049502020200069003C62723E4D414375
:100B00002020003C7072653E3C666F726D206D6502
:100B100074686F643D6765743E0025642E25642EFD
:100B200025642E2564003C2F6672616D65736574C3
:100B30003E3C2F68746D6C3E00206E616D653D72A9
:100B4000663E003C2F6672616D657365743E3C665F
:100B500072616D65207372633D2F696E666F3F73BE
:100B600069643D00206E616D653D6C663E003C66CB
:100B700072616D65207372633D2F6465763F7369A2
:100B8000643D00206E616D653D6D663E003C6672A1
:100B9000616D65207372633D2F6D656E753F73697E
:100BA000643D003C68746D6C3E3C6672616D6573BB
:100BB000657420636F6C733D223137302C2A223EDE
:100BC0003C6672616D6573657420726F77733D2248
:100BD0003236302C202A22207363726F6C6C696E5F
:100BE000673D226E6F223E002566006D6D00253345
:100BF0002E316600250025322E3166002664656799
:100C00003B430025322E326600223E002076616C86
:100C100075653D22003C696E70757420747970654D
:100C20003D74657874206E616D653D003C68746D3F
:100C30006C3E3C686561643E3C6D65746120636830
:100C400061727365743D2277696E646F77732D31BD
:100C5000323531222F3E3C2F686561643E3C626F25
:100C600064793E00485454502F312E3020343034B3
:100C7000204E6F7420466F756E640D0A436F6E745C
:100C8000656E742D547970653A20746578742F6898
:100C9000746D6C0D0A0D0A45727200485454502F41
:100CA000312E3020323030204F4B0D0A436F6E749E
:100CB000656E742D547970653A20746578742F6868
:100CC000746D6C0D0A507261676D613A206E6F2D04
:100CD00063616368650D0A0D0A003030004E6F20B5
:100CE0006E616D6500828282820000004F586D0245
:100CF00005C0A801DEFFFFFF00C0A80101C0A801D8
:100D0000010000828282820000004F586D0205C0FF
:100D1000A801DEFFFFFF00C0A80101C0A80101007B
:100D2000002F7363726970742F6164642E70687031
:100D3000007765626D6574656F626F782E727500FD
:100D40002F706F73742E706870006E61726F646DB7
:100D50006F6E2E72750011241FBECFEFD8E0DEBF7C
:100D6000CDBF11E0A0E0B1E0E2E8F3E702C00590FA
:100D70000D92A83DB107D9F728E0A8EDB1E001C078
:100D80001D92A732B207E1F76FD60C94BF3938C96C
:100D90008091EB018F5F8093EB010895DF92EF92DA
:100DA000FF920F931F93CF93DF9300D000D000D01A
:100DB000CDB7DEB77C01D62E86E0E9E1F1E0DE01B9
:100DC000119601900D928A95E1F78E010F5F1F4FEA
:100DD00023E430E0A80164E470E0C7010E949713A7
:100DE000F701128E138E148E158E81E082A783A7D1
:100DF00096E094A715A686A7D7A6D0AAD1AAF29660
:100E0000C7018A5B9F4F1192E817F907E1F7F701D5
:100E10003696C7010C96219127AFE817F907D9F745
:100E2000F701E45BFF4FD701AA5EBE4F1192AE17E8
:100E3000BF07E1F783E68C93F701E95EFE4F92E886
:100E40009083319693E590833196808326960FB6F2
:100E5000F894DEBF0FBECDBFDF91CF911F910F91F0
:100E6000FF90EF90DF900895CF93DF93EC0196DF32
:100E7000FE01E65EFE4F85E38083319681E080834C
:100E800031968083319697E39083319692E09083F8
:100E900031968083319683E0808331968FEF808313
:100EA0003196108268EF70E0CE010E94EC1380E072
:100EB000DF91CF9108956D3121E0720700F12AE1B1
:100EC00031E0A9014E5F5F4F46175707C0F4FC01A0
:100ED000E20FF31FA181AA2391F02A0F311DD9013E
:100EE00011966A177B0758F0E081E53329F4FC017D
:100EF000E40FF51F808108952E5F3F4FE2CF80E021
:100F00000895FC016F3F710591F088F082AD882350
:100F100079F082AD93ADA4ADB5AD8093E701909328
:100F2000E801A093E901B093EA0181E0089580E02F
:100F30000895FC016F3F710569F060F083A183346F
:100F400049F482A5823031F487A5481303C081E0BB
:100F500090A9941380E00895FC016F3F710529F07A
:100F600020F081E096A5923009F080E008958F92FC
:100F70009F92BF92CF92DF92EF92FF920F931F93B7
:100F8000CF93DF936D3121E0720708F4A5C0409143
:100F9000D8015091D901C12CD12C7601EAE1F1E0C0
:100FA00003EE11E09F012E5F3F4F2617370708F031
:100FB0008DC0EF012196DC01AC0FBD1FBC90BB20A2
:100FC00009F484C08B2C912CC80DD91D6C177D079A
:100FD00008F47CC0EC01CE0FDF1FC881C330E1F004
:100FE00030F4CC2309F463C0C13039F06AC0C33394
:100FF00019F1C63309F44BC064C0A4E0BA1261C051
:10100000280F391FCFEDD1E0D901BD909D01B992D4
:101010000C171D07C9F755C0B4E0BB1252C0280F0A
:10102000391FC3EED1E0D901BD909D01B992B1E065
:10103000C73EDB07C1F745C0C4E0BC123AC0EC01B3
:10104000C20FD31F30E0FE2CED2CDC2CCC242991D8
:10105000C22A3F5F3430B9F72FEFC216D206E2063C
:10106000F20651F126E0F694E794D794C7942A95B6
:10107000D1F74EEFC4164FEFD406E104F104F8F4B3
:10108000A60145305105E8F445E050E01AC0A4E05F
:10109000BA1217C0280F391FCBEDD1E0D901BD908E
:1010A0009D01B992B1E0CF3DDB07C1F70AC0FB015A
:1010B00008C040EA55E005C04FEF5FEF02C04DEFBA
:1010C0005FEFD4011296EA0FFB1F6CCF5093D9014A
:1010D0004093D80181E001C080E0DF91CF911F9162
:1010E0000F91FF90EF90DF90CF90BF909F908F90E7
:1010F00008950F931F93CF93DF93EC014FDEFE0112
:10110000E65EFE4F85E38083319681E080833196F1
:1011100083E080838091DB018823A9F086E3319608
:10112000808384E0319680838091DB019091DC01A3
:10113000A091DD01B091DE01319680839183A2837D
:10114000B38369E001C063E08091E7018823C9F0BF
:10115000CE01860F911DFC01E65EFE4F22E3208347
:10116000319624E0208331960091E7011091E80147
:101170002091E9013091EA010083118322833383B6
:101180006A5F70E0CE01860F971FFC01E65EFE4F9E
:1011900027E32083319622E02083319621E02083CB
:1011A000319623E0208331962FEF208331961082F1
:1011B0006B507F4FCE010E94EC1380E0DF91CF9106
:1011C0001F910F9108950F931F93CF93DF93EC011D
:1011D0008A01E4DD82E08EA7DE015A9684E0F80100
:1011E00001900D928A95E1F7DE01D69684E0F80130
:1011F00001900D928A95E1F7FE01E65EFE4F85E3D0
:101200008083319681E08083319683E0808363EF31
:1012100070E0CE010E94EC1380E0DF91CF911F912E
:101220000F910895EF92FF920F931F93CF93DF9347
:101230008C017B01D42F0CD6C82F882309F467C0FA
:10124000E114F104A9F5809100019091010182302F
:10125000910581F481E090E0909301018093000179
:101260001092EB01D093DA01E7D56091DA01C80161
:10127000FBDD4CC0C091E701C11111C02091EB0111
:10128000263068F08091DA018F5F8093DA01109246
:10129000EB01D2D56091DA01C801E6DD38C08330B8
:1012A0009105A0F1019790930101809300012EC058
:1012B000D091DA014D2FB701C8013BDEC82F88233A
:1012C00031F1B701C80148DE813001F1B701C80131
:1012D000F2DD823081F481E090E09093010180930F
:1012E0000001B701C8010DDEB701C80140DE6D2F56
:1012F000C801FFDE0BC0853049F481E090E0909397
:101300000101809300019ED5C1E001C0C0E08C2F97
:10131000DF91CF911F910F91FF90EF9008950F9360
:101320001F93009769F00091E7011091E801209167
:10133000E9013091EA01FC010083118322833383A8
:101340006115710569F08091DF019091E001A09134
:10135000E101B091E201FB0180839183A283B38319
:101360004115510569F08091E3019091E401A0914C
:10137000E501B091E601FA0180839183A283B383F2
:101380001F910F9108950F931F93CF93DF938C01BB
:10139000EB018091EB01893088F01092EB01809194
:1013A000D8019091D9019C01225031092D3F3F4F26
:1013B00028F401979093D9018093D8012097D9F40C
:1013C0008091D8019091D901039790F441D5882359
:1013D00079F06091DA016F5F6093DA0147EE51E0D6
:1013E000C801F1DE85E090E09093D9018093D801A7
:1013F00080E090E016C04091DA01BE01C80199DD9D
:10140000882371F0BE01C80156DD853089F7BE0121
:10141000C801A2DD882361F3BE01C801A8DDE8CFC1
:10142000CE01DF91CF911F910F91089599B121E0E5
:1014300030E002C0220F331F8A95E2F7892F90E037
:101440002823392381E0121613060CF080E008955A
:101450000F931F93CF93DF93182F0FB7F8948AB190
:10146000C1E0D0E0012E01C0CC0F0A94EAF78C2B2A
:101470008AB98BB1DC2FD0958D238BB981E090E0B8
:101480000E94192E8BB1C82BCBB98AE68A95F1F749
:1014900000C08AB1D823DAB99AE69A95F1F700C06C
:1014A000812FC4DF0FBFDF91CF911F910F9108955E
:1014B000BF92CF92DF92EF92FF920F931F93CF9341
:1014C000DF93082FBFB6F894C7E0D0E010E0CC243B
:1014D000C394D12C92E1E92E97E2F92E802FA6DF5A
:1014E000811106C0A89521E0E21AF108B9F71EC0E3
:1014F00080E58A95F1F7802F99DF813039F4C601B4
:101500000C2E01C0880F0A94EAF7182B82E1E82E0E
:1015100087E2F82E802F8ADF813031F4A89581E0B0
:10152000E81AF108B9F702C02197A0F6BFBE812FD3
:10153000DF91CF911F910F91FF90EF90DF90CF90AF
:10154000BF900895CF92DF92EF92FF921F93CF93B7
:10155000DF9300D000D01F92CDB7DEB7182F1092C6
:101560000201F89475DF80930201813009F455C0BF
:1015700085E88A95F1F7000078E4E72EF12C812FB9
:1015800055DF811109C091E0E91AF10829F0E2E084
:10159000EA95F1F700C0F3CF812F48DF811102C037
:1015A00082E01FC0F5EDFA95F1F70000CE0101963B
:1015B0007C016E0196E0C90ED11C812F79DFF70105
:1015C00081937F01EC15FD05C1F789814A812B814B
:1015D0003C81982F940F920F930F5D81951721F006
:1015E00087E38093020119C090E0982F8827840F29
:1015F000911D9093ED018093EC01822F8F7790E005
:10160000982F8827830F911D27FF03C091958195FF
:1016100091099093EF018093EE0178940F900F90D1
:101620000F900F900F90DF91CF911F91FF90EF904F
:10163000DF90CF9008958091F5010895E1EFF1E0FA
:101640002191DC012D93CD01B1E0E53FFB07C1F70E
:101650000895EF92FF920F931F93CF93DF93EC01C6
:101660007B018A011092F501F3D3811105C084E05A
:101670008093F00181E065C01092F0016091F60165
:101680006F5F6093F60170E0706E25E330E040E23A
:1016900058E0CE010E9497138091F6018BA781E05C
:1016A0008CA7FE01BD96CE01C69611928E179F079C
:1016B000E1F781E08FA79CE06DE0F7015081262FD4
:1016C00030E041E0460F552399F05E3239F4FE01D7
:1016D000E90FF11D815082A7962F80E0F70151910B
:1016E0007F01FE01E20FF31F52A78F5F642FE5CF4A
:1016F000FE01E90FF11D815082A7FE01E20FF31FE9
:1017000012A6FE01E40FF11D12A682E0860FFE0173
:10171000E80FF11D81E082A793E0960FFE01E90F2B
:10172000F11D12A694E0960FFE01E90FF11D82A7AC
:1017300089EF860F8AA76B5F70E0CE010E94EC13E1
:1017400080E0DF91CF911F910F91FF90EF9008956E
:10175000DC016634710508F46BC093968C91939705
:10176000853309F065C094968C919497803E09F07A
:101770005FC095968C9195979091F601891358C00A
:101780009B969C919B97891353C09D968C919D9796
:101790008F78803811F081E035C09A969C919A97A5
:1017A000945F61537109FD01E90FF11D82A5807CF1
:1017B00059F09E5F0EC081E0890FFD01E80FF11D19
:1017C00022A52223B1F3982F292F30E026173707BF
:1017D00090F3FD01E90FF11D83A5813079F088E0D8
:1017E000890FFD01E80FF11D83A5965F980F292F42
:1017F00030E026173707B8F283E004C023A924306D
:1018000021F082E08093F00113C0965FE92FF0E0B1
:10181000BA96EA0FFB1FA1EFB1E025EF31E09191FD
:101820009D932A173B07D9F791E09093F50108950E
:1018300080E008950F931F93CF93DF93E1E0F0E0F2
:101840008F0102C0000F111F8A95E2F7C801502FC7
:10185000809501C0EE0F6A95EAF7FE2FE09567E0EC
:1018600070E030E0A7E0B0E041110AC0ED01C61B16
:10187000D70B890102C015950795CA95E2F708C0F4
:10188000E901062E02C0D595C7950A94E2F70C2F00
:1018900095B100FF02C0952B01C0982395B998B16E
:1018A0009F2B98B998B19E2398B961507109E0F6C1
:1018B00095B1892385B9DF91CF911F910F9108953B
:1018C000CF93C82F262F439841E061E087E0B2DF35
:1018D000EC2FF0E0EB5CFE4F208141E061E087E01F
:1018E000A9DF439ACF9108958F929F92AF92BF92B2
:1018F000EF92FF920F931F93CF93DF93CDB7DEB795
:101900002B970FB6F894DEBF0FBECDBF26968FADD6
:101910002697811173C0188D098DFA8CEB8C8DA8D8
:101920009EA8AFA8B8ACEBA98E2F90E0FC01319730
:10193000E930F10538F5EC5CFF4F0C94033520E0FD
:1019400030E0A901C501B4010E94D2328823F1F030
:10195000A5019401D801F7016B2F7A2F8F2F9E2FAD
:101960000E946F340AC0A5019401D801F7016B2FC2
:101970007A2F8F2F9E2F0E946E32162F072FF82E50
:10198000E92E04C010E000E0F12CE12CEF92FF9270
:101990000F931F938FE291E09F938F938E010F5FC0
:1019A0001F4F1F930F930E945B370FB6F894DEBF53
:1019B0000FBECDBF41E020E0822F90E0F801E80F9C
:1019C000F91FE081F0E0E75FFE4F3081E2E0F0E0F8
:1019D000EC0FFD1FE80FF91F50818FEF840F90E08F
:1019E000FC01EC5BFB4F5E3221F43F7730832F5FCD
:1019F00001C030832F5F4F5F2530F0F22B960FB67A
:101A0000F894DEBF0FBECDBFDF91CF911F910F9134
:101A1000FF90EF90BF90AF909F908F90089580912E
:101A2000F701813061F028F0823079F08330A9F03D
:101A300008956091440483E043DF81E00BC060912E
:101A4000450482E03DDF82E005C06091460481E00C
:101A500037DF83E08093F70108956091470480E0C9
:101A60002FDF1092F7010895109244021092430262
:101A7000F8949FE088E10FB6F894A89580936000F1
:101A80000FBE909360000E94EF2C189903C080E075
:101A90000E94222D8AEF90E00E94192EA8950E94A4
:101AA000F82D10928A031092B8031092E603109258
:101AB0001404109242044FE050E060E570E08EEEB6
:101AC00094E00E946F3920914B0430914C04A4E6BD
:101AD000B0E00E9409356093110170931201809368
:101AE00013019093140120919804309199040E945D
:101AF000093560930D0170930E0180930F0190934F
:101B0000100180E40E94781880E80E94781845E46B
:101B100055E066E080E40E94A11945E455E067E0E5
:101B200080E80E94A1198FEE92E00E94192E0E9477
:101B3000D62C7894809124088F3F91F58EE098E020
:101B4000F5D265E475E08CEB92E0C4D11092010807
:101B500040911308BC0185E495E064DBC82F81E067
:101B60000E948A19CC2369F34CE158E068E178E0DF
:101B700084E198E0D4DB80911C0890911D08A0912D
:101B80001E08B0911F088093200890932108A0930D
:101B90002208B093230868E178E084E198E0D1D28C
:101BA00064E178E08EE098E056D580E590E064D579
:101BB0004FD1811102C00E94D62CA8950E94F92411
:101BC0000E94681CF5CF2A98962F9F71892B8EBD95
:101BD0000DB407FEFDCF1EBC0DB407FEFDCF67FDA3
:101BE00003C02A9A8EB508951EBC0DB407FEFDCF22
:101BF000F8CF2A986F71862B8EBD0DB407FEFDCFEE
:101C00004EBD0DB407FEFDCF2A9A0895FB012A9818
:101C10002AE32EBD0DB407FEFDCF8E0F9F1FE817E0
:101C2000F90739F01EBC0DB407FEFDCF2EB5219388
:101C3000F6CF10822A9A08952A982AE72EBD0DB46D
:101C400007FEFDCF860F971F6817790741F0FB014C
:101C50002191BF012EBD0DB407FEFDCFF5CF2A9A0D
:101C600008951F93CF93DF93182F1076C12FD0E0E4
:101C70008091FA0190E0C817D90779F043E06FE14D
:101C800080EAB7DFAE0185E0559547958A95E1F783
:101C90006FE180E8AEDF1093FA01DF91CF911F91E1
:101CA0000895CF93C82FDDDF6C2F80E0CF918BCFCD
:101CB000CF93DF93C82FD62FD4DF4D2F6C2F80E426
:101CC000DF91CF9196CFCF93682F84EDF1DF61E064
:101CD00082EDEEDF8AEEE5DF80FDFCCF60E082ED95
:101CE000E7DF89EDDEDFC82F88EDDBDF2C2F30E06A
:101CF000322F2227A901482BCA01CF910895CF93F3
:101D0000DF93D62FC72F682F84EDD2DF6D2F86ED9E
:101D1000CFDF6C2F87EDCCDFC8E28AEEC2DF80FF19
:101D200004C08C2F8A95F1F7F8CFDF91CF910895F9
:101D3000CF93DF93EC01229A2A9A84B1886284B906
:101D400024982B982D9880E58CBD8DB581608DBD34
:101D50004FEF60E08FEF4DDF80E090E00197F1F70B
:101D60001092F9011092F80160E088E0A1DF60E0D4
:101D700089E09EDF60E08CE09BDF60E08DE098DF33
:101D80006FEF8AE095DF69E18BE092DF60E084E04D
:101D90008FDF6AE185E08CDF6FEF86E089DF6FE13E
:101DA00087E086DF60EB88E383DF6FE388E280DF34
:101DB00060E389E27DDF69EF80E37ADF67EF81E34B
:101DC00077DF6DE080EC74DF60E081EC71DF42E38F
:101DD00062EC80E80EDF62E186EC6ADF6CE087ECA3
:101DE00067DF62E184EC64DF6CED8AEC61DF65E063
:101DF0008BEC5EDF688184EE5BDF698185EE58DF06
:101E00006A8182EE55DF6B8183EE52DF6C8180EE5A
:101E10004FDF6D8181EE4CDF60E071E080E16FDFCC
:101E20008FE11FDF40EC6BE180E8E3DE44E06FE12F
:101E300080E8DF91CF91DDCE88E333DF682F6160EA
:101E400088E336CF88E32DDF682F6E7F88E330CFBD
:101E500081E139DF92FB882780F908950F931F9362
:101E6000CF93DF93EC018B016FE180E0ACDE83FD6B
:101E7000FBCF8CE116DF81FF10C040E86FE180E806
:101E8000B8DE40E86FE180EAB4DE42E06CE180EA6F
:101E9000B0DE80E395E70197F1F760E082E008DFCC
:101EA0006AE183E005DF6C2F86E002DFCE01965EFB
:101EB000692F87E0FDDE40E060E08AE79ADEB80146
:101EC000CE01BADE48E06FE180E8DF91CF911F914B
:101ED0000F918FCE9F92AF92BF92CF92DF92EF92EF
:101EE000FF920F931F93CF93DF936C017B0189E3E4
:101EF000D8DE882309F44DC06091F801C091F90142
:101F000080E0D6DE6C2F81E0D3DE60E08AE35BDE2A
:101F1000082F60E08AE357DE10E0182B1093F901D8
:101F20000093F80160E08AE34EDEC82F60E08AE3A8
:101F30004ADE982E60E08AE346DEA82E60E08AE35F
:101F400042DEA7FE0DC0C6010197D0E0D929249733
:101F50008C179D0708F4EC01B701CE0157DE02C0D3
:101F6000C0E0D0E06FEF01308AE1180724F08CE088
:101F70009FDE69E106C0600F8CE09ADEC801019720
:101F8000692F8DE095DE40E46EE180E832DECE011F
:101F900002C080E090E0DF91CF911F910F91FF9000
:101FA000EF90DF90CF90BF90AF909F900895CF9229
:101FB000DF92EF92FF920F931F93CF93DF938A01EB
:101FC000790190911302981759F0E0911002F09165
:101FD000110240E050E060E070E084EF91E040C02A
:101FE00061113FC02D303105E0F1C0911002D09158
:101FF00011022097B1F1C0900402D0900502C40EE6
:10200000D51EF601808590E00E945136892B19F18A
:10201000F601218530E0205331092A303105D8F40A
:10202000838590E0C0978A309105A8F46AE0629FAA
:10203000A001639F500D11243285232F30E02053DF
:102040003109420F531F649F9001659F300D112489
:10205000820F931F02C080E090E0A701B801FE014B
:10206000099580E0DF91CF911F910F91FF90EF9044
:10207000DF90CF9008950F931F93CF93DF93FC01D0
:102080009B01413051F4AB014850510960E070E0D0
:102090004F5E5F4F6F4F7F4F0FC0423051F4AB0127
:1020A0004850510960E070E04A5F5F4F6F4F7F4FCB
:1020B00003C040E050E0BA01C901EF018230910550
:1020C00058F0A991B991BA27AB27BA274A0F5B1FDD
:1020D000611D711D0297F2CFC9018E7FE80FF91FB4
:1020E0002817390761F0808190E0A0E0B0E0BA2FB6
:1020F000A92F982F8827480F591F6A1F7B1F8B0114
:1021000022273327011511052105310539F06627EE
:102110007727400F511F621F731FF1CFCA018095AF
:102120009095DF91CF911F910F910895FC01892B1C
:1021300039F096E0ACE2B2E001900D929A95E1F7A9
:102140000895009721F46115710559F40895FC0173
:10215000A8E2B2E081918D9382E0AC32B807D1F76A
:10216000F2CFFB01A4E0B1E081918D9381E0A83032
:10217000B807D1F70895DC015A96FB014E963D91C0
:102180002191321305C0A817B907C9F781E0089556
:1021900080E0089569327105A0F0FC0124852830A3
:1021A00081F42585263069F4B696A8E2B2E08A96D5
:1021B00031912D91321305C0E817F907C9F781E075
:1021C000089580E00895CF93DF93FC016A32710592
:1021D000B8F084858830A1F48585811111C0968579
:1021E000953479F4DF015E96C8E2D2E0B2962D9183
:1021F0009991291306C0AE17BF07C9F781E001C046
:1022000080E0DF91CF910895FC01ACE2B2E0069648
:10221000268121932D912583E817F907C9F70895A1
:10222000CF93DF93EC01188E198E80E48C8B1D8A7E
:102230008E8B40E064E170E0CE010E961CDF988F3B
:10224000898FDF91CF910895A8E2B2E0FC017A96E0
:102250009C01225E3F4F408144834D914193E217A0
:10226000F307C9F7DDCFFC01BA9686962291620F7B
:10227000711D24816483442311F0208301C01082E6
:10228000672F77278E179F0789F70895CF93DF93DE
:10229000EC018CA19AA19CA38AA38DA19BA19DA3D3
:1022A0008BA3CE01E0DF1AAA1BAA80E58EA7DF91DF
:1022B000CF910895CF93DF93EC01A6DF1C8A82E0D3
:1022C0008D8B8CE292E0AE014A5E5F4FFE017C9600
:1022D000DA012C911A962C93DC012D91CD01DA01B3
:1022E0002D93AD01AE17BF0799F7A8E2B2E0CE017A
:1022F0008096208122872D912193E817F907C9F74D
:10230000BE018AE290E0DF91CF91A8CD0F931F9399
:10231000CF93DF93EC018B0177DFCE0195DF1AA21B
:102320008CA1883F18F09DA19F5F9DA3885F8CA31F
:10233000BE01C801DF91CF911F910F918FCDFC019C
:10234000208931893227232732272451310986A554
:1023500082958F70A90164E0869F4019510911246C
:10236000CA0157FF02C080E090E00895DB01D696D5
:10237000A80FB91FFA01641B750B9B012E0F3F1F9D
:1023800094913196992311F09D93F7CFC901089547
:10239000FA01DB01D696A80FB91F822F882321F0FE
:1023A00091919D938150FACFCB01820F911D089599
:1023B000FA0101900020E9F731979F01241B350BAA
:1023C000E7CFEF92FF920F931F93CF93DF9300D04D
:1023D00000D01F92CDB7DEB790911302981392C030
:1023E000809112020091040210910502811126C011
:1023F0004DE752E060E070E0C801B8DF40910A02AA
:1024000050910B02BC01C801B1DF4091080250910C
:102410000902BC01C801CCDF4BE652E0BC01C80197
:10242000A5DF4091060250910702BC01C8019EDF62
:102430004EE352E0BC01C80199DF66C048E352E0B8
:1024400060E070E0C80192DF40910A0250910B02F7
:10245000BC01C801ADDF4091080250910902BC01E6
:10246000C801A6DF46E252E0BC01C8017FDF40910F
:10247000060250910702BC01C8019ADFE0900E02EB
:10248000F0900F02E114F10449F043E252E0BC0184
:10249000C8016CDFA701BC01C80168DF4EEF51E045
:1024A000BC01C80163DF4DEE51E0BC01C8015EDF35
:1024B0007C01E0910C02F0910D02DF010D900020F3
:1024C000E9F7CD0101974AE0BE016F5F7F4F8E1B98
:1024D0009F0B0E94D3360091040210910502AE01B9
:1024E0004F5F5F4FB701C80163DF47EB51E0BC01AD
:1024F000C8013CDF40910C0250910D02BC01C801A3
:1025000057DF02C080E090E00F900F900F900F9087
:102510000F90DF91CF911F910F91FF90EF90089551
:10252000FF920F931F93CF93DF93EC018B01F42E57
:102530006BDE8F2D80618FA784E0F81629F00115DE
:10254000110511F401E010E041E0B801CE019EDE7A
:10255000188A88E2898BCE0177DE84E088AB19AADD
:1025600042E06CE170E0CE014A9685DD9AAB8BAB20
:10257000BE0186E390E0DF91CF911F910F91FF9014
:102580006DCC0F931F93CF93DF93EC018B01CB01A5
:102590008896988B898BCE0143DE1AAA1BAAB801B4
:1025A000645E7F4F42E0CE014A9665DD9AAB8BAB0D
:1025B000BE01C801C696DF91CF911F910F914ECCFD
:1025C000CF92DF92EF92FF920F931F93CF93DF93FF
:1025D000EC016B01F42EE52E17DE86010D3D110591
:1025E00010F00CED10E0188AC8014C96898BCE01D2
:1025F0002BDE8AA18CA38BA18DA3EAA2FBA21EA233
:10260000C80108968FA318A619A6B801605F7F4F6E
:1026100041E0CE014A962FDD98A789A7BE01C801E7
:102620008A96DF91CF911F910F91FF90EF90DF90ED
:10263000CF9014CCCF93C62FDC019A96FB015E2F6E
:102640005C1B541718F451915D93F9CF642F70E01F
:10265000A901CF91B5CF6115710519F4009759F40F
:102660000895FB01A8E2B2E021912D9322E0AC3263
:10267000B207D1F7F3CF5ACD9093FD0180930801B3
:102680000895CF93DF93EC01BFDD188A8CE2898B2C
:10269000CE01DADD82E18FA740E061E070E0CE019B
:1026A000F5DD1EA21FA280910C0188A719A68D5FDF
:1026B00080930C0182E08EAB84E08FAB85E088AF25
:1026C00019AE80E68EA78AE088AB19AA42E060E2E4
:1026D00070E0CE014A96CFDC9AAB8BABBE018AE3A9
:1026E00090E0DF91CF91BACB0F931F93CF93DF93FD
:1026F000EC018B016091FB017091FC0140E010DF67
:1027000089E18FA7B801CE01DF91CF911F910F9181
:1027100038CF640F751F4617570741F0FA0124910F
:10272000FC012193CF014F5F5F4FF5CF0895AF922A
:10273000BF92CF92DF92EF92FF920F931F93CF93AE
:10274000DF93EC01F62EE72E5A01D22EC32EFC01A8
:102750004CE252E00696D8012D918D012193DA01C9
:102760002D91AD012583E817F907A9F788E08C873B
:102770001D864AE852E069E070E0CE010E96C9DF9E
:10278000809103018B8B8F5F80930301188A81E115
:102790008F8BA501A8E2B2E0CE014A96FA01219101
:1027A000AF01FC0124832D912193CF01F2E0AC32E3
:1027B000BF07A1F7CCA2DDA2EAA2FBA21EA218A627
:1027C00019A6DF91CF911F910F91FF90EF90DF90AD
:1027D000CF90BF90AF9008950F931F93CF93DF9347
:1027E000EC018B01CB014C96898B988BCE0118DDC7
:1027F000C80108968FA39EA3B801605F7F4F41E098
:10280000CE014A9638DC89A798A7BE01C8018A96EE
:10281000DF91CF911F910F9121CBEF92FF920F93F8
:102820001F93CF93DF9320912802222309F446C0FF
:10283000FC012CE2E22E22E0F22E9C012A5F3F4FA7
:10284000D7015FEF51934D914583E217F307D1F71D
:102850008B01EC0188E08C8786E08D8742E852E0AE
:1028600068E070E0CE010E9654DFDE015696AE01B0
:10287000445E5F4FF70181917F018D9319961C9201
:1028800019974A175B07B1F7D80188E292E02D91BA
:10289000FA012287FC012191CF01FA012193AF01B6
:1028A000F2E08C329F0799F7BE018AE290E0DF9157
:1028B000CF911F910F91FF90EF90D0CADF91CF91F0
:1028C0001F910F91FF90EF90089581E09091FF018B
:1028D000923009F480E008955093E5044093E404B5
:1028E00021E02093FF016093FE01E0E0F2E0DC01D3
:1028F0002D91CD012193B2E0E430FB07C1F708959B
:10290000DF92EF92FF920F931F93CF93DF93EC012F
:10291000F62EE42ED52E4BE152E0DC018CE292E063
:10292000FA012191AF012D93FC012191CF01159660
:102930002C931597F2E041325F0791F788E08C877E
:102940001D864AE852E069E070E0CE010E96E1DEB5
:102950008CE2898B809103018B8B8F5F80930301C5
:1029600086E08F8B41E252E088E292E08E01065EC3
:102970001F4FD801FA012191AF0114962C9314979F
:10298000FC012191CF012D93F2E045325F0791F7D1
:10299000CE0146DCDCA2EDA28BE08AA3FBA2FE0105
:1029A000B696CE018E961192E817F907E1F780915D
:1029B0000C0188A78D5F80930C0180E68EA782E0D2
:1029C0008FA793E098AB19AA1AAA1BAA1CAA1DAA42
:1029D0008EAB94E09FAB88AF8EEE89AF42E060E2B1
:1029E00070E0C80148DB9AAB8BABBE018AE390E094
:1029F000DF91CF911F910F91FF90EF90DF902ECA42
:102A00000F931F93909317028093160270931502F1
:102A100060931402F901A1E2B2E081918D9382E00A
:102A2000A532B807D1F7F801ABE1B2E081918D93FF
:102A300082E0A132B807D1F75093190240931802EF
:102A400081E080931A02809125028F5F883018F40C
:102A50008093250202C010922502809125021F91C9
:102A60000F9108952F923F924F925F926F927F92B3
:102A70008F929F92AF92BF92CF92DF92EF92FF928E
:102A80000F931F93CF93DF9300D0CDB7DEB73C01F8
:102A90001B012A013A832983DBD9882339F17092FB
:102AA0000B0260920A025092070240920602309294
:102AB00009022092080289819A8190930F028093E3
:102AC0000E0210930D0200930C0281E0809312021B
:102AD000F0921102E092100285019601A40161EECC
:102AE00071E187ED9FE08CDF809313020F900F90D0
:102AF000DF91CF911F910F91FF90EF90DF90CF90DA
:102B0000BF90AF909F908F907F906F905F904F900D
:102B10003F902F900895DF92EF92FF920F931F93B3
:102B2000CF93DF93EC017B016115710509F04EC075
:102B30008091FF01893069F48091090190910A0127
:102B4000892BD9F485D9882321F060E072E0CE0189
:102B500064DE8091FF01813081F47AD9882369F0A5
:102B600060E072E0CE0159DE8091FF0188608093C1
:102B7000FF0110920A0110920901809109019091C0
:102B80000A01019690930A018093090180911A022B
:102B9000813009F050C15CD9882309F44CC182E02E
:102BA00080931A0280910B018F5F80930B014091FB
:102BB0001802509119026091250290E2699FB001BC
:102BC00011248F71682BCE019BDE35C1E3DA882397
:102BD00039F18D89813011F4CE016CDB8091FF01D8
:102BE00083FF29C11D89123009F025C144E050E05E
:102BF00060E072E0CE014C960E948136892B09F08C
:102C00001AC1AE014A5E5F4FE091E404F091E50421
:102C10006091FE0180E092E009951093FF010BC1E5
:102C2000B701CE01D0DA882309F405C18F8981303C
:102C300089F48AA1883009F0FEC0E0912602F09163
:102C40002702309719F0CE014A960995B701CE01B7
:102C50005DDBF1C096E3E916F10408F4ECC08630C0
:102C600009F0E9C08CA18B3009F0B4C0D093050203
:102C7000C093040261E272E0CE017DDA882309F498
:102C8000DAC0DFA4D2FE12C0E0911602F091170262
:102C9000309751F08DA120E030E040E050E063E05B
:102CA000829586958770099586E089C0CE0147DBBD
:102CB0008C0180911A02823079F59D2D90718D2DB5
:102CC00082718231E1F440E060E070E0CE0128DC06
:102CD00088E18FA7E0911402F0911502309731F04E
:102CE0008BA1829586958770099502C080E090E05F
:102CF00023E020931A02BC01CE0143DC9CC081E09A
:102D000080931A02911104C0B8016F5F7F4F02C017
:102D100060E070E044E05BC0833089F50115110587
:102D200071F184E080931A02E0911602F09117028B
:102D3000309729F14EA542954F7084E0489FA0013D
:102D40001124C70108974E5D5F4F8417950708F45B
:102D5000AC01C801840F951FE816F90620F497010D
:102D6000241B350B01C098018DA160E082958695EA
:102D700087700995882319F049E0B8011DC090912A
:102D80001A028FA5953019F484FD8ECF54C0963069
:102D900069F484FD04C0B8016F5F7F4F02C060E03A
:102DA00070E044E0CE01BCDB87E009C080FF0AC0D0
:102DB000B8016F5F7F4F41E0CE01B2DB85E08093C9
:102DC0001A0239C001151105B1F140E0B801CE0178
:102DD000A7DB31C09091FD0189132DC09DA1809189
:102DE0000801981328C0DFA4D1FE03C0CE0149DC3E
:102DF00022C0D4FE20C0CE01A2DA8C019093FC0147
:102E00008093FB01892B41F4D0FE15C040E060E0C7
:102E100070E0CE0185DB11C00EA502950F7094E025
:102E2000099F800111240E5D1F4F88E0E81AF10808
:102E3000E016F10610F400E010E0C801DF91CF9138
:102E40001F910F91FF90EF90DF90089598E028E197
:102E5000382F362730FD02C0669503C0622766957D
:102E6000606886959150A1F7862F0895EF92FF92A2
:102E70000F931F93CF93DF93EC017C0187E0E80E63
:102E8000F11C8E0160E0F80181918F01DFDF682F76
:102E9000E016F106C1F781E09F81961301C080E042
:102EA000DF91CF911F910F91FF90EF900895EF92D6
:102EB000FF920F931F93CF93DF93EC017C0188E087
:102EC000E80EF11C8E0160E0F80181918F01BEDFF8
:102ED000682FE016F106C1F781E09885961301C0CE
:102EE00080E0DF91CF911F910F91FF90EF900895B7
:102EF0001F93CF93DF93D82F162FC8E0812FD0FFD9
:102F000002C004D101C01BD1D695C150B9F7DF91E1
:102F1000CF911F9108951F93CF93DF93182FD8E07F
:102F2000C0E0C695812F24D18111C068D150C9F766
:102F30008C2FDF91CF911F910895682F8CECD8CF03
:102F4000EF92FF921F93CF93DF937C01162F85E5BD
:102F5000CFDFE70188E0E80EF11C612F8991C8DF1F
:102F600081E090E00E94192ECE15DF05B1F7DF91C8
:102F7000CF911F91FF90EF900895CF92DF92EF9243
:102F8000FF920F931F93CF93DF938C01D62EE42EE5
:102F9000642F80EFADDFC1E0F12CD1E08E2DE8D0C1
:102FA000C82E8E2DE5D0CC2039F0811131C0F8012A
:102FB00080818C2B808319C0F8019081882321F0B7
:102FC0008C2F8095982303C0DD1204C09C2BF80140
:102FD00090830BC0DD1630F48C2F80959823F80178
:102FE000908302C09C2309F4FD2EF80180818C237C
:102FF00019F08E2D8BD002C08E2DA1D0DF5FCC0FAB
:1030000019F40F5F1F4FC1E0D13441F68F2D01C07D
:103010008FEFDF91CF911F910F91FF90EF90DF9095
:10302000CF9008958F929F92AF92BF92CF92DF92EE
:10303000EF92FF920F931F93CF93DF935C01062FC4
:10304000842E6901EC012496CE0120E0201759F06E
:10305000AC01485F5F4FFC0111924E175F07E1F72B
:103060002F5F8E96F3CF7E01FE0110E0912C10179A
:10307000F1F0A89588E0D70101900D928A95E1F7CB
:10308000882D96D0882321F1482D692DC70175DF41
:10309000982E1F5FC5012EE2129F800D911D1124F5
:1030A0000496F701992011F07C01E1CF012F10E087
:1030B000101761F0A895CE01D9DEAE9681110AC035
:1030C000F60180818F5F80831F5FF2CF80E003C0B5
:1030D0008FEF01C081E0DF91CF911F910F91FF90A1
:1030E000EF90DF90CF90BF90AF909F908F9008951A
:1030F0009AB1809598239AB99BB189238BB98BEBB0
:1031000093E00197F1F700C0000008952FB7F894FD
:103110009AB1982B9AB99BB1809598239BB99AE064
:103120009A95F1F700C09AB198239AB99BB1892377
:103130008BB985EA8A95F1F700002FBF08952FB764
:10314000F8949AB1982B9AB99BB1809598239BB922
:103150009AE99A95F1F700C09AB198239AB99BB170
:1031600089238BB985E18A95F1F700002FBF089577
:103170003FB7F8949AB1982B9AB92BB1982F9095A4
:1031800029232BB92AE02A95F1F700C02AB1292377
:103190002AB92BB192239BB992E19A95F1F700C01D
:1031A00099B12DE82A95F1F700003FBF89230895D2
:1031B0003FB7F8949AB1982B9AB92BB1982F909564
:1031C00029232BB9EBEBF3E03197F1F700C00000B6
:1031D0002AB129232AB92BB192239BB9F5EBFA9591
:1031E000F1F7000099B1EFE2F3E03197F1F700C099
:1031F00000003FBF909589230895883C910529F4EC
:10320000809135028F5F8093350280914202823037
:1032100019F483E0809342020895613049F4FA0181
:10322000ACE3B2E081918D9382E0A234B807D1F78C
:103230000895AF92BF92CF92DF92FF920F931F93A8
:10324000CF93DF9300D000D0CDB7DEB78C01FC0167
:1032500010821182128213826B01F12C80E0F60140
:1032600091916F01992359F1F3E0FF15D0F183306B
:1032700090F4292F30E0205331092A30310548F4E9
:10328000E1E0F0E0EC0FFD1FE80FF11D90838F5F90
:1032900002C0882321F39E3211F7E1E0F0E0EC0F49
:1032A000FD1FE80FF11D10825801AF0CB11CCE01BB
:1032B00001960E945C35F5018083F394CFCF23E023
:1032C000F2120FC0E1E0F0E0EC0FFD1FE80FF11D7E
:1032D0001082CE0101960E945C35F801838380E064
:1032E00001C081E00F900F900F900F90DF91CF9170
:1032F0001F910F91FF90DF90CF90BF90AF900895F6
:1033000081E04D9B80E00895813011F45D9A08952D
:103310005D980895CF93DF93D82FC0E0CD1771F05B
:103320005D9A82E390E00E94192E80E0EDDF82E357
:1033300090E00E94192EA895CF5FF0CFDF91CF913A
:1033400008959F92AF92BF92CF92DF92EF92FF9239
:103350000F931F93CF93DF931F92CDB7DEB7F82E55
:10336000D62E8A01DA018C9165E0681BBEE28B9F44
:10337000C00111249E012F5F3F4F4F2D825A9C4F59
:1033800051DEF801E0808EE2C82E90E1992EAE2C3D
:10339000B12C2981D8013C91822F90E0830F911D9F
:1033A000A816B906ECF46E2D8F2D0E94A72ECA9C8C
:1033B000F001CB9CF00D1124E25AFC4F86A18F370F
:1033C00021F06E2D8F2D0E94EC2ECA9CF001CB9C1B
:1033D000F00D1124E25AFC4FF3A694A6E394D7CF44
:1033E00021113FC08D2D0E94A20A8AEF90E00E9419
:1033F000192EA8958AEF90E00E94192EA8958D2D80
:103400000E94A20A80910201811134C0D801EC917E
:103410002EE22E9FF0011124E25AFC4FD3A68C918C
:1034200090E00196289FF001299FF00D1124E25AA7
:10343000FC4FD3A6EC912E9FF0011124E25AFC4FD1
:1034400031E134A78C9190E00196289FF001299FEB
:10345000F00D1124E25AFC4F34A78C918E5F8C93AF
:1034600009C08F2D0E94242E8981F8019081980F28
:10347000908301C080E00F90DF91CF911F910F9159
:10348000FF90EF90DF90CF90BF90AF909F90089506
:103490001F920F920FB60F9211242F933F934F93C9
:1034A0005F936F937F938F939F93AF93BF93EF93AC
:1034B000FF930E940F0DFF91EF91BF91AF919F91EC
:1034C0008F917F916F915F914F913F912F910F90CD
:1034D0000FBE0F901F9018951F920F920FB60F926C
:1034E00011242F933F934F935F936F937F938F9309
:1034F0009F93AF93BF93EF93FF9380915803909165
:103500005903A0915A03B0915B030196A11DB11D0F
:103510008093580390935903A0935A03B0935B038D
:10352000809132028F5F843618F48093320214C087
:1035300010923202809134028F5F80933402809126
:1035400033028F5F8093330280913302863020F004
:10355000109233020E94C80680914A03813011F50F
:103560008091500390915103A0915203B091530365
:10357000892B8A2B8B2BA1F08091500390915103C2
:10358000A0915203B09153030197A109B10980930F
:10359000500390935103A0935203B093530302C07E
:1035A00010924A0380914903813011F580914C03B8
:1035B00090914D03A0914E03B0914F03892B8A2B1C
:1035C0008B2BA1F080914C0390914D03A0914E0361
:1035D000B0914F030197A109B10980934C039093D7
:1035E0004D03A0934E03B0934F0302C010924903C2
:1035F00080914B03813011F58091540390915503D4
:10360000A0915603B0915703892B8A2B8B2BA1F0E5
:103610008091540390915503A0915603B0915703A4
:103620000197A109B1098093540390935503A09386
:103630005603B093570302C010924B03FF91EF91D2
:10364000BF91AF919F918F917F916F915F914F91BA
:103650003F912F910F900FBE0F901F90189590EDF6
:10366000980F9A3070F09FE9980F963010F499EA0D
:1036700005C09FEB980F963018F499EC980F01C095
:10368000982F892F089590ED980F9A3060F09FE958
:10369000980F963010F4875508959FEB980F963049
:1036A00020F487530895892F089580E00895CF93DB
:1036B000DF93EA012AE00E94E536CE01DF91CF9147
:1036C0000895EF92FF920F931F93CF93DF938B0197
:1036D000EC0180E090E02991222371F0809F70013D
:1036E000819FF00C909FF00C1124822FB8DF97017E
:1036F000280F311DC901EFCFDF91CF911F910F919D
:10370000FF90EF9008954F925F926F927F928F9209
:103710009F92AF92BF92CF92DF92EF92FF920F9360
:103720001F93CF93DF93CDB7DEB72A970FB6F894E8
:10373000DEBF0FBECDBF7C01462E542EFC01019092
:103740000020E9F731973F01681A790A6C0180E09F
:1037500090E000E010E0A42EB12C96012E193F0954
:1037600026153705FCF4F60121916F01E1E0F0E048
:10377000EC0FFD1FE80FF91F241111C01082480142
:10378000FFEF8F1A9F0AB501CE0101969ADFF8016B
:10379000EB5BFD4F8083840180E090E0DECF2083EF
:1037A0000196DBCFE1E0F0E0EC0FFD1FE80FF91F21
:1037B0001082652D70E0CE01019683DFF801EB5B8E
:1037C000FD4F80832A960FB6F894DEBF0FBECDBFA3
:1037D000DF91CF911F910F91FF90EF90DF90CF90ED
:1037E000BF90AF909F908F907F906F905F904F9021
:1037F00008950F931F93CF93DF938A01FB010190EC
:103800000020E9F73197EF01C61BD70B0E94B936AC
:10381000009719F41092450223C0BC016C0F7D1F64
:1038200085E492E00E949936E5E4F2E00190002000
:10383000E9F73197EF01C554D240B80185E492E031
:103840000E94B936FC0101900020E9F73197E81B8E
:10385000F90BCE018E1B9F0BFC01EB5BFD4F108221
:1038600085E492E0DF91CF911F910F910895CF925F
:10387000DF92FF920F931F93CF93DF938C01EC01A4
:10388000F80180818823D9F08B32A1F0853299F438
:10389000680182E0C80ED11CF8018181F4DEF82EA7
:1038A000F8018281F0DEF0E1FF9E90011124822B6D
:1038B000860101C080E289930F5F1F4FE1CF18821C
:1038C000DF91CF911F910F91FF90DF90CF900895DE
:1038D0008F929F92AF92BF92CF92DF92EF92FF9220
:1038E0000F931F93CF93DF9380914B038111FFC000
:1038F00007DD91E0811190E0892F06DD80915C0366
:103900008823E9F00E94D62C10925C0348EE53E025
:1039100060E070E040935003509351036093520372
:103920007093530381E080934A0340934C03509378
:103930004D0360934E0370934F038093490384EFCC
:1039400091E0A0E0B0E08093150190931601A09360
:103950001701B09318018093540390935503A093DB
:103960005603B093570310E08EE2D82E01E092E0A8
:10397000B92E2AEAC22E812E912CD89C7001D99C96
:10398000F00C1124E701C25ADC4F8CA5803119F0EC
:103990008131C9F077C0B7016E597C4FAE018BA55C
:1039A0000E94302E811103C00B8F1DA601C00DA7F0
:1039B000D89CF001D99CF00D1124E25AFC4F83A54C
:1039C0000E94242E5FC08BA50E94A20A8091020152
:1039D000AA24A394A10E81114DC01DA6BB8E609197
:1039E000EC017091ED0180E090E00E946A3320E0EC
:1039F00030E040E251E40E94D632688379838A83C2
:103A00009B83CC828AE1810F8D83D701AC59BC4F57
:103A100086E0EEE0F8E001900D928A95E1F7DA9CFD
:103A200070011124E701C25ADC4F1DA60B8F609173
:103A3000EE017091EF01072E000C880B990B0E948C
:103A40006C3320E030E040E251E40E94D6326883DB
:103A500079838A839B83CC82155D1D83D701AC5902
:103A6000BC4F86E0EEE0F8E001900D928A95E1F718
:103A70001A2D08C00DA71A2DDA9CF0011124E25A64
:103A8000FC4F05A71F5F153008F475CFEEE5F3E096
:103A900080E090E024852A3211F52EE2289FF00183
:103AA000299FF00D1124E25AFC4F8DB79EB78E97D7
:103AB0000FB6F8949EBF0FBE8DBFADB7BEB71196BF
:103AC00001900D922A95E1F70E94740C8DB79EB774
:103AD0008E960FB6F8949EBF0FBE8DBF05C001969F
:103AE000BE9685309105B1F681E080934B03DF915E
:103AF000CF911F910F91FF90EF90DF90CF90BF90EB
:103B0000AF909F908F9008954BE95CE060E070E08B
:103B100085E495E00C94B61144E65CE060E070E06A
:103B200085E495E00C94B6114CE25CE00C94B6117F
:103B3000CF92DF92EF92FF920F931F93CF93DF9379
:103B4000EC0169010E94B61145E15CE0BC01CE01C7
:103B50000E94B611A601BC01CE010E94B6114CE034
:103B60005CE0BC01CE010E94B611A801BC01CE01EF
:103B70000E94D81149E05CE0BC01CE010E94B61160
:103B8000A701BC01CE01DF91CF911F910F91FF9052
:103B9000EF90DF90CF900C94B6114F925F926F929E
:103BA0007F928F929F92AF92BF92CF92DF92EF92CD
:103BB000FF920F931F93CF93DF9300D000D000D0DC
:103BC000CDB7DEB72A013B01922E832E58012EE29B
:103BD000829FC0011124FC01E25AFC4F838D9E019B
:103BE0002F5F3F4F6901823021F1B8F4813009F035
:103BF0004BC02081318142815381C301B2010E94B7
:103C00006E32162FF72EE82E092F63E07CE0C601F6
:103C10000E9461366CEF7BE033C08330F1F08A3074
:103C200099F51081F180E280038168EE7BE0C901A3
:103C300028C02081318142815381C301B2010E9499
:103C40006E32162FF72EE82E092F66EF7BE0C601A5
:103C50000E94613664EF7BE013C020813181428194
:103C60005381C301B2010E946E32162FF72EE82E47
:103C7000092F6EEE7BE0C6010E9461366BEE7BE0A1
:103C8000C5010E94613604C010E0F12CE12C00E077
:103C90000F93EF92FF921F93DF92CF928F929F929A
:103CA0000E945B370FB6F894DEBF0FBECDBF80E039
:103CB00090E026960FB6F894DEBF0FBECDBFDF9121
:103CC000CF911F910F91FF90EF90DF90CF90BF9019
:103CD000AF909F908F907F906F905F904F900895DE
:103CE0000F931F93CF93DF93EC010EDF8C01609154
:103CF000E6047091E7048091E8049091E9044FEFA5
:103D000054E0D5DC43EA5BE0B801CE010E94B61175
:103D10004DE85BE0BC01CE010E94B6114FEF54E0CC
:103D2000BC01CE010E94D81143E85BE0BC01CE018A
:103D30000E94B6114EE65BE0BC01CE010E94B611B6
:103D40004FEF54E0BC01CE010E94D81144E65BE085
:103D5000BC01CE010E94B61143E45BE0BC01CE0180
:103D60000E94B6114FEF54E0BC01CE010E94D81161
:103D700049E35BE0BC01CE010E94B61146E25BE084
:103D8000BC01CE01DF91CF911F910F910C94B61120
:103D90008F929F92AF92BF92CF92DF92EF92FF925B
:103DA0000F931F93CF93DF93EC01AEDEBC01CE01E6
:103DB000BBDE6C016AE17BE08AE295E00E9461363D
:103DC00043E05BE0B601CE010E94B6114C01809148
:103DD00017081F928F93809116081F928F938091DE
:103DE00015081F928F93809114081F928F938AE277
:103DF000A82E85E0B82EBF92AF929FEFC92E94E017
:103E0000D92EDF92CF920E945B3729EFE22E2AE073
:103E1000F22E860127EF3AE041EF5AE0B401CE01DD
:103E200087DE4C01809113081F928F9380911208B6
:103E30001F928F93809111081F928F938091100889
:103E40001F928F9380910F081F928F9380910E087D
:103E50001F928F9383ED9AE09F938F93DF92CF927F
:103E60000E947B3739ECE32E3AE0F32E27EC3AE060
:103E700046EC5AE0B401CE015BDE4C0180911B0898
:103E80001F928F9380911A081F928F938091190827
:103E90001F928F93809118081F928F93BF92AF92B9
:103EA000DF92CF920E945B372DB73EB7285D3F4F20
:103EB0000FB6F8943EBF0FBE2DBF4CEBE42E4AE088
:103EC000F42E2AEB3AE049EB5AE0B401CE0130DEA1
:103ED0004C0180911F081F928F9380911E081F92A2
:103EE0008F9380911D081F928F9380911C081F92C1
:103EF0008F93BF92AF92DF92CF920E945B375FEABF
:103F0000E52E5AE0F52E2DEA3AE04CEA5AE0B401EB
:103F1000CE010EDE4C01809123081F928F93809179
:103F200022081F928F93809121081F928F93809176
:103F300020081F928F93BF92AF92DF92CF920E9480
:103F40005B376BEAE62E6AE0F62E29EA3AE048EAA9
:103F50005AE0B401CE01ECDD47E85AE0BC01CE01E5
:103F60000E94B6112DB73EB7285E3F4F0FB6F894AA
:103F70003EBF0FBE2DBF209124082F3F31F44EE7E6
:103F80005AE0BC01CE010E94B61141E55AE0BC01E5
:103F9000CE010E94B6116C016091E6047091E704B5
:103FA0008091E8049091E9044FEF54E080DB4FEFFB
:103FB00054E0B601CE010E94D81145E15AE0BC019F
:103FC000CE01DF91CF911F910F91FF90EF90DF9085
:103FD000CF90BF90AF909F908F900C94B6116F923E
:103FE0007F928F929F92AF92BF92CF92DF92EF9289
:103FF000FF920F931F93CF93DF93EC01162F84DD75
:1040000043E05AE0BC01CE010E94B61146EE59E0F1
:10401000BC01CE010E94B611A12EB12C2DE4129F3D
:10402000F0011124E65BFB4F20812F3F31F44DED71
:1040300059E0BC01CE010E94B6114CEB59E0BC0125
:10404000CE010E94B6112DE42A9D60012B9DD00C5B
:1040500011248601035B1B4F2EEAE22E29E0F22E8B
:1040600029EA39E048EA59E0BC01CE0161DD4C01A2
:10407000C601865B9B4F3C01FC01E55BFF4F608105
:10408000718180E090E04FEF54E011DB37EAE32EDE
:1040900039E0F32E0FEF14E022EA39E045E959E068
:1040A000B401CE0145DD860109591B4F44E7E42EDA
:1040B00049E0F42E2FE639E042E659E0BC01CE019A
:1040C00037DD03EC11E0C12CD12CEFEF6E1A7E0A24
:1040D00043E559E0BC01CE010E94B6114C014AE013
:1040E0006FEF74E0C6010E94D3364FEF54E0B40185
:1040F000CE010E94D811F30140815181F801228143
:1041000033814217530731F449E459E0BC01CE0131
:104110000E94B61147E459E0BC01CE010E94B611DD
:10412000F80140815181BC01CE010E94D8114DE3BC
:1041300059E0BC01CE010E94B611FFEFCF1ADF0A91
:104140000C5F1F4F25E0C216D10411F640E159E083
:10415000BC01CE010E94B6118C014AE06FEF74E001
:10416000C5010E94D3364FEF54E0B801CE010E9442
:10417000D81149ED58E0BC01CE010E94B6118C0166
:104180006091E6047091E7048091E8049091E9045D
:104190004FEF54E08CDA4FEF54E0B801CE010E94AB
:1041A000D81140ED58E0BC01CE01DF91CF911F91B5
:1041B0000F91FF90EF90DF90CF90BF90AF909F90C6
:1041C0008F907F906F900C94B611CF93DF93EC019A
:1041D0009BDCBC01CE01A8DC46E658E0BC01CE0168
:1041E000DF91CF910C94B6110F931F93CF93DF9370
:1041F000EC01162F89DCBC01CE0196DCBC0111114B
:104200001BC04BED57E0CE010E94B6118C016091AE
:10421000E6047091E7048091E8049091E9044FEF7F
:1042200054E045DA4FEF54E0B801CE010E94D811B6
:1042300041ED57E0BC0102C048EC57E0CE01DF91F0
:10424000CF911F910F910C94B611CF93DF93EC0196
:104250005BDCBC01CE0168DC47EA57E0BC01CE0163
:10426000DF91CF910C94B6110F931F93CF93DF93EF
:10427000EC014ADC41E857E0BC01CE010E94B611D6
:104280008C016091E6047091E7048091E8049091BC
:10429000E9044FEF54E00BDA4FEF54E0B801CE01E0
:1042A0000E94D81145E757E0BC01CE01DF91CF91C4
:1042B0001F910F910C94B6116F927F928F929F92E3
:1042C000BF92CF92DF92EF92FF920F931F93CF9303
:1042D000DF93EC01B62E142F17DCBC01CE0124DCD9
:1042E0004EE657E0BC01CE010E94B611113031F408
:1042F00040E257E0BC01CE010E94B6114EE057E00B
:10430000BC01CE010E94B61146E057E0BC01CE01CF
:104310000E94B6116C018B2C912C2EE2B29E800172
:104320001124025A1C4FF80183851F928F938285B6
:104330001F928F9381851F928F9380851F928F93F9
:1043400087811F928F9386811F928F9385811F9201
:104350008F9384811F928F9385EE96E09F938F9326
:104360008FEF94E09F938F930E947B374FEF54E041
:10437000B601CE010E94D81140EC56E0BC01CE013E
:104380000E94B6112DB73EB72C5E3F4F0FB6F89482
:104390003EBF0FBE2DBFF80121A12F3F31F447EBE7
:1043A00056E0BC01CE010E94B6112EE2289D6001AC
:1043B000299DD00C1124860106591C4F29EAE22EB2
:1043C00026E0F22E26EA36E043E856E0BC01CE01B4
:1043D000AFDB3C019601225A3C4F6901F9017D9601
:1043E00083818F9382818F9381818F93F901858D52
:1043F0008F938DE796E09F938F938FEF94E09F9339
:104400008F930E947B3737E6E32E36E0F32E0FEFD3
:1044100014E024E636E045E556E0B301CE0188DB42
:104420003C010AE215E02FEF34E040E050E0BA0131
:104430008B2DB3DB4FEF54E0B301CE010E94D811B6
:10444000A801BC01CE010E94D81142E456E0BC0193
:10445000CE010E94B6113C01F601458D568D678D47
:1044600070A12FEF34E08B2D98DB4FEF54E0B301B8
:10447000CE010E94D811A801BC01CE010E94D81122
:104480004FE156E0BC01CE010E94B6118C014AE01A
:104490006FEF74E0C4010E94D3364FEF54E0B801CF
:1044A000CE010E94D8114BEF55E0BC01CE010E9415
:1044B000B6118C016091E6047091E7048091E804E4
:1044C0009091E9044FEF54E0F2D84FEF54E0B80177
:1044D000CE010E94D8112DB73EB7285F3F4F0FB6CF
:1044E000F8943EBF0FBE2DBF4BEC55E0BC01CE0192
:1044F000DF91CF911F910F91FF90EF90DF90CF90C0
:10450000BF909F908F907F906F900C94B611CF9238
:10451000DF92EF92FF920F931F93CF93DF93EC0103
:104520006B017A0189016091E6047091E704809142
:10453000E8049091E9044FEF54E0B9D841EC55E01C
:10454000B601CE010E94B611A701BC01CE010E94A6
:10455000B6114CEB55E0BC01CE010E94B6114FEFF5
:1045600054E0BC01CE010E94D81140EB55E0BC01E3
:10457000CE010E94B611A801BC01CE010E94B61165
:1045800047EA55E0BC01CE01DF91CF911F910F9119
:10459000FF90EF90DF90CF900C94B6110F931F9384
:1045A000CF93DF93EC01B0DABC01CE01BDDA8C0110
:1045B0006091E6047091E7048091E8049091E90429
:1045C0004FEF54E074D820EA35E04CE955E0B801EB
:1045D000CE019DDF23E935E04FE855E0BC01CE0177
:1045E00096DF26E835E040E855E0BC01CE018FDFDC
:1045F00027E735E041E755E0BC01CE0188DF2AE638
:1046000035E045E655E0BC01CE0181DF20E635E02E
:104610004CE555E0BC01CE01DF91CF911F910F9188
:1046200076CFCF92DF92EF92FF920F931F93CF93AB
:10463000DF93EC0169DABC01CE0176DA43E355E0A1
:10464000BC01CE010E94B6112AE6E22E23E0F22E32
:1046500000E010E0F70120A12223E1F141E255E062
:10466000BC01CE010E94B6116C014AE06FEF74E00C
:10467000C8010E94D3364FEF54E0B601CE010E942C
:10468000D8114BE155E0BC01CE010E94B6116C017E
:104690006091E6047091E7048091E8049091E90448
:1046A0004FEF54E004D84FEF54E0B601CE010E9422
:1046B000D8114FE055E0BC01CE010E94B611A70110
:1046C000BC01CE010E94D81146E055E0BC01CE01EC
:1046D0000E94B6110F5F1F4FFEE2EF0EF11C053076
:1046E000110509F0B7CFDF91CF911F910F91FF9086
:1046F000EF90DF90CF9008954F925F926F927F92EC
:104700008F929F92AF92BF92CF92DF92EF92FF92E1
:104710000F931F93CF93DF9300D000D000D0CDB77D
:10472000DEB79E838D83F0D9BC018D819E81FCD93B
:104730004AE854E0BC018D819E810E94B6112AE6B0
:10474000E22E23E0F22ED12CF70125892F3F09F02C
:1047500055C020A1222309F451C021A1222339F000
:1047600046E854E0BC018D819E810E94B611A701EC
:10477000BC018D819E810E94D8115C01F7010190DE
:104780000020E9F731978F010E191F090F3011052D
:1047900058F444E854E0B5018D819E810E94B61121
:1047A0005C010F5F1F4FF2CFF70141895289638986
:1047B00074890AE215E02FEF34E08D2DEED94FEF2A
:1047C00054E0B5018D819E810E94D811A801BC01E1
:1047D0008D819E810E94D811F70121A1222339F0F9
:1047E0004FE754E0BC018D819E810E94B6114CE7D9
:1047F00054E0BC018D819E810E94B611D394FEE2EB
:10480000EF0EF11C25E0D2129FCF4DE354E0BC0126
:104810008D819E810E94B61144E354E0BC018D81DC
:104820009E810E94B6118C016091580370915903CA
:1048300080915A0390915B0324E630E040E050E021
:104840000E94E134CA01B9010E946A330E94A73371
:104850000E943E336B017C0120E831E541E050E0ED
:104860000E94E134CA01B9010E946A330E94A73351
:104870000E943E332B013C019B01AC0160E871E5D5
:1048800081E090E00E94D234C61AD70AE80AF90AF9
:10489000C701B60120E13EE040E050E00E94E13473
:1048A000CA01B9010E946A330E94A7330E943E33B5
:1048B0004B015C01A0E1BEE09B01AC010E941835F8
:1048C000A7019601261B370B480B590B29833A8306
:1048D0004B835C83CA01B9012CE330E040E050E037
:1048E0000E94E134CA01B9010E946A330E94A733D1
:1048F0000E943E336B017C01ACE3B0E09B01AC0154
:104900000E94183529813A814B815C81261B370B27
:10491000480B590B29833A834B835C834FEF54E058
:10492000C301B2010E94571B4FEF54E0B8018D81C3
:104930009E810E94D8114DE254E0BC018D819E8180
:104940000E94B6118C014FEF54E0C501B4010E94E2
:10495000571B4FEF54E0B8018D819E810E94D81102
:104960004BE254E0BC018D819E810E94B6118C0106
:104970004FEF54E0C701B6010E94571B4FEF54E0C0
:10498000B8018D819E810E94D81149E254E0BC019A
:104990008D819E810E94B6118C014FEF54E0698198
:1049A0007A818B819C810E94571B4FEF54E0B801A4
:1049B0008D819E810E94D8114AE154E0BC018D8115
:1049C0009E8126960FB6F894DEBF0FBECDBFDF9155
:1049D000CF911F910F91FF90EF90DF90CF90BF90FC
:1049E000AF909F908F907F906F905F904F900C94BE
:1049F000B6112F923F924F925F926F927F928F9259
:104A00009F92AF92BF92CF92DF92EF92FF920F935D
:104A10001F93CF93DF9365E475E080E091E00E94FF
:104A20006A0F7C0110920108809124088F3F31F4B5
:104A3000B70185E495E00E94C3097C010E941C0F28
:104A4000B70185E495E00E948B1590934402809312
:104A50004302892BC9F48091360281110AC04DE0CE
:104A600059E161E08CE198E00E946C1481E0809350
:104A700036020E946514811107C080913602813090
:104A800019F482E08093360280914A03882321F052
:104A9000809149038111C3C180914A03811117C0DC
:104AA00080914A048F3FA9F08091110190911201E9
:104AB000A0911301B091140180935003909351037E
:104AC000A0935203B093530381E080934A0380E0A4
:104AD00001C081E09091490391111AC0909197040F
:104AE0009F3FD9F040910D0150910E0160910F014F
:104AF0007091100140934C0350934D0360934E030B
:104B000070934F0391E0909349037724739401C00D
:104B1000712C813009F083C102C077247394E114B1
:104B2000F10409F07CC1C72CD12C2DE42C9DC001CF
:104B30002D9D900D11249C01235B3B4F1901F90120
:104B400001900020E9F73197E21BF30B40E050E0C1
:104B50009C01265B3B4F852F90E08E179F0750F4FA
:104B6000D901A80FB91F13968C918E3209F44F5FAB
:104B70005F5FF1CF433008F044C08091370281116C
:104B800027C0809136028230A1F50E94280F882329
:104B900009F4F3C61092340281E0809337024CE3AB
:104BA00052E0B10185E495E0DF91CF911F910F9123
:104BB000FF90EF90DF90CF90BF90AF909F908F903D
:104BC0007F906F905F904F903F902F900C94290BA7
:104BD000813059F40E941B0B882339F082E08093C6
:104BE000370288E392E00E941E0B809137028230E8
:104BF00069F0809134028D3308F4BFC610923702F9
:104C000008C1B10188E392E00E9419198091420223
:104C1000813009F0EDC082E08093420266E174E0E9
:104C200085E492E00E946136809113081F928F9371
:104C3000809112081F928F93809111081F928F9379
:104C4000809110081F928F9380910F081F928F936D
:104C500080910E081F928F938DEF93E09F938F9317
:104C60008FEF94E09F938F930E947B376FEF74E0F8
:104C700085E492E00E948E36CEE5D3E08DB79EB7F4
:104C800040960FB6F8949EBF0FBE8DBF612C6BEDA2
:104C9000462E63E0562E7FEFE72E74E0F72EE7ED09
:104CA000AE2EE3E0BE2E89A18F3F09F04DC08CA54A
:104CB000882309F449C08DA5813009F445C08B854E
:104CC0001F928F938A851F928F9389851F928F934E
:104CD00088851F928F938F811F928F938E811F9251
:104CE0008F938D811F928F938C811F928F935F92F0
:104CF0004F92FF92EF920E947B376FEF74E085E452
:104D000092E00E948E364D8D5E8D6F8D78A10AE205
:104D100015E02FEF34E0862D0E94CD1DFF92EF921B
:104D2000BF92AF92C8019F930F930E947B37B80147
:104D300085E492E00E948E36EDB7FEB77A960FB604
:104D4000F894FEBF0FBEEDBF6394AE96F5E06F1210
:104D5000AACF2DE42C9DC0012D9D900D1124FC01A6
:104D6000EB56FB4F808091803CE3A32E32E0B32EC4
:104D700048E3C42E42E0D42E5DEFE52E58E1F52E37
:104D800005E412E020E030E0A10160E571E089591E
:104D90009B4F0E94321510923402711014C0809102
:104DA000110190911201A0911301B091140180930F
:104DB000500390935103A0935203B093530381E0A7
:104DC00080934A0313C080910D0190910E01A09130
:104DD0000F01B091100180934C0390934D03A09369
:104DE0004E03B0934F0381E0809349031092370242
:104DF00080914202833029F080913402883008F497
:104E0000BCC581E08093420280913402883008F46E
:104E1000B4C580915C038F5F80935C03AEC5C09185
:104E20004302D0914402209709F02DC1B70185E4D7
:104E300095E00E94A80B80915C05813109F09DC529
:104E400080916905853009F098C580916A05843A9A
:104E500009F093C544E050E062ED73E08FE695E021
:104E60000E94683644E050E0892B09F06AC06DEC7E
:104E700073E085E492E00E94583680911C0890917E
:104E80001D08A0911E08B0911F08809349029093BD
:104E90004A02A0934B02B0934C0280911808909163
:104EA0001908A0911A08B0911B0880934D029093A5
:104EB0004E02A0934F02B09350028091140890913B
:104EC0001508A0911608B09117088093510290938D
:104ED0005202A0935302B093540286E0EEE0F8E051
:104EE000A5E5B2E001900D928A95E1F78091200846
:104EF00090912108A0912208B091230880935B0231
:104F000090935C02A0935D02B0935E022CEF30E2BE
:104F10004AE165E472E085E495E0DF91CF911F916D
:104F20000F91FF90EF90DF90CF90BF90AF909F9048
:104F30008F907F906F905F904F903F902F900C9448
:104F40001A1368EC73E08FE695E00E946836892BAF
:104F500009F066C046E050E06EE078E08FE795E04B
:104F60000E948136EC01892B09F007C544E050E02E
:104F700063EC73E085E492E00E9458362CEF30E257
:104F800044E065E472E085E495E00E941A138091A4
:104F9000730590917405A0917505B0917605809385
:104FA0001C0890931D08A0931E08B0931F088091C1
:104FB000770590917805A0917905B0917A05809355
:104FC000180890931908A0931A08B0931B088091B1
:104FD0007B0590917C05A0917D05B0917E05809325
:104FE000140890931508A0931608B09317088091A1
:104FF000850590918605A0918705B09188058093DD
:10500000200890932108A0932208B09323084DE133
:1050100050E060E070E088E098E00E94A83919C094
:1050200044E050E06EEB73E08FE695E00E94683656
:10503000892B09F0A2C446E050E06EE078E08FE7EB
:1050400095E00E948136EC01892B09F096C481E03D
:10505000F9D485B7816085BF85B78D7F85BFFE0197
:10506000DF91CF911F910F91FF90EF90DF90CF9044
:10507000BF90AF909F908F907F906F905F904F9078
:105080003F902F900994CB5BDA4F45E050E068EBFE
:1050900073E0CE010E946836892B09F06EC4D0936C
:1050A0004405C093430543E451E069E471E0CE0157
:1050B0000E94F91BBC0180914305909144050E9418
:1050C0009936C0914305D09144058881811104C06F
:1050D00085E495E011DB43C442E050E065EB73E00A
:1050E000CE010E946836892BE9F54FE451E061E575
:1050F00071E0CE010E94F91BBC0185E492E00E94A0
:105100009936E5E4F2E001900020E9F73197E554A3
:10511000F240349718F16EEE74E085E492E00E945C
:10512000B936892BD9F02091580330915903409119
:105130005A0350915B0361E279ED81E090E00E94B7
:10514000D2346093E6047093E7048093E80490936C
:10515000E90485E495E00E94701E01C485E495E0B1
:1051600034D8FDC34BE050E069EA73E0CE010E9401
:105170006836892B09F4F1C34FE451E065E571E02D
:10518000CE010E94F91BBC018FEF94E00E9499367A
:105190006091E6047091E7048091E8049091E9043D
:1051A0004AE255E00E94571B6AE275E08FEF94E0F7
:1051B0000E94B936892B09F4D0C38091E6049091FE
:1051C000E704A091E804B091E904892B8A2B8B2B8A
:1051D00009F4C3C3C0914305D091440544E050E0B5
:1051E00064EA73E0CE010E946836892B21F485E4DD
:1051F00095E0D4D9B4C343E050E060EA73E0CE0157
:105200000E946836892B21F485E495E00ADAA7C369
:1052100044E050E06BE973E0CE010E946836892BD0
:1052200021F485E495E011D89AC343E050E067E9A2
:1052300073E0CE010E946836892BD1F54FE451E02E
:105240006AE571E0CE010E94F91BBC018FEF94E08A
:105250000E94993643E050E06FEF74E08FE591E0F3
:105260000E94A036EC01892BF1F40E94841D9093DA
:1052700044028093430242E553E0BC0185E495E09B
:105280000E94B6119093440280934302BC0185E4CE
:1052900095E00E94741385B7816085BF85B78D7FC7
:1052A00085BFFE01099585E495E00E94342157C32E
:1052B00042E050E06FE473E0CE010E946836892B33
:1052C000D1F40E94841D90934402809343024AE0EB
:1052D00053E0BC0185E495E00E94B611909344022E
:1052E000809343021092E6041092E7041092E804BF
:1052F0001092E90438C343E050E066E073E0CE0169
:105300000E946836892B09F0A7C04FE451E063E69C
:1053100071E0CE010E94F91BBC018FEF94E00E9466
:1053200099366AE070E08FEF94E00E94611B6C0197
:105330004FE451E068E671E08091430590914405A7
:105340000E94F91BBC018FEF94E00E94993644E063
:1053500050E061E073E08FEF94E00E946836892BA3
:1053600009F073C04FE451E06CE671E080914305B1
:10537000909144050E94F91BBC018FEF94E00E94BC
:10538000993642E050E06FEF74E080E791E00E94D0
:10539000A0367601FF24892B59F48EE28E9DF00110
:1053A0008F9DF00D1124E25AFC4F8FEF81A309C0AD
:1053B0008EE28E9DF0018F9DF00D1124E25AFC4F7C
:1053C00011A24FE451E063E771E0809143059091B1
:1053D00044050E94F91BBC0185E492E00E949936C5
:1053E00085E492E00E94371C8EE28E9DE0018F9D45
:1053F000D00D112465E472E0CE0186599C4F0E94C5
:1054000099364FE451E067E771E080914305909150
:1054100044050E94F91BBC018FEF94E00E9499366D
:105420008FEF94E00E945935FE01E25AFC4F658FE0
:10543000768F878F90A3BE0160567E4F4EE250E07C
:10544000CF010E94A83941E001C040E06C2D85E405
:1054500095E00E945C2183C242E050E06EEF72E072
:10546000CE010E946836892B31F54FE451E06BE79D
:1054700071E0CE010E94F91BBC018FEF94E00E9405
:1054800099368091FF04882381F04FE050E060E579
:1054900070E08FEF94E00E94A8396FEF74E08EEE19
:1054A00094E00E94993661E001C060E085E495E0F7
:1054B0000E94F42054C244E050E069EF72E0CE0153
:1054C0000E946836892B51F044E050E064EF72E0AE
:1054D000CE010E946836892B09F0F4C044E050E008
:1054E0006FEE72E0CE010E9468367C0111E0892BDC
:1054F00009F410E04FE451E060E871E0CE010E9451
:10550000F91BBC0185E492E00E94993644E050E02A
:105510006AEE72E085E492E00E946836892B09F019
:10552000CBC04FE451E06CE671E08091430590916F
:1055300044050E94F91BBC0185E492E00E94993663
:1055400042E050E067EE72E085E492E00E94683647
:10555000C12ED12C892B59F48DE48C9DF0018D9DA9
:10556000F00D1124E65BFB4F8FEF808309C08DE4C3
:105570008C9DF0018D9DF00D1124E65BFB4F108298
:105580004FE451E068E871E0809143059091440553
:105590000E94F91B2DE42C9DE0012D9DD00D1124BE
:1055A000BC01CE01835B9B4F0E9499369E01295915
:1055B0003B4F69018EE2F90111928A95E9F74FE4B8
:1055C00051E06EE871E080914305909144050E949E
:1055D000F91BBC0185E492E00E94993685E492E0D3
:1055E0000E94371C65E472E0C6010E9499364FE4C0
:1055F00051E064E971E080914305909144050E9477
:10560000F91BBC0185E492E00E9499366AE070E0E3
:1056100085E492E00E94611BC65BDB4FFE01E55B07
:10562000FF4F918380834FE451E06AE971E08091FC
:105630004305909144050E94F91BBC0185E492E06A
:105640000E9499366AE070E085E492E00E94611B56
:10565000880F991F880F991FFC01ED53FE4F22817F
:1056600033813A832983A4E6B0E00E940935EF280C
:1056700091F4609311017093120180931301909340
:1056800014014DE450E060EA70E0CE010E948739D9
:1056900010924A0311C060930D0170930E01809324
:1056A0000F01909310014DE450E06DEE70E0CE01DB
:1056B0000E94873910924903612F85E495E00E948A
:1056C000EF1F4DC142E050E064EE72E0CE010E9457
:1056D0006836892B51F042E050E061EE72E0CE0175
:1056E0000E946836892B09F048C14EE951E060EA12
:1056F00071E0CE010E94F91BBC018FEF94E00E9483
:10570000993644E050E06CED72E08FEF94E00E9437
:105710006836892B09F01CC1C0914305D09144051E
:1057200042E050E069ED72E0CE010E946836892BBC
:10573000F9F04FE451E065E671E0CE010E94F91BFB
:10574000BC018FEF94E00E9499368FEF94E00E94A5
:10575000371C40E16AE38FEF94E00E94831B86E0F0
:10576000E5E4F2E0AEE0B8E001900D928A95E1F751
:105770004FE451E065EA71E0809143059091440562
:105780000E94F91BBC018FEF94E00E9499364AE019
:105790006EE28FEF94E00E94831B8091450290910E
:1057A0004602A0914702B091480280931808909356
:1057B0001908A0931A08B0931B084FE451E068EA57
:1057C00071E080914305909144050E94F91BBC0152
:1057D0008FEF94E00E9499364AE06EE28FEF94E0FA
:1057E0000E94831B8091450290914602A09147023E
:1057F000B091480280931C0890931D08A0931E0846
:10580000B0931F084FE451E067E571E080914305D4
:10581000909144050E94F91BBC018FEF94E00E9417
:1058200099364AE06EE28FEF94E00E94831B8091EC
:10583000450290914602A0914702B09148028093A0
:10584000200890932108A0932208B09323084FE4E6
:1058500051E06BEA71E080914305909144050E940C
:10586000F91BBC018FEF94E00E94993642E050E0B2
:105870006FEF74E080E791E00E94A036892B21F45D
:105880008FEF8093240802C0109224084FE451E067
:105890006FEA71E080914305909144050E94F91BE5
:1058A000BC018FEF94E00E9499364AE06EE28FEFE0
:1058B00094E00E94831B8091450290914602A09142
:1058C0004702B09148028093140890931508A09362
:1058D0001608B09317084DE150E060E070E088E0F2
:1058E00098E00E9487390E94841D9093440280931F
:1058F00043024FE952E0BC0185E495E00E94B611F5
:1059000090934402809343024FEF54E0BC0185E43E
:1059100095E00E94D811909344028093430243E99A
:1059200052E0BC0185E495E00E94B61190934402D8
:1059300080934302BC0185E495E00E94741385B70F
:10594000816085BF85B78D7F85BFE0E0F0E0099578
:1059500085E495E00E94C81E02C00E948C1D9093B1
:10596000440280934302609143027091440285E4B3
:1059700095E00E94741310925C03DF91CF911F9108
:105980000F91FF90EF90DF90CF90BF90AF909F90DE
:105990008F907F906F905F904F903F902F900895E1
:1059A000813011F4299A08952998089580E0F8DF4C
:1059B0008AE090E03ED1299A8FE090E03AD1A89514
:1059C0008EE098E00E94980E80E08A95F1F766E7F5
:1059D00074E084E10E947F0E84E190E02AC110927D
:1059E00069001DBA8FEF8CBB9FE395B996EF94B910
:1059F00088B99FE497B98BB992EE9AB910927C005E
:105A000097E890937A001092B60092E09093B000DD
:105A100026E02093B1008093B2008BE98093B3001D
:105A20001092B400909370008EE487BDEEE6F0E033
:105A300080818260808384B5826084BD85B5856005
:105A400085BD0895DF92EF92FF920F931F93CF933E
:105A5000DF9300D000D000D0CDB7DEB7182FF89478
:105A60008AE9EAE4F4E0DF011D928A95E9F74FE064
:105A700050E060E570E08FE191E00E94A8396AE4AF
:105A80007DE08DE494E00E94613660E47DE087E68D
:105A900094E00E94613681E391E090934C048093FE
:105AA0004B0480E590E090939604809395048DE4F8
:105AB000EAE4F4E0A7E9B4E001900D928A95E1F7F9
:105AC00061E37DE08AE994E00E94613661E27DE075
:105AD00084EB94E00E9461368CE390E0909399040B
