:1000000003C700001DC700001BC7000019C7000080
:1000100017C7000015C7000013C7000011C7000074
:100020000FC700000DC700000BC7000009C7000084
:1000300007C7000005C700000C944C1D01C7000055
:10004000FFC60000FDC60000FBC60000F9C60000A8
:10005000F7C60000F5C60000F3C60000F1C60000B8
:10006000EFC60000EDC600000D0A436F6E74656EAA
:10007000742D547970653A206170706C6963617495
:10008000696F6E2F782D7777772D666F726D2D756E
:10009000726C656E636F6465640D0A0D0A00436FD0
:1000A0006E74656E742D4C656E6774683A20000D31
:1000B0000A557365722D4167656E743A20626F78D8
:1000C0002F312E310D0A4163636570743A202A2F57
:1000D0002A0D0A000D0A0020485454502F312E31A9
:1000E0000D0A486F73743A2000504F535420000D8E
:1000F0000A557365722D4167656E743A20626F7898
:100100002F312E310D0A4163636570743A20746596
:1001100078742F68746D6C0D0A0D0A0020485454D1
:10012000502F312E310D0A486F73743A2000474525
:100130005420000001080006040001450000820070
:1001400000400020223B3C2F5343524950543E0074
:100150003C484541443E3C534352495054206C6115
:100160006E67756167653D224A61766153637269A6
:100170007074223E746F702E6C6F636174696F6E61
:100180003D22687474703A2F2F00697000536176B5
:1001900065007069006970006F6E005465737400CB
:1001A0006C6F6731006C6F6732006C6F6731007085
:1001B0006100536176650073656E003C48544D4C98
:1001C0003E3C484541443E3C534352495054206CC8
:1001D000616E67756167653D224A6176615363723E
:1001E000697074223E746F702E6C6F636174696FF6
:1001F0006E3D222F223B3C2F5343524950543E0028
:100200006578003C48544D4C3E3C484541443E3C9A
:10021000534352495054206C616E67756167653D68
:10022000224A617661536372697074223E746F7002
:100230002E6C6F636174696F6E3D222F223B3C2FE1
:100240005343524950543E0072656200696E666FB6
:1002500000646576006D656E750066617669636F32
:100260006E2E69636F005D7D002C0D0A00220D0A61
:100270007D00222C0D0A2245223A2200222C0D0A52
:100280002256223A2200222C0D0A224E223A220025
:10029000222C0D0A2254223A2200222530325825DF
:1002A00030325825303258253032582530325825D2
:1002B0003032582530325825303258007B0D0A2212
:1002C00049223A20007B2253656E736F7273223A83
:1002D0005B0D0A00485454502F312E3020323030FC
:1002E000204F4B0D0A436F6E74656E742D747970D8
:1002F000653A206170706C69636174696F6E2F6A12
:10030000736F6E0D0A0D0A0078736F6E0078736F4D
:100310006E006A736F6E006C6700474554202F00B3
:10032000522A2A5400534554520053455451004D0B
:10033000494E490053524348003D2573002625305D
:100340003258253032582530325825303258253031
:100350003258253032582530325825303258002551
:100360003032582530325825303258253032582511
:10037000303258253032580049443D003C2F626FDE
:1003800064793E3C2F68746D6C3E003A003A002060
:10039000646179732000557074696D653A20003C82
:1003A0002F68323E3C2F7072653E3C2F74643E3C99
:1003B0002F74723E3C2F7461626C653E3C62723EEB
:1003C0003C62723E3C6120687265663D2F6C673E00
:1003D0004C6F67696E3C2F613E3C62723E000D0AB5
:1003E000003C2F733E0020003C733E003C74697457
:1003F0006C653E5765624D6574656F426F782D6D13
:10040000696E693C2F7469746C653E3C63656E74FB
:1004100065723E3C68323E3C753E5765624D657480
:10042000656F426F782D6D696E693C2F753E202691
:1004300023393733303B3C2F68323E3C7461626C69
:100440006520626F726465723D303E3C74723E3C62
:1004500074642076616C69676E3D746F703E3C70A9
:1004600072653E3C68323E003C2F613E3C62723E0B
:1004700000207461726765743D72663E0026736980
:10048000643D003C6120687265663D2F73656E3F78
:100490006E756D3D003C68746D6C3E3C626F6479B6
:1004A0003E3C63656E7465723E53656E736F727326
:1004B0003C2F63656E7465723E3C62723E006578E7
:1004C0003F0045786974007265623F005265626F53
:1004D0006F74006C6F67323F004C6F676765722006
:1004E00032006C6F67313F004C6F67676572203177
:1004F0000070613F0050617373776F7264006970C0
:100500003F005443502F4950003C2F613E3C6272E3
:100510003E00207461726765743D72663E007369C7
:10052000643D003C6120687265663D2F003E3C6280
:10053000723E3C62723E3C696E70757420747970D4
:10054000653D7375626D69742076616C75653D53A8
:10055000617665206E616D653D73613E003E3C696C
:100560006E70757420747970653D68696464656E39
:10057000206E616D653D7369642076616C75653DC3
:10058000003C696E70757420747970653D686964AB
:1005900064656E206E616D653D6E756D2076616C73
:1005A00075653D003C62723E43616C63756C6174BD
:1005B00065643C62723E003C62723E4F66667365E3
:1005C000743C62723E006F66003C62723E4375721C
:1005D00072656E742076616C75653C62723E0025B2
:1005E000322E3266003E456E61626C652F4469733F
:1005F0006162653C62723E53656E736F72206E611C
:100600006D653A3C62723E006E610020286D617833
:10061000206C656E203134290020636865636B654A
:1006200064003C2F623E3C62723E3C696E707574A1
:1006300020747970653D636865636B626F78206EC6
:10064000616D653D656E0025303258253032582584
:10065000303258253032582530325825303258251E
:10066000303258253032580049443A203C623E002E
:100670003C666F726D206D6574686F643D6765746C
:100680003E003C534352495054206C616E67756183
:1006900067653D224A617661536372697074223ED8
:1006A000706172656E742E6672616D65735B276C26
:1006B00066275D2E6C6F636174696F6E2E72656C58
:1006C0006F616428293B3C2F5343524950543E00EC
:1006D0003C626F64793E003E5265626F6F743C2FDE
:1006E000613E003C63656E7465723E3C62723E3CE6
:1006F00062723E3C6120687265663D2F7265623FA2
:10070000796573267369643D0046573A20312E316E
:100710002E39202832362E30342E32303136293CD4
:100720002F68746D6C3E004368616E6765642100DC
:10073000223E3C2F666F726D3E006E6577207061C1
:100740007373776F72643A3C666F726D3E3C696E8C
:1007500070757420747970653D74657874206E616D
:100760006D653D6E6577206D61786C656E67746848
:100770003D31343E3C62723E3C696E70757420744B
:100780007970653D7375626D69742076616C75650D
:100790003D4368616E6765206E616D653D636861AC
:1007A0003E3C696E70757420747970653D6869644B
:1007B00064656E206E616D653D7369642076616C61
:1007C00075653D22003C63656E7465723E3C6272E5
:1007D0003E50617373776F72643C666F726D3E3C1E
:1007E000696E70757420747970653D70617373778C
:1007F0006F7264206E616D653D70613E3C62723E59
:100800003C696E70757420747970653D7375626DA6
:1008100069742076616C75653D4C6F67696E206EFA
:10082000616D653D696E3E3C2F666F726D3E3C2F7B
:1008300068746D6C3E003E3C2F666F726D3E3C2FBF
:1008400068746D6C3E00222076616C75653D2253A4
:100850006176652654657374223E3C696E707574CA
:1008600020747970653D68696464656E206E616DA1
:10087000653D7369642076616C75653D003C2F535E
:10088000454C4543543E3C62723E3C62723E3C697C
:100890006E70757420747970653D7375626D6974DE
:1008A000206E616D653D226C73003C2F6F70746922
:1008B0006F6E3E003E002073656C65637465640076
:1008C0003C6F7074696F6E2076616C75653D003C9D
:1008D00062723E506174683C62723E00706174687E
:1008E000003C62723E696E74657276616C3C627245
:1008F0003E3C53454C454354206E616D653D7370DD
:100900003E003C62723E506F72743C62723E0070F8
:100910006F7274000000686F73740020286D617836
:10092000206C656E20323529003E456E61626C6533
:100930002F44697361626C653C62723E486F7374E8
:10094000206E616D653C62723E0020636865636B7A
:100950006564003C696E70757420747970653D63E0
:100960006865636B626F78206E616D653D656E00D2
:100970003C666F726D206D6574686F643D67657469
:100980003E00223E3C696E70757420747970653D3E
:100990007375626D6974206E616D653D616374206D
:1009A00076616C75653D225361766520262052651F
:1009B000626F6F74223E3C2F666F726D3E3C2F68F3
:1009C000746D6C3E003E444843503C62723E3C694C
:1009D0006E70757420747970653D68696464656EC5
:1009E000206E616D653D7369642076616C75653D4F
:1009F000220020636865636B6564003C62723E3C64
:100A0000696E70757420747970653D636865636B99
:100A1000626F78206E616D653D646800006400005F
:100A20000067003C62723E444E5320200000730079
:100A30003C62723E475720202000006D003C6272ED
:100A40003E4D41534B2000253032783A25303278E4
:100A50003A253032783A253032783A253032783AB1
:100A6000253032780049502020200069003C627215
:100A70003E4D41432020003C7072653E3C666F72E3
:100A80006D206D6574686F643D6765743E00256414
:100A90002E25642E25642E2564003C2F6672616D20
:100AA000657365743E3C2F68746D6C3E00206E610A
:100AB0006D653D72663E003C2F6672616D657365C3
:100AC000743E3C6672616D65207372633D2F696E82
:100AD000666F3F7369643D00206E616D653D6C66B5
:100AE0003E003C6672616D65207372633D2F6465E4
:100AF000763F7369643D00206E616D653D6D663EB5
:100B0000003C6672616D65207372633D2F6D656E8A
:100B1000753F7369643D003C68746D6C3E3C667261
:100B2000616D6573657420636F6C733D223137307E
:100B30002C2A223E3C6672616D6573657420726F6B
:100B400077733D223236302C202A22207363726F55
:100B50006C6C696E673D226E6F223E002566006DEB
:100B60006D0025332E316600250025322E316600BA
:100B7000266465673B430025322E326600223E0024
:100B80002076616C75653D22003C696E707574203D
:100B9000747970653D74657874206E616D653D0093
:100BA0003C68746D6C3E3C686561643E3C6D657488
:100BB0006120636861727365743D2277696E646F4A
:100BC00077732D31323531222F3E3C2F68656164B9
:100BD0003E3C626F64793E00485454502F312E30B1
:100BE00020343034204E6F7420466F756E640D0AC9
:100BF000436F6E74656E742D547970653A20746518
:100C000078742F68746D6C0D0A0D0A457272004875
:100C10005454502F312E3020323030204F4B0D0A9B
:100C2000436F6E74656E742D547970653A207465E7
:100C300078742F68746D6C0D0A507261676D613A3B
:100C4000206E6F2D63616368650D0A0D0A003030F8
:100C5000004E6F206E616D6500828282820000000E
:100C60004F586D0205C0A801DEFFFFFF00C0A801BC
:100C700001C0A801010000828282820000004F585A
:100C80006D0205C0A801DEFFFFFF00C0A80101C082
:100C9000A8010100002F7363726970742F6164648E
:100CA0002E706870007765626D6574656F626F782D
:100CB0002E7275002F706F73742E706870006E61E5
:100CC000726F646D6F6E2E7275006E616E00696E6C
:100CD000660000407A10F35A00A0724E1809001006
:100CE000A5D4E80000E87648170000E40B540200A1
:100CF00000CA9A3B000000E1F505000080969800CC
:100D0000000040420F000000A086010000001027F4
:100D100000000000E8030000000064000000000084
:100D20000A00000000000100000000002C76D888B6
:100D3000DC674F0823DFC1DFAE59E1B1B796E5E3C9
:100D4000E453C63AE651997696E8E6C28426EB89E2
:100D50008C9B62ED407C6FFCEFBC9C9F40F2BAA57F
:100D60006FA5F490055A2AF75C936B6CF9676DC117
:100D70001BFCE0E40D47FEF520E6B500D0ED902E1B
:100D80000300943577050080841E080000204E0A79
:100D9000000000C80C333333330F986E12831141B7
:100DA000EF8D2114893BE65516CFFEE6DB18D18482
:100DB0004B381BF77C1D901DA4BBE42420328472A9
:100DC0005E228100C9F124ECA1E53D274E414E4948
:100DD0004E495459494E46CDCCCC3D0AD7233C17F9
:100DE000B7D13877CC2B329595E6241FB14F0A0046
:100DF0000020410000C84200401C4620BCBE4CCA36
:100E00001B0E5AAEC59D740011241FBECFEFD8E053
:100E1000DEBFCDBF11E0A0E0B1E0ECE5FCE702C031
:100E200005900D92A43CB107D9F728E0A4ECB1E0FD
:100E300001C01D92A134B207E1F77DD60C942C3E7F
:100E4000DFC88091D8018F5F8093D8010895DF9229
:100E5000EF92FF920F931F93CF93DF9300D000D0B8
:100E600000D0CDB7DEB77C01D62E86E0E9E1F1E017
:100E7000DE01119601900D928A95E1F78E010F5FC8
:100E80001F4F23E430E0A80164E470E0C7010E9432
:100E90009E14F701128E138E148E158E81E082A798
:100EA00083A796E094A715A686A7D7A6D0AAD1AA0D
:100EB000F296D701AA5BBF4F1192EA17FB07E1F741
:100EC0009701245B3F4FCD0180549109FC01808143
:100ED0008D93A217B307B9F7C7018A5E9E4FF90138
:100EE00011929F01E817F907D1F783E68083F70194
:100EF000E95EFE4F92E89083319693E590833196B8
:100F0000808326960FB6F894DEBF0FBECDBFDF916B
:100F1000CF911F910F91FF90EF90DF900895CF93A5
:100F2000DF93EC0194DFFE01E65EFE4F85E38083F4
:100F3000319681E0808331968083319697E3908368
:100F4000319692E0908331968083319683E080835E
:100F500031968FEF80833196108268EF70E0CE017A
:100F60000E940A1580E0DF91CF9108956D3121E054
:100F7000720700F12AE131E0A9014E5F5F4F461789
:100F80005707C0F4FC01E20FF31FA181AA2391F0DF
:100F90002A0F311DD90111966A177B0758F0E0819D
:100FA000E53329F4FC01E40FF51F808108952E5FDD
:100FB0003F4FE2CF80E00895FC016F3F710591F053
:100FC00088F082AD882379F082AD93ADA4ADB5AD44
:100FD0008093D4019093D501A093D601B093D7010B
:100FE00081E0089580E00895FC016F3F710569F08C
:100FF00060F083A1833449F482A5823031F497A54F
:10100000941303C081E020A9291380E00895FC0116
:101010006F3F710529F020F081E096A5923009F02C
:1010200080E008954F925F927F928F929F92AF924D
:10103000BF92CF92DF92EF92FF920F931F93CF93C5
:10104000DF938B016D31714008F4C8C0E091C40199
:10105000F091C5017090C70140E050E0BA01AAE1EB
:101060004A2E5524539420ED31E0B4E0AB2EA20E6D
:1010700028EC31E0C4E0BC2EB20E2CEC31E0D4E020
:101080008D2E820E92012E5F3F4F2017310750F4B4
:101090006201AFEFCA1ADA0AEC01CC0DDD1DD8816E
:1010A000D11108C0F093C501E093C4017092C7014B
:1010B00081E095C0ED2EF12CCE0CDF1C0C151D052A
:1010C00088F36C01C40CD51CD601CC91C33019F146
:1010D00028F4CC2369F0C13069F07AC0C53309F433
:1010E0005AC0C63309F45CC0C33309F071C024C0D0
:1010F00028016EC0D43009F06BC06C01C20ED31E43
:101100002CEC31E0D6019D906D01D9019D929D019D
:101110008A12F8CF5DC0D43009F05AC06C01C20EFB
:10112000D31E20ED31E0D6019D906D01D9019D9235
:101130009D01AA12F8CF4CC0D43009F041C020E084
:1011400030E0762F652F542F4427F601E20FF31F6E
:10115000E2814E2B2F5F3F4F2430310591F74F3FF7
:10116000BFEF5B076B077B0771F126E0769567950C
:10117000579547952A95D1F74E3FCFEF5C0761050C
:10118000710520F5FA01453051056105710500F53D
:10119000E5E0F0E01DC0EC01C20FD31F788018C05D
:1011A000D430B1F46C01C20ED31E28EC31E0D6016C
:1011B0009D906D01D9019D929D01BA12F8CF08C092
:1011C000E0EAF5E005C0EFEFFFEF02C0EDEFFFEF63
:1011D000B2E0EB0EF11C4E0C5F1C54CF80E0DF91AF
:1011E000CF911F910F91FF90EF90DF90CF90BF9024
:1011F000AF909F908F907F905F904F900895CF9386
:10120000DF93EC0124DEFE01E65EFE4F85E3808382
:10121000319681E08083319683E080838091C8019C
:101220008823A9F086E33196808384E03196808319
:101230008091C8019091C901A091CA01B091CB01E0
:10124000319680839183A283B38369E001C063E018
:101250008091D4018823C9F0CE01860F911DFC0135
:10126000E65EFE4F22E32083319624E02083319610
:101270008091D4019091D501A091D601B091D70170
:1012800080839183A283B3836A5F70E0CE01860F6F
:10129000971FFC01E65EFE4F27E32083319622E094
:1012A0002083319621E02083319623E020833196FC
:1012B0002FEF2083319610826B507F4FCE010E941A
:1012C0000A1580E0DF91CF9108950F931F93CF937C
:1012D000DF93EC018A01BBDD82E08EA7F8018081FB
:1012E0009181A281B3818A8F9B8FAC8FBD8F8081CA
:1012F0009181A281B3818EAB9FABA8AFB9AFFE0144
:10130000E65EFE4F85E38083319681E080833196EF
:1013100083E0808363EF70E0CE010E940A1580E0D5
:10132000DF91CF911F910F910895CF92DF92EF92AD
:10133000FF920F931F93CF93DF931F92CDB7DEB72A
:101340008C017B01498352D6D82E4981882309F428
:1013500068C0E114F104A9F58091000190910101A8
:101360008230910581F481E090E0909301018093B7
:1013700000011092D8014093C6012CD66091C6019D
:10138000C801CDDD4DC0D090D401D11011C0209145
:10139000D801263068F08091C6018F5F8093C60126
:1013A0001092D80117D66091C601C801B8DD39C0C6
:1013B00083309105A8F1019790930101809300017A
:1013C0002FC0C090C6014C2DB701C8010DDED82E2C
:1013D000882339F1B701C8011ADE813009F1B7015C
:1013E000C801C4DD823081F481E090E09093010176
:1013F00080930001B701C801DFDDB701C80112DE2B
:101400006C2DC801FCDE0CC0853051F481E090E009
:101410009093010180930001E3D5DD24D39401C0B2
:10142000D12C8D2D0F90DF91CF911F910F91FF90B7
:10143000EF90DF90CF9008950F931F93009769F07E
:101440000091D4011091D5012091D6013091D7019E
:10145000FC0100831183228333836115710569F0D8
:101460008091CC019091CD01A091CE01B091CF019E
:10147000FB0180839183A283B3834115510569F0F9
:101480008091D0019091D101A091D201B091D3016E
:10149000FA0180839183A283B3831F910F910895F2
:1014A0000F931F93CF93DF938C01EB018091D801B1
:1014B000893088F01092D8018091C4019091C501C3
:1014C0009C01225031092D3F3F4F28F40197909302
:1014D000C5018093C4012097C9F48091C401909103
:1014E000C501039738F582D5882321F16091C601A3
:1014F0006F5F6093C60144ED51E0C801E6DE85E010
:1015000090E09093C5018093C40114C04091C6013E
:10151000BE01C80169DD882381F0BE01C80126DD56
:10152000853041F4BE01C80172DD882319F0BE0187
:10153000C80178DD80E090E001C0CE01DF91CF915D
:101540001F910F91089599B121E030E002C0220F60
:10155000331F8A95E2F7892F90E02823392381E011
:10156000121613060CF080E008950F931F93CF938B
:10157000DF93182F0FB7F8949AB1C1E0D0E001C003
:10158000CC0F8A95EAF79C2B9AB92BB1DC2FD0951A
:101590002D232BB981E090E00E9459328BB1C82BEA
:1015A000CBB98AE68A95F1F700C09AB19D239AB922
:1015B0008AE68A95F1F700C0812FC5DF0FBFDF9162
:1015C000CF911F910F910895AF92BF92DF92EF924A
:1015D000FF920F931F93CF93DF93082FDFB6F894FA
:1015E000C7E0D0E010E0AA24A394B12C92E1E92E48
:1015F00097E2F92E802FA7DF811106C0A89521E080
:10160000E21AF108B9F71EC080E58A95F1F7802F3C
:101610009ADF813039F4C5010C2E01C0880F0A947D
:10162000EAF7182B82E1E82E87E2F82E802F8BDF75
:10163000813031F4A89581E0E81AF108B9F702C0C9
:101640002197A0F6DFBE812FDF91CF911F910F91DF
:10165000FF90EF90DF90BF90AF900895EF92FF92D0
:101660000F931F93CF93DF9300D000D01F92CDB77D
:10167000DEB7F82E10920201F89477DF8093020112
:10168000813009F451C085E88A95F1F7000008E43B
:1016900010E08F2D58DF811108C00150110929F089
:1016A000E2E0EA95F1F700C0F4CF8F2D4CDF811115
:1016B00002C082E01DC0F5EDFA95F1F700008E0141
:1016C0000F5F1F4F75E0E72EE00E8F2D7DDFF801D5
:1016D00081938F01EE12F9CF89814A812B813C8160
:1016E000942F980F920F930F5D81591721F087E384
:1016F0008093020119C090E0982F8827840F911DD4
:101700009093DA018093D901822F8F7790E0982F00
:101710008827830F911D27FF03C09195819591091B
:101720009093DC018093DB0178940F900F900F90E1
:101730000F900F90DF91CF911F910F91FF90EF903D
:1017400008958091E2010895EEEDF1E024E02E0F7E
:101750003191DC013D93CD012E13FACF0895EF9224
:10176000FF920F931F93CF93DF93EC01F62EE72E9A
:101770008A011092E2013AD4811105C084E080937D
:10178000DD0181E069C01092DD018091E3018F5F8E
:101790008093E30190E0BC01706E25E330E04AE302
:1017A00058E0CE010E949E148091E3018BA781E056
:1017B0008CA7FE01BD96CE01C6961192E817F907D7
:1017C000E1F781E08FA7EF2DFE2D9CE04DE04F1952
:1017D000642F6E0F5081262F30E0552391F05E323A
:1017E00041F4DE01A90FB11D81509A968C93962F7A
:1017F00080E05191DE01A20FB31F9A965C938F5F38
:10180000E7CFFE01E90FF11D815082A7FE01E20F33
:10181000F31F12A681E0860FFE01E80FF11D12A64C
:1018200082E0860FFE01E80FF11D81E082A793E0C0
:10183000960FFE01E90FF11D12A694E0960FFE012E
:10184000E90FF11D82A789EF860F8AA76B5F70E011
:10185000CE010E940A1580E0DF91CF911F910F9178
:10186000FF90EF900895CF93DF93FC0166347105EC
:1018700008F468C083A1853309F064C084A1803E68
:1018800009F060C085A19091E30189135BC093A525
:10189000981358C085A58F78803811F081E038C042
:1018A00022A5245F61537109DF01A20FB11D9A9631
:1018B0008C91807C11F02E5F0EC0822F90E08617F5
:1018C000970748F42F5FDF01A20FB11D9A968C9104
:1018D0008111F3CF2F5FDF01A20FB11D9B968C9179
:1018E0009B97813081F088E0820FDF01A80FB11D46
:1018F0009B968C91265F280F822F90E08617970782
:1019000098F283E005C0D3969C91943021F082E058
:101910008093DD0117C0265FCEEDD1E040E050E0BE
:1019200030E0DA01A20FB31FAE0FBF1F9A969C9151
:1019300099934F5F5F4F4430510599F791E0909331
:10194000E20101C080E0DF91CF9108951092E5019E
:101950001092E4010895449845983C983D98089564
:101960003D98F4DF3C9AF2CF3C9AF0DF3D98EEDFF1
:101970003C98ECCFCF93DF93D82FF894C8E03D9AF2
:10198000E5DFD7FF02C03C9801C03C9ADFDF3D98FD
:10199000DDDF359BFECFDD0FC15089F73D9AD6DFE5
:1019A0003C98D4DF3D98D2DFC6B13D9ACFDF789422
:1019B000C295C17081E08C27DF91CF910895EF929D
:1019C000FF920F931F93CF93DF93082FF894C0E0FB
:1019D000D0E010E080E8E82EF12C3D9AB7DF3D988A
:1019E000B5DF359BFECF349B08C0C7010C2E02C06B
:1019F000959587950A94E2F7182B2196C830D10562
:101A000061F73D9AA3DF002311F03C9A01C03C9896
:101A10009DDF3D989BDF3D9A99DF3C987894812F1C
:101A2000DF91CF911F910F91FF90EF900895CF9389
:101A3000DF93C82F95DF8EEE9DDF8C2F9BDF90DF2D
:101A40008FEE98DF81E0BBDFD82F80E0B8DFC82FB2
:101A50008BDF8C2F90E09D2BDF91CF91089580DF5D
:101A60008EEE88DF84EF86DF8EE284DF7DDF85E027
:101A700090E00E94593286EFDADFBC0180E090E00E
:101A80000895AF92BF92CF92DF92EF92FF921F9391
:101A9000CF93DF931F92CDB7DEB75C0161DF8EEE8F
:101AA00069DF84EF67DF84EF65DF5EDF8AE190E066
:101AB0000E94593255DF8EEE5DDF86EF5BDF50DF2F
:101AC0008FEE58DF81E07BDFC82E81E078DF182FB2
:101AD00080E075DF898348DF4C2D50E060E070E0E6
:101AE0007A01DD24CC24412F50E060E070E0762FB5
:101AF000652F542F44274C0D5D1D6E1D7F1D898160
:101B0000480F511D611D711D25E07595679557950D
:101B100047952A95D1F7F5014083518362837383FA
:101B20000F90DF91CF911F91FF90EF90DF90CF90BA
:101B3000BF90AF9008951092320210923102F89443
:101B40009FE088E10FB6F894A895809360000FBEDF
:101B5000909360000E943C31189903C080E00E947D
:101B60005E318AEF90E00E945932A8950E94383287
:101B7000109278031092A6031092D40310920204DC
:101B8000109230044FE050E060E570E086ED94E0A4
:101B90000E94DC3D2091330430913404A4E6B0E08F
:101BA0000E943B39609311017093120180931301DD
:101BB0009093140120918004309181040E943B395C
:101BC00060930D0170930E0180930F0190931001AB
:101BD000C2DEC6DE8AEA2BDF9093D5048093D4045C
:101BE0008CEA25DF90930705809306058EEA1FDFB8
:101BF00090931D0880931C0880EB19DF90930F05CC
:101C000080930E0582EB13DF909305058093040506
:101C100084EB0DDF909301058093000586EB07DFD1
:101C20009093E6048093E50488EB01DF9093D3045E
:101C30008093D2048CEBFBDE90931105809310050A
:101C40008EEBF5DE90930D0580930C0568E075E052
:101C500082E095E00E94A81B892B69F480912D05F4
:101C60009EE2899FF0011124E45BFC4F92E194A76E
:101C70008F5F80932D0580E40E94D81980E80E9430
:101C8000D8194DE255E066E080E40E94011B4DE268
:101C900055E067E080E80E94011B8FEE92E00E9411
:101CA00059320E942331789480913E088F3F91F5FC
:101CB00088E298E01DD36DE275E08EEE92E0D8D117
:101CC00010921B0840912D08BC018DE295E02DDBA0
:101CD000C82F81E00E94EA1ACC2369F346E358E05A
:101CE00062E378E08EE298E0A7DB8091360890917D
:101CF0003708A0913808B091390880933A0890933A
:101D00003B08A0933C08B0933D0862E378E08EE284
:101D100098E0F9D26EE278E088E298E0A3D580E519
:101D200090E0B1D563D1811102C00E942331A89502
:101D30000E94DC270E94471FF5CF2A98962F9F719B
:101D4000892B8EBD0DB407FEFDCF1EBC0DB407FE62
:101D5000FDCF67FD03C02A9A8EB508951EBC0DB451
:101D600007FEFDCFF8CF2A986F71862B8EBD0DB47C
:101D700007FEFDCF4EBD0DB407FEFDCF2A9A089594
:101D8000FB012A982AE32EBD0DB407FEFDCF8E0F6E
:101D90009F1FE817F90739F01EBC0DB407FEFDCFF1
:101DA0002EB52193F6CF10822A9A08952A982AE711
:101DB0002EBD0DB407FEFDCF860F971F681779075C
:101DC00041F0FB012191BF012EBD0DB407FEFDCFF7
:101DD000F5CF2A9A08951F93CF93DF93182F10768B
:101DE000C12FD0E02091E80130E0C217D30779F08D
:101DF00043E06FE180EAB7DFAE0185E05595479596
:101E00008A95E1F76FE180E8AEDF1093E801DF919A
:101E1000CF911F910895CF93DF931F92CDB7DEB777
:101E2000682F6983D8DF698180E00F90DF91CF91BF
:101E300084CF1F93CF93DF931F92CDB7DEB7182FB8
:101E40006983C9DF4981612F80E40F90DF91CF91D1
:101E50001F9189CFCF93682F84EDEBDF61E082ED96
:101E6000E8DF8AEED8DF80FDFCCF60E082EDE1DFC5
:101E700089EDD1DFC82F88EDCEDF2C2F30E0322F57
:101E80002227A901482BCA01CF9108951F93CF9310
:101E9000DF931F92CDB7DEB7162F682F84ED7983BD
:101EA000C8DF612F86EDC5DF7981672F87EDC1DF40
:101EB00018E28AEEB0DF80FF04C0812F8A95F1F727
:101EC000F8CF0F90DF91CF911F910895CF93DF93BB
:101ED000EC01229A2A9A84B1886284B924982B98BA
:101EE0002D9880E58CBD8DB581608DBD4FEF60E094
:101EF0008FEF39DF80E090E00197F1F71092E70172
:101F00001092E60160E088E094DF60E089E091DF14
:101F100060E08CE08EDF60E08DE08BDF6FEF8AE0C9
:101F200088DF69E18BE085DF60E084E082DF6AE1E1
:101F300085E07FDF6FEF86E07CDF6FE187E079DFB0
:101F400060EB88E376DF6FE388E273DF60E389E2CA
:101F500070DF69EF80E36DDF67EF81E36ADF6DE0DB
:101F600080EC67DF60E081EC64DF42E362EC80E8F4
:101F7000FADE62E186EC5DDF6CE087EC5ADF62E15D
:101F800084EC57DF6CED8AEC54DF65E08BEC51DFBD
:101F9000688184EE4EDF698185EE4BDF6A8182EED7
:101FA00048DF6B8183EE45DF6C8180EE42DF6D811F
:101FB00081EE3FDF60E071E080E168DF8FE10BDF01
:101FC00040EC6BE180E8CFDE44E06FE180E8DF9138
:101FD000CF91C9CE88E31FDF682F616088E329CFE6
:101FE00088E319DF682F6E7F88E323CF81E132DF3A
:101FF00092FB882780F908950F931F93CF93DF9367
:10200000EC018B016FE180E098DE83FDFBCF8CE17A
:1020100002DF81FF10C040E86FE180E8A4DE40E805
:102020006FE180EAA0DE42E06CE180EA9CDE80E3C2
:1020300095E70197F1F760E082E0FBDE6AE183E07B
:10204000F8DE6C2F86E0F5DECE01965E692F87E024
:10205000F0DE40E060E08AE786DEB801CE01A6DE71
:1020600048E06FE180E8DF91CF911F910F917BCE27
:102070009F92AF92BF92CF92DF92EF92FF920F9317
:102080001F93CF93DF936C017B0189E3C4DE882328
:1020900009F44EC06091E601C091E70180E0C9DE1D
:1020A0006C2F81E0C6DE60E08AE347DE082F60E047
:1020B0008AE343DE10E0182B1093E7010093E6015A
:1020C00060E08AE33ADEC82F60E08AE336DE982ECD
:1020D00060E08AE332DEA82E60E08AE32EDEA7FE0F
:1020E0000EC0960121503109D0E0D92924972C1730
:1020F0003D0708F4E901B701CE0142DE02C0C0E0AD
:10210000D0E06FEF01308AE1180724F08CE091DE17
:1021100069E106C0600F8CE08CDE01501109612F6F
:102120008DE087DE40E46EE180E81DDECE0102C076
:1021300080E090E0DF91CF911F910F91FF90EF90A1
:10214000DF90CF90BF90AF909F900895CF92DF9295
:10215000EF92FF920F931F93CF93DF937A01690160
:1021600090910102891759F0E091FE01F091FF0171
:1021700040E050E060E070E084EF91E03EC061112B
:102180003DC02D303105D0F10091FE011091FF01CD
:102190000115110599F1C091F201D091F301C40F1D
:1021A000D51F888590E00E94893A892B09F1A9857D
:1021B000B0E0D097AA30B105D8F48B8590E0C097F5
:1021C0008A309105A8F46AE06A9FA0016B9F500DC8
:1021D00011243A85232F30E020533109240F351F75
:1021E000629FA001639F500D1124840F951F02C0B0
:1021F00080E090E0A601B701F801099580E0DF9149
:10220000CF911F910F91FF90EF90DF90CF900895A5
:10221000CF92DF92EF92FF920F931F93CF93DF93B2
:102220007C01FB01413051F4AB014850510960E0A1
:1022300070E04F5E5F4F6F4F7F4F0FC0423051F4E1
:10224000AB014850510960E070E04A5F5F4F6F4F4B
:102250007F4F03C040E050E0BA01D70111966F01F3
:1022600082E0C816D104B0F0CD010197EC010881DD
:1022700010E020E030E0322F212F102F00278C912A
:10228000082B400F511F621F731FD2E0CD1AD108D7
:102290001296E6CFCF018E7FD701A80FB91FE0FFBE
:1022A0000CC08C9190E0A0E0B0E0BA2FA92F982F3D
:1022B0008827480F591F6A1F7B1F8B01222733274E
:1022C000011511052105310539F066277727400FE3
:1022D000511F621F731FF1CFCA0180959095DF9146
:1022E000CF911F910F91FF90EF90DF90CF900895C5
:1022F000FC01892B39F096E0AAE1B2E001900D9241
:102300009A95E1F70895009721F46115710559F444
:102310000895FC01A6E1B2E084E08A0F91919D93BB
:102320008A13FCCFF2CFFB01A4E0B1E084E08A0F76
:1023300091919D938A13FCCF0895DC015A96FB017D
:102340004E963D912191321305C0A817B907C9F7E0
:1023500081E0089580E0089569327105A0F0FC01E4
:102360002485283081F42585263069F4B696A6E1C7
:10237000B2E084E08A0F21919D91291304C08A1351
:10238000FACF81E0089580E00895FC016A3271057A
:10239000B0F08485883099F48585811110C09685C8
:1023A000953471F47E96A6E1B2E094E09A0F3191F3
:1023B0002D91321305C09A13FACF81E0089580E081
:1023C0000895CF93DF93AAE1B2E09C012A5F3F4FCB
:1023D000F9014081EC014993CE014D914193C2171F
:1023E000D307B9F7DF91CF910895CF93DF93EC0135
:1023F000188E198E80E48C8B1D8A8E8B40E064E1F0
:1024000070E0CE010E9604DF988F898FDF91CF9117
:102410000895CF93DF93EC016E96DC015A96E6E1C6
:10242000F2E024E02E0F3C91399331913D932E132D
:10243000FACFDF91CF91D9CF9C01265D3F4FFC01B0
:10244000BE96D9018E91680F711D829160834423DD
:1024500011F08C9301C01C92672F7727E217F307C6
:1024600089F70895CF93DF93EC018CA19AA19CA3E7
:102470008AA38DA19BA19DA38BA3CE01DDDF1AAA08
:102480001BAA80E58EA7DF91CF910895CF93DF93AC
:10249000EC0197DF1C8A82E08D8BCE018096DE01F5
:1024A00056964AE152E026E0240F3C91FC0131931C
:1024B000CF01FA013191AF013D932E13F6CFCE013A
:1024C0008696DE015C9646E152E024E0240F3C91C2
:1024D000FC013193CF01FA013191AF013D932E13ED
:1024E000F6CFBE018AE290E0DF91CF9185CD0F93C8
:1024F0001F93CF93DF93EC018B0163DFCE0189DF64
:102500001AA29CA1983F18F02DA12F5F2DA3985FD0
:102510009CA3BE01C801DF91CF911F910F916CCD9B
:10252000FC01208930E0322F22278189282B245179
:10253000310986A582958F70A90164E0869F4019B4
:1025400051091124CA0157FF02C080E090E00895AC
:102550009C01CB01FC01E61BF70BE40FF51FE49196
:10256000EE2339F0D901A80FB91FD696EC93019646
:10257000F1CF0895DB01D696A80FB91FFA01420FDB
:102580004E1719F081918D93FBCFCB01820F911DD6
:102590000895FA0101900020E9F731979F01241B6B
:1025A000350BE8CFEF92FF920F931F93CF93DF93FA
:1025B00000D000D01F92CDB7DEB7909101028913F1
:1025C00092C0809100020091F2011091F3018111FB
:1025D00026C04EE251E060E070E0C801B9DF4091F2
:1025E000F8015091F901BC01C801B2DF4091F60138
:1025F0005091F701BC01C801CCDF4CE151E0BC01B6
:10260000C801A6DF4091F4015091F501BC01C80159
:102610009FDF4FEE50E0BC01C8019ADF66C049EE73
:1026200050E060E070E0C80193DF4091F801509104
:10263000F901BC01C801ADDF4091F6015091F701ED
:10264000BC01C801A6DF47ED50E0BC01C80180DF36
:102650004091F4015091F501BC01C8019ADFE0906E
:10266000FC01F090FD01E114F10449F044ED50E06B
:10267000BC01C8016DDFA701BC01C80169DF4FEAD9
:1026800050E0BC01C80164DF4EE950E0BC01C80164
:102690005FDF7C01A091FA01B091FB01FD01019087
:1026A0000020E9F731974AE0BE016F5F7F4FCF010D
:1026B0008A1B9B0B0E940B3B0091F2011091F301CE
:1026C000AE014F5F5F4FB701C80163DF48E650E0DE
:1026D000BC01C8013DDF4091FA015091FB01BC01F2
:1026E000C80157DF02C080E090E00F900F900F907C
:1026F0000F900F90DF91CF911F910F91FF90EF906E
:1027000008950F931F93CF93DF9300D01F92CDB7FF
:10271000DEB78C014B8369837A8353DE4B81842F30
:102720008061F80187A769817A81443029F06115B9
:10273000710511F461E070E041E0C80193DEF80139
:10274000108A88E2818BC80164DE84E0F80180ABE6
:1027500011AA42E06CE170E0C8014A9659DDF80127
:1027600092AB83ABB80186E390E00F900F900F908F
:10277000DF91CF911F910F913FCC0F931F93CF9378
:10278000DF93EC018B01CB018896988B898BCE016E
:102790002CDE1AAA1BAAB801645E7F4F42E0CE016C
:1027A0004A9636DD9AAB8BABBE01C801C696DF9167
:1027B000CF911F910F9120CCCF92DF92EF92FF9299
:1027C0000F931F93CF93DF9300D0CDB7DEB76C018B
:1027D000F42EE52E69837A83F4DD6981062F7A81F0
:1027E000172F0D3D110510F00CED10E0F601108AC9
:1027F000C8014C96818BC6010CDEF60182A184A330
:1028000083A185A3E2A2F3A216A2C801089687A31A
:1028100010A611A6B801605F7F4F41E0C6014A963D
:10282000F7DCF60190A781A7B601C8018A960F9040
:102830000F90DF91CF911F910F91FF90EF90DF905C
:10284000CF90DACBFB01BC01665D7F4FDB015A2FD5
:10285000561B541718F451915D93F9CF642F70E013
:10286000A901AACF6115710519F4009759F40895CB
:10287000FB01A6E1B2E024E02A0F31913D932A1337
:10288000FCCFF3CF35CD9093EB01809308010895F1
:10289000CF93DF93EC0195DD188A8CE2898BCE0112
:1028A000B8DD82E18FA740E061E070E0CE01DADDC3
:1028B0001EA21FA280910C0188A719A68D5F80938C
:1028C0000C0182E08EAB84E08FAB85E088AF19AE5F
:1028D00080E68EA78AE088AB19AA42E060E270E049
:1028E000CE014A9695DC9AAB8BABBE018AE390E0B1
:1028F000DF91CF9181CB0F931F93CF93DF93EC01A7
:102900008B016091E9017091EA0140E0FADE89E112
:102910008FA7B801CE01DF91CF911F910F912DCFDD
:10292000640F751F4617570741F0FA012491FC0107
:102930002193CF014F5F5F4FF5CF0895AF92BF92C4
:10294000CF92DF92EF92FF920F931F93CF93DF937B
:1029500000D0CDB7DEB75C01F62EE72E6A01B501D7
:102960006A5F7F4FEAE1F2E046E04E0FD8015D91E9
:102970008D01DC015D93CD015191DB015D93BD01C2
:102980004E13F4CF88E0F501848715864BE351E0C0
:1029900069E070E0C5010E9629833A83C1DF80911A
:1029A0000301D50153968C9353978F5F8093030156
:1029B00050961C92509781E157968C938601C501E1
:1029C0004E96E6E1F2E044E04E0F3A812981D801CB
:1029D0005D918D01DC015D93CD015191BD0165508B
:1029E0007109DB015C934E13F2CFF50134A325A3EB
:1029F000E2A2F3A216A210A611A60F900F90DF91EB
:102A0000CF911F910F91FF90EF90DF90CF90BF90EB
:102A1000AF9008950F931F93CF93DF93EC018B0139
:102A2000CB014C96898B988BCE01DFDCC8010896D0
:102A30008FA39EA3B801605F7F4F41E0CE014A960D
:102A4000E7DB89A798A7BE01C8018A96DF91CF91DD
:102A50001F910F91D1CAEF92FF920F931F93CF93C3
:102A6000DF9320911602222309F44CC0EC012AE1E5
:102A7000E22E22E0F22EDC011696F7014FEF26E05F
:102A80002E0D499331913D932E13FBCF8B01EC0119
:102A900088E08C8786E08D8743E351E068E070E052
:102AA000CE010E963DDFAE01405E5F4FDE01969691
:102AB000F70121917F01CA010A97FC012083FA01E5
:102AC0001192AF01EA17FB0799F7C80166E172E0BE
:102AD00024E0260FFC013191CF013D93FB013191A0
:102AE000BF01AD014B505109FA0130832613F2CFDB
:102AF000BE018AE290E0DF91CF911F910F91FF908C
:102B0000EF907ACADF91CF911F910F91FF90EF90D4
:102B1000089581E09091ED01923009F480E00895EC
:102B20005093CD044093CC0421E02093ED016093B9
:102B3000EC01EEEEF1E024E02E0FDC013D91CD0141
:102B400031932E13FACF0895FF920F931F93CF93D3
:102B5000DF93EC01162F042FF52E9C018AE192E001
:102B6000BE016A5F7F4FE9E0F2E046E04E0F51910F
:102B7000D9015D939D01DC015D91CD01DB015D9388
:102B8000BD014E13F4CF88E08C871D864BE351E0E6
:102B900069E070E0CE010E96C3DE8CE2898B8091F5
:102BA00003018B8B8F5F8093030186E08F8BDE01A7
:102BB0005E9686E192E06FE072E024E0260FFB0172
:102BC0003191BF013D93FC013191CF01AD014550E1
:102BD0005109FA0130832613F2CFCE0106DCFCA2A4
:102BE0000DA38BE08AA31BA3FE01B696CE018E96A1
:102BF0001192E817F907E1F780910C0188A78D5F22
:102C000080930C0180E68EA782E08FA793E098ABBB
:102C100019AA1AAA1BAA1CAA1DAA8EAB94E09FABE4
:102C200088AF8EEE89AF42E060E270E0CE014A9656
:102C3000EFDA9AAB8BABBE018AE390E0DF91CF91E4
:102C40001F910F91FF90D8C90F931F939093050286
:102C5000809304027093030260930202D901EFE0B3
:102C6000F2E084E08E0F9D9191938E13FCCFD801FA
:102C7000E9E0F2E086E08E0F9D9191938E13FCCFF8
:102C8000509307024093060281E0809308028091EE
:102C900013028F5F883018F48093130202C01092E1
:102CA0001302809113021F910F9108952F923F926A
:102CB0004F925F926F927F928F929F92AF92BF924C
:102CC000CF92DF92EF92FF920F931F93CF93DF93F8
:102CD00000D0CDB7DEB73C011B012A0129833A831E
:102CE00085D929813A81882329F17092F90160926E
:102CF000F8015092F5014092F4013092F7012092D0
:102D0000F6013093FD012093FC011093FB01009329
:102D1000FA0181E080930002F092FF01E092FE014F
:102D200085019601A40162ED72E186EA90E18CDFF3
:102D3000809301020F900F90DF91CF911F910F911F
:102D4000FF90EF90DF90CF90BF90AF909F908F90CB
:102D50007F906F905F904F903F902F900895AF922B
:102D6000BF92DF92EF92FF920F931F93CF93DF9367
:102D70001F92CDB7DEB75C017B016115710509F0CB
:102D80004EC08091ED01893069F4809109019091E4
:102D90000A01892B39F42AD9882321F06EEE71E0DB
:102DA000C50159DE8091ED01813081F41FD988235E
:102DB00069F06EEE71E0C5014EDE8091ED01886034
:102DC0008093ED0110920A0110920901809109018E
:102DD00090910A01019690930A01809309018091D4
:102DE0000802813009F066C101D9882309F462C163
:102DF00082E08093080260910B016F5F60930B018A
:102E000040910602509107026F718091130220E2F7
:102E1000829FC0011124682BC50196DE4BC19CDA4C
:102E2000882351F1D50155968C91813011F4C5015B
:102E30002DDB8091ED0183FF3DC1F5011589123035
:102E400009F038C144E050E06EEE71E0C5014C96E7
:102E50000E94B93A892B09F02DC1A5014A5E5F4F46
:102E6000E091CC04F091CD046091EC018EEE91E004
:102E700009951093ED011EC1B701C50186DA8823BB
:102E800009F418C1D50157968C915797813091F468
:102E900092968C91883009F00DC1E0911402F09166
:102EA0001502309719F0C5014A960995B701C50179
:102EB0001EDB00C1B6E3EB16F10408F4FBC086305C
:102EC00009F0F8C0F50184A18B3009F0C1C0B092BF
:102ED000F301A092F2016FE072E0C5012EDA8823BF
:102EE00009F4E8C0D5019F962C919F9722FF13C04B
:102EF000E0910402F0910502309759F095968C917B
:102F000020E030E040E050E063E0829586958770F5
:102F1000099586E092C0C501298302DB8C0180916E
:102F200008022981823089F5822F80712271223135
:102F3000F9F440E060E070E0C501E3DB88E1F50111
:102F400087A7E0910202F0910302309741F0D5018A
:102F500093968C91829586958770099502C080E042
:102F600090E023E020930802BC01C50106DCA2C06A
:102F700091E090930802811104C0B8016F5F7F4F08
:102F800002C060E070E044E060C08330A9F5011544
:102F9000110591F184E080930802E0910402F09120
:102FA0000502309749F1D5019E964C9142954F709C
:102FB000B4E04B9FA0011124C70108974E5D5F4FFD
:102FC0008417950708F4AC01C801840F951FE81613
:102FD000F90620F49701241B350B01C09801D50197
:102FE00095968C9160E082958695877009958823E7
:102FF00019F049E0B8011EC090910802F50187A5BB
:10300000953019F484FD85CF55C0963069F484FD60
:1030100004C0B8016F5F7F4F02C060E070E044E021
:10302000C5016FDB87E009C080FF0AC0B8016F5F90
:103030007F4F41E0C50165DB85E0809308023AC01F
:1030400001151105B9F140E0B801C5015ADB32C0E4
:103050009091EB0189132EC095A1809108019813DE
:1030600029C0D7A4D1FE03C0C50112DC23C0D4FE01
:1030700021C0C50155DA8C019093EA018093E901E2
:10308000892B41F4D0FE16C040E060E070E0C5013D
:1030900038DB12C0F50106A502950F70F4E00F9F12
:1030A000800111240E5D1F4F28E0E21AF108E0169E
:1030B000F10610F400E010E0C8010F90DF91CF910D
:1030C0001F910F91FF90EF90DF90BF90AF90089508
:1030D00098E028E1362F382730FD02C0669503C0FE
:1030E00062276695606886959150A1F7862F0895AE
:1030F000EF92FF920F931F93CF93DF93EC017C012C
:1031000087E0E80EF11C8E0160E0F80181918F01EB
:10311000DFDF682F0E151F05C1F781E09F8169135E
:1031200001C080E0DF91CF911F910F91FF90EF9050
:103130000895EF92FF920F931F93CF93DF93EC01CB
:103140007C0188E0E80EF11C8E0160E0F8018191BD
:103150008F01BEDF682F0E151F05C1F781E098852E
:10316000691301C080E0DF91CF911F910F91FF9013
:10317000EF9008951F93CF93DF93D82F162FC8E0B9
:10318000812FD0FF02C022D101C039D1D695C150C4
:10319000B9F7DF91CF911F9108951F93CF93DF93DC
:1031A000182FD8E0C0E0C695812F42D18111C068A8
:1031B000D150C9F78C2FDF91CF911F910895682FBF
:1031C0008CECD8CFCF92DF92EF92FF921F93CF93E8
:1031D000DF931F92CDB7DEB7F82E162F85E59983C2
:1031E000C9DFCF2C9981D92E760188E0E80EF11C39
:1031F000612FF60181916F01BDDF81E090E00E94B7
:103200005932CE14DF04A1F70F90DF91CF911F91B7
:10321000FF90EF90DF90CF900895CF92DF92EF92E2
:10322000FF920F931F93CF93DF938C01D62EE42E42
:10323000642F80EF9FDFC1E0F12CD1E08E2DF8D01C
:10324000C82E8E2DF5D0CC2039F0811131C0F80177
:1032500080818C2B808319C0F8019081882321F014
:103260008C2F8095982303C0DD1104C09C2BF8019E
:1032700090830BC0DD1630F48C2F80959823F801D5
:10328000908302C09C2309F4FD2EF80180818C23D9
:1032900019F08E2D9BD002C08E2DB1D0DF5FCC0FE8
:1032A00019F40F5F1F4FC1E0D13441F68F2D01C0DB
:1032B0008FEFDF91CF911F910F91FF90EF90DF90F3
:1032C000CF9008956F927F928F929F92AF92BF920C
:1032D000CF92DF92EF92FF920F931F93CF93DF93E2
:1032E0001F92CDB7DEB75C01062F942E69013C0119
:1032F00084E0680E711C930180E0801761F0A901E1
:10330000485F5F4FF9011192E417F507E1F78F5F0E
:10331000225D3F4FF2CF7301F30110E060E088E0DF
:10332000882E1017F9F0A895D701882D01900D92DD
:103330008A95E1F7892D69839BD06981882329F1DA
:10334000492DC7016ADF682F1F5FD5019EE2199FD3
:10335000A00DB11D11241496F701882311F07D01F1
:10336000E0CF012F10E0101771F0A895C301C0DE67
:10337000EEE26E0E711C81110AC0F60180818F5F32
:1033800080831F5FF0CF80E003C08FEF01C081E03A
:103390000F90DF91CF911F910F91FF90EF90DF90F1
:1033A000CF90BF90AF909F908F907F906F90089537
:1033B0009AB1809598239AB99BB189238BB98BEBED
:1033C00093E00197F1F700C0000008952FB7F8943B
:1033D0009AB1982B9AB99BB1809598239BB99AE0A2
:1033E0009A95F1F700C09AB198239AB99BB18923B5
:1033F0008BB985EA8A95F1F700002FBF08952FB7A2
:10340000F8949AB1982B9AB99BB1809598239BB95F
:103410009AE99A95F1F700C09AB198239AB99BB1AD
:1034200089238BB985E18A95F1F700002FBF0895B4
:103430003FB7F8949AB1982B9AB99BB1282F209551
:1034400092239BB99AE09A95F1F700C09AB1922322
:103450009AB99BB192239BB922E12A95F1F700C05A
:1034600099B12DE82A95F1F700003FBF892308950F
:103470003FB7F8949AB1982B9AB99BB1282F209511
:1034800092239BB9EBEBF3E03197F1F700C000001A
:103490009AB192239AB99BB192239BB9F5EBFA9515
:1034A000F1F7000099B1EFE2F3E03197F1F700C0D6
:1034B00000003FBF909589230895883C910529F429
:1034C000809123028F5F80932302809130028230AB
:1034D00019F483E0809330020895613049F4DA01F1
:1034E000EAE2F2E086E08E0F9D9191938E13FCCF7D
:1034F0000895CF92DF92EF92FF920F931F93CF9395
:10350000DF9300D000D01F92CDB7DEB78C01FC0155
:1035100010821182128213827B0120E090E0F70179
:1035200081917F01882361F12430D8F5933090F4A4
:10353000482F50E0405351094A30510548F4E1E02A
:10354000F0E0EC0FFD1FE90FF11D80839F5F02C0CB
:10355000992329F38E3219F7E1E0F0E0EC0FFD1F1B
:10356000E90FF11D10826801C20ED11CCE01019637
:103570002D830E949439F60180832D812F5FCECF59
:10358000233079F4E1E0F0E0EC0FFD1FE90FF11DCD
:103590001082CE0101960E949439F801838380E065
:1035A00001C081E00F900F900F900F900F90DF916E
:1035B000CF911F910F91FF90EF90DF90CF900895E2
:1035C00081E04D9B80E00895813011F45D9A08956B
:1035D0005D980895CF93DF93D82FC0E0CD1771F099
:1035E0005D9A82E390E00E94593280E0EDDF82E351
:1035F00090E00E945932A895CF5FF0CFDF91CF9134
:1036000008959F92AF92BF92CF92DF92EF92FF9276
:103610000F931F93CF93DF931F92CDB7DEB7F82E92
:10362000E62E8A01DA018C9165E0681BBEE28B9F71
:10363000C00111249E012F5F3F4F4F2D845B9C4F93
:1036400041DEF801D0808EE2C82E90E1992EAD2C9B
:10365000B12C8981D8012C9130E0280F311DA216A0
:10366000B306ECF46D2D8F2D0E94E532CA9CF0015B
:10367000CB9CF00D1124E45BFC4F86A18F3721F029
:103680006D2D8F2D0E942A33CA9CF001CB9CF00D2A
:103690001124E45BFC4FF3A694A6D394D8CF8111F8
:1036A00040C08E2D0E942E0B8AEF90E00E9459326E
:1036B000A8958AEF90E00E945932A8958E2D0E941D
:1036C0002E0B80910201811135C0D801EC914EE2A0
:1036D0004E9FF0011124E45BFC4FE3A62C9130E0F7
:1036E0002F5F3F4F429FF001439FF00D1124E45B99
:1036F000FC4FE3A6EC914E9FF0011124E45BFC4FDC
:1037000021E124A78C9190E00196489FF001499F08
:10371000F00D1124E45BFC4F24A78C918E5F8C93F9
:1037200009C08F2D0E9464328981F8019081980F21
:10373000908301C080E00F90DF91CF911F910F9196
:10374000FF90EF90DF90CF90BF90AF909F90089543
:103750004F925F926F927F928F929F92AF92BF92A1
:10376000CF92DF92EF92FF920F931F93CF93DF934D
:10377000CDB7DEB728970FB6F894DEBF0FBECDBF2A
:103780002091D4043091D5042F3F3F4F81F42091F4
:103790000605309107052F3F3F4F49F420911C0843
:1037A00030911D082F3FEFEF3E0709F45DC18B01FB
:1037B0007C010E942F0D4B015C01CE0101960E94FD
:1037C000410D8091000590910105A5019401281BF0
:1037D000390B41095109A0910405B09105050E94DA
:1037E0004A394B015C01FFE0B594A7949794879404
:1037F000FA95D1F76091100570911105CB01770F03
:10380000AA0BBB0BBC01CD01ABE0660F771F881F75
:10381000991FAA95D1F720910C0530910D0529012A
:10382000330F66087708A5019401240D351D461D48
:10383000571D0E941F39820E931EA41EB51ED5016E
:10384000C4010896A11DB11D24E0B595A7959795D3
:1038500087952A95D1F7F7019183808375016401DB
:10386000F0EACF1AFFE0DF0AE108F108A7019601AC
:10387000C701B6010E94EE389B01AC016CE0559582
:103880004795379527956A95D1F72D833E834F83CA
:1038900058878090D4049090D504A0911C08B091D2
:1038A0001D08A70196010E9454392B013C017DE0BF
:1038B00075946794579447947A95D1F7A091E5044D
:1038C000B091E6042D813E814F8158850E94543984
:1038D000BB2797FDB095AB2F840D951DA61DB71D79
:1038E0000296A11DB11DF2E0B595A7959795879514
:1038F000FA95D1F79C01AD0130584F4F5F4FA09121
:103900000E05B0910F050E944A392B013C01AFE032
:103910007694679457944794AA95D1F7092C000C94
:10392000AA08BB08B2E0880C991CAA1CBB1CBA955B
:10393000D1F732E0830E911CA11CB11CA091D204DE
:10394000B091D3042D813E814F8158850E94543916
:103950009B01AC018BE055954795379527958A9546
:10396000D1F72D833E834F835887A0910605B091F0
:103970000705A70196010E945439DC01CB012BE019
:10398000B595A795979587952A95D1F72D813E8175
:103990004F815885820F931FA41FB51F880E991E53
:1039A000AA1EBB1E880C991CAA1CBB1C89819A816B
:1039B000AB81BC819C01AD01281939094A095B0919
:1039C000AAE6B8E10E944A3997FD0BC0660F771F3F
:1039D000881F991FA30192010E94FD3869017A0195
:1039E0000AC0A30192010E94FD3869017A01CC0C42
:1039F000DD1CEE1CFF1C9927F7FC9A958F2D7E2D60
:103A00006D2D9B01AC010E94EE389B01AC01AEED27
:103A1000BBE00E944A394C01BB2497FCB094AB2C0C
:103A2000A3E4B3EEA70196010E945639BB2797FD88
:103A3000B095AB2F880D991DAA1DBB1D8153914FC9
:103A4000AF4FBF4F44E0B595A795979587954A9599
:103A5000D1F78C0D9D1DAE1DBF1DF8018083918394
:103A6000A283B38320E030E0C90128960FB6F89412
:103A7000DEBF0FBECDBFDF91CF911F910F91FF90A1
:103A8000EF90DF90CF90BF90AF909F908F907F90FE
:103A90006F905F904F9008951F920F920FB60F9204
:103AA00011242F933F934F935F936F937F938F9343
:103AB0009F93AF93BF93EF93FF93809146039091B1
:103AC0004703A0914803B09149030196A11DB11D80
:103AD0008093460390934703A0934803B093490310
:103AE000809120028F5F843618F48093200214C0E6
:103AF00010922002809122028F5F80932202809197
:103B000021028F5F8093210280912102863020F074
:103B1000109221020E94210780913803813011F513
:103B200080913E0390913F03A0914003B0914103E7
:103B3000892B8A2B8B2BA1F080913E0390913F0320
:103B4000A0914003B09141030197A109B10980936D
:103B50003E0390933F03A0934003B093410302C000
:103B60001092380380913703813011F580913A0328
:103B700090913B03A0913C03B0913D03892B8A2B8C
:103B80008B2BA1F080913A0390913B03A0913C03D1
:103B9000B0913D030197A109B10980933A03909335
:103BA0003B03A0933C03B0933D0302C01092370344
:103BB00080913903813011F5809142039091430344
:103BC000A0914403B0914503892B8A2B8B2BA1F044
:103BD0008091420390914303A0914403B091450327
:103BE0000197A109B1098093420390934303A093E5
:103BF0004403B093450302C010923903FF91EF9143
:103C0000BF91AF919F918F917F916F915F914F91F4
:103C10003F912F910F900FBE0F901F90189590ED30
:103C2000980F9A3070F09FE9980F963010F499EA47
:103C300005C09FEB980F963018F499EC980F01C0CF
:103C4000982F892F089590ED980F9A3060F09FE992
:103C5000980F963010F4875508959FEB980F963083
:103C600020F487530895892F089580E00895CF9315
:103C7000DF93EA012AE00E941D3BCE01DF91CF9144
:103C80000895EF92FF920F931F93CF93DF938B01D1
:103C9000EC0120E030E08991882361F0209F7001E1
:103CA000219FF00C309FF00C1124B9DF9701280FF1
:103CB000311DF1CFC901DF91CF911F910F91FF907D
:103CC000EF9008955F926F927F928F929F92AF9242
:103CD000BF92CF92DF92EF92FF920F931F93CF93F9
:103CE000DF93CDB7DEB72B970FB6F894DEBF0FBECC
:103CF000CDBF6C01562EFC0101900020E9F73197F1
:103D00007F01E81AF90A5C0120E030E000E010E0F1
:103D1000842E912CC5018C199D098E159F0514F5D3
:103D2000F50181915F01E1E0F0E0EC0FFD1FE20F92
:103D3000F31F851113C010823801FFEF6F1A7F0A3D
:103D4000B401CE0101964B879CDFF801ED5CFD4F7D
:103D50008083830120E030E04B85DCCF80832F5FC0
:103D60003F4FD8CFE1E0F0E0EC0FFD1FE20FF31F73
:103D70001082642F70E0CE01019683DFF801ED5CC4
:103D8000FD4F80832B960FB6F894DEBF0FBECDBFDC
:103D9000DF91CF911F910F91FF90EF90DF90CF9027
:103DA000BF90AF909F908F907F906F905F9008959D
:103DB0000F931F93CF93DF938A01FB0101900020A3
:103DC000E9F73197EF01C61BD70B0E94F13A009734
:103DD00019F41092330223C0BC016C0F7D1F83E3E2
:103DE00092E00E94D13AE3E3F2E001900020E9F78B
:103DF0003197EF01C353D240B80183E392E00E94B0
:103E0000F13AFC0101900020E9F73197E81BF90B2A
:103E1000CE018E1B9F0BFC01ED5CFD4F108283E3F6
:103E200092E0DF91CF911F910F910895CF92DF9291
:103E3000FF920F931F93CF93DF938C01EC01F80156
:103E400080818823D9F08B32A1F0853299F4680102
:103E500082E0C80ED11CF8018181F5DEF82EF80150
:103E60008281F1DEF0E1FF9E90011124822B860118
:103E700001C080E289930F5F1F4FE1CF1882DF916D
:103E8000CF911F910F91FF90DF90CF9008956F9287
:103E90007F928F929F92AF92BF92CF92DF92EF92DA
:103EA000FF920F931F93CF93DF938091390381117A
:103EB00005C186DB91E0811190E0892F85DB80913F
:103EC0004A038823E9F00E94233110924A0348EE06
:103ED00053E060E070E040933E0350933F036093F3
:103EE00040037093410381E08093380340933A0389
:103EF00050933B0360933C0370933D0380933703DF
:103F000084EF91E0A0E0B0E080931501909316015A
:103F1000A0931701B0931801809342039093430339
:103F2000A0934403B093450310E08EE2D82E01E045
:103F300092E0A92E2AEAC22E36E0B32E43E0742E78
:103F40005DE0652E812E912CD89C7001D99CF00CDF
:103F50001124E701C45BDC4F8CA5813109F448C012
:103F6000823121F0803109F0A2C02AC068E075E0FA
:103F700082E095E0EDDB892B09F099C07B8E6091A2
:103F800008057091090580910A0590910B050E9422
:103F9000AC372CEE31E545E053E40E9416376883D8
:103FA00079838A839B83CC826D82D701AE5ABC4FC2
:103FB000E8E2F8E08B2D01900D928A95E1F777C049
:103FC000B701605B7C4FAE018BA50E9470328111FE
:103FD00003C00B8F1DA601C00DA7D89CF001D99C72
:103FE000F00D1124E45BFC4F83A50E9464325FC096
:103FF0008BA50E942E0B8091020199249394910E1F
:1040000081114DC01DA6AB8E6091D9017091DA016E
:1040100080E090E00E94AA3720E030E040E251E4E6
:104020000E941637688379838A839B83CC828AE1D6
:10403000810F8D83D701AE5ABC4FE8E2F8E08B2D9B
:1040400001900D928A95E1F7D99C70011124E70146
:10405000C45BDC4F1DA60B8F6091DB017091DC010E
:10406000072E000C880B990B0E94AC3720E030E043
:1040700040E251E40E941637688379838A839B83E8
:10408000CC82155D1D83D701AE5ABC4FE8E2F8E043
:104090008B2D01900D928A95E1F7192D08C00DA77F
:1040A000192DD99CF0011124E45BFC4F05A71F5F7B
:1040B000153008F447CF81E080933903DF91CF9129
:1040C0001F910F91FF90EF90DF90CF90BF90AF9036
:1040D0009F908F907F906F9008954FE05CE060E03C
:1040E00070E08DE295E00C94A81248ED5BE060E092
:1040F00070E08DE295E00C94A81240EA5BE00C942D
:10410000A812CF92DF92EF92FF920F931F93CF935B
:10411000DF93EC0169010E94A81249E85BE0BC0151
:10412000CE010E94A812A601BC01CE010E94A812D5
:1041300040E85BE0BC01CE010E94A812A801BC01CE
:10414000CE010E94C9124DE75BE0BC01CE010E9486
:10415000A812A701BC01CE01DF91CF911F910F9151
:10416000FF90EF90DF90CF900C94A8124F925F9247
:104170006F927F928F929F92AF92BF92CF92DF9277
:10418000EF92FF920F931F93CF93DF9300D000D055
:1041900000D0CDB7DEB72A013B01922E832E580105
:1041A0002EE2829FC0011124FC01E45BFC4F838D51
:1041B0009E012F5F3F4F6901823021F1B8F48130B9
:1041C00009F04BC02081318142815381C301B2018A
:1041D0000E94B236162FF72EE82E092F67E77BE0F4
:1041E000C6010E94993A60E77BE033C08330F1F06A
:1041F0008A3099F51081F180E28003816CE57BE0E3
:10420000C90128C02081318142815381C301B2019B
:104210000E94B236162FF72EE82E092F6AE67BE0B1
:10422000C6010E94993A68E67BE013C02081318183
:1042300042815381C301B2010E94B236162FF72E7C
:10424000E82E092F62E67BE0C6010E94993A6FE5ED
:104250007BE0C5010E94993A04C010E0F12CE12CEA
:1042600000E00F93EF92FF921F93DF92CF928F9215
:104270009F920E948F3B0FB6F894DEBF0FBECDBF5A
:1042800080E090E026960FB6F894DEBF0FBECDBF5B
:10429000DF91CF911F910F91FF90EF90DF90CF9022
:1042A000BF90AF909F908F907F906F905F904F9056
:1042B00008950F931F93CF93DF93EC010EDF8C01D2
:1042C0006091CE047091CF048091D0049091D1047C
:1042D00047EE54E0CCDC47E15BE0B801CE010E9440
:1042E000A81241E05BE0BC01CE010E94A81247EE9B
:1042F00054E0BC01CE010E94C91247EF5AE0BC0154
:10430000CE010E94A81242EE5AE0BC01CE010E94EA
:10431000A81247EE54E0BC01CE010E94C91248ED3C
:104320005AE0BC01CE010E94A81247EB5AE0BC0142
:10433000CE010E94A81247EE54E0BC01CE010E94BB
:10434000C9124DEA5AE0BC01CE010E94A8124AE906
:104350005AE0BC01CE01DF91CF911F910F910C94D7
:10436000A8128F929F92AF92BF92CF92DF92EF925C
:10437000FF920F931F93CF93DF93EC01AEDEBC014E
:10438000CE01BBDE6C016EE87AE082E195E00E942E
:10439000993A47E75AE0B601CE010E94A8124C01B3
:1043A000809131081F928F93809130081F928F93D4
:1043B00080912F081F928F9380912E081F928F93C8
:1043C00082E1A82E85E0B82EBF92AF9297EEC92E5B
:1043D00094E0D92EDF92CF920E948F3B2DE6E22E01
:1043E0002AE0F22E86012BE63AE045E65AE0B401D7
:1043F000CE0187DE4C0180912D081F928F93809112
:104400002C081F928F9380912B081F928F9380917D
:104410002A081F928F93809129081F928F93809171
:1044200028081F928F9327E43AE03F932F93DF925F
:10443000CF920E94B03B3DE3E32E3AE0F32E2BE314
:104440003AE04AE35AE0B401CE015BDE4C018091D0
:1044500035081F928F93809134081F928F9380911B
:1044600033081F928F93809132081F928F93BF92CF
:10447000AF92DF92CF920E948F3B2DB73EB7285D5F
:104480003F4F0FB6F8943EBF0FBE2DBF40E3E42E62
:104490004AE0F42E2EE23AE04DE25AE0B401CE01B9
:1044A00030DE4C01809139081F928F93809138083B
:1044B0001F928F93809137081F928F9380913608B7
:1044C0001F928F93BF92AF92DF92CF920E948F3B49
:1044D00053E2E52E5AE0F52E21E23AE040E25AE0BE
:1044E000B401CE010EDE4C0180913D081F928F93E6
:1044F00080913C081F928F9380913B081F928F936D
:1045000080913A081F928F93BF92AF92DF92CF9221
:104510000E948F3B6FE1E62E6AE0F62E2DE13AE035
:104520004CE15AE0B401CE01ECDD4BEF59E0BC01A7
:10453000CE010E94A8122DB73EB7285E3F4F0FB69E
:10454000F8943EBF0FBE2DBF20913E082F3F31F49F
:1045500042EF59E0BC01CE010E94A81245EC59E09F
:10456000BC01CE010E94A8126C016091CE04709132
:10457000CF048091D0049091D10447EE54E077DBD2
:1045800047EE54E0B601CE010E94C91242E859E05C
:10459000BC01CE01DF91CF911F910F91FF90EF9061
:1045A000DF90CF90BF90AF909F908F900C94A81207
:1045B0006F927F928F929F92AF92BF92CF92DF9233
:1045C000EF92FF920F931F93CF93DF93EC01162F7F
:1045D00084DD40E759E0BC01CE010E94A81243E50A
:1045E00059E0BC01CE010E94A812C12ED12C2DE4AD
:1045F000129FF0011124EE5CFB4F20812F3F31F41C
:104600004AE459E0BC01CE010E94A81249E259E0F7
:10461000BC01CE010E94A8122DE42C9D50012D9DBD
:10462000B00C112485010B5C1B4F2BE1E22E29E01D
:10463000F22E26E139E045E159E0BC01CE0161DD11
:104640004C01C5018E5C9B4F3C01FC01E55BFF4FBB
:104650006081718180E090E047EE54E008DB34E156
:10466000E32E39E0F32E07EE14E02FE039E042E0CC
:1046700059E0B401CE0145DD8501015B1B4F41EEE0
:10468000E42E48E0F42E2CED38E04FEC58E0BC016D
:10469000CE0137DD5FEAA52E51E0B52E00E010E037
:1046A000EFEF6E1A7E0A40EC58E0BC01CE010E948A
:1046B000A8124C014AE067EE74E0C8010E940B3B6F
:1046C00047EE54E0B401CE010E94C912F3014081CB
:1046D0005181F501228133814217530731F446EBB2
:1046E00058E0BC01CE010E94A81244EB58E0BC0186
:1046F000CE010E94A812F50140815181BC01CE017A
:104700000E94C9124AEA58E0BC01CE010E94A812D8
:104710000F5F1F4FF4E0AF0EB11C0530110519F605
:104720004DE758E0BC01CE010E94A8128C014AE07E
:1047300067EE74E0C6010E940B3B47EE54E0B801FF
:10474000CE010E94C91246E458E0BC01CE010E948D
:10475000A8128C016091CE047091CF048091D00496
:104760009091D10447EE54E082DA47EE54E0B8016C
:10477000CE010E94C91246E358E0BC01CE01DF9190
:10478000CF911F910F91FF90EF90DF90CF90BF904E
:10479000AF909F908F907F906F900C94A812CF93C2
:1047A000DF93EC019ADCBC01CE01A7DC45EC57E0BD
:1047B000BC01CE01DF91CF910C94A8120F931F93EF
:1047C000CF93DF93EC01162F88DCBC01CE0195DC82
:1047D000BC0111111BC04AE357E0CE010E94A81290
:1047E0008C016091CE047091CF048091D00490919F
:1047F000D10447EE54E03BDA47EE54E0B801CE0175
:104800000E94C91240E357E0BC0102C047E257E0F2
:10481000CE01DF91CF911F910F910C94A812CF93ED
:10482000DF93EC015ADCBC01CE0167DC49E057E0C4
:10483000BC01CE01DF91CF910C94A8120F931F936E
:10484000CF93DF93EC0149DC43EE56E0BC01CE018F
:104850000E94A8128C016091CE047091CF048091C7
:10486000D0049091D10447EE54E001DA47EE54E0D1
:10487000B801CE010E94C91247ED56E0BC01CE013D
:10488000DF91CF911F910F910C94A8126F927F929C
:104890008F929F92BF92CF92DF92EF92FF920F93EF
:1048A0001F93CF93DF93EC01B62E142F16DCBC01BF
:1048B000CE0123DC40ED56E0BC01CE010E94A812DF
:1048C000113031F442E856E0BC01CE010E94A8123A
:1048D00040E756E0BC01CE010E94A81248E656E02F
:1048E000BC01CE010E94A8126C018B2C912C2EE2EF
:1048F000B29E80011124045B1C4FF80183851F9236
:104900008F9382851F928F9381851F928F938085CD
:104910001F928F9387811F928F9386811F928F930F
:1049200085811F928F9384811F928F9327E436E0B5
:104930003F932F9327EE34E03F932F930E94B03B99
:1049400047EE54E0B601CE010E94C91242E256E0A1
:10495000BC01CE010E94A8122DB73EB72C5E3F4F7E
:104960000FB6F8943EBF0FBE2DBFF80121A12F3F17
:1049700031F449E156E0BC01CE010E94A8122EE2BA
:10498000289D6001299DD00C11248601085A1C4FD6
:104990002BE0E22E26E0F22E28E036E045EE55E050
:1049A000BC01CE01AEDB3C019601245B3C4F6901AA
:1049B000F9017D9683818F9382818F9381818F937B
:1049C000F901858D8F938FED95E09F938F9387EEFF
:1049D00094E09F938F930E94B03B39ECE32E35E037
:1049E000F32E07EE14E026EC35E047EB55E0B3017B
:1049F000CE0187DB3C0102E115E027EE34E040E028
:104A000050E0BA018B2DB2DB47EE54E0B301CE018A
:104A10000E94C912A801BC01CE010E94C91244EA39
:104A200055E0BC01CE010E94A8123C01F601458D63
:104A3000568D678D70A127EE34E08B2D97DB47EE06
:104A400054E0B301CE010E94C912A801BC01CE01FD
:104A50000E94C91241E855E0BC01CE010E94A81293
:104A60008C014AE067EE74E0C4010E940B3B47EE04
:104A700054E0B801CE010E94C9124DE555E0BC01D9
:104A8000CE010E94A8128C016091CE047091CF04D7
:104A90008091D0049091D10447EE54E0E8D847EEDD
:104AA00054E0B801CE010E94C9122DB73EB7285F6D
:104AB0003F4F0FB6F8943EBF0FBE2DBF4DE255E0FD
:104AC000BC01CE01DF91CF911F910F91FF90EF902C
:104AD000DF90CF90BF909F908F907F906F900C94BD
:104AE000A812CF92DF92EF92FF920F931F93CF9372
:104AF000DF93EC016B017A0189016091CE04709122
:104B0000CF048091D0049091D10447EE54E0AFD807
:104B100043E255E0B601CE010E94A812A701BC01F4
:104B2000CE010E94A8124EE155E0BC01CE010E94C8
:104B3000A81247EE54E0BC01CE010E94C91242E126
:104B400055E0BC01CE010E94A812A801BC01CE0113
:104B50000E94A81249E055E0BC01CE01DF91CF913F
:104B60001F910F91FF90EF90DF90CF900C94A812BF
:104B70000F931F93CF93DF93EC01AFDABC01CE010B
:104B8000BCDA8C016091CE047091CF048091D00486
:104B90009091D10447EE54E06AD822E035E04EEF20
:104BA00054E0B801CE019DDF25EF34E041EF54E041
:104BB000BC01CE0196DF28EE34E042EE54E0BC01A9
:104BC000CE018FDF29ED34E043ED54E0BC01CE018E
:104BD00088DF2CEC34E047EC54E0BC01CE0181DFEF
:104BE00022EC34E04EEB54E0BC01CE01DF91CF91DA
:104BF0001F910F9176CFCF92DF92EF92FF920F939A
:104C00001F93CF93DF93EC0168DABC01CE0175DA14
:104C100045E954E0BC01CE010E94A81200E010E07A
:104C2000E12CF12CF801E45BFC4F24A5222309F4CC
:104C30003FC043E854E0BC01CE010E94A8126C01C1
:104C40004AE067EE74E0C7010E940B3B47EE54E078
:104C5000B601CE010E94C9124DE754E0BC01CE015D
:104C60000E94A8126C016091CE047091CF048091D3
:104C7000D0049091D10447EE54E00E94371E47EED5
:104C800054E0B601CE010E94C91241E754E0BC01D4
:104C9000CE010E94A812A801485A5C4FBC01CE0167
:104CA0000E94C91248E654E0BC01CE010E94A8123D
:104CB0002FEFE21AF20A025D1F4F063E110509F0BE
:104CC000B1CFDF91CF911F910F91FF90EF90DF90C7
:104CD000CF9008952F923F924F925F926F927F9262
:104CE0008F929F92AF92BF92CF92DF92EF92FF92FC
:104CF0000F931F93CF93DF9300D000D0CDB7DEB7D3
:104D00001C01EBD9BC01C101F8D94CEE53E0BC0148
:104D1000C1010E94A812BC0189E7E82E83E0F82EA9
:104D2000D12CF7013C9780818F3F09F055C03B960D
:104D30008081882309F450C0F7018081882331F0F5
:104D400048EE53E0C1010E94A812BC018701015244
:104D50001109A801C1010E94C9125C01F80101906A
:104D60000020E9F731979F01201B310B89010F309B
:104D7000110550F446EE53E0B501C1010E94A8129E
:104D80005C010F5F1F4FF3CFF70170974081518196
:104D90006281738102E115E027EE34E08D2DE6D9C2
:104DA00047EE54E0B501C1010E94C912A801BC013F
:104DB000C1010E94C912F7012081222331F041EE86
:104DC00053E0BC01C1010E94A8124EED53E0BC01AA
:104DD000C1010E94A812BC01D394FEE2EF0EF11CA7
:104DE00025E0D2129ECF4FE953E0C1010E94A812E4
:104DF00046E953E0BC01C1010E94A8128C016091F8
:104E0000460370914703809148039091490324E63B
:104E100030E040E050E00E94FD38CA01B9010E9434
:104E2000AA370E94E7370E947E376B017C0120E899
:104E300031E541E050E00E94FD38CA01B9010E940D
:104E4000AA370E94E7370E947E372B013C019B0165
:104E5000AC0160E871E581E090E00E94EE38C61A8E
:104E6000D70AE80AF90AC701B60120E13EE040E0AE
:104E700050E00E94FD38CA01B9010E94AA370E9481
:104E8000E7370E947E374B015C01A0E1BEE09B0149
:104E9000AC010E944A39A7019601261B370B480B2B
:104EA000590B29833A834B835C83CA01B9012CE3F4
:104EB00030E040E050E00E94FD38CA01B9010E9494
:104EC000AA370E94E7370E947E376B017C01ACE372
:104ED000B0E09B01AC010E944A3929813A814B81A3
:104EE0005C81261B370B480B590B29833A834B8374
:104EF0005C8347EE54E0C301B2010E94371E47EEC7
:104F000054E0B801C1010E94C9124FE853E0BC014E
:104F1000C1010E94A8128C0147EE54E0C501B40102
:104F20000E94371E47EE54E0B801C1010E94C91229
:104F30004DE853E0BC01C1010E94A8128C0147EE6C
:104F400054E0C701B6010E94371E47EE54E0B80195
:104F5000C1010E94C9124BE853E0BC01C1010E948B
:104F6000A8128C0147EE54E069817A818B819C8183
:104F70000E94371E47EE54E0B801C1010E94C912D9
:104F80004CE753E0BC01C1010F900F900F900F90C0
:104F9000DF91CF911F910F91FF90EF90DF90CF9015
:104FA000BF90AF909F908F907F906F905F904F9049
:104FB0003F902F900C94A8124F925F926F927F9225
:104FC0008F929F92AF92BF92CF92DF92EF92FF9219
:104FD0000F931F93CF93DF936DE275E080E091E034
:104FE0000E9438107C0110921B0880913E088F3F70
:104FF00031F4B7018DE295E00E94500A7C010E94D5
:10500000EA0FB7018DE295E00E94AF16909332024D
:1050100080933102892BC9F48091240281110AC046
:105020004DE65AE161E086E398E00E94901581E048
:10503000809324020E948915811107C08091240267
:10504000813019F482E08093240280913803882310
:1050500021F0809137038111D6C1809138038111ED
:1050600017C0809132048F3FA9F080911101909177
:105070001201A0911301B091140180933E0390930B
:105080003F03A0934003B093410381E08093380332
:1050900080E001C081E09091370391111AC0909196
:1050A0007F049F3FD9F040910D0150910E01609116
:1050B0000F017091100140933A0350933B036093AA
:1050C0003C0370933D0391E09093370377247394EE
:1050D00001C0712C813009F096C102C0772473940D
:1050E000E114F10409F08FC1C72CD12C2DE42C9DC3
:1050F000C0012D9D900D1124EC01CB5CDB4FFE0116
:1051000001900020E9F73197EC1BFD0B40E050E0E7
:105110009C012E5C3B4F852F90E08E179F0750F42B
:10512000D901A80FB91F13968C918E3209F44F5FE5
:105130005F5FF1CF433008F044C0809125028111B8
:1051400026C080912402823079F50E94F60F8823D0
:1051500011F40C940C311092220281E0809325020C
:105160004AE252E0BE018DE295E0DF91CF911F91BE
:105170000F91FF90EF90DF90CF90BF90AF909F90F6
:105180008F907F906F905F904F900C94AF0B813019
:1051900059F40E94A10B882339F082E08093250204
:1051A00086E292E00E94A40B80912502823071F089
:1051B000809122028D3310F40C940C311092250250
:1051C0001CC1BE0186E292E00E94791A80913002F1
:1051D000813009F001C182E08093300268E773E01A
:1051E00083E392E00E94993A80912D081F928F9359
:1051F00080912C081F928F9380912B081F928F9380
:1052000080912A081F928F93809129081F928F9373
:10521000809128081F928F938FE593E09F938F933F
:1052200087EE94E09F938F930E94B03B67EE74E00B
:1052300083E392E00E94C63AF9E78F2EF3E09F2EB7
:105240002DB73EB7205F3F4F0FB6F8943EBF0FBE5D
:105250002DBF612CADE34A2EA3E05A2EB7EEEB2E04
:10526000B4E0FB2E19E3A12E13E0B12EF4013C971C
:1052700080818F3F09F05AC03B968081882309F4D2
:1052800055C0F4018081813009F450C0B29780810B
:105290001F928F93319780811F928F9331978081D6
:1052A0001F928F93319780811F928F9331978081C6
:1052B0001F928F93319780811F928F9331978081B6
:1052C0001F928F93319780811F928F935F924F929D
:1052D000FF92EF920E94B03B67EE74E083E392E0AE
:1052E0000E94C63AF40170974081518162817381B6
:1052F00002E115E027EE34E0862D0E94B620FF92F1
:10530000EF92BF92AF92C8019F930F930E94B03B60
:10531000B80183E392E00E94C63A2DB73EB7265EFD
:105320003F4F0FB6F8943EBF0FBE2DBF63943EE2D1
:10533000830E911C85E0681299CF2DE42C9DC0014D
:105340002D9D900D1124FC01E358FB4F808091802E
:105350006AE2A62E62E0B62E76E2C72E72E0D72E63
:10536000EDE5EE2EEAE1FE2E03E312E020E030E070
:10537000AE016CE371E0815B9B4F0E945616109268
:105380002202711014C08091110190911201A0911C
:105390001301B091140180933E0390933F03A093B7
:1053A0004003B093410381E08093380313C08091A0
:1053B0000D0190910E01A0910F01B0911001809309
:1053C0003A0390933B03A0933C03B0933D0381E0E9
:1053D000809337031092250280913002833029F0A8
:1053E00080912202883008F417C781E08093300250
:1053F00080912202883008F40FC780914A038F5FA2
:1054000080934A0309C7C0913102D091320220979C
:1054100009F029C1B7018DE295E00E94330C80911B
:105420004405813109F0F8C680915105853009F0B5
:10543000F3C680915205843A09F0EEC644E050E08C
:1054400064E373E087E595E00E94A03A44E050E011
:10545000892B09F068C06FE273E083E392E00E9459
:10546000903A8091360890913708A0913808B09111
:1054700039088093370290933802A0933902B09391
:105480003A028091320890913308A0913408B0918B
:10549000350880933B0290933C02A0933D02B09369
:1054A0003E0280912E0890912F08A0913008B09173
:1054B000310880933F0290934002A0934102B09341
:1054C000420286E0E8E2F8E0A3E4B2E001900D9247
:1054D0008A95E1F780913A0890913B08A0913C08A9
:1054E000B0913D088093490290934A02A0934B02E9
:1054F000B0934C022CEF30E24AE163E372E08DE2BC
:1055000095E0DF91CF911F910F91FF90EF90DF9089
:10551000CF90BF90AF909F908F907F906F905F9053
:105520004F900C9422146AE273E087E595E00E94A4
:10553000A03A892B09F066C046E050E068E278E0C6
:1055400087E695E00E94B93AEC01892B09F064C620
:1055500044E050E065E273E083E392E00E94903A19
:105560002CEF30E244E063E372E08DE295E00E94CC
:10557000221480915B0590915C05A0915D05B0912E
:105580005E058093360890933708A0933808B0934F
:10559000390880915F0590916005A0916105B091F7
:1055A00062058093320890933308A0933408B09337
:1055B00035088091630590916405A0916505B091CF
:1055C000660580932E0890932F08A0933008B0931F
:1055D000310880916D0590916E05A0916F05B09195
:1055E000700580933A0890933B08A0933C08B093D1
:1055F0003D084DE150E060E070E082E298E00E94FA
:10560000153E19C044E050E060E273E087E595E0A4
:105610000E94A03A892B09F0FFC546E050E068E2FD
:1056200078E087E695E00E94B93AEC01892B09F011
:10563000F3C581E043D695B7916095BF95B79D7F3F
:1056400095BFFE01DF91CF911F910F91FF90EF90D9
:10565000DF90CF90BF90AF909F908F907F906F9092
:105660005F904F900994C35DDA4F45E050E06AE1E6
:1056700073E0CE010E94A03A892B09F0CDC5D093EA
:105680002C05C0932B054FE251E065E371E0CE019C
:105690000E94D81EBC0180912B0590912C050E9480
:1056A000D13AC0912B05D0912C058881811104C07D
:1056B0008DE295E00FDBA2C542E050E067E173E0C8
:1056C000CE010E94A03A892BE9F54BE351E06DE34E
:1056D00071E0CE010E94D81EBC0183E392E00E94DB
:1056E000D13AE3E3F2E001900020E9F73197E35388
:1056F000F240349718F166ED74E083E392E00E9483
:10570000F13A892BD9F0209146033091470340911B
:105710004803509149036DE67DED81E090E00E94E1
:10572000EE386093CE047093CF048093D0049093AE
:10573000D1048DE295E00E94592160C58DE295E08B
:105740002ED85CC544E050E062E173E0CE010E94D7
:10575000A03A892B51F044E050E06DE073E0CE01B7
:105760000E94A03A892B09F046C144E050E068E06D
:1057700073E0CE010E94A03A892B11F410923903F4
:1057800044ED52E060E070E08DE295E00E94A812E6
:10579000909332028093310245EC52E0BC018DE2DD
:1057A00095E00E94A812909332028093310280E02B
:1057B00090E0C12CFC01E45BFC4F21A12F3F19F4C8
:1057C00024A52111C3948E96863E910599F7C9E7C9
:1057D000D3E0EE24E394F12C4AE9A42E42E0B42E67
:1057E00057EE852E54E0952ED12C77247A947E0C9A
:1057F000FE013C9780818F3F09F0E9C03B96808194
:10580000882309F4E4C060913102709132024CEBBC
:1058100052E08DE295E00E94A812909332028093AC
:105820003102FE01B29780811F928F933197808160
:105830001F928F93319780811F928F933197808130
:105840001F928F93319780811F928F933197808120
:105850001F928F93319780811F928F933197808110
:105860001F928F93BF92AF929F928F920E94B03BF4
:10587000609131027091320247EE54E08DE295E082
:105880000E94C912909332028093310240E952E0A3
:10589000BC018DE295E00E94A812909332028093A1
:1058A0003102FE01729780814AE067EE74E090E079
:1058B0000E940B3B609131027091320247EE54E03E
:1058C0008DE295E00E94C9129093320280933102DA
:1058D00046E852E0BC018DE295E00E94A812BC01AE
:1058E0009093320280933102AE01415251098DE210
:1058F00095E00E94C912BC0190933202809331025C
:105900004CE752E08DE295E00E94A812909332029B
:1059100080933102FE0170974081518162817381D1
:1059200002E115E027EE34E0872D0E94B620609159
:1059300031027091320247EE54E08DE295E00E9410
:10594000C912909332028093310242E752E0BC01C7
:105950008DE295E00E94A81290933202809331026A
:1059600088814AE067EE74E090E00E940B3B609112
:1059700031027091320247EE54E08DE295E00E94D0
:10598000C91290933202809331024DE652E0BC017D
:105990008DE295E00E94A81290933202809331022A
:1059A0002DB73EB72C5E3F4F0FB6F8943EBF0FBEEB
:1059B0002DBFEC14FD045CF449E652E0BC018DE21D
:1059C00095E00E94A8129093320280933102AE9625
:1059D0003FEFE31AF30A86E0E816F10409F005CF79
:1059E000609131027091320246E652E08DE295E01C
:1059F0000E94A81203C44BE050E06AE572E0CE01B9
:105A00000E94A03A892B09F4F7C34BE351E061E40B
:105A100071E0CE010E94D81EBC0187EE94E00E9486
:105A2000D13A6091CE047091CF048091D0049091CE
:105A3000D10442E155E00E94371E62E175E087EE35
:105A400094E00E94F13A892B09F4D6C38091CE04E8
:105A50009091CF04A091D004B091D104892B8A2BCE
:105A60008B2B09F4C9C3C0912B05D0912C0544E0C0
:105A700050E065E572E0CE010E94A03A892B21F446
:105A80008DE295E075D8BAC343E050E061E572E07D
:105A9000CE010E94A03A892B21F48DE295E0ABD88B
:105AA000ADC344E050E06CE472E0CE010E94A03A45
:105AB000892B29F48DE295E00E940F249FC343E0D7
:105AC00050E068E472E0CE010E94A03A892BD1F543
:105AD0004BE351E066E471E0CE010E94D81EBC01A8
